{
	"tokenDeployer.sol": {
		"TokenDeployer": {
			"abi": [
				{
					"inputs": [
						{
							"internalType": "address",
							"name": "_initialTemplate",
							"type": "address"
						}
					],
					"stateMutability": "nonpayable",
					"type": "constructor"
				},
				{
					"inputs": [
						{
							"internalType": "address",
							"name": "owner",
							"type": "address"
						}
					],
					"name": "OwnableInvalidOwner",
					"type": "error"
				},
				{
					"inputs": [
						{
							"internalType": "address",
							"name": "account",
							"type": "address"
						}
					],
					"name": "OwnableUnauthorizedAccount",
					"type": "error"
				},
				{
					"anonymous": false,
					"inputs": [
						{
							"indexed": true,
							"internalType": "address",
							"name": "previousOwner",
							"type": "address"
						},
						{
							"indexed": true,
							"internalType": "address",
							"name": "newOwner",
							"type": "address"
						}
					],
					"name": "OwnershipTransferred",
					"type": "event"
				},
				{
					"anonymous": false,
					"inputs": [
						{
							"indexed": true,
							"internalType": "address",
							"name": "proxyAddress",
							"type": "address"
						},
						{
							"indexed": false,
							"internalType": "string",
							"name": "name",
							"type": "string"
						},
						{
							"indexed": false,
							"internalType": "string",
							"name": "symbol",
							"type": "string"
						}
					],
					"name": "tokenDeployed",
					"type": "event"
				},
				{
					"inputs": [
						{
							"internalType": "string",
							"name": "_name",
							"type": "string"
						},
						{
							"internalType": "string",
							"name": "_symbol",
							"type": "string"
						},
						{
							"internalType": "address",
							"name": "_initialOwner",
							"type": "address"
						}
					],
					"name": "deployNewToken",
					"outputs": [
						{
							"internalType": "address",
							"name": "",
							"type": "address"
						}
					],
					"stateMutability": "nonpayable",
					"type": "function"
				},
				{
					"inputs": [],
					"name": "owner",
					"outputs": [
						{
							"internalType": "address",
							"name": "",
							"type": "address"
						}
					],
					"stateMutability": "view",
					"type": "function"
				},
				{
					"inputs": [],
					"name": "renounceOwnership",
					"outputs": [],
					"stateMutability": "nonpayable",
					"type": "function"
				},
				{
					"inputs": [],
					"name": "templateAddress",
					"outputs": [
						{
							"internalType": "address",
							"name": "",
							"type": "address"
						}
					],
					"stateMutability": "view",
					"type": "function"
				},
				{
					"inputs": [
						{
							"internalType": "address",
							"name": "newOwner",
							"type": "address"
						}
					],
					"name": "transferOwnership",
					"outputs": [],
					"stateMutability": "nonpayable",
					"type": "function"
				},
				{
					"inputs": [
						{
							"internalType": "address",
							"name": "_newTemplate",
							"type": "address"
						}
					],
					"name": "updateTemplate",
					"outputs": [],
					"stateMutability": "nonpayable",
					"type": "function"
				}
			],
			"devdoc": {
				"errors": {
					"OwnableInvalidOwner(address)": [
						{
							"details": "The owner is not a valid owner account. (eg. `address(0)`)"
						}
					],
					"OwnableUnauthorizedAccount(address)": [
						{
							"details": "The caller account is not authorized to perform an operation."
						}
					]
				},
				"kind": "dev",
				"methods": {
					"deployNewToken(string,string,address)": {
						"details": "The main \"Provisioning\" command. This creates the proxy (writable / public) and initializes it in one atomic step."
					},
					"owner()": {
						"details": "Returns the address of the current owner."
					},
					"renounceOwnership()": {
						"details": "Leaves the contract without owner. It will not be possible to call `onlyOwner` functions. Can only be called by the current owner. NOTE: Renouncing ownership will leave the contract without an owner, thereby disabling any functionality that is only available to the owner."
					},
					"transferOwnership(address)": {
						"details": "Transfers ownership of the contract to a new account (`newOwner`). Can only be called by the current owner."
					},
					"updateTemplate(address)": {
						"details": "Sets a new \"Gold Image\" if you ever upgrade the masterTemplate logic."
					}
				},
				"version": 1
			},
			"evm": {
				"assembly": "    /* \"tokenDeployer.sol\":177:1864  contract TokenDeployer is Ownable {... */\n  mstore(0x40, 0x80)\n    /* \"tokenDeployer.sol\":419:528  constructor(address _initialTemplate) Ownable(msg.sender) {... */\n  callvalue\n  dup1\n  iszero\n  tag_1\n  jumpi\n  revert(0x00, 0x00)\ntag_1:\n  pop\n  mload(0x40)\n  sub(codesize, bytecodeSize)\n  dup1\n  bytecodeSize\n  dup4\n  codecopy\n  dup2\n  dup2\n  add\n  0x40\n  mstore\n  dup2\n  add\n  swap1\n  tag_2\n  swap2\n  swap1\n  tag_3\n  jump\t// in\ntag_2:\n    /* \"tokenDeployer.sol\":465:475  msg.sender */\n  caller\n    /* \"@openzeppelin/contracts/access/Ownable.sol\":1297:1298  0 */\n  0x00\n    /* \"@openzeppelin/contracts/access/Ownable.sol\":1273:1299  initialOwner == address(0) */\n  0xffffffffffffffffffffffffffffffffffffffff\n  and\n    /* \"@openzeppelin/contracts/access/Ownable.sol\":1273:1285  initialOwner */\n  dup2\n    /* \"@openzeppelin/contracts/access/Ownable.sol\":1273:1299  initialOwner == address(0) */\n  0xffffffffffffffffffffffffffffffffffffffff\n  and\n  sub\n    /* \"@openzeppelin/contracts/access/Ownable.sol\":1269:1364  if (initialOwner == address(0)) {... */\n  tag_7\n  jumpi\n    /* \"@openzeppelin/contracts/access/Ownable.sol\":1350:1351  0 */\n  0x00\n    /* \"@openzeppelin/contracts/access/Ownable.sol\":1322:1353  OwnableInvalidOwner(address(0)) */\n  mload(0x40)\n  0x1e4fbdf700000000000000000000000000000000000000000000000000000000\n  dup2\n  mstore\n  0x04\n  add\n  tag_8\n  swap2\n  swap1\n  tag_9\n  jump\t// in\ntag_8:\n  mload(0x40)\n  dup1\n  swap2\n  sub\n  swap1\n  revert\n    /* \"@openzeppelin/contracts/access/Ownable.sol\":1269:1364  if (initialOwner == address(0)) {... */\ntag_7:\n    /* \"@openzeppelin/contracts/access/Ownable.sol\":1373:1405  _transferOwnership(initialOwner) */\n  tag_10\n    /* \"@openzeppelin/contracts/access/Ownable.sol\":1392:1404  initialOwner */\n  dup2\n    /* \"@openzeppelin/contracts/access/Ownable.sol\":1373:1391  _transferOwnership */\n  shl(0x20, tag_11)\n    /* \"@openzeppelin/contracts/access/Ownable.sol\":1373:1405  _transferOwnership(initialOwner) */\n  0x20\n  shr\n  jump\t// in\ntag_10:\n    /* \"@openzeppelin/contracts/access/Ownable.sol\":1225:1412  constructor(address initialOwner) {... */\n  pop\n    /* \"tokenDeployer.sol\":505:521  _initialTemplate */\n  dup1\n    /* \"tokenDeployer.sol\":487:502  templateAddress */\n  0x01\n  0x00\n    /* \"tokenDeployer.sol\":487:521  templateAddress = _initialTemplate */\n  0x0100\n  exp\n  dup2\n  sload\n  dup2\n  0xffffffffffffffffffffffffffffffffffffffff\n  mul\n  not\n  and\n  swap1\n  dup4\n  0xffffffffffffffffffffffffffffffffffffffff\n  and\n  mul\n  or\n  swap1\n  sstore\n  pop\n    /* \"tokenDeployer.sol\":419:528  constructor(address _initialTemplate) Ownable(msg.sender) {... */\n  pop\n    /* \"tokenDeployer.sol\":177:1864  contract TokenDeployer is Ownable {... */\n  jump(tag_13)\n    /* \"@openzeppelin/contracts/access/Ownable.sol\":2912:3099  function _transferOwnership(address newOwner) internal virtual {... */\ntag_11:\n    /* \"@openzeppelin/contracts/access/Ownable.sol\":2985:3001  address oldOwner */\n  0x00\n    /* \"@openzeppelin/contracts/access/Ownable.sol\":3004:3010  _owner */\n  0x00\n  0x00\n  swap1\n  sload\n  swap1\n  0x0100\n  exp\n  swap1\n  div\n  0xffffffffffffffffffffffffffffffffffffffff\n  and\n    /* \"@openzeppelin/contracts/access/Ownable.sol\":2985:3010  address oldOwner = _owner */\n  swap1\n  pop\n    /* \"@openzeppelin/contracts/access/Ownable.sol\":3029:3037  newOwner */\n  dup2\n    /* \"@openzeppelin/contracts/access/Ownable.sol\":3020:3026  _owner */\n  0x00\n  0x00\n    /* \"@openzeppelin/contracts/access/Ownable.sol\":3020:3037  _owner = newOwner */\n  0x0100\n  exp\n  dup2\n  sload\n  dup2\n  0xffffffffffffffffffffffffffffffffffffffff\n  mul\n  not\n  and\n  swap1\n  dup4\n  0xffffffffffffffffffffffffffffffffffffffff\n  and\n  mul\n  or\n  swap1\n  sstore\n  pop\n    /* \"@openzeppelin/contracts/access/Ownable.sol\":3083:3091  newOwner */\n  dup2\n    /* \"@openzeppelin/contracts/access/Ownable.sol\":3052:3092  OwnershipTransferred(oldOwner, newOwner) */\n  0xffffffffffffffffffffffffffffffffffffffff\n  and\n    /* \"@openzeppelin/contracts/access/Ownable.sol\":3073:3081  oldOwner */\n  dup2\n    /* \"@openzeppelin/contracts/access/Ownable.sol\":3052:3092  OwnershipTransferred(oldOwner, newOwner) */\n  0xffffffffffffffffffffffffffffffffffffffff\n  and\n  0x8be0079c531659141344cd1fd0a4f28419497f9722a3daafe3b4186f6b6457e0\n  mload(0x40)\n  mload(0x40)\n  dup1\n  swap2\n  sub\n  swap1\n  log3\n    /* \"@openzeppelin/contracts/access/Ownable.sol\":2975:3099  {... */\n  pop\n    /* \"@openzeppelin/contracts/access/Ownable.sol\":2912:3099  function _transferOwnership(address newOwner) internal virtual {... */\n  pop\n  jump\t// out\n    /* \"#utility.yul\":88:205   */\ntag_16:\n    /* \"#utility.yul\":197:198   */\n  0x00\n    /* \"#utility.yul\":194:195   */\n  0x00\n    /* \"#utility.yul\":187:199   */\n  revert\n    /* \"#utility.yul\":334:460   */\ntag_18:\n    /* \"#utility.yul\":371:378   */\n  0x00\n    /* \"#utility.yul\":411:453   */\n  0xffffffffffffffffffffffffffffffffffffffff\n    /* \"#utility.yul\":404:409   */\n  dup3\n    /* \"#utility.yul\":400:454   */\n  and\n    /* \"#utility.yul\":389:454   */\n  swap1\n  pop\n    /* \"#utility.yul\":334:460   */\n  swap2\n  swap1\n  pop\n  jump\t// out\n    /* \"#utility.yul\":466:562   */\ntag_19:\n    /* \"#utility.yul\":503:510   */\n  0x00\n    /* \"#utility.yul\":532:556   */\n  tag_29\n    /* \"#utility.yul\":550:555   */\n  dup3\n    /* \"#utility.yul\":532:556   */\n  tag_18\n  jump\t// in\ntag_29:\n    /* \"#utility.yul\":521:556   */\n  swap1\n  pop\n    /* \"#utility.yul\":466:562   */\n  swap2\n  swap1\n  pop\n  jump\t// out\n    /* \"#utility.yul\":568:690   */\ntag_20:\n    /* \"#utility.yul\":641:665   */\n  tag_31\n    /* \"#utility.yul\":659:664   */\n  dup2\n    /* \"#utility.yul\":641:665   */\n  tag_19\n  jump\t// in\ntag_31:\n    /* \"#utility.yul\":634:639   */\n  dup2\n    /* \"#utility.yul\":631:666   */\n  eq\n    /* \"#utility.yul\":621:684   */\n  tag_32\n  jumpi\n    /* \"#utility.yul\":680:681   */\n  0x00\n    /* \"#utility.yul\":677:678   */\n  0x00\n    /* \"#utility.yul\":670:682   */\n  revert\n    /* \"#utility.yul\":621:684   */\ntag_32:\n    /* \"#utility.yul\":568:690   */\n  pop\n  jump\t// out\n    /* \"#utility.yul\":696:839   */\ntag_21:\n    /* \"#utility.yul\":753:758   */\n  0x00\n    /* \"#utility.yul\":784:790   */\n  dup2\n    /* \"#utility.yul\":778:791   */\n  mload\n    /* \"#utility.yul\":769:791   */\n  swap1\n  pop\n    /* \"#utility.yul\":800:833   */\n  tag_34\n    /* \"#utility.yul\":827:832   */\n  dup2\n    /* \"#utility.yul\":800:833   */\n  tag_20\n  jump\t// in\ntag_34:\n    /* \"#utility.yul\":696:839   */\n  swap3\n  swap2\n  pop\n  pop\n  jump\t// out\n    /* \"#utility.yul\":845:1196   */\ntag_3:\n    /* \"#utility.yul\":915:921   */\n  0x00\n    /* \"#utility.yul\":964:966   */\n  0x20\n    /* \"#utility.yul\":952:961   */\n  dup3\n    /* \"#utility.yul\":943:950   */\n  dup5\n    /* \"#utility.yul\":939:962   */\n  sub\n    /* \"#utility.yul\":935:967   */\n  slt\n    /* \"#utility.yul\":932:1051   */\n  iszero\n  tag_36\n  jumpi\n    /* \"#utility.yul\":970:1049   */\n  tag_37\n  tag_16\n  jump\t// in\ntag_37:\n    /* \"#utility.yul\":932:1051   */\ntag_36:\n    /* \"#utility.yul\":1090:1091   */\n  0x00\n    /* \"#utility.yul\":1115:1179   */\n  tag_38\n    /* \"#utility.yul\":1171:1178   */\n  dup5\n    /* \"#utility.yul\":1162:1168   */\n  dup3\n    /* \"#utility.yul\":1151:1160   */\n  dup6\n    /* \"#utility.yul\":1147:1169   */\n  add\n    /* \"#utility.yul\":1115:1179   */\n  tag_21\n  jump\t// in\ntag_38:\n    /* \"#utility.yul\":1105:1179   */\n  swap2\n  pop\n    /* \"#utility.yul\":1061:1189   */\n  pop\n    /* \"#utility.yul\":845:1196   */\n  swap3\n  swap2\n  pop\n  pop\n  jump\t// out\n    /* \"#utility.yul\":1202:1320   */\ntag_22:\n    /* \"#utility.yul\":1289:1313   */\n  tag_40\n    /* \"#utility.yul\":1307:1312   */\n  dup2\n    /* \"#utility.yul\":1289:1313   */\n  tag_19\n  jump\t// in\ntag_40:\n    /* \"#utility.yul\":1284:1287   */\n  dup3\n    /* \"#utility.yul\":1277:1314   */\n  mstore\n    /* \"#utility.yul\":1202:1320   */\n  pop\n  pop\n  jump\t// out\n    /* \"#utility.yul\":1326:1548   */\ntag_9:\n    /* \"#utility.yul\":1419:1423   */\n  0x00\n    /* \"#utility.yul\":1457:1459   */\n  0x20\n    /* \"#utility.yul\":1446:1455   */\n  dup3\n    /* \"#utility.yul\":1442:1460   */\n  add\n    /* \"#utility.yul\":1434:1460   */\n  swap1\n  pop\n    /* \"#utility.yul\":1470:1541   */\n  tag_42\n    /* \"#utility.yul\":1538:1539   */\n  0x00\n    /* \"#utility.yul\":1527:1536   */\n  dup4\n    /* \"#utility.yul\":1523:1540   */\n  add\n    /* \"#utility.yul\":1514:1520   */\n  dup5\n    /* \"#utility.yul\":1470:1541   */\n  tag_22\n  jump\t// in\ntag_42:\n    /* \"#utility.yul\":1326:1548   */\n  swap3\n  swap2\n  pop\n  pop\n  jump\t// out\n    /* \"tokenDeployer.sol\":177:1864  contract TokenDeployer is Ownable {... */\ntag_13:\n  dataSize(sub_0)\n  dup1\n  dataOffset(sub_0)\n  0x00\n  codecopy\n  0x00\n  return\nstop\n\nsub_0: assembly {\n        /* \"tokenDeployer.sol\":177:1864  contract TokenDeployer is Ownable {... */\n      mstore(0x40, 0x80)\n      callvalue\n      dup1\n      iszero\n      tag_1\n      jumpi\n      revert(0x00, 0x00)\n    tag_1:\n      pop\n      jumpi(tag_2, lt(calldatasize, 0x04))\n      shr(0xe0, calldataload(0x00))\n      dup1\n      0x0c5a6f2f\n      eq\n      tag_3\n      jumpi\n      dup1\n      0x715018a6\n      eq\n      tag_4\n      jumpi\n      dup1\n      0x8da5cb5b\n      eq\n      tag_5\n      jumpi\n      dup1\n      0xb8d26dd4\n      eq\n      tag_6\n      jumpi\n      dup1\n      0xf2fde38b\n      eq\n      tag_7\n      jumpi\n      dup1\n      0xfbc1f718\n      eq\n      tag_8\n      jumpi\n    tag_2:\n      revert(0x00, 0x00)\n        /* \"tokenDeployer.sol\":261:291  address public templateAddress */\n    tag_3:\n      tag_9\n      tag_10\n      jump\t// in\n    tag_9:\n      mload(0x40)\n      tag_11\n      swap2\n      swap1\n      tag_12\n      jump\t// in\n    tag_11:\n      mload(0x40)\n      dup1\n      swap2\n      sub\n      swap1\n      return\n        /* \"@openzeppelin/contracts/access/Ownable.sol\":2293:2394  function renounceOwnership() public virtual onlyOwner {... */\n    tag_4:\n      tag_13\n      tag_14\n      jump\t// in\n    tag_13:\n      stop\n        /* \"@openzeppelin/contracts/access/Ownable.sol\":1638:1723  function owner() public view virtual returns (address) {... */\n    tag_5:\n      tag_15\n      tag_16\n      jump\t// in\n    tag_15:\n      mload(0x40)\n      tag_17\n      swap2\n      swap1\n      tag_12\n      jump\t// in\n    tag_17:\n      mload(0x40)\n      dup1\n      swap2\n      sub\n      swap1\n      return\n        /* \"tokenDeployer.sol\":900:1862  function deployNewToken(... */\n    tag_6:\n      tag_18\n      0x04\n      dup1\n      calldatasize\n      sub\n      dup2\n      add\n      swap1\n      tag_19\n      swap2\n      swap1\n      tag_20\n      jump\t// in\n    tag_19:\n      tag_21\n      jump\t// in\n    tag_18:\n      mload(0x40)\n      tag_22\n      swap2\n      swap1\n      tag_12\n      jump\t// in\n    tag_22:\n      mload(0x40)\n      dup1\n      swap2\n      sub\n      swap1\n      return\n        /* \"@openzeppelin/contracts/access/Ownable.sol\":2543:2758  function transferOwnership(address newOwner) public virtual onlyOwner {... */\n    tag_7:\n      tag_23\n      0x04\n      dup1\n      calldatasize\n      sub\n      dup2\n      add\n      swap1\n      tag_24\n      swap2\n      swap1\n      tag_25\n      jump\t// in\n    tag_24:\n      tag_26\n      jump\t// in\n    tag_23:\n      stop\n        /* \"tokenDeployer.sol\":632:744  function updateTemplate(address _newTemplate) external onlyOwner {... */\n    tag_8:\n      tag_27\n      0x04\n      dup1\n      calldatasize\n      sub\n      dup2\n      add\n      swap1\n      tag_28\n      swap2\n      swap1\n      tag_25\n      jump\t// in\n    tag_28:\n      tag_29\n      jump\t// in\n    tag_27:\n      stop\n        /* \"tokenDeployer.sol\":261:291  address public templateAddress */\n    tag_10:\n      0x01\n      0x00\n      swap1\n      sload\n      swap1\n      0x0100\n      exp\n      swap1\n      div\n      0xffffffffffffffffffffffffffffffffffffffff\n      and\n      dup2\n      jump\t// out\n        /* \"@openzeppelin/contracts/access/Ownable.sol\":2293:2394  function renounceOwnership() public virtual onlyOwner {... */\n    tag_14:\n        /* \"@openzeppelin/contracts/access/Ownable.sol\":1531:1544  _checkOwner() */\n      tag_31\n        /* \"@openzeppelin/contracts/access/Ownable.sol\":1531:1542  _checkOwner */\n      tag_32\n        /* \"@openzeppelin/contracts/access/Ownable.sol\":1531:1544  _checkOwner() */\n      jump\t// in\n    tag_31:\n        /* \"@openzeppelin/contracts/access/Ownable.sol\":2357:2387  _transferOwnership(address(0)) */\n      tag_34\n        /* \"@openzeppelin/contracts/access/Ownable.sol\":2384:2385  0 */\n      0x00\n        /* \"@openzeppelin/contracts/access/Ownable.sol\":2357:2375  _transferOwnership */\n      tag_35\n        /* \"@openzeppelin/contracts/access/Ownable.sol\":2357:2387  _transferOwnership(address(0)) */\n      jump\t// in\n    tag_34:\n        /* \"@openzeppelin/contracts/access/Ownable.sol\":2293:2394  function renounceOwnership() public virtual onlyOwner {... */\n      jump\t// out\n        /* \"@openzeppelin/contracts/access/Ownable.sol\":1638:1723  function owner() public view virtual returns (address) {... */\n    tag_16:\n        /* \"@openzeppelin/contracts/access/Ownable.sol\":1684:1691  address */\n      0x00\n        /* \"@openzeppelin/contracts/access/Ownable.sol\":1710:1716  _owner */\n      0x00\n      0x00\n      swap1\n      sload\n      swap1\n      0x0100\n      exp\n      swap1\n      div\n      0xffffffffffffffffffffffffffffffffffffffff\n      and\n        /* \"@openzeppelin/contracts/access/Ownable.sol\":1703:1716  return _owner */\n      swap1\n      pop\n        /* \"@openzeppelin/contracts/access/Ownable.sol\":1638:1723  function owner() public view virtual returns (address) {... */\n      swap1\n      jump\t// out\n        /* \"tokenDeployer.sol\":900:1862  function deployNewToken(... */\n    tag_21:\n        /* \"tokenDeployer.sol\":1049:1056  address */\n      0x00\n        /* \"@openzeppelin/contracts/access/Ownable.sol\":1531:1544  _checkOwner() */\n      tag_38\n        /* \"@openzeppelin/contracts/access/Ownable.sol\":1531:1542  _checkOwner */\n      tag_32\n        /* \"@openzeppelin/contracts/access/Ownable.sol\":1531:1544  _checkOwner() */\n      jump\t// in\n    tag_38:\n        /* \"tokenDeployer.sol\":1211:1233  bytes memory _initData */\n      0x00\n        /* \"tokenDeployer.sol\":1367:1372  _name */\n      dup5\n        /* \"tokenDeployer.sol\":1431:1438  _symbol */\n      dup5\n        /* \"tokenDeployer.sol\":1497:1510  _initialOwner */\n      dup5\n        /* \"tokenDeployer.sol\":1236:1520  abi.encodeWithSignature(... */\n      add(0x24, mload(0x40))\n      tag_40\n      swap4\n      swap3\n      swap2\n      swap1\n      tag_41\n      jump\t// in\n    tag_40:\n      mload(0x40)\n      0x20\n      dup2\n      dup4\n      sub\n      sub\n      dup2\n      mstore\n      swap1\n      0x40\n      mstore\n      and(not(0xffffffffffffffffffffffffffffffffffffffffffffffffffffffff), 0x077f224a00000000000000000000000000000000000000000000000000000000)\n      0x20\n      dup3\n      add\n      dup1\n      mload\n      0xffffffffffffffffffffffffffffffffffffffffffffffffffffffff\n      dup4\n      dup2\n      dup4\n      and\n      or\n      dup4\n      mstore\n      pop\n      pop\n      pop\n      pop\n        /* \"tokenDeployer.sol\":1211:1520  bytes memory _initData = abi.encodeWithSignature(... */\n      swap1\n      pop\n        /* \"tokenDeployer.sol\":1666:1685  ERC1967Proxy _proxy */\n      0x00\n        /* \"tokenDeployer.sol\":1705:1720  templateAddress */\n      0x01\n      0x00\n      swap1\n      sload\n      swap1\n      0x0100\n      exp\n      swap1\n      div\n      0xffffffffffffffffffffffffffffffffffffffff\n      and\n        /* \"tokenDeployer.sol\":1722:1731  _initData */\n      dup3\n        /* \"tokenDeployer.sol\":1688:1732  new ERC1967Proxy(templateAddress, _initData) */\n      mload(0x40)\n      tag_42\n      swap1\n      tag_43\n      jump\t// in\n    tag_42:\n      tag_44\n      swap3\n      swap2\n      swap1\n      tag_45\n      jump\t// in\n    tag_44:\n      mload(0x40)\n      dup1\n      swap2\n      sub\n      swap1\n      0x00\n      create\n      dup1\n      iszero\n      dup1\n      iszero\n      tag_46\n      jumpi\n      returndatacopy(0x00, 0x00, returndatasize)\n      revert(0x00, returndatasize)\n    tag_46:\n      pop\n        /* \"tokenDeployer.sol\":1666:1732  ERC1967Proxy _proxy = new ERC1967Proxy(templateAddress, _initData) */\n      swap1\n      pop\n        /* \"tokenDeployer.sol\":1798:1804  _proxy */\n      dup1\n        /* \"tokenDeployer.sol\":1776:1822  tokenDeployed(address(_proxy), _name, _symbol) */\n      0xffffffffffffffffffffffffffffffffffffffff\n      and\n      0xdffd5212cd0fdc37a43d510b28574b6c1a5970d02930f07c711337774b687c99\n        /* \"tokenDeployer.sol\":1807:1812  _name */\n      dup8\n        /* \"tokenDeployer.sol\":1814:1821  _symbol */\n      dup8\n        /* \"tokenDeployer.sol\":1776:1822  tokenDeployed(address(_proxy), _name, _symbol) */\n      mload(0x40)\n      tag_47\n      swap3\n      swap2\n      swap1\n      tag_48\n      jump\t// in\n    tag_47:\n      mload(0x40)\n      dup1\n      swap2\n      sub\n      swap1\n      log2\n        /* \"tokenDeployer.sol\":1848:1854  _proxy */\n      dup1\n        /* \"tokenDeployer.sol\":1833:1855  return address(_proxy) */\n      swap3\n      pop\n      pop\n      pop\n        /* \"tokenDeployer.sol\":900:1862  function deployNewToken(... */\n      swap4\n      swap3\n      pop\n      pop\n      pop\n      jump\t// out\n        /* \"@openzeppelin/contracts/access/Ownable.sol\":2543:2758  function transferOwnership(address newOwner) public virtual onlyOwner {... */\n    tag_26:\n        /* \"@openzeppelin/contracts/access/Ownable.sol\":1531:1544  _checkOwner() */\n      tag_50\n        /* \"@openzeppelin/contracts/access/Ownable.sol\":1531:1542  _checkOwner */\n      tag_32\n        /* \"@openzeppelin/contracts/access/Ownable.sol\":1531:1544  _checkOwner() */\n      jump\t// in\n    tag_50:\n        /* \"@openzeppelin/contracts/access/Ownable.sol\":2647:2648  0 */\n      0x00\n        /* \"@openzeppelin/contracts/access/Ownable.sol\":2627:2649  newOwner == address(0) */\n      0xffffffffffffffffffffffffffffffffffffffff\n      and\n        /* \"@openzeppelin/contracts/access/Ownable.sol\":2627:2635  newOwner */\n      dup2\n        /* \"@openzeppelin/contracts/access/Ownable.sol\":2627:2649  newOwner == address(0) */\n      0xffffffffffffffffffffffffffffffffffffffff\n      and\n      sub\n        /* \"@openzeppelin/contracts/access/Ownable.sol\":2623:2714  if (newOwner == address(0)) {... */\n      tag_52\n      jumpi\n        /* \"@openzeppelin/contracts/access/Ownable.sol\":2700:2701  0 */\n      0x00\n        /* \"@openzeppelin/contracts/access/Ownable.sol\":2672:2703  OwnableInvalidOwner(address(0)) */\n      mload(0x40)\n      0x1e4fbdf700000000000000000000000000000000000000000000000000000000\n      dup2\n      mstore\n      0x04\n      add\n      tag_53\n      swap2\n      swap1\n      tag_12\n      jump\t// in\n    tag_53:\n      mload(0x40)\n      dup1\n      swap2\n      sub\n      swap1\n      revert\n        /* \"@openzeppelin/contracts/access/Ownable.sol\":2623:2714  if (newOwner == address(0)) {... */\n    tag_52:\n        /* \"@openzeppelin/contracts/access/Ownable.sol\":2723:2751  _transferOwnership(newOwner) */\n      tag_54\n        /* \"@openzeppelin/contracts/access/Ownable.sol\":2742:2750  newOwner */\n      dup2\n        /* \"@openzeppelin/contracts/access/Ownable.sol\":2723:2741  _transferOwnership */\n      tag_35\n        /* \"@openzeppelin/contracts/access/Ownable.sol\":2723:2751  _transferOwnership(newOwner) */\n      jump\t// in\n    tag_54:\n        /* \"@openzeppelin/contracts/access/Ownable.sol\":2543:2758  function transferOwnership(address newOwner) public virtual onlyOwner {... */\n      pop\n      jump\t// out\n        /* \"tokenDeployer.sol\":632:744  function updateTemplate(address _newTemplate) external onlyOwner {... */\n    tag_29:\n        /* \"@openzeppelin/contracts/access/Ownable.sol\":1531:1544  _checkOwner() */\n      tag_56\n        /* \"@openzeppelin/contracts/access/Ownable.sol\":1531:1542  _checkOwner */\n      tag_32\n        /* \"@openzeppelin/contracts/access/Ownable.sol\":1531:1544  _checkOwner() */\n      jump\t// in\n    tag_56:\n        /* \"tokenDeployer.sol\":725:737  _newTemplate */\n      dup1\n        /* \"tokenDeployer.sol\":707:722  templateAddress */\n      0x01\n      0x00\n        /* \"tokenDeployer.sol\":707:737  templateAddress = _newTemplate */\n      0x0100\n      exp\n      dup2\n      sload\n      dup2\n      0xffffffffffffffffffffffffffffffffffffffff\n      mul\n      not\n      and\n      swap1\n      dup4\n      0xffffffffffffffffffffffffffffffffffffffff\n      and\n      mul\n      or\n      swap1\n      sstore\n      pop\n        /* \"tokenDeployer.sol\":632:744  function updateTemplate(address _newTemplate) external onlyOwner {... */\n      pop\n      jump\t// out\n        /* \"@openzeppelin/contracts/access/Ownable.sol\":1796:1958  function _checkOwner() internal view virtual {... */\n    tag_32:\n        /* \"@openzeppelin/contracts/access/Ownable.sol\":1866:1878  _msgSender() */\n      tag_59\n        /* \"@openzeppelin/contracts/access/Ownable.sol\":1866:1876  _msgSender */\n      tag_60\n        /* \"@openzeppelin/contracts/access/Ownable.sol\":1866:1878  _msgSender() */\n      jump\t// in\n    tag_59:\n        /* \"@openzeppelin/contracts/access/Ownable.sol\":1855:1878  owner() != _msgSender() */\n      0xffffffffffffffffffffffffffffffffffffffff\n      and\n        /* \"@openzeppelin/contracts/access/Ownable.sol\":1855:1862  owner() */\n      tag_61\n        /* \"@openzeppelin/contracts/access/Ownable.sol\":1855:1860  owner */\n      tag_16\n        /* \"@openzeppelin/contracts/access/Ownable.sol\":1855:1862  owner() */\n      jump\t// in\n    tag_61:\n        /* \"@openzeppelin/contracts/access/Ownable.sol\":1855:1878  owner() != _msgSender() */\n      0xffffffffffffffffffffffffffffffffffffffff\n      and\n      eq\n        /* \"@openzeppelin/contracts/access/Ownable.sol\":1851:1952  if (owner() != _msgSender()) {... */\n      tag_62\n      jumpi\n        /* \"@openzeppelin/contracts/access/Ownable.sol\":1928:1940  _msgSender() */\n      tag_63\n        /* \"@openzeppelin/contracts/access/Ownable.sol\":1928:1938  _msgSender */\n      tag_60\n        /* \"@openzeppelin/contracts/access/Ownable.sol\":1928:1940  _msgSender() */\n      jump\t// in\n    tag_63:\n        /* \"@openzeppelin/contracts/access/Ownable.sol\":1901:1941  OwnableUnauthorizedAccount(_msgSender()) */\n      mload(0x40)\n      0x118cdaa700000000000000000000000000000000000000000000000000000000\n      dup2\n      mstore\n      0x04\n      add\n      tag_64\n      swap2\n      swap1\n      tag_12\n      jump\t// in\n    tag_64:\n      mload(0x40)\n      dup1\n      swap2\n      sub\n      swap1\n      revert\n        /* \"@openzeppelin/contracts/access/Ownable.sol\":1851:1952  if (owner() != _msgSender()) {... */\n    tag_62:\n        /* \"@openzeppelin/contracts/access/Ownable.sol\":1796:1958  function _checkOwner() internal view virtual {... */\n      jump\t// out\n        /* \"@openzeppelin/contracts/access/Ownable.sol\":2912:3099  function _transferOwnership(address newOwner) internal virtual {... */\n    tag_35:\n        /* \"@openzeppelin/contracts/access/Ownable.sol\":2985:3001  address oldOwner */\n      0x00\n        /* \"@openzeppelin/contracts/access/Ownable.sol\":3004:3010  _owner */\n      0x00\n      0x00\n      swap1\n      sload\n      swap1\n      0x0100\n      exp\n      swap1\n      div\n      0xffffffffffffffffffffffffffffffffffffffff\n      and\n        /* \"@openzeppelin/contracts/access/Ownable.sol\":2985:3010  address oldOwner = _owner */\n      swap1\n      pop\n        /* \"@openzeppelin/contracts/access/Ownable.sol\":3029:3037  newOwner */\n      dup2\n        /* \"@openzeppelin/contracts/access/Ownable.sol\":3020:3026  _owner */\n      0x00\n      0x00\n        /* \"@openzeppelin/contracts/access/Ownable.sol\":3020:3037  _owner = newOwner */\n      0x0100\n      exp\n      dup2\n      sload\n      dup2\n      0xffffffffffffffffffffffffffffffffffffffff\n      mul\n      not\n      and\n      swap1\n      dup4\n      0xffffffffffffffffffffffffffffffffffffffff\n      and\n      mul\n      or\n      swap1\n      sstore\n      pop\n        /* \"@openzeppelin/contracts/access/Ownable.sol\":3083:3091  newOwner */\n      dup2\n        /* \"@openzeppelin/contracts/access/Ownable.sol\":3052:3092  OwnershipTransferred(oldOwner, newOwner) */\n      0xffffffffffffffffffffffffffffffffffffffff\n      and\n        /* \"@openzeppelin/contracts/access/Ownable.sol\":3073:3081  oldOwner */\n      dup2\n        /* \"@openzeppelin/contracts/access/Ownable.sol\":3052:3092  OwnershipTransferred(oldOwner, newOwner) */\n      0xffffffffffffffffffffffffffffffffffffffff\n      and\n      0x8be0079c531659141344cd1fd0a4f28419497f9722a3daafe3b4186f6b6457e0\n      mload(0x40)\n      mload(0x40)\n      dup1\n      swap2\n      sub\n      swap1\n      log3\n        /* \"@openzeppelin/contracts/access/Ownable.sol\":2975:3099  {... */\n      pop\n        /* \"@openzeppelin/contracts/access/Ownable.sol\":2912:3099  function _transferOwnership(address newOwner) internal virtual {... */\n      pop\n      jump\t// out\n        /* \"@openzeppelin/contracts/utils/Context.sol\":656:752  function _msgSender() internal view virtual returns (address) {... */\n    tag_60:\n        /* \"@openzeppelin/contracts/utils/Context.sol\":709:716  address */\n      0x00\n        /* \"@openzeppelin/contracts/utils/Context.sol\":735:745  msg.sender */\n      caller\n        /* \"@openzeppelin/contracts/utils/Context.sol\":728:745  return msg.sender */\n      swap1\n      pop\n        /* \"@openzeppelin/contracts/utils/Context.sol\":656:752  function _msgSender() internal view virtual returns (address) {... */\n      swap1\n      jump\t// out\n    tag_43:\n      dataSize(sub_0)\n      dup1\n      dataOffset(sub_0)\n      dup4\n      codecopy\n      add\n      swap1\n      jump\t// out\n        /* \"#utility.yul\":7:133   */\n    tag_67:\n        /* \"#utility.yul\":44:51   */\n      0x00\n        /* \"#utility.yul\":84:126   */\n      0xffffffffffffffffffffffffffffffffffffffff\n        /* \"#utility.yul\":77:82   */\n      dup3\n        /* \"#utility.yul\":73:127   */\n      and\n        /* \"#utility.yul\":62:127   */\n      swap1\n      pop\n        /* \"#utility.yul\":7:133   */\n      swap2\n      swap1\n      pop\n      jump\t// out\n        /* \"#utility.yul\":139:235   */\n    tag_68:\n        /* \"#utility.yul\":176:183   */\n      0x00\n        /* \"#utility.yul\":205:229   */\n      tag_95\n        /* \"#utility.yul\":223:228   */\n      dup3\n        /* \"#utility.yul\":205:229   */\n      tag_67\n      jump\t// in\n    tag_95:\n        /* \"#utility.yul\":194:229   */\n      swap1\n      pop\n        /* \"#utility.yul\":139:235   */\n      swap2\n      swap1\n      pop\n      jump\t// out\n        /* \"#utility.yul\":241:359   */\n    tag_69:\n        /* \"#utility.yul\":328:352   */\n      tag_97\n        /* \"#utility.yul\":346:351   */\n      dup2\n        /* \"#utility.yul\":328:352   */\n      tag_68\n      jump\t// in\n    tag_97:\n        /* \"#utility.yul\":323:326   */\n      dup3\n        /* \"#utility.yul\":316:353   */\n      mstore\n        /* \"#utility.yul\":241:359   */\n      pop\n      pop\n      jump\t// out\n        /* \"#utility.yul\":365:587   */\n    tag_12:\n        /* \"#utility.yul\":458:462   */\n      0x00\n        /* \"#utility.yul\":496:498   */\n      0x20\n        /* \"#utility.yul\":485:494   */\n      dup3\n        /* \"#utility.yul\":481:499   */\n      add\n        /* \"#utility.yul\":473:499   */\n      swap1\n      pop\n        /* \"#utility.yul\":509:580   */\n      tag_99\n        /* \"#utility.yul\":577:578   */\n      0x00\n        /* \"#utility.yul\":566:575   */\n      dup4\n        /* \"#utility.yul\":562:579   */\n      add\n        /* \"#utility.yul\":553:559   */\n      dup5\n        /* \"#utility.yul\":509:580   */\n      tag_69\n      jump\t// in\n    tag_99:\n        /* \"#utility.yul\":365:587   */\n      swap3\n      swap2\n      pop\n      pop\n      jump\t// out\n        /* \"#utility.yul\":593:668   */\n    tag_70:\n        /* \"#utility.yul\":626:632   */\n      0x00\n        /* \"#utility.yul\":659:661   */\n      0x40\n        /* \"#utility.yul\":653:662   */\n      mload\n        /* \"#utility.yul\":643:662   */\n      swap1\n      pop\n        /* \"#utility.yul\":593:668   */\n      swap1\n      jump\t// out\n        /* \"#utility.yul\":674:791   */\n    tag_71:\n        /* \"#utility.yul\":783:784   */\n      0x00\n        /* \"#utility.yul\":780:781   */\n      0x00\n        /* \"#utility.yul\":773:785   */\n      revert\n        /* \"#utility.yul\":797:914   */\n    tag_72:\n        /* \"#utility.yul\":906:907   */\n      0x00\n        /* \"#utility.yul\":903:904   */\n      0x00\n        /* \"#utility.yul\":896:908   */\n      revert\n        /* \"#utility.yul\":920:1037   */\n    tag_73:\n        /* \"#utility.yul\":1029:1030   */\n      0x00\n        /* \"#utility.yul\":1026:1027   */\n      0x00\n        /* \"#utility.yul\":1019:1031   */\n      revert\n        /* \"#utility.yul\":1043:1160   */\n    tag_74:\n        /* \"#utility.yul\":1152:1153   */\n      0x00\n        /* \"#utility.yul\":1149:1150   */\n      0x00\n        /* \"#utility.yul\":1142:1154   */\n      revert\n        /* \"#utility.yul\":1166:1268   */\n    tag_75:\n        /* \"#utility.yul\":1207:1213   */\n      0x00\n        /* \"#utility.yul\":1258:1260   */\n      0x1f\n        /* \"#utility.yul\":1254:1261   */\n      not\n        /* \"#utility.yul\":1249:1251   */\n      0x1f\n        /* \"#utility.yul\":1242:1247   */\n      dup4\n        /* \"#utility.yul\":1238:1252   */\n      add\n        /* \"#utility.yul\":1234:1262   */\n      and\n        /* \"#utility.yul\":1224:1262   */\n      swap1\n      pop\n        /* \"#utility.yul\":1166:1268   */\n      swap2\n      swap1\n      pop\n      jump\t// out\n        /* \"#utility.yul\":1274:1454   */\n    tag_76:\n        /* \"#utility.yul\":1322:1399   */\n      0x4e487b7100000000000000000000000000000000000000000000000000000000\n        /* \"#utility.yul\":1319:1320   */\n      0x00\n        /* \"#utility.yul\":1312:1400   */\n      mstore\n        /* \"#utility.yul\":1419:1423   */\n      0x41\n        /* \"#utility.yul\":1416:1417   */\n      0x04\n        /* \"#utility.yul\":1409:1424   */\n      mstore\n        /* \"#utility.yul\":1443:1447   */\n      0x24\n        /* \"#utility.yul\":1440:1441   */\n      0x00\n        /* \"#utility.yul\":1433:1448   */\n      revert\n        /* \"#utility.yul\":1460:1741   */\n    tag_77:\n        /* \"#utility.yul\":1543:1570   */\n      tag_108\n        /* \"#utility.yul\":1565:1569   */\n      dup3\n        /* \"#utility.yul\":1543:1570   */\n      tag_75\n      jump\t// in\n    tag_108:\n        /* \"#utility.yul\":1535:1541   */\n      dup2\n        /* \"#utility.yul\":1531:1571   */\n      add\n        /* \"#utility.yul\":1673:1679   */\n      dup2\n        /* \"#utility.yul\":1661:1671   */\n      dup2\n        /* \"#utility.yul\":1658:1680   */\n      lt\n        /* \"#utility.yul\":1637:1655   */\n      0xffffffffffffffff\n        /* \"#utility.yul\":1625:1635   */\n      dup3\n        /* \"#utility.yul\":1622:1656   */\n      gt\n        /* \"#utility.yul\":1619:1681   */\n      or\n        /* \"#utility.yul\":1616:1704   */\n      iszero\n      tag_109\n      jumpi\n        /* \"#utility.yul\":1684:1702   */\n      tag_110\n      tag_76\n      jump\t// in\n    tag_110:\n        /* \"#utility.yul\":1616:1704   */\n    tag_109:\n        /* \"#utility.yul\":1724:1734   */\n      dup1\n        /* \"#utility.yul\":1720:1722   */\n      0x40\n        /* \"#utility.yul\":1713:1735   */\n      mstore\n        /* \"#utility.yul\":1503:1741   */\n      pop\n        /* \"#utility.yul\":1460:1741   */\n      pop\n      pop\n      jump\t// out\n        /* \"#utility.yul\":1747:1876   */\n    tag_78:\n        /* \"#utility.yul\":1781:1787   */\n      0x00\n        /* \"#utility.yul\":1808:1828   */\n      tag_112\n      tag_70\n      jump\t// in\n    tag_112:\n        /* \"#utility.yul\":1798:1828   */\n      swap1\n      pop\n        /* \"#utility.yul\":1837:1870   */\n      tag_113\n        /* \"#utility.yul\":1865:1869   */\n      dup3\n        /* \"#utility.yul\":1857:1863   */\n      dup3\n        /* \"#utility.yul\":1837:1870   */\n      tag_77\n      jump\t// in\n    tag_113:\n        /* \"#utility.yul\":1747:1876   */\n      swap2\n      swap1\n      pop\n      jump\t// out\n        /* \"#utility.yul\":1882:2190   */\n    tag_79:\n        /* \"#utility.yul\":1944:1948   */\n      0x00\n        /* \"#utility.yul\":2034:2052   */\n      0xffffffffffffffff\n        /* \"#utility.yul\":2026:2032   */\n      dup3\n        /* \"#utility.yul\":2023:2053   */\n      gt\n        /* \"#utility.yul\":2020:2076   */\n      iszero\n      tag_115\n      jumpi\n        /* \"#utility.yul\":2056:2074   */\n      tag_116\n      tag_76\n      jump\t// in\n    tag_116:\n        /* \"#utility.yul\":2020:2076   */\n    tag_115:\n        /* \"#utility.yul\":2094:2123   */\n      tag_117\n        /* \"#utility.yul\":2116:2122   */\n      dup3\n        /* \"#utility.yul\":2094:2123   */\n      tag_75\n      jump\t// in\n    tag_117:\n        /* \"#utility.yul\":2086:2123   */\n      swap1\n      pop\n        /* \"#utility.yul\":2178:2182   */\n      0x20\n        /* \"#utility.yul\":2172:2176   */\n      dup2\n        /* \"#utility.yul\":2168:2183   */\n      add\n        /* \"#utility.yul\":2160:2183   */\n      swap1\n      pop\n        /* \"#utility.yul\":1882:2190   */\n      swap2\n      swap1\n      pop\n      jump\t// out\n        /* \"#utility.yul\":2196:2344   */\n    tag_80:\n        /* \"#utility.yul\":2294:2300   */\n      dup3\n        /* \"#utility.yul\":2289:2292   */\n      dup2\n        /* \"#utility.yul\":2284:2287   */\n      dup4\n        /* \"#utility.yul\":2271:2301   */\n      calldatacopy\n        /* \"#utility.yul\":2335:2336   */\n      0x00\n        /* \"#utility.yul\":2326:2332   */\n      dup4\n        /* \"#utility.yul\":2321:2324   */\n      dup4\n        /* \"#utility.yul\":2317:2333   */\n      add\n        /* \"#utility.yul\":2310:2337   */\n      mstore\n        /* \"#utility.yul\":2196:2344   */\n      pop\n      pop\n      pop\n      jump\t// out\n        /* \"#utility.yul\":2350:2775   */\n    tag_81:\n        /* \"#utility.yul\":2428:2433   */\n      0x00\n        /* \"#utility.yul\":2453:2519   */\n      tag_120\n        /* \"#utility.yul\":2469:2518   */\n      tag_121\n        /* \"#utility.yul\":2511:2517   */\n      dup5\n        /* \"#utility.yul\":2469:2518   */\n      tag_79\n      jump\t// in\n    tag_121:\n        /* \"#utility.yul\":2453:2519   */\n      tag_78\n      jump\t// in\n    tag_120:\n        /* \"#utility.yul\":2444:2519   */\n      swap1\n      pop\n        /* \"#utility.yul\":2542:2548   */\n      dup3\n        /* \"#utility.yul\":2535:2540   */\n      dup2\n        /* \"#utility.yul\":2528:2549   */\n      mstore\n        /* \"#utility.yul\":2580:2584   */\n      0x20\n        /* \"#utility.yul\":2573:2578   */\n      dup2\n        /* \"#utility.yul\":2569:2585   */\n      add\n        /* \"#utility.yul\":2618:2621   */\n      dup5\n        /* \"#utility.yul\":2609:2615   */\n      dup5\n        /* \"#utility.yul\":2604:2607   */\n      dup5\n        /* \"#utility.yul\":2600:2616   */\n      add\n        /* \"#utility.yul\":2597:2622   */\n      gt\n        /* \"#utility.yul\":2594:2706   */\n      iszero\n      tag_122\n      jumpi\n        /* \"#utility.yul\":2625:2704   */\n      tag_123\n      tag_74\n      jump\t// in\n    tag_123:\n        /* \"#utility.yul\":2594:2706   */\n    tag_122:\n        /* \"#utility.yul\":2715:2769   */\n      tag_124\n        /* \"#utility.yul\":2762:2768   */\n      dup5\n        /* \"#utility.yul\":2757:2760   */\n      dup3\n        /* \"#utility.yul\":2752:2755   */\n      dup6\n        /* \"#utility.yul\":2715:2769   */\n      tag_80\n      jump\t// in\n    tag_124:\n        /* \"#utility.yul\":2434:2775   */\n      pop\n        /* \"#utility.yul\":2350:2775   */\n      swap4\n      swap3\n      pop\n      pop\n      pop\n      jump\t// out\n        /* \"#utility.yul\":2795:3135   */\n    tag_82:\n        /* \"#utility.yul\":2851:2856   */\n      0x00\n        /* \"#utility.yul\":2900:2903   */\n      dup3\n        /* \"#utility.yul\":2893:2897   */\n      0x1f\n        /* \"#utility.yul\":2885:2891   */\n      dup4\n        /* \"#utility.yul\":2881:2898   */\n      add\n        /* \"#utility.yul\":2877:2904   */\n      slt\n        /* \"#utility.yul\":2867:2989   */\n      tag_126\n      jumpi\n        /* \"#utility.yul\":2908:2987   */\n      tag_127\n      tag_73\n      jump\t// in\n    tag_127:\n        /* \"#utility.yul\":2867:2989   */\n    tag_126:\n        /* \"#utility.yul\":3025:3031   */\n      dup2\n        /* \"#utility.yul\":3012:3032   */\n      calldataload\n        /* \"#utility.yul\":3050:3129   */\n      tag_128\n        /* \"#utility.yul\":3125:3128   */\n      dup5\n        /* \"#utility.yul\":3117:3123   */\n      dup3\n        /* \"#utility.yul\":3110:3114   */\n      0x20\n        /* \"#utility.yul\":3102:3108   */\n      dup7\n        /* \"#utility.yul\":3098:3115   */\n      add\n        /* \"#utility.yul\":3050:3129   */\n      tag_81\n      jump\t// in\n    tag_128:\n        /* \"#utility.yul\":3041:3129   */\n      swap2\n      pop\n        /* \"#utility.yul\":2857:3135   */\n      pop\n        /* \"#utility.yul\":2795:3135   */\n      swap3\n      swap2\n      pop\n      pop\n      jump\t// out\n        /* \"#utility.yul\":3141:3263   */\n    tag_83:\n        /* \"#utility.yul\":3214:3238   */\n      tag_130\n        /* \"#utility.yul\":3232:3237   */\n      dup2\n        /* \"#utility.yul\":3214:3238   */\n      tag_68\n      jump\t// in\n    tag_130:\n        /* \"#utility.yul\":3207:3212   */\n      dup2\n        /* \"#utility.yul\":3204:3239   */\n      eq\n        /* \"#utility.yul\":3194:3257   */\n      tag_131\n      jumpi\n        /* \"#utility.yul\":3253:3254   */\n      0x00\n        /* \"#utility.yul\":3250:3251   */\n      0x00\n        /* \"#utility.yul\":3243:3255   */\n      revert\n        /* \"#utility.yul\":3194:3257   */\n    tag_131:\n        /* \"#utility.yul\":3141:3263   */\n      pop\n      jump\t// out\n        /* \"#utility.yul\":3269:3408   */\n    tag_84:\n        /* \"#utility.yul\":3315:3320   */\n      0x00\n        /* \"#utility.yul\":3353:3359   */\n      dup2\n        /* \"#utility.yul\":3340:3360   */\n      calldataload\n        /* \"#utility.yul\":3331:3360   */\n      swap1\n      pop\n        /* \"#utility.yul\":3369:3402   */\n      tag_133\n        /* \"#utility.yul\":3396:3401   */\n      dup2\n        /* \"#utility.yul\":3369:3402   */\n      tag_83\n      jump\t// in\n    tag_133:\n        /* \"#utility.yul\":3269:3408   */\n      swap3\n      swap2\n      pop\n      pop\n      jump\t// out\n        /* \"#utility.yul\":3414:4393   */\n    tag_20:\n        /* \"#utility.yul\":3511:3517   */\n      0x00\n        /* \"#utility.yul\":3519:3525   */\n      0x00\n        /* \"#utility.yul\":3527:3533   */\n      0x00\n        /* \"#utility.yul\":3576:3578   */\n      0x60\n        /* \"#utility.yul\":3564:3573   */\n      dup5\n        /* \"#utility.yul\":3555:3562   */\n      dup7\n        /* \"#utility.yul\":3551:3574   */\n      sub\n        /* \"#utility.yul\":3547:3579   */\n      slt\n        /* \"#utility.yul\":3544:3663   */\n      iszero\n      tag_135\n      jumpi\n        /* \"#utility.yul\":3582:3661   */\n      tag_136\n      tag_71\n      jump\t// in\n    tag_136:\n        /* \"#utility.yul\":3544:3663   */\n    tag_135:\n        /* \"#utility.yul\":3730:3731   */\n      0x00\n        /* \"#utility.yul\":3719:3728   */\n      dup5\n        /* \"#utility.yul\":3715:3732   */\n      add\n        /* \"#utility.yul\":3702:3733   */\n      calldataload\n        /* \"#utility.yul\":3760:3778   */\n      0xffffffffffffffff\n        /* \"#utility.yul\":3752:3758   */\n      dup2\n        /* \"#utility.yul\":3749:3779   */\n      gt\n        /* \"#utility.yul\":3746:3863   */\n      iszero\n      tag_137\n      jumpi\n        /* \"#utility.yul\":3782:3861   */\n      tag_138\n      tag_72\n      jump\t// in\n    tag_138:\n        /* \"#utility.yul\":3746:3863   */\n    tag_137:\n        /* \"#utility.yul\":3887:3950   */\n      tag_139\n        /* \"#utility.yul\":3942:3949   */\n      dup7\n        /* \"#utility.yul\":3933:3939   */\n      dup3\n        /* \"#utility.yul\":3922:3931   */\n      dup8\n        /* \"#utility.yul\":3918:3940   */\n      add\n        /* \"#utility.yul\":3887:3950   */\n      tag_82\n      jump\t// in\n    tag_139:\n        /* \"#utility.yul\":3877:3950   */\n      swap4\n      pop\n        /* \"#utility.yul\":3673:3960   */\n      pop\n        /* \"#utility.yul\":4027:4029   */\n      0x20\n        /* \"#utility.yul\":4016:4025   */\n      dup5\n        /* \"#utility.yul\":4012:4030   */\n      add\n        /* \"#utility.yul\":3999:4031   */\n      calldataload\n        /* \"#utility.yul\":4058:4076   */\n      0xffffffffffffffff\n        /* \"#utility.yul\":4050:4056   */\n      dup2\n        /* \"#utility.yul\":4047:4077   */\n      gt\n        /* \"#utility.yul\":4044:4161   */\n      iszero\n      tag_140\n      jumpi\n        /* \"#utility.yul\":4080:4159   */\n      tag_141\n      tag_72\n      jump\t// in\n    tag_141:\n        /* \"#utility.yul\":4044:4161   */\n    tag_140:\n        /* \"#utility.yul\":4185:4248   */\n      tag_142\n        /* \"#utility.yul\":4240:4247   */\n      dup7\n        /* \"#utility.yul\":4231:4237   */\n      dup3\n        /* \"#utility.yul\":4220:4229   */\n      dup8\n        /* \"#utility.yul\":4216:4238   */\n      add\n        /* \"#utility.yul\":4185:4248   */\n      tag_82\n      jump\t// in\n    tag_142:\n        /* \"#utility.yul\":4175:4248   */\n      swap3\n      pop\n        /* \"#utility.yul\":3970:4258   */\n      pop\n        /* \"#utility.yul\":4297:4299   */\n      0x40\n        /* \"#utility.yul\":4323:4376   */\n      tag_143\n        /* \"#utility.yul\":4368:4375   */\n      dup7\n        /* \"#utility.yul\":4359:4365   */\n      dup3\n        /* \"#utility.yul\":4348:4357   */\n      dup8\n        /* \"#utility.yul\":4344:4366   */\n      add\n        /* \"#utility.yul\":4323:4376   */\n      tag_84\n      jump\t// in\n    tag_143:\n        /* \"#utility.yul\":4313:4376   */\n      swap2\n      pop\n        /* \"#utility.yul\":4268:4386   */\n      pop\n        /* \"#utility.yul\":3414:4393   */\n      swap3\n      pop\n      swap3\n      pop\n      swap3\n      jump\t// out\n        /* \"#utility.yul\":4399:4728   */\n    tag_25:\n        /* \"#utility.yul\":4458:4464   */\n      0x00\n        /* \"#utility.yul\":4507:4509   */\n      0x20\n        /* \"#utility.yul\":4495:4504   */\n      dup3\n        /* \"#utility.yul\":4486:4493   */\n      dup5\n        /* \"#utility.yul\":4482:4505   */\n      sub\n        /* \"#utility.yul\":4478:4510   */\n      slt\n        /* \"#utility.yul\":4475:4594   */\n      iszero\n      tag_145\n      jumpi\n        /* \"#utility.yul\":4513:4592   */\n      tag_146\n      tag_71\n      jump\t// in\n    tag_146:\n        /* \"#utility.yul\":4475:4594   */\n    tag_145:\n        /* \"#utility.yul\":4633:4634   */\n      0x00\n        /* \"#utility.yul\":4658:4711   */\n      tag_147\n        /* \"#utility.yul\":4703:4710   */\n      dup5\n        /* \"#utility.yul\":4694:4700   */\n      dup3\n        /* \"#utility.yul\":4683:4692   */\n      dup6\n        /* \"#utility.yul\":4679:4701   */\n      add\n        /* \"#utility.yul\":4658:4711   */\n      tag_84\n      jump\t// in\n    tag_147:\n        /* \"#utility.yul\":4648:4711   */\n      swap2\n      pop\n        /* \"#utility.yul\":4604:4721   */\n      pop\n        /* \"#utility.yul\":4399:4728   */\n      swap3\n      swap2\n      pop\n      pop\n      jump\t// out\n        /* \"#utility.yul\":4734:4833   */\n    tag_85:\n        /* \"#utility.yul\":4786:4792   */\n      0x00\n        /* \"#utility.yul\":4820:4825   */\n      dup2\n        /* \"#utility.yul\":4814:4826   */\n      mload\n        /* \"#utility.yul\":4804:4826   */\n      swap1\n      pop\n        /* \"#utility.yul\":4734:4833   */\n      swap2\n      swap1\n      pop\n      jump\t// out\n        /* \"#utility.yul\":4839:5008   */\n    tag_86:\n        /* \"#utility.yul\":4923:4934   */\n      0x00\n        /* \"#utility.yul\":4957:4963   */\n      dup3\n        /* \"#utility.yul\":4952:4955   */\n      dup3\n        /* \"#utility.yul\":4945:4964   */\n      mstore\n        /* \"#utility.yul\":4997:5001   */\n      0x20\n        /* \"#utility.yul\":4992:4995   */\n      dup3\n        /* \"#utility.yul\":4988:5002   */\n      add\n        /* \"#utility.yul\":4973:5002   */\n      swap1\n      pop\n        /* \"#utility.yul\":4839:5008   */\n      swap3\n      swap2\n      pop\n      pop\n      jump\t// out\n        /* \"#utility.yul\":5014:5262   */\n    tag_87:\n        /* \"#utility.yul\":5096:5097   */\n      0x00\n        /* \"#utility.yul\":5106:5219   */\n    tag_151:\n        /* \"#utility.yul\":5120:5126   */\n      dup4\n        /* \"#utility.yul\":5117:5118   */\n      dup2\n        /* \"#utility.yul\":5114:5127   */\n      lt\n        /* \"#utility.yul\":5106:5219   */\n      iszero\n      tag_153\n      jumpi\n        /* \"#utility.yul\":5205:5206   */\n      dup1\n        /* \"#utility.yul\":5200:5203   */\n      dup3\n        /* \"#utility.yul\":5196:5207   */\n      add\n        /* \"#utility.yul\":5190:5208   */\n      mload\n        /* \"#utility.yul\":5186:5187   */\n      dup2\n        /* \"#utility.yul\":5181:5184   */\n      dup5\n        /* \"#utility.yul\":5177:5188   */\n      add\n        /* \"#utility.yul\":5170:5209   */\n      mstore\n        /* \"#utility.yul\":5142:5144   */\n      0x20\n        /* \"#utility.yul\":5139:5140   */\n      dup2\n        /* \"#utility.yul\":5135:5145   */\n      add\n        /* \"#utility.yul\":5130:5145   */\n      swap1\n      pop\n        /* \"#utility.yul\":5106:5219   */\n      jump(tag_151)\n    tag_153:\n        /* \"#utility.yul\":5253:5254   */\n      0x00\n        /* \"#utility.yul\":5244:5250   */\n      dup5\n        /* \"#utility.yul\":5239:5242   */\n      dup5\n        /* \"#utility.yul\":5235:5251   */\n      add\n        /* \"#utility.yul\":5228:5255   */\n      mstore\n        /* \"#utility.yul\":5076:5262   */\n      pop\n        /* \"#utility.yul\":5014:5262   */\n      pop\n      pop\n      pop\n      jump\t// out\n        /* \"#utility.yul\":5268:5645   */\n    tag_88:\n        /* \"#utility.yul\":5356:5359   */\n      0x00\n        /* \"#utility.yul\":5384:5423   */\n      tag_155\n        /* \"#utility.yul\":5417:5422   */\n      dup3\n        /* \"#utility.yul\":5384:5423   */\n      tag_85\n      jump\t// in\n    tag_155:\n        /* \"#utility.yul\":5439:5510   */\n      tag_156\n        /* \"#utility.yul\":5503:5509   */\n      dup2\n        /* \"#utility.yul\":5498:5501   */\n      dup6\n        /* \"#utility.yul\":5439:5510   */\n      tag_86\n      jump\t// in\n    tag_156:\n        /* \"#utility.yul\":5432:5510   */\n      swap4\n      pop\n        /* \"#utility.yul\":5519:5584   */\n      tag_157\n        /* \"#utility.yul\":5577:5583   */\n      dup2\n        /* \"#utility.yul\":5572:5575   */\n      dup6\n        /* \"#utility.yul\":5565:5569   */\n      0x20\n        /* \"#utility.yul\":5558:5563   */\n      dup7\n        /* \"#utility.yul\":5554:5570   */\n      add\n        /* \"#utility.yul\":5519:5584   */\n      tag_87\n      jump\t// in\n    tag_157:\n        /* \"#utility.yul\":5609:5638   */\n      tag_158\n        /* \"#utility.yul\":5631:5637   */\n      dup2\n        /* \"#utility.yul\":5609:5638   */\n      tag_75\n      jump\t// in\n    tag_158:\n        /* \"#utility.yul\":5604:5607   */\n      dup5\n        /* \"#utility.yul\":5600:5639   */\n      add\n        /* \"#utility.yul\":5593:5639   */\n      swap2\n      pop\n        /* \"#utility.yul\":5360:5645   */\n      pop\n        /* \"#utility.yul\":5268:5645   */\n      swap3\n      swap2\n      pop\n      pop\n      jump\t// out\n        /* \"#utility.yul\":5651:6275   */\n    tag_41:\n        /* \"#utility.yul\":5840:5844   */\n      0x00\n        /* \"#utility.yul\":5878:5880   */\n      0x60\n        /* \"#utility.yul\":5867:5876   */\n      dup3\n        /* \"#utility.yul\":5863:5881   */\n      add\n        /* \"#utility.yul\":5855:5881   */\n      swap1\n      pop\n        /* \"#utility.yul\":5927:5936   */\n      dup2\n        /* \"#utility.yul\":5921:5925   */\n      dup2\n        /* \"#utility.yul\":5917:5937   */\n      sub\n        /* \"#utility.yul\":5913:5914   */\n      0x00\n        /* \"#utility.yul\":5902:5911   */\n      dup4\n        /* \"#utility.yul\":5898:5915   */\n      add\n        /* \"#utility.yul\":5891:5938   */\n      mstore\n        /* \"#utility.yul\":5955:6033   */\n      tag_160\n        /* \"#utility.yul\":6028:6032   */\n      dup2\n        /* \"#utility.yul\":6019:6025   */\n      dup7\n        /* \"#utility.yul\":5955:6033   */\n      tag_88\n      jump\t// in\n    tag_160:\n        /* \"#utility.yul\":5947:6033   */\n      swap1\n      pop\n        /* \"#utility.yul\":6080:6089   */\n      dup2\n        /* \"#utility.yul\":6074:6078   */\n      dup2\n        /* \"#utility.yul\":6070:6090   */\n      sub\n        /* \"#utility.yul\":6065:6067   */\n      0x20\n        /* \"#utility.yul\":6054:6063   */\n      dup4\n        /* \"#utility.yul\":6050:6068   */\n      add\n        /* \"#utility.yul\":6043:6091   */\n      mstore\n        /* \"#utility.yul\":6108:6186   */\n      tag_161\n        /* \"#utility.yul\":6181:6185   */\n      dup2\n        /* \"#utility.yul\":6172:6178   */\n      dup6\n        /* \"#utility.yul\":6108:6186   */\n      tag_88\n      jump\t// in\n    tag_161:\n        /* \"#utility.yul\":6100:6186   */\n      swap1\n      pop\n        /* \"#utility.yul\":6196:6268   */\n      tag_162\n        /* \"#utility.yul\":6264:6266   */\n      0x40\n        /* \"#utility.yul\":6253:6262   */\n      dup4\n        /* \"#utility.yul\":6249:6267   */\n      add\n        /* \"#utility.yul\":6240:6246   */\n      dup5\n        /* \"#utility.yul\":6196:6268   */\n      tag_69\n      jump\t// in\n    tag_162:\n        /* \"#utility.yul\":5651:6275   */\n      swap5\n      swap4\n      pop\n      pop\n      pop\n      pop\n      jump\t// out\n        /* \"#utility.yul\":6281:6379   */\n    tag_89:\n        /* \"#utility.yul\":6332:6338   */\n      0x00\n        /* \"#utility.yul\":6366:6371   */\n      dup2\n        /* \"#utility.yul\":6360:6372   */\n      mload\n        /* \"#utility.yul\":6350:6372   */\n      swap1\n      pop\n        /* \"#utility.yul\":6281:6379   */\n      swap2\n      swap1\n      pop\n      jump\t// out\n        /* \"#utility.yul\":6385:6553   */\n    tag_90:\n        /* \"#utility.yul\":6468:6479   */\n      0x00\n        /* \"#utility.yul\":6502:6508   */\n      dup3\n        /* \"#utility.yul\":6497:6500   */\n      dup3\n        /* \"#utility.yul\":6490:6509   */\n      mstore\n        /* \"#utility.yul\":6542:6546   */\n      0x20\n        /* \"#utility.yul\":6537:6540   */\n      dup3\n        /* \"#utility.yul\":6533:6547   */\n      add\n        /* \"#utility.yul\":6518:6547   */\n      swap1\n      pop\n        /* \"#utility.yul\":6385:6553   */\n      swap3\n      swap2\n      pop\n      pop\n      jump\t// out\n        /* \"#utility.yul\":6559:6932   */\n    tag_91:\n        /* \"#utility.yul\":6645:6648   */\n      0x00\n        /* \"#utility.yul\":6673:6711   */\n      tag_166\n        /* \"#utility.yul\":6705:6710   */\n      dup3\n        /* \"#utility.yul\":6673:6711   */\n      tag_89\n      jump\t// in\n    tag_166:\n        /* \"#utility.yul\":6727:6797   */\n      tag_167\n        /* \"#utility.yul\":6790:6796   */\n      dup2\n        /* \"#utility.yul\":6785:6788   */\n      dup6\n        /* \"#utility.yul\":6727:6797   */\n      tag_90\n      jump\t// in\n    tag_167:\n        /* \"#utility.yul\":6720:6797   */\n      swap4\n      pop\n        /* \"#utility.yul\":6806:6871   */\n      tag_168\n        /* \"#utility.yul\":6864:6870   */\n      dup2\n        /* \"#utility.yul\":6859:6862   */\n      dup6\n        /* \"#utility.yul\":6852:6856   */\n      0x20\n        /* \"#utility.yul\":6845:6850   */\n      dup7\n        /* \"#utility.yul\":6841:6857   */\n      add\n        /* \"#utility.yul\":6806:6871   */\n      tag_87\n      jump\t// in\n    tag_168:\n        /* \"#utility.yul\":6896:6925   */\n      tag_169\n        /* \"#utility.yul\":6918:6924   */\n      dup2\n        /* \"#utility.yul\":6896:6925   */\n      tag_75\n      jump\t// in\n    tag_169:\n        /* \"#utility.yul\":6891:6894   */\n      dup5\n        /* \"#utility.yul\":6887:6926   */\n      add\n        /* \"#utility.yul\":6880:6926   */\n      swap2\n      pop\n        /* \"#utility.yul\":6649:6932   */\n      pop\n        /* \"#utility.yul\":6559:6932   */\n      swap3\n      swap2\n      pop\n      pop\n      jump\t// out\n        /* \"#utility.yul\":6938:7357   */\n    tag_45:\n        /* \"#utility.yul\":7077:7081   */\n      0x00\n        /* \"#utility.yul\":7115:7117   */\n      0x40\n        /* \"#utility.yul\":7104:7113   */\n      dup3\n        /* \"#utility.yul\":7100:7118   */\n      add\n        /* \"#utility.yul\":7092:7118   */\n      swap1\n      pop\n        /* \"#utility.yul\":7128:7199   */\n      tag_171\n        /* \"#utility.yul\":7196:7197   */\n      0x00\n        /* \"#utility.yul\":7185:7194   */\n      dup4\n        /* \"#utility.yul\":7181:7198   */\n      add\n        /* \"#utility.yul\":7172:7178   */\n      dup6\n        /* \"#utility.yul\":7128:7199   */\n      tag_69\n      jump\t// in\n    tag_171:\n        /* \"#utility.yul\":7246:7255   */\n      dup2\n        /* \"#utility.yul\":7240:7244   */\n      dup2\n        /* \"#utility.yul\":7236:7256   */\n      sub\n        /* \"#utility.yul\":7231:7233   */\n      0x20\n        /* \"#utility.yul\":7220:7229   */\n      dup4\n        /* \"#utility.yul\":7216:7234   */\n      add\n        /* \"#utility.yul\":7209:7257   */\n      mstore\n        /* \"#utility.yul\":7274:7350   */\n      tag_172\n        /* \"#utility.yul\":7345:7349   */\n      dup2\n        /* \"#utility.yul\":7336:7342   */\n      dup5\n        /* \"#utility.yul\":7274:7350   */\n      tag_91\n      jump\t// in\n    tag_172:\n        /* \"#utility.yul\":7266:7350   */\n      swap1\n      pop\n        /* \"#utility.yul\":6938:7357   */\n      swap4\n      swap3\n      pop\n      pop\n      pop\n      jump\t// out\n        /* \"#utility.yul\":7363:7877   */\n    tag_48:\n        /* \"#utility.yul\":7524:7528   */\n      0x00\n        /* \"#utility.yul\":7562:7564   */\n      0x40\n        /* \"#utility.yul\":7551:7560   */\n      dup3\n        /* \"#utility.yul\":7547:7565   */\n      add\n        /* \"#utility.yul\":7539:7565   */\n      swap1\n      pop\n        /* \"#utility.yul\":7611:7620   */\n      dup2\n        /* \"#utility.yul\":7605:7609   */\n      dup2\n        /* \"#utility.yul\":7601:7621   */\n      sub\n        /* \"#utility.yul\":7597:7598   */\n      0x00\n        /* \"#utility.yul\":7586:7595   */\n      dup4\n        /* \"#utility.yul\":7582:7599   */\n      add\n        /* \"#utility.yul\":7575:7622   */\n      mstore\n        /* \"#utility.yul\":7639:7717   */\n      tag_174\n        /* \"#utility.yul\":7712:7716   */\n      dup2\n        /* \"#utility.yul\":7703:7709   */\n      dup6\n        /* \"#utility.yul\":7639:7717   */\n      tag_88\n      jump\t// in\n    tag_174:\n        /* \"#utility.yul\":7631:7717   */\n      swap1\n      pop\n        /* \"#utility.yul\":7764:7773   */\n      dup2\n        /* \"#utility.yul\":7758:7762   */\n      dup2\n        /* \"#utility.yul\":7754:7774   */\n      sub\n        /* \"#utility.yul\":7749:7751   */\n      0x20\n        /* \"#utility.yul\":7738:7747   */\n      dup4\n        /* \"#utility.yul\":7734:7752   */\n      add\n        /* \"#utility.yul\":7727:7775   */\n      mstore\n        /* \"#utility.yul\":7792:7870   */\n      tag_175\n        /* \"#utility.yul\":7865:7869   */\n      dup2\n        /* \"#utility.yul\":7856:7862   */\n      dup5\n        /* \"#utility.yul\":7792:7870   */\n      tag_88\n      jump\t// in\n    tag_175:\n        /* \"#utility.yul\":7784:7870   */\n      swap1\n      pop\n        /* \"#utility.yul\":7363:7877   */\n      swap4\n      swap3\n      pop\n      pop\n      pop\n      jump\t// out\n    stop\n\n    sub_0: assembly {\n            /* \"@openzeppelin/contracts/proxy/ERC1967/ERC1967Proxy.sol\":600:2635  contract ERC1967Proxy is Proxy {... */\n          mstore(0x40, 0x80)\n            /* \"@openzeppelin/contracts/proxy/ERC1967/ERC1967Proxy.sol\":1453:1709  constructor(address implementation, bytes memory _data) payable {... */\n          mload(0x40)\n          sub(codesize, bytecodeSize)\n          dup1\n          bytecodeSize\n          dup4\n          codecopy\n          dup2\n          dup2\n          add\n          0x40\n          mstore\n          dup2\n          add\n          swap1\n          tag_1\n          swap2\n          swap1\n          tag_2\n          jump\t// in\n        tag_1:\n            /* \"@openzeppelin/contracts/proxy/ERC1967/ERC1967Proxy.sol\":1532:1559  _unsafeAllowUninitialized() */\n          tag_5\n            /* \"@openzeppelin/contracts/proxy/ERC1967/ERC1967Proxy.sol\":1532:1557  _unsafeAllowUninitialized */\n          shl(0x20, tag_6)\n            /* \"@openzeppelin/contracts/proxy/ERC1967/ERC1967Proxy.sol\":1532:1559  _unsafeAllowUninitialized() */\n          0x20\n          shr\n          jump\t// in\n        tag_5:\n            /* \"@openzeppelin/contracts/proxy/ERC1967/ERC1967Proxy.sol\":1531:1559  !_unsafeAllowUninitialized() */\n          iszero\n            /* \"@openzeppelin/contracts/proxy/ERC1967/ERC1967Proxy.sol\":1531:1580  !_unsafeAllowUninitialized() && _data.length == 0 */\n          dup1\n          iszero\n          tag_7\n          jumpi\n          pop\n            /* \"@openzeppelin/contracts/proxy/ERC1967/ERC1967Proxy.sol\":1579:1580  0 */\n          0x00\n            /* \"@openzeppelin/contracts/proxy/ERC1967/ERC1967Proxy.sol\":1563:1568  _data */\n          dup2\n            /* \"@openzeppelin/contracts/proxy/ERC1967/ERC1967Proxy.sol\":1563:1575  _data.length */\n          mload\n            /* \"@openzeppelin/contracts/proxy/ERC1967/ERC1967Proxy.sol\":1563:1580  _data.length == 0 */\n          eq\n            /* \"@openzeppelin/contracts/proxy/ERC1967/ERC1967Proxy.sol\":1531:1580  !_unsafeAllowUninitialized() && _data.length == 0 */\n        tag_7:\n            /* \"@openzeppelin/contracts/proxy/ERC1967/ERC1967Proxy.sol\":1527:1641  if (!_unsafeAllowUninitialized() && _data.length == 0) {... */\n          iszero\n          tag_8\n          jumpi\n            /* \"@openzeppelin/contracts/proxy/ERC1967/ERC1967Proxy.sol\":1603:1630  ERC1967ProxyUninitialized() */\n          mload(0x40)\n          0xc28a273c00000000000000000000000000000000000000000000000000000000\n          dup2\n          mstore\n          0x04\n          add\n          mload(0x40)\n          dup1\n          swap2\n          sub\n          swap1\n          revert\n            /* \"@openzeppelin/contracts/proxy/ERC1967/ERC1967Proxy.sol\":1527:1641  if (!_unsafeAllowUninitialized() && _data.length == 0) {... */\n        tag_8:\n            /* \"@openzeppelin/contracts/proxy/ERC1967/ERC1967Proxy.sol\":1650:1702  ERC1967Utils.upgradeToAndCall(implementation, _data) */\n          tag_9\n            /* \"@openzeppelin/contracts/proxy/ERC1967/ERC1967Proxy.sol\":1680:1694  implementation */\n          dup3\n            /* \"@openzeppelin/contracts/proxy/ERC1967/ERC1967Proxy.sol\":1696:1701  _data */\n          dup3\n            /* \"@openzeppelin/contracts/proxy/ERC1967/ERC1967Proxy.sol\":1650:1679  ERC1967Utils.upgradeToAndCall */\n          shl(0x20, tag_10)\n            /* \"@openzeppelin/contracts/proxy/ERC1967/ERC1967Proxy.sol\":1650:1702  ERC1967Utils.upgradeToAndCall(implementation, _data) */\n          0x20\n          shr\n          jump\t// in\n        tag_9:\n            /* \"@openzeppelin/contracts/proxy/ERC1967/ERC1967Proxy.sol\":1453:1709  constructor(address implementation, bytes memory _data) payable {... */\n          pop\n          pop\n            /* \"@openzeppelin/contracts/proxy/ERC1967/ERC1967Proxy.sol\":600:2635  contract ERC1967Proxy is Proxy {... */\n          jump(tag_11)\n            /* \"@openzeppelin/contracts/proxy/ERC1967/ERC1967Proxy.sol\":2530:2633  function _unsafeAllowUninitialized() internal pure virtual returns (bool) {... */\n        tag_6:\n            /* \"@openzeppelin/contracts/proxy/ERC1967/ERC1967Proxy.sol\":2598:2602  bool */\n          0x00\n            /* \"@openzeppelin/contracts/proxy/ERC1967/ERC1967Proxy.sol\":2621:2626  false */\n          0x00\n            /* \"@openzeppelin/contracts/proxy/ERC1967/ERC1967Proxy.sol\":2614:2626  return false */\n          swap1\n          pop\n            /* \"@openzeppelin/contracts/proxy/ERC1967/ERC1967Proxy.sol\":2530:2633  function _unsafeAllowUninitialized() internal pure virtual returns (bool) {... */\n          swap1\n          jump\t// out\n            /* \"@openzeppelin/contracts/proxy/ERC1967/ERC1967Utils.sol\":2264:2608  function upgradeToAndCall(address newImplementation, bytes memory data) internal {... */\n        tag_10:\n            /* \"@openzeppelin/contracts/proxy/ERC1967/ERC1967Utils.sol\":2355:2392  _setImplementation(newImplementation) */\n          tag_14\n            /* \"@openzeppelin/contracts/proxy/ERC1967/ERC1967Utils.sol\":2374:2391  newImplementation */\n          dup3\n            /* \"@openzeppelin/contracts/proxy/ERC1967/ERC1967Utils.sol\":2355:2373  _setImplementation */\n          shl(0x20, tag_15)\n            /* \"@openzeppelin/contracts/proxy/ERC1967/ERC1967Utils.sol\":2355:2392  _setImplementation(newImplementation) */\n          0x20\n          shr\n          jump\t// in\n        tag_14:\n            /* \"@openzeppelin/contracts/proxy/ERC1967/ERC1967Utils.sol\":2425:2442  newImplementation */\n          dup2\n            /* \"@openzeppelin/contracts/proxy/ERC1967/ERC1967Utils.sol\":2407:2443  IERC1967.Upgraded(newImplementation) */\n          0xffffffffffffffffffffffffffffffffffffffff\n          and\n          0xbc7cd75a20ee27fd9adebab32041f755214dbc6bffa90cc0225b39da2e5c2d3b\n          mload(0x40)\n          mload(0x40)\n          dup1\n          swap2\n          sub\n          swap1\n          log2\n            /* \"@openzeppelin/contracts/proxy/ERC1967/ERC1967Utils.sol\":2472:2473  0 */\n          0x00\n            /* \"@openzeppelin/contracts/proxy/ERC1967/ERC1967Utils.sol\":2458:2462  data */\n          dup2\n            /* \"@openzeppelin/contracts/proxy/ERC1967/ERC1967Utils.sol\":2458:2469  data.length */\n          mload\n            /* \"@openzeppelin/contracts/proxy/ERC1967/ERC1967Utils.sol\":2458:2473  data.length > 0 */\n          gt\n            /* \"@openzeppelin/contracts/proxy/ERC1967/ERC1967Utils.sol\":2454:2602  if (data.length > 0) {... */\n          iszero\n          tag_16\n          jumpi\n            /* \"@openzeppelin/contracts/proxy/ERC1967/ERC1967Utils.sol\":2489:2542  Address.functionDelegateCall(newImplementation, data) */\n          tag_17\n            /* \"@openzeppelin/contracts/proxy/ERC1967/ERC1967Utils.sol\":2518:2535  newImplementation */\n          dup3\n            /* \"@openzeppelin/contracts/proxy/ERC1967/ERC1967Utils.sol\":2537:2541  data */\n          dup3\n            /* \"@openzeppelin/contracts/proxy/ERC1967/ERC1967Utils.sol\":2489:2517  Address.functionDelegateCall */\n          shl(0x20, tag_18)\n            /* \"@openzeppelin/contracts/proxy/ERC1967/ERC1967Utils.sol\":2489:2542  Address.functionDelegateCall(newImplementation, data) */\n          0x20\n          shr\n          jump\t// in\n        tag_17:\n          pop\n            /* \"@openzeppelin/contracts/proxy/ERC1967/ERC1967Utils.sol\":2454:2602  if (data.length > 0) {... */\n          jump(tag_19)\n        tag_16:\n            /* \"@openzeppelin/contracts/proxy/ERC1967/ERC1967Utils.sol\":2573:2591  _checkNonPayable() */\n          tag_20\n            /* \"@openzeppelin/contracts/proxy/ERC1967/ERC1967Utils.sol\":2573:2589  _checkNonPayable */\n          shl(0x20, tag_21)\n            /* \"@openzeppelin/contracts/proxy/ERC1967/ERC1967Utils.sol\":2573:2591  _checkNonPayable() */\n          0x20\n          shr\n          jump\t// in\n        tag_20:\n            /* \"@openzeppelin/contracts/proxy/ERC1967/ERC1967Utils.sol\":2454:2602  if (data.length > 0) {... */\n        tag_19:\n            /* \"@openzeppelin/contracts/proxy/ERC1967/ERC1967Utils.sol\":2264:2608  function upgradeToAndCall(address newImplementation, bytes memory data) internal {... */\n          pop\n          pop\n          jump\t// out\n            /* \"@openzeppelin/contracts/proxy/ERC1967/ERC1967Utils.sol\":1671:1952  function _setImplementation(address newImplementation) private {... */\n        tag_15:\n            /* \"@openzeppelin/contracts/proxy/ERC1967/ERC1967Utils.sol\":1781:1782  0 */\n          0x00\n            /* \"@openzeppelin/contracts/proxy/ERC1967/ERC1967Utils.sol\":1748:1765  newImplementation */\n          dup2\n            /* \"@openzeppelin/contracts/proxy/ERC1967/ERC1967Utils.sol\":1748:1777  newImplementation.code.length */\n          0xffffffffffffffffffffffffffffffffffffffff\n          and\n          extcodesize\n            /* \"@openzeppelin/contracts/proxy/ERC1967/ERC1967Utils.sol\":1748:1782  newImplementation.code.length == 0 */\n          sub\n            /* \"@openzeppelin/contracts/proxy/ERC1967/ERC1967Utils.sol\":1744:1863  if (newImplementation.code.length == 0) {... */\n          tag_23\n          jumpi\n            /* \"@openzeppelin/contracts/proxy/ERC1967/ERC1967Utils.sol\":1834:1851  newImplementation */\n          dup1\n            /* \"@openzeppelin/contracts/proxy/ERC1967/ERC1967Utils.sol\":1805:1852  ERC1967InvalidImplementation(newImplementation) */\n          mload(0x40)\n          0x4c9c8ce300000000000000000000000000000000000000000000000000000000\n          dup2\n          mstore\n          0x04\n          add\n          tag_24\n          swap2\n          swap1\n          tag_25\n          jump\t// in\n        tag_24:\n          mload(0x40)\n          dup1\n          swap2\n          sub\n          swap1\n          revert\n            /* \"@openzeppelin/contracts/proxy/ERC1967/ERC1967Utils.sol\":1744:1863  if (newImplementation.code.length == 0) {... */\n        tag_23:\n            /* \"@openzeppelin/contracts/proxy/ERC1967/ERC1967Utils.sol\":1928:1945  newImplementation */\n          dup1\n            /* \"@openzeppelin/contracts/proxy/ERC1967/ERC1967Utils.sol\":1872:1919  StorageSlot.getAddressSlot(IMPLEMENTATION_SLOT) */\n          tag_26\n            /* \"@openzeppelin/contracts/proxy/ERC1967/ERC1967Utils.sol\":811:877  0x360894a13ba1a3210667c828492db98dca3e2076cc3735a920a3ca505d382bbc */\n          0x360894a13ba1a3210667c828492db98dca3e2076cc3735a920a3ca505d382bbc\n            /* \"@openzeppelin/contracts/proxy/ERC1967/ERC1967Utils.sol\":1899:1918  IMPLEMENTATION_SLOT */\n          0x00\n          shl\n            /* \"@openzeppelin/contracts/proxy/ERC1967/ERC1967Utils.sol\":1872:1898  StorageSlot.getAddressSlot */\n          shl(0x20, tag_27)\n            /* \"@openzeppelin/contracts/proxy/ERC1967/ERC1967Utils.sol\":1872:1919  StorageSlot.getAddressSlot(IMPLEMENTATION_SLOT) */\n          0x20\n          shr\n          jump\t// in\n        tag_26:\n            /* \"@openzeppelin/contracts/proxy/ERC1967/ERC1967Utils.sol\":1872:1925  StorageSlot.getAddressSlot(IMPLEMENTATION_SLOT).value */\n          0x00\n          add\n          0x00\n            /* \"@openzeppelin/contracts/proxy/ERC1967/ERC1967Utils.sol\":1872:1945  StorageSlot.getAddressSlot(IMPLEMENTATION_SLOT).value = newImplementation */\n          0x0100\n          exp\n          dup2\n          sload\n          dup2\n          0xffffffffffffffffffffffffffffffffffffffff\n          mul\n          not\n          and\n          swap1\n          dup4\n          0xffffffffffffffffffffffffffffffffffffffff\n          and\n          mul\n          or\n          swap1\n          sstore\n          pop\n            /* \"@openzeppelin/contracts/proxy/ERC1967/ERC1967Utils.sol\":1671:1952  function _setImplementation(address newImplementation) private {... */\n          pop\n          jump\t// out\n            /* \"@openzeppelin/contracts/utils/Address.sol\":4691:5240  function functionDelegateCall(address target, bytes memory data) internal returns (bytes memory) {... */\n        tag_18:\n            /* \"@openzeppelin/contracts/utils/Address.sol\":4774:4786  bytes memory */\n          0x60\n            /* \"@openzeppelin/contracts/utils/Address.sol\":4798:4810  bool success */\n          0x00\n            /* \"@openzeppelin/contracts/utils/Address.sol\":4813:4860  LowLevelCall.delegatecallNoReturn(target, data) */\n          tag_29\n            /* \"@openzeppelin/contracts/utils/Address.sol\":4847:4853  target */\n          dup5\n            /* \"@openzeppelin/contracts/utils/Address.sol\":4855:4859  data */\n          dup5\n            /* \"@openzeppelin/contracts/utils/Address.sol\":4813:4846  LowLevelCall.delegatecallNoReturn */\n          shl(0x20, tag_30)\n            /* \"@openzeppelin/contracts/utils/Address.sol\":4813:4860  LowLevelCall.delegatecallNoReturn(target, data) */\n          0x20\n          shr\n          jump\t// in\n        tag_29:\n            /* \"@openzeppelin/contracts/utils/Address.sol\":4798:4860  bool success = LowLevelCall.delegatecallNoReturn(target, data) */\n          swap1\n          pop\n            /* \"@openzeppelin/contracts/utils/Address.sol\":4874:4881  success */\n          dup1\n            /* \"@openzeppelin/contracts/utils/Address.sol\":4874:4946  success && (LowLevelCall.returnDataSize() > 0 || target.code.length > 0) */\n          dup1\n          iszero\n          tag_31\n          jumpi\n          pop\n            /* \"@openzeppelin/contracts/utils/Address.sol\":4918:4919  0 */\n          0x00\n            /* \"@openzeppelin/contracts/utils/Address.sol\":4886:4915  LowLevelCall.returnDataSize() */\n          tag_32\n            /* \"@openzeppelin/contracts/utils/Address.sol\":4886:4913  LowLevelCall.returnDataSize */\n          shl(0x20, tag_33)\n            /* \"@openzeppelin/contracts/utils/Address.sol\":4886:4915  LowLevelCall.returnDataSize() */\n          0x20\n          shr\n          jump\t// in\n        tag_32:\n            /* \"@openzeppelin/contracts/utils/Address.sol\":4886:4919  LowLevelCall.returnDataSize() > 0 */\n          gt\n            /* \"@openzeppelin/contracts/utils/Address.sol\":4886:4945  LowLevelCall.returnDataSize() > 0 || target.code.length > 0 */\n          dup1\n          tag_34\n          jumpi\n          pop\n            /* \"@openzeppelin/contracts/utils/Address.sol\":4944:4945  0 */\n          0x00\n            /* \"@openzeppelin/contracts/utils/Address.sol\":4923:4929  target */\n          dup5\n            /* \"@openzeppelin/contracts/utils/Address.sol\":4923:4941  target.code.length */\n          0xffffffffffffffffffffffffffffffffffffffff\n          and\n          extcodesize\n            /* \"@openzeppelin/contracts/utils/Address.sol\":4923:4945  target.code.length > 0 */\n          gt\n            /* \"@openzeppelin/contracts/utils/Address.sol\":4886:4945  LowLevelCall.returnDataSize() > 0 || target.code.length > 0 */\n        tag_34:\n            /* \"@openzeppelin/contracts/utils/Address.sol\":4874:4946  success && (LowLevelCall.returnDataSize() > 0 || target.code.length > 0) */\n        tag_31:\n            /* \"@openzeppelin/contracts/utils/Address.sol\":4870:5234  if (success && (LowLevelCall.returnDataSize() > 0 || target.code.length > 0)) {... */\n          iszero\n          tag_35\n          jumpi\n            /* \"@openzeppelin/contracts/utils/Address.sol\":4969:4994  LowLevelCall.returnData() */\n          tag_36\n            /* \"@openzeppelin/contracts/utils/Address.sol\":4969:4992  LowLevelCall.returnData */\n          shl(0x20, tag_37)\n            /* \"@openzeppelin/contracts/utils/Address.sol\":4969:4994  LowLevelCall.returnData() */\n          0x20\n          shr\n          jump\t// in\n        tag_36:\n            /* \"@openzeppelin/contracts/utils/Address.sol\":4962:4994  return LowLevelCall.returnData() */\n          swap2\n          pop\n          pop\n          jump(tag_28)\n            /* \"@openzeppelin/contracts/utils/Address.sol\":4870:5234  if (success && (LowLevelCall.returnDataSize() > 0 || target.code.length > 0)) {... */\n        tag_35:\n            /* \"@openzeppelin/contracts/utils/Address.sol\":5015:5022  success */\n          dup1\n            /* \"@openzeppelin/contracts/utils/Address.sol\":5011:5234  if (success) {... */\n          iszero\n          tag_39\n          jumpi\n            /* \"@openzeppelin/contracts/utils/Address.sol\":5062:5068  target */\n          dup4\n            /* \"@openzeppelin/contracts/utils/Address.sol\":5045:5069  AddressEmptyCode(target) */\n          mload(0x40)\n          0x9996b31500000000000000000000000000000000000000000000000000000000\n          dup2\n          mstore\n          0x04\n          add\n          tag_40\n          swap2\n          swap1\n          tag_25\n          jump\t// in\n        tag_40:\n          mload(0x40)\n          dup1\n          swap2\n          sub\n          swap1\n          revert\n            /* \"@openzeppelin/contracts/utils/Address.sol\":5011:5234  if (success) {... */\n        tag_39:\n            /* \"@openzeppelin/contracts/utils/Address.sol\":5122:5123  0 */\n          0x00\n            /* \"@openzeppelin/contracts/utils/Address.sol\":5090:5119  LowLevelCall.returnDataSize() */\n          tag_42\n            /* \"@openzeppelin/contracts/utils/Address.sol\":5090:5117  LowLevelCall.returnDataSize */\n          shl(0x20, tag_33)\n            /* \"@openzeppelin/contracts/utils/Address.sol\":5090:5119  LowLevelCall.returnDataSize() */\n          0x20\n          shr\n          jump\t// in\n        tag_42:\n            /* \"@openzeppelin/contracts/utils/Address.sol\":5090:5123  LowLevelCall.returnDataSize() > 0 */\n          gt\n            /* \"@openzeppelin/contracts/utils/Address.sol\":5086:5234  if (LowLevelCall.returnDataSize() > 0) {... */\n          iszero\n          tag_43\n          jumpi\n            /* \"@openzeppelin/contracts/utils/Address.sol\":5139:5166  LowLevelCall.bubbleRevert() */\n          tag_44\n            /* \"@openzeppelin/contracts/utils/Address.sol\":5139:5164  LowLevelCall.bubbleRevert */\n          shl(0x20, tag_45)\n            /* \"@openzeppelin/contracts/utils/Address.sol\":5139:5166  LowLevelCall.bubbleRevert() */\n          0x20\n          shr\n          jump\t// in\n        tag_44:\n            /* \"@openzeppelin/contracts/utils/Address.sol\":5086:5234  if (LowLevelCall.returnDataSize() > 0) {... */\n          jump(tag_46)\n        tag_43:\n            /* \"@openzeppelin/contracts/utils/Address.sol\":5204:5223  Errors.FailedCall() */\n          mload(0x40)\n          0xd6bda27500000000000000000000000000000000000000000000000000000000\n          dup2\n          mstore\n          0x04\n          add\n          mload(0x40)\n          dup1\n          swap2\n          sub\n          swap1\n          revert\n            /* \"@openzeppelin/contracts/utils/Address.sol\":5086:5234  if (LowLevelCall.returnDataSize() > 0) {... */\n        tag_46:\n            /* \"@openzeppelin/contracts/utils/Address.sol\":4788:5240  {... */\n          pop\n            /* \"@openzeppelin/contracts/utils/Address.sol\":4691:5240  function functionDelegateCall(address target, bytes memory data) internal returns (bytes memory) {... */\n        tag_28:\n          swap3\n          swap2\n          pop\n          pop\n          jump\t// out\n            /* \"@openzeppelin/contracts/proxy/ERC1967/ERC1967Utils.sol\":6135:6257  function _checkNonPayable() private {... */\n        tag_21:\n            /* \"@openzeppelin/contracts/proxy/ERC1967/ERC1967Utils.sol\":6197:6198  0 */\n          0x00\n            /* \"@openzeppelin/contracts/proxy/ERC1967/ERC1967Utils.sol\":6185:6194  msg.value */\n          callvalue\n            /* \"@openzeppelin/contracts/proxy/ERC1967/ERC1967Utils.sol\":6185:6198  msg.value > 0 */\n          gt\n            /* \"@openzeppelin/contracts/proxy/ERC1967/ERC1967Utils.sol\":6181:6251  if (msg.value > 0) {... */\n          iszero\n          tag_48\n          jumpi\n            /* \"@openzeppelin/contracts/proxy/ERC1967/ERC1967Utils.sol\":6221:6240  ERC1967NonPayable() */\n          mload(0x40)\n          0xb398979f00000000000000000000000000000000000000000000000000000000\n          dup2\n          mstore\n          0x04\n          add\n          mload(0x40)\n          dup1\n          swap2\n          sub\n          swap1\n          revert\n            /* \"@openzeppelin/contracts/proxy/ERC1967/ERC1967Utils.sol\":6181:6251  if (msg.value > 0) {... */\n        tag_48:\n            /* \"@openzeppelin/contracts/proxy/ERC1967/ERC1967Utils.sol\":6135:6257  function _checkNonPayable() private {... */\n          jump\t// out\n            /* \"@openzeppelin/contracts/utils/StorageSlot.sol\":1899:2062  function getAddressSlot(bytes32 slot) internal pure returns (AddressSlot storage r) {... */\n        tag_27:\n            /* \"@openzeppelin/contracts/utils/StorageSlot.sol\":1960:1981  AddressSlot storage r */\n          0x00\n            /* \"@openzeppelin/contracts/utils/StorageSlot.sol\":2042:2046  slot */\n          dup2\n            /* \"@openzeppelin/contracts/utils/StorageSlot.sol\":2032:2046  r.slot := slot */\n          swap1\n          pop\n            /* \"@openzeppelin/contracts/utils/StorageSlot.sol\":1899:2062  function getAddressSlot(bytes32 slot) internal pure returns (AddressSlot storage r) {... */\n          swap2\n          swap1\n          pop\n          jump\t// out\n            /* \"@openzeppelin/contracts/utils/LowLevelCall.sol\":3419:3661  function delegatecallNoReturn(address target, bytes memory data) internal returns (bool success) {... */\n        tag_30:\n            /* \"@openzeppelin/contracts/utils/LowLevelCall.sol\":3502:3514  bool success */\n          0x00\n            /* \"@openzeppelin/contracts/utils/LowLevelCall.sol\":3640:3644  0x00 */\n          0x00\n            /* \"@openzeppelin/contracts/utils/LowLevelCall.sol\":3634:3638  0x00 */\n          0x00\n            /* \"@openzeppelin/contracts/utils/LowLevelCall.sol\":3627:3631  data */\n          dup4\n            /* \"@openzeppelin/contracts/utils/LowLevelCall.sol\":3621:3632  mload(data) */\n          mload\n            /* \"@openzeppelin/contracts/utils/LowLevelCall.sol\":3614:3618  0x20 */\n          0x20\n            /* \"@openzeppelin/contracts/utils/LowLevelCall.sol\":3608:3612  data */\n          dup6\n            /* \"@openzeppelin/contracts/utils/LowLevelCall.sol\":3604:3619  add(data, 0x20) */\n          add\n            /* \"@openzeppelin/contracts/utils/LowLevelCall.sol\":3596:3602  target */\n          dup7\n            /* \"@openzeppelin/contracts/utils/LowLevelCall.sol\":3589:3594  gas() */\n          gas\n            /* \"@openzeppelin/contracts/utils/LowLevelCall.sol\":3576:3645  delegatecall(gas(), target, add(data, 0x20), mload(data), 0x00, 0x00) */\n          delegatecall\n            /* \"@openzeppelin/contracts/utils/LowLevelCall.sol\":3565:3645  success := delegatecall(gas(), target, add(data, 0x20), mload(data), 0x00, 0x00) */\n          swap1\n          pop\n            /* \"@openzeppelin/contracts/utils/LowLevelCall.sol\":3419:3661  function delegatecallNoReturn(address target, bytes memory data) internal returns (bool success) {... */\n          swap3\n          swap2\n          pop\n          pop\n          jump\t// out\n            /* \"@openzeppelin/contracts/utils/LowLevelCall.sol\":4505:4657  function returnDataSize() internal pure returns (uint256 size) {... */\n        tag_33:\n            /* \"@openzeppelin/contracts/utils/LowLevelCall.sol\":4554:4566  uint256 size */\n          0x00\n            /* \"@openzeppelin/contracts/utils/LowLevelCall.sol\":4625:4641  returndatasize() */\n          returndatasize\n            /* \"@openzeppelin/contracts/utils/LowLevelCall.sol\":4617:4641  size := returndatasize() */\n          swap1\n          pop\n            /* \"@openzeppelin/contracts/utils/LowLevelCall.sol\":4505:4657  function returnDataSize() internal pure returns (uint256 size) {... */\n          swap1\n          jump\t// out\n            /* \"@openzeppelin/contracts/utils/LowLevelCall.sol\":4740:5074  function returnData() internal pure returns (bytes memory result) {... */\n        tag_37:\n            /* \"@openzeppelin/contracts/utils/LowLevelCall.sol\":4785:4804  bytes memory result */\n          0x60\n            /* \"@openzeppelin/contracts/utils/LowLevelCall.sol\":4871:4875  0x40 */\n          0x40\n            /* \"@openzeppelin/contracts/utils/LowLevelCall.sol\":4865:4876  mload(0x40) */\n          mload\n            /* \"@openzeppelin/contracts/utils/LowLevelCall.sol\":4855:4876  result := mload(0x40) */\n          swap1\n          pop\n            /* \"@openzeppelin/contracts/utils/LowLevelCall.sol\":4904:4920  returndatasize() */\n          returndatasize\n            /* \"@openzeppelin/contracts/utils/LowLevelCall.sol\":4896:4902  result */\n          dup2\n            /* \"@openzeppelin/contracts/utils/LowLevelCall.sol\":4889:4921  mstore(result, returndatasize()) */\n          mstore\n            /* \"@openzeppelin/contracts/utils/LowLevelCall.sol\":4974:4990  returndatasize() */\n          returndatasize\n            /* \"@openzeppelin/contracts/utils/LowLevelCall.sol\":4968:4972  0x00 */\n          0x00\n            /* \"@openzeppelin/contracts/utils/LowLevelCall.sol\":4961:4965  0x20 */\n          0x20\n            /* \"@openzeppelin/contracts/utils/LowLevelCall.sol\":4953:4959  result */\n          dup4\n            /* \"@openzeppelin/contracts/utils/LowLevelCall.sol\":4949:4966  add(result, 0x20) */\n          add\n            /* \"@openzeppelin/contracts/utils/LowLevelCall.sol\":4934:4991  returndatacopy(add(result, 0x20), 0x00, returndatasize()) */\n          returndatacopy\n            /* \"@openzeppelin/contracts/utils/LowLevelCall.sol\":5039:5055  returndatasize() */\n          returndatasize\n            /* \"@openzeppelin/contracts/utils/LowLevelCall.sol\":5033:5037  0x20 */\n          0x20\n            /* \"@openzeppelin/contracts/utils/LowLevelCall.sol\":5029:5056  add(0x20, returndatasize()) */\n          add\n            /* \"@openzeppelin/contracts/utils/LowLevelCall.sol\":5021:5027  result */\n          dup2\n            /* \"@openzeppelin/contracts/utils/LowLevelCall.sol\":5017:5057  add(result, add(0x20, returndatasize())) */\n          add\n            /* \"@openzeppelin/contracts/utils/LowLevelCall.sol\":5011:5015  0x40 */\n          0x40\n            /* \"@openzeppelin/contracts/utils/LowLevelCall.sol\":5004:5058  mstore(0x40, add(result, add(0x20, returndatasize()))) */\n          mstore\n            /* \"@openzeppelin/contracts/utils/LowLevelCall.sol\":4740:5074  function returnData() internal pure returns (bytes memory result) {... */\n          swap1\n          jump\t// out\n            /* \"@openzeppelin/contracts/utils/LowLevelCall.sol\":5141:5364  function bubbleRevert() internal pure {... */\n        tag_45:\n            /* \"@openzeppelin/contracts/utils/LowLevelCall.sol\":5245:5249  0x40 */\n          0x40\n            /* \"@openzeppelin/contracts/utils/LowLevelCall.sol\":5239:5250  mload(0x40) */\n          mload\n            /* \"@openzeppelin/contracts/utils/LowLevelCall.sol\":5289:5305  returndatasize() */\n          returndatasize\n            /* \"@openzeppelin/contracts/utils/LowLevelCall.sol\":5283:5287  0x00 */\n          0x00\n            /* \"@openzeppelin/contracts/utils/LowLevelCall.sol\":5278:5281  fmp */\n          dup3\n            /* \"@openzeppelin/contracts/utils/LowLevelCall.sol\":5263:5306  returndatacopy(fmp, 0x00, returndatasize()) */\n          returndatacopy\n            /* \"@openzeppelin/contracts/utils/LowLevelCall.sol\":5331:5347  returndatasize() */\n          returndatasize\n            /* \"@openzeppelin/contracts/utils/LowLevelCall.sol\":5326:5329  fmp */\n          dup2\n            /* \"@openzeppelin/contracts/utils/LowLevelCall.sol\":5319:5348  revert(fmp, returndatasize()) */\n          revert\n            /* \"#utility.yul\":7:82   */\n        tag_54:\n            /* \"#utility.yul\":40:46   */\n          0x00\n            /* \"#utility.yul\":73:75   */\n          0x40\n            /* \"#utility.yul\":67:76   */\n          mload\n            /* \"#utility.yul\":57:76   */\n          swap1\n          pop\n            /* \"#utility.yul\":7:82   */\n          swap1\n          jump\t// out\n            /* \"#utility.yul\":88:205   */\n        tag_55:\n            /* \"#utility.yul\":197:198   */\n          0x00\n            /* \"#utility.yul\":194:195   */\n          0x00\n            /* \"#utility.yul\":187:199   */\n          revert\n            /* \"#utility.yul\":211:328   */\n        tag_56:\n            /* \"#utility.yul\":320:321   */\n          0x00\n            /* \"#utility.yul\":317:318   */\n          0x00\n            /* \"#utility.yul\":310:322   */\n          revert\n            /* \"#utility.yul\":334:460   */\n        tag_57:\n            /* \"#utility.yul\":371:378   */\n          0x00\n            /* \"#utility.yul\":411:453   */\n          0xffffffffffffffffffffffffffffffffffffffff\n            /* \"#utility.yul\":404:409   */\n          dup3\n            /* \"#utility.yul\":400:454   */\n          and\n            /* \"#utility.yul\":389:454   */\n          swap1\n          pop\n            /* \"#utility.yul\":334:460   */\n          swap2\n          swap1\n          pop\n          jump\t// out\n            /* \"#utility.yul\":466:562   */\n        tag_58:\n            /* \"#utility.yul\":503:510   */\n          0x00\n            /* \"#utility.yul\":532:556   */\n          tag_78\n            /* \"#utility.yul\":550:555   */\n          dup3\n            /* \"#utility.yul\":532:556   */\n          tag_57\n          jump\t// in\n        tag_78:\n            /* \"#utility.yul\":521:556   */\n          swap1\n          pop\n            /* \"#utility.yul\":466:562   */\n          swap2\n          swap1\n          pop\n          jump\t// out\n            /* \"#utility.yul\":568:690   */\n        tag_59:\n            /* \"#utility.yul\":641:665   */\n          tag_80\n            /* \"#utility.yul\":659:664   */\n          dup2\n            /* \"#utility.yul\":641:665   */\n          tag_58\n          jump\t// in\n        tag_80:\n            /* \"#utility.yul\":634:639   */\n          dup2\n            /* \"#utility.yul\":631:666   */\n          eq\n            /* \"#utility.yul\":621:684   */\n          tag_81\n          jumpi\n            /* \"#utility.yul\":680:681   */\n          0x00\n            /* \"#utility.yul\":677:678   */\n          0x00\n            /* \"#utility.yul\":670:682   */\n          revert\n            /* \"#utility.yul\":621:684   */\n        tag_81:\n            /* \"#utility.yul\":568:690   */\n          pop\n          jump\t// out\n            /* \"#utility.yul\":696:839   */\n        tag_60:\n            /* \"#utility.yul\":753:758   */\n          0x00\n            /* \"#utility.yul\":784:790   */\n          dup2\n            /* \"#utility.yul\":778:791   */\n          mload\n            /* \"#utility.yul\":769:791   */\n          swap1\n          pop\n            /* \"#utility.yul\":800:833   */\n          tag_83\n            /* \"#utility.yul\":827:832   */\n          dup2\n            /* \"#utility.yul\":800:833   */\n          tag_59\n          jump\t// in\n        tag_83:\n            /* \"#utility.yul\":696:839   */\n          swap3\n          swap2\n          pop\n          pop\n          jump\t// out\n            /* \"#utility.yul\":845:962   */\n        tag_61:\n            /* \"#utility.yul\":954:955   */\n          0x00\n            /* \"#utility.yul\":951:952   */\n          0x00\n            /* \"#utility.yul\":944:956   */\n          revert\n            /* \"#utility.yul\":968:1085   */\n        tag_62:\n            /* \"#utility.yul\":1077:1078   */\n          0x00\n            /* \"#utility.yul\":1074:1075   */\n          0x00\n            /* \"#utility.yul\":1067:1079   */\n          revert\n            /* \"#utility.yul\":1091:1193   */\n        tag_63:\n            /* \"#utility.yul\":1132:1138   */\n          0x00\n            /* \"#utility.yul\":1183:1185   */\n          0x1f\n            /* \"#utility.yul\":1179:1186   */\n          not\n            /* \"#utility.yul\":1174:1176   */\n          0x1f\n            /* \"#utility.yul\":1167:1172   */\n          dup4\n            /* \"#utility.yul\":1163:1177   */\n          add\n            /* \"#utility.yul\":1159:1187   */\n          and\n            /* \"#utility.yul\":1149:1187   */\n          swap1\n          pop\n            /* \"#utility.yul\":1091:1193   */\n          swap2\n          swap1\n          pop\n          jump\t// out\n            /* \"#utility.yul\":1199:1379   */\n        tag_64:\n            /* \"#utility.yul\":1247:1324   */\n          0x4e487b7100000000000000000000000000000000000000000000000000000000\n            /* \"#utility.yul\":1244:1245   */\n          0x00\n            /* \"#utility.yul\":1237:1325   */\n          mstore\n            /* \"#utility.yul\":1344:1348   */\n          0x41\n            /* \"#utility.yul\":1341:1342   */\n          0x04\n            /* \"#utility.yul\":1334:1349   */\n          mstore\n            /* \"#utility.yul\":1368:1372   */\n          0x24\n            /* \"#utility.yul\":1365:1366   */\n          0x00\n            /* \"#utility.yul\":1358:1373   */\n          revert\n            /* \"#utility.yul\":1385:1666   */\n        tag_65:\n            /* \"#utility.yul\":1468:1495   */\n          tag_89\n            /* \"#utility.yul\":1490:1494   */\n          dup3\n            /* \"#utility.yul\":1468:1495   */\n          tag_63\n          jump\t// in\n        tag_89:\n            /* \"#utility.yul\":1460:1466   */\n          dup2\n            /* \"#utility.yul\":1456:1496   */\n          add\n            /* \"#utility.yul\":1598:1604   */\n          dup2\n            /* \"#utility.yul\":1586:1596   */\n          dup2\n            /* \"#utility.yul\":1583:1605   */\n          lt\n            /* \"#utility.yul\":1562:1580   */\n          0xffffffffffffffff\n            /* \"#utility.yul\":1550:1560   */\n          dup3\n            /* \"#utility.yul\":1547:1581   */\n          gt\n            /* \"#utility.yul\":1544:1606   */\n          or\n            /* \"#utility.yul\":1541:1629   */\n          iszero\n          tag_90\n          jumpi\n            /* \"#utility.yul\":1609:1627   */\n          tag_91\n          tag_64\n          jump\t// in\n        tag_91:\n            /* \"#utility.yul\":1541:1629   */\n        tag_90:\n            /* \"#utility.yul\":1649:1659   */\n          dup1\n            /* \"#utility.yul\":1645:1647   */\n          0x40\n            /* \"#utility.yul\":1638:1660   */\n          mstore\n            /* \"#utility.yul\":1428:1666   */\n          pop\n            /* \"#utility.yul\":1385:1666   */\n          pop\n          pop\n          jump\t// out\n            /* \"#utility.yul\":1672:1801   */\n        tag_66:\n            /* \"#utility.yul\":1706:1712   */\n          0x00\n            /* \"#utility.yul\":1733:1753   */\n          tag_93\n          tag_54\n          jump\t// in\n        tag_93:\n            /* \"#utility.yul\":1723:1753   */\n          swap1\n          pop\n            /* \"#utility.yul\":1762:1795   */\n          tag_94\n            /* \"#utility.yul\":1790:1794   */\n          dup3\n            /* \"#utility.yul\":1782:1788   */\n          dup3\n            /* \"#utility.yul\":1762:1795   */\n          tag_65\n          jump\t// in\n        tag_94:\n            /* \"#utility.yul\":1672:1801   */\n          swap2\n          swap1\n          pop\n          jump\t// out\n            /* \"#utility.yul\":1807:2114   */\n        tag_67:\n            /* \"#utility.yul\":1868:1872   */\n          0x00\n            /* \"#utility.yul\":1958:1976   */\n          0xffffffffffffffff\n            /* \"#utility.yul\":1950:1956   */\n          dup3\n            /* \"#utility.yul\":1947:1977   */\n          gt\n            /* \"#utility.yul\":1944:2000   */\n          iszero\n          tag_96\n          jumpi\n            /* \"#utility.yul\":1980:1998   */\n          tag_97\n          tag_64\n          jump\t// in\n        tag_97:\n            /* \"#utility.yul\":1944:2000   */\n        tag_96:\n            /* \"#utility.yul\":2018:2047   */\n          tag_98\n            /* \"#utility.yul\":2040:2046   */\n          dup3\n            /* \"#utility.yul\":2018:2047   */\n          tag_63\n          jump\t// in\n        tag_98:\n            /* \"#utility.yul\":2010:2047   */\n          swap1\n          pop\n            /* \"#utility.yul\":2102:2106   */\n          0x20\n            /* \"#utility.yul\":2096:2100   */\n          dup2\n            /* \"#utility.yul\":2092:2107   */\n          add\n            /* \"#utility.yul\":2084:2107   */\n          swap1\n          pop\n            /* \"#utility.yul\":1807:2114   */\n          swap2\n          swap1\n          pop\n          jump\t// out\n            /* \"#utility.yul\":2120:2368   */\n        tag_68:\n            /* \"#utility.yul\":2202:2203   */\n          0x00\n            /* \"#utility.yul\":2212:2325   */\n        tag_100:\n            /* \"#utility.yul\":2226:2232   */\n          dup4\n            /* \"#utility.yul\":2223:2224   */\n          dup2\n            /* \"#utility.yul\":2220:2233   */\n          lt\n            /* \"#utility.yul\":2212:2325   */\n          iszero\n          tag_102\n          jumpi\n            /* \"#utility.yul\":2311:2312   */\n          dup1\n            /* \"#utility.yul\":2306:2309   */\n          dup3\n            /* \"#utility.yul\":2302:2313   */\n          add\n            /* \"#utility.yul\":2296:2314   */\n          mload\n            /* \"#utility.yul\":2292:2293   */\n          dup2\n            /* \"#utility.yul\":2287:2290   */\n          dup5\n            /* \"#utility.yul\":2283:2294   */\n          add\n            /* \"#utility.yul\":2276:2315   */\n          mstore\n            /* \"#utility.yul\":2248:2250   */\n          0x20\n            /* \"#utility.yul\":2245:2246   */\n          dup2\n            /* \"#utility.yul\":2241:2251   */\n          add\n            /* \"#utility.yul\":2236:2251   */\n          swap1\n          pop\n            /* \"#utility.yul\":2212:2325   */\n          jump(tag_100)\n        tag_102:\n            /* \"#utility.yul\":2359:2360   */\n          0x00\n            /* \"#utility.yul\":2350:2356   */\n          dup5\n            /* \"#utility.yul\":2345:2348   */\n          dup5\n            /* \"#utility.yul\":2341:2357   */\n          add\n            /* \"#utility.yul\":2334:2361   */\n          mstore\n            /* \"#utility.yul\":2182:2368   */\n          pop\n            /* \"#utility.yul\":2120:2368   */\n          pop\n          pop\n          pop\n          jump\t// out\n            /* \"#utility.yul\":2374:2806   */\n        tag_69:\n            /* \"#utility.yul\":2462:2467   */\n          0x00\n            /* \"#utility.yul\":2487:2552   */\n          tag_104\n            /* \"#utility.yul\":2503:2551   */\n          tag_105\n            /* \"#utility.yul\":2544:2550   */\n          dup5\n            /* \"#utility.yul\":2503:2551   */\n          tag_67\n          jump\t// in\n        tag_105:\n            /* \"#utility.yul\":2487:2552   */\n          tag_66\n          jump\t// in\n        tag_104:\n            /* \"#utility.yul\":2478:2552   */\n          swap1\n          pop\n            /* \"#utility.yul\":2575:2581   */\n          dup3\n            /* \"#utility.yul\":2568:2573   */\n          dup2\n            /* \"#utility.yul\":2561:2582   */\n          mstore\n            /* \"#utility.yul\":2613:2617   */\n          0x20\n            /* \"#utility.yul\":2606:2611   */\n          dup2\n            /* \"#utility.yul\":2602:2618   */\n          add\n            /* \"#utility.yul\":2651:2654   */\n          dup5\n            /* \"#utility.yul\":2642:2648   */\n          dup5\n            /* \"#utility.yul\":2637:2640   */\n          dup5\n            /* \"#utility.yul\":2633:2649   */\n          add\n            /* \"#utility.yul\":2630:2655   */\n          gt\n            /* \"#utility.yul\":2627:2739   */\n          iszero\n          tag_106\n          jumpi\n            /* \"#utility.yul\":2658:2737   */\n          tag_107\n          tag_62\n          jump\t// in\n        tag_107:\n            /* \"#utility.yul\":2627:2739   */\n        tag_106:\n            /* \"#utility.yul\":2748:2800   */\n          tag_108\n            /* \"#utility.yul\":2793:2799   */\n          dup5\n            /* \"#utility.yul\":2788:2791   */\n          dup3\n            /* \"#utility.yul\":2783:2786   */\n          dup6\n            /* \"#utility.yul\":2748:2800   */\n          tag_68\n          jump\t// in\n        tag_108:\n            /* \"#utility.yul\":2468:2806   */\n          pop\n            /* \"#utility.yul\":2374:2806   */\n          swap4\n          swap3\n          pop\n          pop\n          pop\n          jump\t// out\n            /* \"#utility.yul\":2825:3178   */\n        tag_70:\n            /* \"#utility.yul\":2891:2896   */\n          0x00\n            /* \"#utility.yul\":2940:2943   */\n          dup3\n            /* \"#utility.yul\":2933:2937   */\n          0x1f\n            /* \"#utility.yul\":2925:2931   */\n          dup4\n            /* \"#utility.yul\":2921:2938   */\n          add\n            /* \"#utility.yul\":2917:2944   */\n          slt\n            /* \"#utility.yul\":2907:3029   */\n          tag_110\n          jumpi\n            /* \"#utility.yul\":2948:3027   */\n          tag_111\n          tag_61\n          jump\t// in\n        tag_111:\n            /* \"#utility.yul\":2907:3029   */\n        tag_110:\n            /* \"#utility.yul\":3058:3064   */\n          dup2\n            /* \"#utility.yul\":3052:3065   */\n          mload\n            /* \"#utility.yul\":3083:3172   */\n          tag_112\n            /* \"#utility.yul\":3168:3171   */\n          dup5\n            /* \"#utility.yul\":3160:3166   */\n          dup3\n            /* \"#utility.yul\":3153:3157   */\n          0x20\n            /* \"#utility.yul\":3145:3151   */\n          dup7\n            /* \"#utility.yul\":3141:3158   */\n          add\n            /* \"#utility.yul\":3083:3172   */\n          tag_69\n          jump\t// in\n        tag_112:\n            /* \"#utility.yul\":3074:3172   */\n          swap2\n          pop\n            /* \"#utility.yul\":2897:3178   */\n          pop\n            /* \"#utility.yul\":2825:3178   */\n          swap3\n          swap2\n          pop\n          pop\n          jump\t// out\n            /* \"#utility.yul\":3184:3862   */\n        tag_2:\n            /* \"#utility.yul\":3272:3278   */\n          0x00\n            /* \"#utility.yul\":3280:3286   */\n          0x00\n            /* \"#utility.yul\":3329:3331   */\n          0x40\n            /* \"#utility.yul\":3317:3326   */\n          dup4\n            /* \"#utility.yul\":3308:3315   */\n          dup6\n            /* \"#utility.yul\":3304:3327   */\n          sub\n            /* \"#utility.yul\":3300:3332   */\n          slt\n            /* \"#utility.yul\":3297:3416   */\n          iszero\n          tag_114\n          jumpi\n            /* \"#utility.yul\":3335:3414   */\n          tag_115\n          tag_55\n          jump\t// in\n        tag_115:\n            /* \"#utility.yul\":3297:3416   */\n        tag_114:\n            /* \"#utility.yul\":3455:3456   */\n          0x00\n            /* \"#utility.yul\":3480:3544   */\n          tag_116\n            /* \"#utility.yul\":3536:3543   */\n          dup6\n            /* \"#utility.yul\":3527:3533   */\n          dup3\n            /* \"#utility.yul\":3516:3525   */\n          dup7\n            /* \"#utility.yul\":3512:3534   */\n          add\n            /* \"#utility.yul\":3480:3544   */\n          tag_60\n          jump\t// in\n        tag_116:\n            /* \"#utility.yul\":3470:3544   */\n          swap3\n          pop\n            /* \"#utility.yul\":3426:3554   */\n          pop\n            /* \"#utility.yul\":3614:3616   */\n          0x20\n            /* \"#utility.yul\":3603:3612   */\n          dup4\n            /* \"#utility.yul\":3599:3617   */\n          add\n            /* \"#utility.yul\":3593:3618   */\n          mload\n            /* \"#utility.yul\":3645:3663   */\n          0xffffffffffffffff\n            /* \"#utility.yul\":3637:3643   */\n          dup2\n            /* \"#utility.yul\":3634:3664   */\n          gt\n            /* \"#utility.yul\":3631:3748   */\n          iszero\n          tag_117\n          jumpi\n            /* \"#utility.yul\":3667:3746   */\n          tag_118\n          tag_56\n          jump\t// in\n        tag_118:\n            /* \"#utility.yul\":3631:3748   */\n        tag_117:\n            /* \"#utility.yul\":3772:3845   */\n          tag_119\n            /* \"#utility.yul\":3837:3844   */\n          dup6\n            /* \"#utility.yul\":3828:3834   */\n          dup3\n            /* \"#utility.yul\":3817:3826   */\n          dup7\n            /* \"#utility.yul\":3813:3835   */\n          add\n            /* \"#utility.yul\":3772:3845   */\n          tag_70\n          jump\t// in\n        tag_119:\n            /* \"#utility.yul\":3762:3845   */\n          swap2\n          pop\n            /* \"#utility.yul\":3564:3855   */\n          pop\n            /* \"#utility.yul\":3184:3862   */\n          swap3\n          pop\n          swap3\n          swap1\n          pop\n          jump\t// out\n            /* \"#utility.yul\":3868:3986   */\n        tag_71:\n            /* \"#utility.yul\":3955:3979   */\n          tag_121\n            /* \"#utility.yul\":3973:3978   */\n          dup2\n            /* \"#utility.yul\":3955:3979   */\n          tag_58\n          jump\t// in\n        tag_121:\n            /* \"#utility.yul\":3950:3953   */\n          dup3\n            /* \"#utility.yul\":3943:3980   */\n          mstore\n            /* \"#utility.yul\":3868:3986   */\n          pop\n          pop\n          jump\t// out\n            /* \"#utility.yul\":3992:4214   */\n        tag_25:\n            /* \"#utility.yul\":4085:4089   */\n          0x00\n            /* \"#utility.yul\":4123:4125   */\n          0x20\n            /* \"#utility.yul\":4112:4121   */\n          dup3\n            /* \"#utility.yul\":4108:4126   */\n          add\n            /* \"#utility.yul\":4100:4126   */\n          swap1\n          pop\n            /* \"#utility.yul\":4136:4207   */\n          tag_123\n            /* \"#utility.yul\":4204:4205   */\n          0x00\n            /* \"#utility.yul\":4193:4202   */\n          dup4\n            /* \"#utility.yul\":4189:4206   */\n          add\n            /* \"#utility.yul\":4180:4186   */\n          dup5\n            /* \"#utility.yul\":4136:4207   */\n          tag_71\n          jump\t// in\n        tag_123:\n            /* \"#utility.yul\":3992:4214   */\n          swap3\n          swap2\n          pop\n          pop\n          jump\t// out\n            /* \"@openzeppelin/contracts/proxy/ERC1967/ERC1967Proxy.sol\":600:2635  contract ERC1967Proxy is Proxy {... */\n        tag_11:\n          dataSize(sub_0)\n          dup1\n          dataOffset(sub_0)\n          0x00\n          codecopy\n          0x00\n          return\n        stop\n\n        sub_0: assembly {\n                /* \"@openzeppelin/contracts/proxy/ERC1967/ERC1967Proxy.sol\":600:2635  contract ERC1967Proxy is Proxy {... */\n              mstore(0x40, 0x80)\n                /* \"@openzeppelin/contracts/proxy/Proxy.sol\":2676:2687  _fallback() */\n              tag_5\n                /* \"@openzeppelin/contracts/proxy/Proxy.sol\":2676:2685  _fallback */\n              tag_6\n                /* \"@openzeppelin/contracts/proxy/Proxy.sol\":2676:2687  _fallback() */\n              jump\t// in\n            tag_5:\n                /* \"@openzeppelin/contracts/proxy/ERC1967/ERC1967Proxy.sol\":600:2635  contract ERC1967Proxy is Proxy {... */\n              stop\n                /* \"@openzeppelin/contracts/proxy/Proxy.sol\":2350:2433  function _fallback() internal virtual {... */\n            tag_6:\n                /* \"@openzeppelin/contracts/proxy/Proxy.sol\":2398:2426  _delegate(_implementation()) */\n              tag_8\n                /* \"@openzeppelin/contracts/proxy/Proxy.sol\":2408:2425  _implementation() */\n              tag_9\n                /* \"@openzeppelin/contracts/proxy/Proxy.sol\":2408:2423  _implementation */\n              tag_10\n                /* \"@openzeppelin/contracts/proxy/Proxy.sol\":2408:2425  _implementation() */\n              jump\t// in\n            tag_9:\n                /* \"@openzeppelin/contracts/proxy/Proxy.sol\":2398:2407  _delegate */\n              tag_11\n                /* \"@openzeppelin/contracts/proxy/Proxy.sol\":2398:2426  _delegate(_implementation()) */\n              jump\t// in\n            tag_8:\n                /* \"@openzeppelin/contracts/proxy/Proxy.sol\":2350:2433  function _fallback() internal virtual {... */\n              jump\t// out\n                /* \"@openzeppelin/contracts/proxy/ERC1967/ERC1967Proxy.sol\":2078:2210  function _implementation() internal view virtual override returns (address) {... */\n            tag_10:\n                /* \"@openzeppelin/contracts/proxy/ERC1967/ERC1967Proxy.sol\":2145:2152  address */\n              0x00\n                /* \"@openzeppelin/contracts/proxy/ERC1967/ERC1967Proxy.sol\":2171:2203  ERC1967Utils.getImplementation() */\n              tag_13\n                /* \"@openzeppelin/contracts/proxy/ERC1967/ERC1967Proxy.sol\":2171:2201  ERC1967Utils.getImplementation */\n              tag_14\n                /* \"@openzeppelin/contracts/proxy/ERC1967/ERC1967Proxy.sol\":2171:2203  ERC1967Utils.getImplementation() */\n              jump\t// in\n            tag_13:\n                /* \"@openzeppelin/contracts/proxy/ERC1967/ERC1967Proxy.sol\":2164:2203  return ERC1967Utils.getImplementation() */\n              swap1\n              pop\n                /* \"@openzeppelin/contracts/proxy/ERC1967/ERC1967Proxy.sol\":2078:2210  function _implementation() internal view virtual override returns (address) {... */\n              swap1\n              jump\t// out\n                /* \"@openzeppelin/contracts/proxy/Proxy.sol\":949:1871  function _delegate(address implementation) internal virtual {... */\n            tag_11:\n                /* \"@openzeppelin/contracts/proxy/Proxy.sol\":1293:1307  calldatasize() */\n              calldatasize\n                /* \"@openzeppelin/contracts/proxy/Proxy.sol\":1287:1291  0x00 */\n              0x00\n                /* \"@openzeppelin/contracts/proxy/Proxy.sol\":1281:1285  0x00 */\n              0x00\n                /* \"@openzeppelin/contracts/proxy/Proxy.sol\":1268:1308  calldatacopy(0x00, 0x00, calldatasize()) */\n              calldatacopy\n                /* \"@openzeppelin/contracts/proxy/Proxy.sol\":1513:1517  0x00 */\n              0x00\n                /* \"@openzeppelin/contracts/proxy/Proxy.sol\":1507:1511  0x00 */\n              0x00\n                /* \"@openzeppelin/contracts/proxy/Proxy.sol\":1491:1505  calldatasize() */\n              calldatasize\n                /* \"@openzeppelin/contracts/proxy/Proxy.sol\":1485:1489  0x00 */\n              0x00\n                /* \"@openzeppelin/contracts/proxy/Proxy.sol\":1469:1483  implementation */\n              dup5\n                /* \"@openzeppelin/contracts/proxy/Proxy.sol\":1462:1467  gas() */\n              gas\n                /* \"@openzeppelin/contracts/proxy/Proxy.sol\":1449:1518  delegatecall(gas(), implementation, 0x00, calldatasize(), 0x00, 0x00) */\n              delegatecall\n                /* \"@openzeppelin/contracts/proxy/Proxy.sol\":1598:1614  returndatasize() */\n              returndatasize\n                /* \"@openzeppelin/contracts/proxy/Proxy.sol\":1592:1596  0x00 */\n              0x00\n                /* \"@openzeppelin/contracts/proxy/Proxy.sol\":1586:1590  0x00 */\n              0x00\n                /* \"@openzeppelin/contracts/proxy/Proxy.sol\":1571:1615  returndatacopy(0x00, 0x00, returndatasize()) */\n              returndatacopy\n                /* \"@openzeppelin/contracts/proxy/Proxy.sol\":1636:1642  result */\n              dup1\n                /* \"@openzeppelin/contracts/proxy/Proxy.sol\":1708:1709  0 */\n              0x00\n                /* \"@openzeppelin/contracts/proxy/Proxy.sol\":1703:1772  case 0 {... */\n              dup2\n              eq\n              tag_17\n              jumpi\n                /* \"@openzeppelin/contracts/proxy/Proxy.sol\":1824:1840  returndatasize() */\n              returndatasize\n                /* \"@openzeppelin/contracts/proxy/Proxy.sol\":1818:1822  0x00 */\n              0x00\n                /* \"@openzeppelin/contracts/proxy/Proxy.sol\":1811:1841  return(0x00, returndatasize()) */\n              return\n                /* \"@openzeppelin/contracts/proxy/Proxy.sol\":1703:1772  case 0 {... */\n            tag_17:\n                /* \"@openzeppelin/contracts/proxy/Proxy.sol\":1741:1757  returndatasize() */\n              returndatasize\n                /* \"@openzeppelin/contracts/proxy/Proxy.sol\":1735:1739  0x00 */\n              0x00\n                /* \"@openzeppelin/contracts/proxy/Proxy.sol\":1728:1758  revert(0x00, returndatasize()) */\n              revert\n                /* \"@openzeppelin/contracts/proxy/ERC1967/ERC1967Utils.sol\":1441:1579  function getImplementation() internal view returns (address) {... */\n            tag_14:\n                /* \"@openzeppelin/contracts/proxy/ERC1967/ERC1967Utils.sol\":1493:1500  address */\n              0x00\n                /* \"@openzeppelin/contracts/proxy/ERC1967/ERC1967Utils.sol\":1519:1566  StorageSlot.getAddressSlot(IMPLEMENTATION_SLOT) */\n              tag_19\n                /* \"@openzeppelin/contracts/proxy/ERC1967/ERC1967Utils.sol\":811:877  0x360894a13ba1a3210667c828492db98dca3e2076cc3735a920a3ca505d382bbc */\n              0x360894a13ba1a3210667c828492db98dca3e2076cc3735a920a3ca505d382bbc\n                /* \"@openzeppelin/contracts/proxy/ERC1967/ERC1967Utils.sol\":1546:1565  IMPLEMENTATION_SLOT */\n              0x00\n              shl\n                /* \"@openzeppelin/contracts/proxy/ERC1967/ERC1967Utils.sol\":1519:1545  StorageSlot.getAddressSlot */\n              tag_20\n                /* \"@openzeppelin/contracts/proxy/ERC1967/ERC1967Utils.sol\":1519:1566  StorageSlot.getAddressSlot(IMPLEMENTATION_SLOT) */\n              jump\t// in\n            tag_19:\n                /* \"@openzeppelin/contracts/proxy/ERC1967/ERC1967Utils.sol\":1519:1572  StorageSlot.getAddressSlot(IMPLEMENTATION_SLOT).value */\n              0x00\n              add\n              0x00\n              swap1\n              sload\n              swap1\n              0x0100\n              exp\n              swap1\n              div\n              0xffffffffffffffffffffffffffffffffffffffff\n              and\n                /* \"@openzeppelin/contracts/proxy/ERC1967/ERC1967Utils.sol\":1512:1572  return StorageSlot.getAddressSlot(IMPLEMENTATION_SLOT).value */\n              swap1\n              pop\n                /* \"@openzeppelin/contracts/proxy/ERC1967/ERC1967Utils.sol\":1441:1579  function getImplementation() internal view returns (address) {... */\n              swap1\n              jump\t// out\n                /* \"@openzeppelin/contracts/utils/StorageSlot.sol\":1899:2062  function getAddressSlot(bytes32 slot) internal pure returns (AddressSlot storage r) {... */\n            tag_20:\n                /* \"@openzeppelin/contracts/utils/StorageSlot.sol\":1960:1981  AddressSlot storage r */\n              0x00\n                /* \"@openzeppelin/contracts/utils/StorageSlot.sol\":2042:2046  slot */\n              dup2\n                /* \"@openzeppelin/contracts/utils/StorageSlot.sol\":2032:2046  r.slot := slot */\n              swap1\n              pop\n                /* \"@openzeppelin/contracts/utils/StorageSlot.sol\":1899:2062  function getAddressSlot(bytes32 slot) internal pure returns (AddressSlot storage r) {... */\n              swap2\n              swap1\n              pop\n              jump\t// out\n\n            auxdata: 0xa264697066735822122055046b167f12b124a764a4d7b913af5583de04f697a93908ad9cff8a0948870064736f6c63430008220033\n        }\n    }\n\n    auxdata: 0xa26469706673582212205dc468e65575abb49b7c7cc9aaacd5091dbbd73538b8dcc80c0814c4eba39e0364736f6c63430008220033\n}\n",
				"bytecode": {
					"linkReferences": {},
					"object": "608060405234801561000f575f5ffd5b5060405161123038038061123083398181016040528101906100319190610217565b335f73ffffffffffffffffffffffffffffffffffffffff168173ffffffffffffffffffffffffffffffffffffffff16036100a2575f6040517f1e4fbdf70000000000000000000000000000000000000000000000000000000081526004016100999190610251565b60405180910390fd5b6100b1816100f860201b60201c565b508060015f6101000a81548173ffffffffffffffffffffffffffffffffffffffff021916908373ffffffffffffffffffffffffffffffffffffffff1602179055505061026a565b5f5f5f9054906101000a900473ffffffffffffffffffffffffffffffffffffffff169050815f5f6101000a81548173ffffffffffffffffffffffffffffffffffffffff021916908373ffffffffffffffffffffffffffffffffffffffff1602179055508173ffffffffffffffffffffffffffffffffffffffff168173ffffffffffffffffffffffffffffffffffffffff167f8be0079c531659141344cd1fd0a4f28419497f9722a3daafe3b4186f6b6457e060405160405180910390a35050565b5f5ffd5b5f73ffffffffffffffffffffffffffffffffffffffff82169050919050565b5f6101e6826101bd565b9050919050565b6101f6816101dc565b8114610200575f5ffd5b50565b5f81519050610211816101ed565b92915050565b5f6020828403121561022c5761022b6101b9565b5b5f61023984828501610203565b91505092915050565b61024b816101dc565b82525050565b5f6020820190506102645f830184610242565b92915050565b610fb9806102775f395ff3fe608060405234801561000f575f5ffd5b5060043610610060575f3560e01c80630c5a6f2f14610064578063715018a6146100825780638da5cb5b1461008c578063b8d26dd4146100aa578063f2fde38b146100da578063fbc1f718146100f6575b5f5ffd5b61006c610112565b604051610079919061052c565b60405180910390f35b61008a610137565b005b61009461014a565b6040516100a1919061052c565b60405180910390f35b6100c460048036038101906100bf91906106bc565b610171565b6040516100d1919061052c565b60405180910390f35b6100f460048036038101906100ef9190610744565b6102c2565b005b610110600480360381019061010b9190610744565b610346565b005b60015f9054906101000a900473ffffffffffffffffffffffffffffffffffffffff1681565b61013f610391565b6101485f610418565b565b5f5f5f9054906101000a900473ffffffffffffffffffffffffffffffffffffffff16905090565b5f61017a610391565b5f848484604051602401610190939291906107e9565b6040516020818303038152906040527f077f224a000000000000000000000000000000000000000000000000000000007bffffffffffffffffffffffffffffffffffffffffffffffffffffffff19166020820180517bffffffffffffffffffffffffffffffffffffffffffffffffffffffff838183161783525050505090505f60015f9054906101000a900473ffffffffffffffffffffffffffffffffffffffff168260405161023f906104e0565b61024a92919061087e565b604051809103905ff080158015610263573d5f5f3e3d5ffd5b5090508073ffffffffffffffffffffffffffffffffffffffff167fdffd5212cd0fdc37a43d510b28574b6c1a5970d02930f07c711337774b687c9987876040516102ae9291906108ac565b60405180910390a280925050509392505050565b6102ca610391565b5f73ffffffffffffffffffffffffffffffffffffffff168173ffffffffffffffffffffffffffffffffffffffff160361033a575f6040517f1e4fbdf7000000000000000000000000000000000000000000000000000000008152600401610331919061052c565b60405180910390fd5b61034381610418565b50565b61034e610391565b8060015f6101000a81548173ffffffffffffffffffffffffffffffffffffffff021916908373ffffffffffffffffffffffffffffffffffffffff16021790555050565b6103996104d9565b73ffffffffffffffffffffffffffffffffffffffff166103b761014a565b73ffffffffffffffffffffffffffffffffffffffff1614610416576103da6104d9565b6040517f118cdaa700000000000000000000000000000000000000000000000000000000815260040161040d919061052c565b60405180910390fd5b565b5f5f5f9054906101000a900473ffffffffffffffffffffffffffffffffffffffff169050815f5f6101000a81548173ffffffffffffffffffffffffffffffffffffffff021916908373ffffffffffffffffffffffffffffffffffffffff1602179055508173ffffffffffffffffffffffffffffffffffffffff168173ffffffffffffffffffffffffffffffffffffffff167f8be0079c531659141344cd1fd0a4f28419497f9722a3daafe3b4186f6b6457e060405160405180910390a35050565b5f33905090565b6106a2806108e283390190565b5f73ffffffffffffffffffffffffffffffffffffffff82169050919050565b5f610516826104ed565b9050919050565b6105268161050c565b82525050565b5f60208201905061053f5f83018461051d565b92915050565b5f604051905090565b5f5ffd5b5f5ffd5b5f5ffd5b5f5ffd5b5f601f19601f8301169050919050565b7f4e487b71000000000000000000000000000000000000000000000000000000005f52604160045260245ffd5b6105a48261055e565b810181811067ffffffffffffffff821117156105c3576105c261056e565b5b80604052505050565b5f6105d5610545565b90506105e1828261059b565b919050565b5f67ffffffffffffffff821115610600576105ff61056e565b5b6106098261055e565b9050602081019050919050565b828183375f83830152505050565b5f610636610631846105e6565b6105cc565b9050828152602081018484840111156106525761065161055a565b5b61065d848285610616565b509392505050565b5f82601f83011261067957610678610556565b5b8135610689848260208601610624565b91505092915050565b61069b8161050c565b81146106a5575f5ffd5b50565b5f813590506106b681610692565b92915050565b5f5f5f606084860312156106d3576106d261054e565b5b5f84013567ffffffffffffffff8111156106f0576106ef610552565b5b6106fc86828701610665565b935050602084013567ffffffffffffffff81111561071d5761071c610552565b5b61072986828701610665565b925050604061073a868287016106a8565b9150509250925092565b5f602082840312156107595761075861054e565b5b5f610766848285016106a8565b91505092915050565b5f81519050919050565b5f82825260208201905092915050565b5f5b838110156107a657808201518184015260208101905061078b565b5f8484015250505050565b5f6107bb8261076f565b6107c58185610779565b93506107d5818560208601610789565b6107de8161055e565b840191505092915050565b5f6060820190508181035f83015261080181866107b1565b9050818103602083015261081581856107b1565b9050610824604083018461051d565b949350505050565b5f81519050919050565b5f82825260208201905092915050565b5f6108508261082c565b61085a8185610836565b935061086a818560208601610789565b6108738161055e565b840191505092915050565b5f6040820190506108915f83018561051d565b81810360208301526108a38184610846565b90509392505050565b5f6040820190508181035f8301526108c481856107b1565b905081810360208301526108d881846107b1565b9050939250505056fe60806040526040516106a23803806106a283398181016040528101906100259190610540565b61003361008e60201b60201c565b15801561004057505f8151145b15610077576040517fc28a273c00000000000000000000000000000000000000000000000000000000815260040160405180910390fd5b610087828261009560201b60201c565b50506105c2565b5f5f905090565b6100a48261011960201b60201c565b8173ffffffffffffffffffffffffffffffffffffffff167fbc7cd75a20ee27fd9adebab32041f755214dbc6bffa90cc0225b39da2e5c2d3b60405160405180910390a25f815111156101065761010082826101e860201b60201c565b50610115565b6101146102f760201b60201c565b5b5050565b5f8173ffffffffffffffffffffffffffffffffffffffff163b0361017457806040517f4c9c8ce300000000000000000000000000000000000000000000000000000000815260040161016b91906105a9565b60405180910390fd5b806101a67f360894a13ba1a3210667c828492db98dca3e2076cc3735a920a3ca505d382bbc5f1b61033360201b60201c565b5f015f6101000a81548173ffffffffffffffffffffffffffffffffffffffff021916908373ffffffffffffffffffffffffffffffffffffffff16021790555050565b60605f6101fb848461033c60201b60201c565b905080801561023757505f61021461035060201b60201c565b118061023657505f8473ffffffffffffffffffffffffffffffffffffffff163b115b5b156102525761024a61035760201b60201c565b9150506102f1565b801561029557836040517f9996b31500000000000000000000000000000000000000000000000000000000815260040161028c91906105a9565b60405180910390fd5b5f6102a461035060201b60201c565b11156102bd576102b861037460201b60201c565b6102ef565b6040517fd6bda27500000000000000000000000000000000000000000000000000000000815260040160405180910390fd5b505b92915050565b5f341115610331576040517fb398979f00000000000000000000000000000000000000000000000000000000815260040160405180910390fd5b565b5f819050919050565b5f5f5f835160208501865af4905092915050565b5f3d905090565b606060405190503d81523d5f602083013e3d602001810160405290565b6040513d5f823e3d81fd5b5f604051905090565b5f5ffd5b5f5ffd5b5f73ffffffffffffffffffffffffffffffffffffffff82169050919050565b5f6103b982610390565b9050919050565b6103c9816103af565b81146103d3575f5ffd5b50565b5f815190506103e4816103c0565b92915050565b5f5ffd5b5f5ffd5b5f601f19601f8301169050919050565b7f4e487b71000000000000000000000000000000000000000000000000000000005f52604160045260245ffd5b610438826103f2565b810181811067ffffffffffffffff8211171561045757610456610402565b5b80604052505050565b5f61046961037f565b9050610475828261042f565b919050565b5f67ffffffffffffffff82111561049457610493610402565b5b61049d826103f2565b9050602081019050919050565b5f5b838110156104c75780820151818401526020810190506104ac565b5f8484015250505050565b5f6104e46104df8461047a565b610460565b905082815260208101848484011115610500576104ff6103ee565b5b61050b8482856104aa565b509392505050565b5f82601f830112610527576105266103ea565b5b81516105378482602086016104d2565b91505092915050565b5f5f6040838503121561055657610555610388565b5b5f610563858286016103d6565b925050602083015167ffffffffffffffff8111156105845761058361038c565b5b61059085828601610513565b9150509250929050565b6105a3816103af565b82525050565b5f6020820190506105bc5f83018461059a565b92915050565b60d4806105ce5f395ff3fe6080604052600a600c565b005b60186014601a565b6026565b565b5f60216044565b905090565b365f5f375f5f365f845af43d5f5f3e805f81146040573d5ff35b3d5ffd5b5f606e7f360894a13ba1a3210667c828492db98dca3e2076cc3735a920a3ca505d382bbc5f1b6095565b5f015f9054906101000a900473ffffffffffffffffffffffffffffffffffffffff16905090565b5f81905091905056fea264697066735822122055046b167f12b124a764a4d7b913af5583de04f697a93908ad9cff8a0948870064736f6c63430008220033a26469706673582212205dc468e65575abb49b7c7cc9aaacd5091dbbd73538b8dcc80c0814c4eba39e0364736f6c63430008220033",
					"opcodes": "PUSH1 0x80 PUSH1 0x40 MSTORE CALLVALUE DUP1 ISZERO PUSH2 0xF JUMPI PUSH0 PUSH0 REVERT JUMPDEST POP PUSH1 0x40 MLOAD PUSH2 0x1230 CODESIZE SUB DUP1 PUSH2 0x1230 DUP4 CODECOPY DUP2 DUP2 ADD PUSH1 0x40 MSTORE DUP2 ADD SWAP1 PUSH2 0x31 SWAP2 SWAP1 PUSH2 0x217 JUMP JUMPDEST CALLER PUSH0 PUSH20 0xFFFFFFFFFFFFFFFFFFFFFFFFFFFFFFFFFFFFFFFF AND DUP2 PUSH20 0xFFFFFFFFFFFFFFFFFFFFFFFFFFFFFFFFFFFFFFFF AND SUB PUSH2 0xA2 JUMPI PUSH0 PUSH1 0x40 MLOAD PUSH32 0x1E4FBDF700000000000000000000000000000000000000000000000000000000 DUP2 MSTORE PUSH1 0x4 ADD PUSH2 0x99 SWAP2 SWAP1 PUSH2 0x251 JUMP JUMPDEST PUSH1 0x40 MLOAD DUP1 SWAP2 SUB SWAP1 REVERT JUMPDEST PUSH2 0xB1 DUP2 PUSH2 0xF8 PUSH1 0x20 SHL PUSH1 0x20 SHR JUMP JUMPDEST POP DUP1 PUSH1 0x1 PUSH0 PUSH2 0x100 EXP DUP2 SLOAD DUP2 PUSH20 0xFFFFFFFFFFFFFFFFFFFFFFFFFFFFFFFFFFFFFFFF MUL NOT AND SWAP1 DUP4 PUSH20 0xFFFFFFFFFFFFFFFFFFFFFFFFFFFFFFFFFFFFFFFF AND MUL OR SWAP1 SSTORE POP POP PUSH2 0x26A JUMP JUMPDEST PUSH0 PUSH0 PUSH0 SWAP1 SLOAD SWAP1 PUSH2 0x100 EXP SWAP1 DIV PUSH20 0xFFFFFFFFFFFFFFFFFFFFFFFFFFFFFFFFFFFFFFFF AND SWAP1 POP DUP2 PUSH0 PUSH0 PUSH2 0x100 EXP DUP2 SLOAD DUP2 PUSH20 0xFFFFFFFFFFFFFFFFFFFFFFFFFFFFFFFFFFFFFFFF MUL NOT AND SWAP1 DUP4 PUSH20 0xFFFFFFFFFFFFFFFFFFFFFFFFFFFFFFFFFFFFFFFF AND MUL OR SWAP1 SSTORE POP DUP2 PUSH20 0xFFFFFFFFFFFFFFFFFFFFFFFFFFFFFFFFFFFFFFFF AND DUP2 PUSH20 0xFFFFFFFFFFFFFFFFFFFFFFFFFFFFFFFFFFFFFFFF AND PUSH32 0x8BE0079C531659141344CD1FD0A4F28419497F9722A3DAAFE3B4186F6B6457E0 PUSH1 0x40 MLOAD PUSH1 0x40 MLOAD DUP1 SWAP2 SUB SWAP1 LOG3 POP POP JUMP JUMPDEST PUSH0 PUSH0 REVERT JUMPDEST PUSH0 PUSH20 0xFFFFFFFFFFFFFFFFFFFFFFFFFFFFFFFFFFFFFFFF DUP3 AND SWAP1 POP SWAP2 SWAP1 POP JUMP JUMPDEST PUSH0 PUSH2 0x1E6 DUP3 PUSH2 0x1BD JUMP JUMPDEST SWAP1 POP SWAP2 SWAP1 POP JUMP JUMPDEST PUSH2 0x1F6 DUP2 PUSH2 0x1DC JUMP JUMPDEST DUP2 EQ PUSH2 0x200 JUMPI PUSH0 PUSH0 REVERT JUMPDEST POP JUMP JUMPDEST PUSH0 DUP2 MLOAD SWAP1 POP PUSH2 0x211 DUP2 PUSH2 0x1ED JUMP JUMPDEST SWAP3 SWAP2 POP POP JUMP JUMPDEST PUSH0 PUSH1 0x20 DUP3 DUP5 SUB SLT ISZERO PUSH2 0x22C JUMPI PUSH2 0x22B PUSH2 0x1B9 JUMP JUMPDEST JUMPDEST PUSH0 PUSH2 0x239 DUP5 DUP3 DUP6 ADD PUSH2 0x203 JUMP JUMPDEST SWAP2 POP POP SWAP3 SWAP2 POP POP JUMP JUMPDEST PUSH2 0x24B DUP2 PUSH2 0x1DC JUMP JUMPDEST DUP3 MSTORE POP POP JUMP JUMPDEST PUSH0 PUSH1 0x20 DUP3 ADD SWAP1 POP PUSH2 0x264 PUSH0 DUP4 ADD DUP5 PUSH2 0x242 JUMP JUMPDEST SWAP3 SWAP2 POP POP JUMP JUMPDEST PUSH2 0xFB9 DUP1 PUSH2 0x277 PUSH0 CODECOPY PUSH0 RETURN INVALID PUSH1 0x80 PUSH1 0x40 MSTORE CALLVALUE DUP1 ISZERO PUSH2 0xF JUMPI PUSH0 PUSH0 REVERT JUMPDEST POP PUSH1 0x4 CALLDATASIZE LT PUSH2 0x60 JUMPI PUSH0 CALLDATALOAD PUSH1 0xE0 SHR DUP1 PUSH4 0xC5A6F2F EQ PUSH2 0x64 JUMPI DUP1 PUSH4 0x715018A6 EQ PUSH2 0x82 JUMPI DUP1 PUSH4 0x8DA5CB5B EQ PUSH2 0x8C JUMPI DUP1 PUSH4 0xB8D26DD4 EQ PUSH2 0xAA JUMPI DUP1 PUSH4 0xF2FDE38B EQ PUSH2 0xDA JUMPI DUP1 PUSH4 0xFBC1F718 EQ PUSH2 0xF6 JUMPI JUMPDEST PUSH0 PUSH0 REVERT JUMPDEST PUSH2 0x6C PUSH2 0x112 JUMP JUMPDEST PUSH1 0x40 MLOAD PUSH2 0x79 SWAP2 SWAP1 PUSH2 0x52C JUMP JUMPDEST PUSH1 0x40 MLOAD DUP1 SWAP2 SUB SWAP1 RETURN JUMPDEST PUSH2 0x8A PUSH2 0x137 JUMP JUMPDEST STOP JUMPDEST PUSH2 0x94 PUSH2 0x14A JUMP JUMPDEST PUSH1 0x40 MLOAD PUSH2 0xA1 SWAP2 SWAP1 PUSH2 0x52C JUMP JUMPDEST PUSH1 0x40 MLOAD DUP1 SWAP2 SUB SWAP1 RETURN JUMPDEST PUSH2 0xC4 PUSH1 0x4 DUP1 CALLDATASIZE SUB DUP2 ADD SWAP1 PUSH2 0xBF SWAP2 SWAP1 PUSH2 0x6BC JUMP JUMPDEST PUSH2 0x171 JUMP JUMPDEST PUSH1 0x40 MLOAD PUSH2 0xD1 SWAP2 SWAP1 PUSH2 0x52C JUMP JUMPDEST PUSH1 0x40 MLOAD DUP1 SWAP2 SUB SWAP1 RETURN JUMPDEST PUSH2 0xF4 PUSH1 0x4 DUP1 CALLDATASIZE SUB DUP2 ADD SWAP1 PUSH2 0xEF SWAP2 SWAP1 PUSH2 0x744 JUMP JUMPDEST PUSH2 0x2C2 JUMP JUMPDEST STOP JUMPDEST PUSH2 0x110 PUSH1 0x4 DUP1 CALLDATASIZE SUB DUP2 ADD SWAP1 PUSH2 0x10B SWAP2 SWAP1 PUSH2 0x744 JUMP JUMPDEST PUSH2 0x346 JUMP JUMPDEST STOP JUMPDEST PUSH1 0x1 PUSH0 SWAP1 SLOAD SWAP1 PUSH2 0x100 EXP SWAP1 DIV PUSH20 0xFFFFFFFFFFFFFFFFFFFFFFFFFFFFFFFFFFFFFFFF AND DUP2 JUMP JUMPDEST PUSH2 0x13F PUSH2 0x391 JUMP JUMPDEST PUSH2 0x148 PUSH0 PUSH2 0x418 JUMP JUMPDEST JUMP JUMPDEST PUSH0 PUSH0 PUSH0 SWAP1 SLOAD SWAP1 PUSH2 0x100 EXP SWAP1 DIV PUSH20 0xFFFFFFFFFFFFFFFFFFFFFFFFFFFFFFFFFFFFFFFF AND SWAP1 POP SWAP1 JUMP JUMPDEST PUSH0 PUSH2 0x17A PUSH2 0x391 JUMP JUMPDEST PUSH0 DUP5 DUP5 DUP5 PUSH1 0x40 MLOAD PUSH1 0x24 ADD PUSH2 0x190 SWAP4 SWAP3 SWAP2 SWAP1 PUSH2 0x7E9 JUMP JUMPDEST PUSH1 0x40 MLOAD PUSH1 0x20 DUP2 DUP4 SUB SUB DUP2 MSTORE SWAP1 PUSH1 0x40 MSTORE PUSH32 0x77F224A00000000000000000000000000000000000000000000000000000000 PUSH28 0xFFFFFFFFFFFFFFFFFFFFFFFFFFFFFFFFFFFFFFFFFFFFFFFFFFFFFFFF NOT AND PUSH1 0x20 DUP3 ADD DUP1 MLOAD PUSH28 0xFFFFFFFFFFFFFFFFFFFFFFFFFFFFFFFFFFFFFFFFFFFFFFFFFFFFFFFF DUP4 DUP2 DUP4 AND OR DUP4 MSTORE POP POP POP POP SWAP1 POP PUSH0 PUSH1 0x1 PUSH0 SWAP1 SLOAD SWAP1 PUSH2 0x100 EXP SWAP1 DIV PUSH20 0xFFFFFFFFFFFFFFFFFFFFFFFFFFFFFFFFFFFFFFFF AND DUP3 PUSH1 0x40 MLOAD PUSH2 0x23F SWAP1 PUSH2 0x4E0 JUMP JUMPDEST PUSH2 0x24A SWAP3 SWAP2 SWAP1 PUSH2 0x87E JUMP JUMPDEST PUSH1 0x40 MLOAD DUP1 SWAP2 SUB SWAP1 PUSH0 CREATE DUP1 ISZERO DUP1 ISZERO PUSH2 0x263 JUMPI RETURNDATASIZE PUSH0 PUSH0 RETURNDATACOPY RETURNDATASIZE PUSH0 REVERT JUMPDEST POP SWAP1 POP DUP1 PUSH20 0xFFFFFFFFFFFFFFFFFFFFFFFFFFFFFFFFFFFFFFFF AND PUSH32 0xDFFD5212CD0FDC37A43D510B28574B6C1A5970D02930F07C711337774B687C99 DUP8 DUP8 PUSH1 0x40 MLOAD PUSH2 0x2AE SWAP3 SWAP2 SWAP1 PUSH2 0x8AC JUMP JUMPDEST PUSH1 0x40 MLOAD DUP1 SWAP2 SUB SWAP1 LOG2 DUP1 SWAP3 POP POP POP SWAP4 SWAP3 POP POP POP JUMP JUMPDEST PUSH2 0x2CA PUSH2 0x391 JUMP JUMPDEST PUSH0 PUSH20 0xFFFFFFFFFFFFFFFFFFFFFFFFFFFFFFFFFFFFFFFF AND DUP2 PUSH20 0xFFFFFFFFFFFFFFFFFFFFFFFFFFFFFFFFFFFFFFFF AND SUB PUSH2 0x33A JUMPI PUSH0 PUSH1 0x40 MLOAD PUSH32 0x1E4FBDF700000000000000000000000000000000000000000000000000000000 DUP2 MSTORE PUSH1 0x4 ADD PUSH2 0x331 SWAP2 SWAP1 PUSH2 0x52C JUMP JUMPDEST PUSH1 0x40 MLOAD DUP1 SWAP2 SUB SWAP1 REVERT JUMPDEST PUSH2 0x343 DUP2 PUSH2 0x418 JUMP JUMPDEST POP JUMP JUMPDEST PUSH2 0x34E PUSH2 0x391 JUMP JUMPDEST DUP1 PUSH1 0x1 PUSH0 PUSH2 0x100 EXP DUP2 SLOAD DUP2 PUSH20 0xFFFFFFFFFFFFFFFFFFFFFFFFFFFFFFFFFFFFFFFF MUL NOT AND SWAP1 DUP4 PUSH20 0xFFFFFFFFFFFFFFFFFFFFFFFFFFFFFFFFFFFFFFFF AND MUL OR SWAP1 SSTORE POP POP JUMP JUMPDEST PUSH2 0x399 PUSH2 0x4D9 JUMP JUMPDEST PUSH20 0xFFFFFFFFFFFFFFFFFFFFFFFFFFFFFFFFFFFFFFFF AND PUSH2 0x3B7 PUSH2 0x14A JUMP JUMPDEST PUSH20 0xFFFFFFFFFFFFFFFFFFFFFFFFFFFFFFFFFFFFFFFF AND EQ PUSH2 0x416 JUMPI PUSH2 0x3DA PUSH2 0x4D9 JUMP JUMPDEST PUSH1 0x40 MLOAD PUSH32 0x118CDAA700000000000000000000000000000000000000000000000000000000 DUP2 MSTORE PUSH1 0x4 ADD PUSH2 0x40D SWAP2 SWAP1 PUSH2 0x52C JUMP JUMPDEST PUSH1 0x40 MLOAD DUP1 SWAP2 SUB SWAP1 REVERT JUMPDEST JUMP JUMPDEST PUSH0 PUSH0 PUSH0 SWAP1 SLOAD SWAP1 PUSH2 0x100 EXP SWAP1 DIV PUSH20 0xFFFFFFFFFFFFFFFFFFFFFFFFFFFFFFFFFFFFFFFF AND SWAP1 POP DUP2 PUSH0 PUSH0 PUSH2 0x100 EXP DUP2 SLOAD DUP2 PUSH20 0xFFFFFFFFFFFFFFFFFFFFFFFFFFFFFFFFFFFFFFFF MUL NOT AND SWAP1 DUP4 PUSH20 0xFFFFFFFFFFFFFFFFFFFFFFFFFFFFFFFFFFFFFFFF AND MUL OR SWAP1 SSTORE POP DUP2 PUSH20 0xFFFFFFFFFFFFFFFFFFFFFFFFFFFFFFFFFFFFFFFF AND DUP2 PUSH20 0xFFFFFFFFFFFFFFFFFFFFFFFFFFFFFFFFFFFFFFFF AND PUSH32 0x8BE0079C531659141344CD1FD0A4F28419497F9722A3DAAFE3B4186F6B6457E0 PUSH1 0x40 MLOAD PUSH1 0x40 MLOAD DUP1 SWAP2 SUB SWAP1 LOG3 POP POP JUMP JUMPDEST PUSH0 CALLER SWAP1 POP SWAP1 JUMP JUMPDEST PUSH2 0x6A2 DUP1 PUSH2 0x8E2 DUP4 CODECOPY ADD SWAP1 JUMP JUMPDEST PUSH0 PUSH20 0xFFFFFFFFFFFFFFFFFFFFFFFFFFFFFFFFFFFFFFFF DUP3 AND SWAP1 POP SWAP2 SWAP1 POP JUMP JUMPDEST PUSH0 PUSH2 0x516 DUP3 PUSH2 0x4ED JUMP JUMPDEST SWAP1 POP SWAP2 SWAP1 POP JUMP JUMPDEST PUSH2 0x526 DUP2 PUSH2 0x50C JUMP JUMPDEST DUP3 MSTORE POP POP JUMP JUMPDEST PUSH0 PUSH1 0x20 DUP3 ADD SWAP1 POP PUSH2 0x53F PUSH0 DUP4 ADD DUP5 PUSH2 0x51D JUMP JUMPDEST SWAP3 SWAP2 POP POP JUMP JUMPDEST PUSH0 PUSH1 0x40 MLOAD SWAP1 POP SWAP1 JUMP JUMPDEST PUSH0 PUSH0 REVERT JUMPDEST PUSH0 PUSH0 REVERT JUMPDEST PUSH0 PUSH0 REVERT JUMPDEST PUSH0 PUSH0 REVERT JUMPDEST PUSH0 PUSH1 0x1F NOT PUSH1 0x1F DUP4 ADD AND SWAP1 POP SWAP2 SWAP1 POP JUMP JUMPDEST PUSH32 0x4E487B7100000000000000000000000000000000000000000000000000000000 PUSH0 MSTORE PUSH1 0x41 PUSH1 0x4 MSTORE PUSH1 0x24 PUSH0 REVERT JUMPDEST PUSH2 0x5A4 DUP3 PUSH2 0x55E JUMP JUMPDEST DUP2 ADD DUP2 DUP2 LT PUSH8 0xFFFFFFFFFFFFFFFF DUP3 GT OR ISZERO PUSH2 0x5C3 JUMPI PUSH2 0x5C2 PUSH2 0x56E JUMP JUMPDEST JUMPDEST DUP1 PUSH1 0x40 MSTORE POP POP POP JUMP JUMPDEST PUSH0 PUSH2 0x5D5 PUSH2 0x545 JUMP JUMPDEST SWAP1 POP PUSH2 0x5E1 DUP3 DUP3 PUSH2 0x59B JUMP JUMPDEST SWAP2 SWAP1 POP JUMP JUMPDEST PUSH0 PUSH8 0xFFFFFFFFFFFFFFFF DUP3 GT ISZERO PUSH2 0x600 JUMPI PUSH2 0x5FF PUSH2 0x56E JUMP JUMPDEST JUMPDEST PUSH2 0x609 DUP3 PUSH2 0x55E JUMP JUMPDEST SWAP1 POP PUSH1 0x20 DUP2 ADD SWAP1 POP SWAP2 SWAP1 POP JUMP JUMPDEST DUP3 DUP2 DUP4 CALLDATACOPY PUSH0 DUP4 DUP4 ADD MSTORE POP POP POP JUMP JUMPDEST PUSH0 PUSH2 0x636 PUSH2 0x631 DUP5 PUSH2 0x5E6 JUMP JUMPDEST PUSH2 0x5CC JUMP JUMPDEST SWAP1 POP DUP3 DUP2 MSTORE PUSH1 0x20 DUP2 ADD DUP5 DUP5 DUP5 ADD GT ISZERO PUSH2 0x652 JUMPI PUSH2 0x651 PUSH2 0x55A JUMP JUMPDEST JUMPDEST PUSH2 0x65D DUP5 DUP3 DUP6 PUSH2 0x616 JUMP JUMPDEST POP SWAP4 SWAP3 POP POP POP JUMP JUMPDEST PUSH0 DUP3 PUSH1 0x1F DUP4 ADD SLT PUSH2 0x679 JUMPI PUSH2 0x678 PUSH2 0x556 JUMP JUMPDEST JUMPDEST DUP2 CALLDATALOAD PUSH2 0x689 DUP5 DUP3 PUSH1 0x20 DUP7 ADD PUSH2 0x624 JUMP JUMPDEST SWAP2 POP POP SWAP3 SWAP2 POP POP JUMP JUMPDEST PUSH2 0x69B DUP2 PUSH2 0x50C JUMP JUMPDEST DUP2 EQ PUSH2 0x6A5 JUMPI PUSH0 PUSH0 REVERT JUMPDEST POP JUMP JUMPDEST PUSH0 DUP2 CALLDATALOAD SWAP1 POP PUSH2 0x6B6 DUP2 PUSH2 0x692 JUMP JUMPDEST SWAP3 SWAP2 POP POP JUMP JUMPDEST PUSH0 PUSH0 PUSH0 PUSH1 0x60 DUP5 DUP7 SUB SLT ISZERO PUSH2 0x6D3 JUMPI PUSH2 0x6D2 PUSH2 0x54E JUMP JUMPDEST JUMPDEST PUSH0 DUP5 ADD CALLDATALOAD PUSH8 0xFFFFFFFFFFFFFFFF DUP2 GT ISZERO PUSH2 0x6F0 JUMPI PUSH2 0x6EF PUSH2 0x552 JUMP JUMPDEST JUMPDEST PUSH2 0x6FC DUP7 DUP3 DUP8 ADD PUSH2 0x665 JUMP JUMPDEST SWAP4 POP POP PUSH1 0x20 DUP5 ADD CALLDATALOAD PUSH8 0xFFFFFFFFFFFFFFFF DUP2 GT ISZERO PUSH2 0x71D JUMPI PUSH2 0x71C PUSH2 0x552 JUMP JUMPDEST JUMPDEST PUSH2 0x729 DUP7 DUP3 DUP8 ADD PUSH2 0x665 JUMP JUMPDEST SWAP3 POP POP PUSH1 0x40 PUSH2 0x73A DUP7 DUP3 DUP8 ADD PUSH2 0x6A8 JUMP JUMPDEST SWAP2 POP POP SWAP3 POP SWAP3 POP SWAP3 JUMP JUMPDEST PUSH0 PUSH1 0x20 DUP3 DUP5 SUB SLT ISZERO PUSH2 0x759 JUMPI PUSH2 0x758 PUSH2 0x54E JUMP JUMPDEST JUMPDEST PUSH0 PUSH2 0x766 DUP5 DUP3 DUP6 ADD PUSH2 0x6A8 JUMP JUMPDEST SWAP2 POP POP SWAP3 SWAP2 POP POP JUMP JUMPDEST PUSH0 DUP2 MLOAD SWAP1 POP SWAP2 SWAP1 POP JUMP JUMPDEST PUSH0 DUP3 DUP3 MSTORE PUSH1 0x20 DUP3 ADD SWAP1 POP SWAP3 SWAP2 POP POP JUMP JUMPDEST PUSH0 JUMPDEST DUP4 DUP2 LT ISZERO PUSH2 0x7A6 JUMPI DUP1 DUP3 ADD MLOAD DUP2 DUP5 ADD MSTORE PUSH1 0x20 DUP2 ADD SWAP1 POP PUSH2 0x78B JUMP JUMPDEST PUSH0 DUP5 DUP5 ADD MSTORE POP POP POP POP JUMP JUMPDEST PUSH0 PUSH2 0x7BB DUP3 PUSH2 0x76F JUMP JUMPDEST PUSH2 0x7C5 DUP2 DUP6 PUSH2 0x779 JUMP JUMPDEST SWAP4 POP PUSH2 0x7D5 DUP2 DUP6 PUSH1 0x20 DUP7 ADD PUSH2 0x789 JUMP JUMPDEST PUSH2 0x7DE DUP2 PUSH2 0x55E JUMP JUMPDEST DUP5 ADD SWAP2 POP POP SWAP3 SWAP2 POP POP JUMP JUMPDEST PUSH0 PUSH1 0x60 DUP3 ADD SWAP1 POP DUP2 DUP2 SUB PUSH0 DUP4 ADD MSTORE PUSH2 0x801 DUP2 DUP7 PUSH2 0x7B1 JUMP JUMPDEST SWAP1 POP DUP2 DUP2 SUB PUSH1 0x20 DUP4 ADD MSTORE PUSH2 0x815 DUP2 DUP6 PUSH2 0x7B1 JUMP JUMPDEST SWAP1 POP PUSH2 0x824 PUSH1 0x40 DUP4 ADD DUP5 PUSH2 0x51D JUMP JUMPDEST SWAP5 SWAP4 POP POP POP POP JUMP JUMPDEST PUSH0 DUP2 MLOAD SWAP1 POP SWAP2 SWAP1 POP JUMP JUMPDEST PUSH0 DUP3 DUP3 MSTORE PUSH1 0x20 DUP3 ADD SWAP1 POP SWAP3 SWAP2 POP POP JUMP JUMPDEST PUSH0 PUSH2 0x850 DUP3 PUSH2 0x82C JUMP JUMPDEST PUSH2 0x85A DUP2 DUP6 PUSH2 0x836 JUMP JUMPDEST SWAP4 POP PUSH2 0x86A DUP2 DUP6 PUSH1 0x20 DUP7 ADD PUSH2 0x789 JUMP JUMPDEST PUSH2 0x873 DUP2 PUSH2 0x55E JUMP JUMPDEST DUP5 ADD SWAP2 POP POP SWAP3 SWAP2 POP POP JUMP JUMPDEST PUSH0 PUSH1 0x40 DUP3 ADD SWAP1 POP PUSH2 0x891 PUSH0 DUP4 ADD DUP6 PUSH2 0x51D JUMP JUMPDEST DUP2 DUP2 SUB PUSH1 0x20 DUP4 ADD MSTORE PUSH2 0x8A3 DUP2 DUP5 PUSH2 0x846 JUMP JUMPDEST SWAP1 POP SWAP4 SWAP3 POP POP POP JUMP JUMPDEST PUSH0 PUSH1 0x40 DUP3 ADD SWAP1 POP DUP2 DUP2 SUB PUSH0 DUP4 ADD MSTORE PUSH2 0x8C4 DUP2 DUP6 PUSH2 0x7B1 JUMP JUMPDEST SWAP1 POP DUP2 DUP2 SUB PUSH1 0x20 DUP4 ADD MSTORE PUSH2 0x8D8 DUP2 DUP5 PUSH2 0x7B1 JUMP JUMPDEST SWAP1 POP SWAP4 SWAP3 POP POP POP JUMP INVALID PUSH1 0x80 PUSH1 0x40 MSTORE PUSH1 0x40 MLOAD PUSH2 0x6A2 CODESIZE SUB DUP1 PUSH2 0x6A2 DUP4 CODECOPY DUP2 DUP2 ADD PUSH1 0x40 MSTORE DUP2 ADD SWAP1 PUSH2 0x25 SWAP2 SWAP1 PUSH2 0x540 JUMP JUMPDEST PUSH2 0x33 PUSH2 0x8E PUSH1 0x20 SHL PUSH1 0x20 SHR JUMP JUMPDEST ISZERO DUP1 ISZERO PUSH2 0x40 JUMPI POP PUSH0 DUP2 MLOAD EQ JUMPDEST ISZERO PUSH2 0x77 JUMPI PUSH1 0x40 MLOAD PUSH32 0xC28A273C00000000000000000000000000000000000000000000000000000000 DUP2 MSTORE PUSH1 0x4 ADD PUSH1 0x40 MLOAD DUP1 SWAP2 SUB SWAP1 REVERT JUMPDEST PUSH2 0x87 DUP3 DUP3 PUSH2 0x95 PUSH1 0x20 SHL PUSH1 0x20 SHR JUMP JUMPDEST POP POP PUSH2 0x5C2 JUMP JUMPDEST PUSH0 PUSH0 SWAP1 POP SWAP1 JUMP JUMPDEST PUSH2 0xA4 DUP3 PUSH2 0x119 PUSH1 0x20 SHL PUSH1 0x20 SHR JUMP JUMPDEST DUP2 PUSH20 0xFFFFFFFFFFFFFFFFFFFFFFFFFFFFFFFFFFFFFFFF AND PUSH32 0xBC7CD75A20EE27FD9ADEBAB32041F755214DBC6BFFA90CC0225B39DA2E5C2D3B PUSH1 0x40 MLOAD PUSH1 0x40 MLOAD DUP1 SWAP2 SUB SWAP1 LOG2 PUSH0 DUP2 MLOAD GT ISZERO PUSH2 0x106 JUMPI PUSH2 0x100 DUP3 DUP3 PUSH2 0x1E8 PUSH1 0x20 SHL PUSH1 0x20 SHR JUMP JUMPDEST POP PUSH2 0x115 JUMP JUMPDEST PUSH2 0x114 PUSH2 0x2F7 PUSH1 0x20 SHL PUSH1 0x20 SHR JUMP JUMPDEST JUMPDEST POP POP JUMP JUMPDEST PUSH0 DUP2 PUSH20 0xFFFFFFFFFFFFFFFFFFFFFFFFFFFFFFFFFFFFFFFF AND EXTCODESIZE SUB PUSH2 0x174 JUMPI DUP1 PUSH1 0x40 MLOAD PUSH32 0x4C9C8CE300000000000000000000000000000000000000000000000000000000 DUP2 MSTORE PUSH1 0x4 ADD PUSH2 0x16B SWAP2 SWAP1 PUSH2 0x5A9 JUMP JUMPDEST PUSH1 0x40 MLOAD DUP1 SWAP2 SUB SWAP1 REVERT JUMPDEST DUP1 PUSH2 0x1A6 PUSH32 0x360894A13BA1A3210667C828492DB98DCA3E2076CC3735A920A3CA505D382BBC PUSH0 SHL PUSH2 0x333 PUSH1 0x20 SHL PUSH1 0x20 SHR JUMP JUMPDEST PUSH0 ADD PUSH0 PUSH2 0x100 EXP DUP2 SLOAD DUP2 PUSH20 0xFFFFFFFFFFFFFFFFFFFFFFFFFFFFFFFFFFFFFFFF MUL NOT AND SWAP1 DUP4 PUSH20 0xFFFFFFFFFFFFFFFFFFFFFFFFFFFFFFFFFFFFFFFF AND MUL OR SWAP1 SSTORE POP POP JUMP JUMPDEST PUSH1 0x60 PUSH0 PUSH2 0x1FB DUP5 DUP5 PUSH2 0x33C PUSH1 0x20 SHL PUSH1 0x20 SHR JUMP JUMPDEST SWAP1 POP DUP1 DUP1 ISZERO PUSH2 0x237 JUMPI POP PUSH0 PUSH2 0x214 PUSH2 0x350 PUSH1 0x20 SHL PUSH1 0x20 SHR JUMP JUMPDEST GT DUP1 PUSH2 0x236 JUMPI POP PUSH0 DUP5 PUSH20 0xFFFFFFFFFFFFFFFFFFFFFFFFFFFFFFFFFFFFFFFF AND EXTCODESIZE GT JUMPDEST JUMPDEST ISZERO PUSH2 0x252 JUMPI PUSH2 0x24A PUSH2 0x357 PUSH1 0x20 SHL PUSH1 0x20 SHR JUMP JUMPDEST SWAP2 POP POP PUSH2 0x2F1 JUMP JUMPDEST DUP1 ISZERO PUSH2 0x295 JUMPI DUP4 PUSH1 0x40 MLOAD PUSH32 0x9996B31500000000000000000000000000000000000000000000000000000000 DUP2 MSTORE PUSH1 0x4 ADD PUSH2 0x28C SWAP2 SWAP1 PUSH2 0x5A9 JUMP JUMPDEST PUSH1 0x40 MLOAD DUP1 SWAP2 SUB SWAP1 REVERT JUMPDEST PUSH0 PUSH2 0x2A4 PUSH2 0x350 PUSH1 0x20 SHL PUSH1 0x20 SHR JUMP JUMPDEST GT ISZERO PUSH2 0x2BD JUMPI PUSH2 0x2B8 PUSH2 0x374 PUSH1 0x20 SHL PUSH1 0x20 SHR JUMP JUMPDEST PUSH2 0x2EF JUMP JUMPDEST PUSH1 0x40 MLOAD PUSH32 0xD6BDA27500000000000000000000000000000000000000000000000000000000 DUP2 MSTORE PUSH1 0x4 ADD PUSH1 0x40 MLOAD DUP1 SWAP2 SUB SWAP1 REVERT JUMPDEST POP JUMPDEST SWAP3 SWAP2 POP POP JUMP JUMPDEST PUSH0 CALLVALUE GT ISZERO PUSH2 0x331 JUMPI PUSH1 0x40 MLOAD PUSH32 0xB398979F00000000000000000000000000000000000000000000000000000000 DUP2 MSTORE PUSH1 0x4 ADD PUSH1 0x40 MLOAD DUP1 SWAP2 SUB SWAP1 REVERT JUMPDEST JUMP JUMPDEST PUSH0 DUP2 SWAP1 POP SWAP2 SWAP1 POP JUMP JUMPDEST PUSH0 PUSH0 PUSH0 DUP4 MLOAD PUSH1 0x20 DUP6 ADD DUP7 GAS DELEGATECALL SWAP1 POP SWAP3 SWAP2 POP POP JUMP JUMPDEST PUSH0 RETURNDATASIZE SWAP1 POP SWAP1 JUMP JUMPDEST PUSH1 0x60 PUSH1 0x40 MLOAD SWAP1 POP RETURNDATASIZE DUP2 MSTORE RETURNDATASIZE PUSH0 PUSH1 0x20 DUP4 ADD RETURNDATACOPY RETURNDATASIZE PUSH1 0x20 ADD DUP2 ADD PUSH1 0x40 MSTORE SWAP1 JUMP JUMPDEST PUSH1 0x40 MLOAD RETURNDATASIZE PUSH0 DUP3 RETURNDATACOPY RETURNDATASIZE DUP2 REVERT JUMPDEST PUSH0 PUSH1 0x40 MLOAD SWAP1 POP SWAP1 JUMP JUMPDEST PUSH0 PUSH0 REVERT JUMPDEST PUSH0 PUSH0 REVERT JUMPDEST PUSH0 PUSH20 0xFFFFFFFFFFFFFFFFFFFFFFFFFFFFFFFFFFFFFFFF DUP3 AND SWAP1 POP SWAP2 SWAP1 POP JUMP JUMPDEST PUSH0 PUSH2 0x3B9 DUP3 PUSH2 0x390 JUMP JUMPDEST SWAP1 POP SWAP2 SWAP1 POP JUMP JUMPDEST PUSH2 0x3C9 DUP2 PUSH2 0x3AF JUMP JUMPDEST DUP2 EQ PUSH2 0x3D3 JUMPI PUSH0 PUSH0 REVERT JUMPDEST POP JUMP JUMPDEST PUSH0 DUP2 MLOAD SWAP1 POP PUSH2 0x3E4 DUP2 PUSH2 0x3C0 JUMP JUMPDEST SWAP3 SWAP2 POP POP JUMP JUMPDEST PUSH0 PUSH0 REVERT JUMPDEST PUSH0 PUSH0 REVERT JUMPDEST PUSH0 PUSH1 0x1F NOT PUSH1 0x1F DUP4 ADD AND SWAP1 POP SWAP2 SWAP1 POP JUMP JUMPDEST PUSH32 0x4E487B7100000000000000000000000000000000000000000000000000000000 PUSH0 MSTORE PUSH1 0x41 PUSH1 0x4 MSTORE PUSH1 0x24 PUSH0 REVERT JUMPDEST PUSH2 0x438 DUP3 PUSH2 0x3F2 JUMP JUMPDEST DUP2 ADD DUP2 DUP2 LT PUSH8 0xFFFFFFFFFFFFFFFF DUP3 GT OR ISZERO PUSH2 0x457 JUMPI PUSH2 0x456 PUSH2 0x402 JUMP JUMPDEST JUMPDEST DUP1 PUSH1 0x40 MSTORE POP POP POP JUMP JUMPDEST PUSH0 PUSH2 0x469 PUSH2 0x37F JUMP JUMPDEST SWAP1 POP PUSH2 0x475 DUP3 DUP3 PUSH2 0x42F JUMP JUMPDEST SWAP2 SWAP1 POP JUMP JUMPDEST PUSH0 PUSH8 0xFFFFFFFFFFFFFFFF DUP3 GT ISZERO PUSH2 0x494 JUMPI PUSH2 0x493 PUSH2 0x402 JUMP JUMPDEST JUMPDEST PUSH2 0x49D DUP3 PUSH2 0x3F2 JUMP JUMPDEST SWAP1 POP PUSH1 0x20 DUP2 ADD SWAP1 POP SWAP2 SWAP1 POP JUMP JUMPDEST PUSH0 JUMPDEST DUP4 DUP2 LT ISZERO PUSH2 0x4C7 JUMPI DUP1 DUP3 ADD MLOAD DUP2 DUP5 ADD MSTORE PUSH1 0x20 DUP2 ADD SWAP1 POP PUSH2 0x4AC JUMP JUMPDEST PUSH0 DUP5 DUP5 ADD MSTORE POP POP POP POP JUMP JUMPDEST PUSH0 PUSH2 0x4E4 PUSH2 0x4DF DUP5 PUSH2 0x47A JUMP JUMPDEST PUSH2 0x460 JUMP JUMPDEST SWAP1 POP DUP3 DUP2 MSTORE PUSH1 0x20 DUP2 ADD DUP5 DUP5 DUP5 ADD GT ISZERO PUSH2 0x500 JUMPI PUSH2 0x4FF PUSH2 0x3EE JUMP JUMPDEST JUMPDEST PUSH2 0x50B DUP5 DUP3 DUP6 PUSH2 0x4AA JUMP JUMPDEST POP SWAP4 SWAP3 POP POP POP JUMP JUMPDEST PUSH0 DUP3 PUSH1 0x1F DUP4 ADD SLT PUSH2 0x527 JUMPI PUSH2 0x526 PUSH2 0x3EA JUMP JUMPDEST JUMPDEST DUP2 MLOAD PUSH2 0x537 DUP5 DUP3 PUSH1 0x20 DUP7 ADD PUSH2 0x4D2 JUMP JUMPDEST SWAP2 POP POP SWAP3 SWAP2 POP POP JUMP JUMPDEST PUSH0 PUSH0 PUSH1 0x40 DUP4 DUP6 SUB SLT ISZERO PUSH2 0x556 JUMPI PUSH2 0x555 PUSH2 0x388 JUMP JUMPDEST JUMPDEST PUSH0 PUSH2 0x563 DUP6 DUP3 DUP7 ADD PUSH2 0x3D6 JUMP JUMPDEST SWAP3 POP POP PUSH1 0x20 DUP4 ADD MLOAD PUSH8 0xFFFFFFFFFFFFFFFF DUP2 GT ISZERO PUSH2 0x584 JUMPI PUSH2 0x583 PUSH2 0x38C JUMP JUMPDEST JUMPDEST PUSH2 0x590 DUP6 DUP3 DUP7 ADD PUSH2 0x513 JUMP JUMPDEST SWAP2 POP POP SWAP3 POP SWAP3 SWAP1 POP JUMP JUMPDEST PUSH2 0x5A3 DUP2 PUSH2 0x3AF JUMP JUMPDEST DUP3 MSTORE POP POP JUMP JUMPDEST PUSH0 PUSH1 0x20 DUP3 ADD SWAP1 POP PUSH2 0x5BC PUSH0 DUP4 ADD DUP5 PUSH2 0x59A JUMP JUMPDEST SWAP3 SWAP2 POP POP JUMP JUMPDEST PUSH1 0xD4 DUP1 PUSH2 0x5CE PUSH0 CODECOPY PUSH0 RETURN INVALID PUSH1 0x80 PUSH1 0x40 MSTORE PUSH1 0xA PUSH1 0xC JUMP JUMPDEST STOP JUMPDEST PUSH1 0x18 PUSH1 0x14 PUSH1 0x1A JUMP JUMPDEST PUSH1 0x26 JUMP JUMPDEST JUMP JUMPDEST PUSH0 PUSH1 0x21 PUSH1 0x44 JUMP JUMPDEST SWAP1 POP SWAP1 JUMP JUMPDEST CALLDATASIZE PUSH0 PUSH0 CALLDATACOPY PUSH0 PUSH0 CALLDATASIZE PUSH0 DUP5 GAS DELEGATECALL RETURNDATASIZE PUSH0 PUSH0 RETURNDATACOPY DUP1 PUSH0 DUP2 EQ PUSH1 0x40 JUMPI RETURNDATASIZE PUSH0 RETURN JUMPDEST RETURNDATASIZE PUSH0 REVERT JUMPDEST PUSH0 PUSH1 0x6E PUSH32 0x360894A13BA1A3210667C828492DB98DCA3E2076CC3735A920A3CA505D382BBC PUSH0 SHL PUSH1 0x95 JUMP JUMPDEST PUSH0 ADD PUSH0 SWAP1 SLOAD SWAP1 PUSH2 0x100 EXP SWAP1 DIV PUSH20 0xFFFFFFFFFFFFFFFFFFFFFFFFFFFFFFFFFFFFFFFF AND SWAP1 POP SWAP1 JUMP JUMPDEST PUSH0 DUP2 SWAP1 POP SWAP2 SWAP1 POP JUMP INVALID LOG2 PUSH5 0x6970667358 0x22 SLT KECCAK256 SSTORE DIV PUSH12 0x167F12B124A764A4D7B913AF SSTORE DUP4 0xDE DIV 0xF6 SWAP8 0xA9 CODECOPY ADDMOD 0xAD SWAP13 SELFDESTRUCT DUP11 MULMOD BASEFEE DUP8 STOP PUSH5 0x736F6C6343 STOP ADDMOD 0x22 STOP CALLER LOG2 PUSH5 0x6970667358 0x22 SLT KECCAK256 TSTORE 0xC4 PUSH9 0xE65575ABB49B7C7CC9 0xAA 0xAC 0xD5 MULMOD SAR 0xBB 0xD7 CALLDATALOAD CODESIZE 0xB8 0xDC 0xC8 0xC ADDMOD EQ 0xC4 0xEB LOG3 SWAP15 SUB PUSH5 0x736F6C6343 STOP ADDMOD 0x22 STOP CALLER "
				},
				"gasEstimates": {
					"creation": {
						"codeDepositCost": "805000",
						"executionCost": "infinite",
						"totalCost": "infinite"
					},
					"external": {
						"deployNewToken(string,string,address)": "infinite",
						"owner()": "2536",
						"renounceOwnership()": "infinite",
						"templateAddress()": "2486",
						"transferOwnership(address)": "infinite",
						"updateTemplate(address)": "infinite"
					}
				},
				"methodIdentifiers": {
					"deployNewToken(string,string,address)": "b8d26dd4",
					"owner()": "8da5cb5b",
					"renounceOwnership()": "715018a6",
					"templateAddress()": "0c5a6f2f",
					"transferOwnership(address)": "f2fde38b",
					"updateTemplate(address)": "fbc1f718"
				}
			},
			"storageLayout": {
				"storage": [
					{
						"astId": 8,
						"contract": "tokenDeployer.sol:TokenDeployer",
						"label": "_owner",
						"offset": 0,
						"slot": "0",
						"type": "t_address"
					},
					{
						"astId": 1304,
						"contract": "tokenDeployer.sol:TokenDeployer",
						"label": "templateAddress",
						"offset": 0,
						"slot": "1",
						"type": "t_address"
					}
				],
				"types": {
					"t_address": {
						"encoding": "inplace",
						"label": "address",
						"numberOfBytes": "20"
					}
				}
			},
			"userdoc": {
				"kind": "user",
				"methods": {},
				"version": 1
			}
		}
	}
}