{
	"masterTemplate.sol": {
		"masterTemplate": {
			"abi": [
				{
					"inputs": [],
					"stateMutability": "nonpayable",
					"type": "constructor"
				},
				{
					"inputs": [
						{
							"internalType": "address",
							"name": "target",
							"type": "address"
						}
					],
					"name": "AddressEmptyCode",
					"type": "error"
				},
				{
					"inputs": [
						{
							"internalType": "address",
							"name": "implementation",
							"type": "address"
						}
					],
					"name": "ERC1967InvalidImplementation",
					"type": "error"
				},
				{
					"inputs": [],
					"name": "ERC1967NonPayable",
					"type": "error"
				},
				{
					"inputs": [
						{
							"internalType": "address",
							"name": "spender",
							"type": "address"
						},
						{
							"internalType": "uint256",
							"name": "allowance",
							"type": "uint256"
						},
						{
							"internalType": "uint256",
							"name": "needed",
							"type": "uint256"
						}
					],
					"name": "ERC20InsufficientAllowance",
					"type": "error"
				},
				{
					"inputs": [
						{
							"internalType": "address",
							"name": "sender",
							"type": "address"
						},
						{
							"internalType": "uint256",
							"name": "balance",
							"type": "uint256"
						},
						{
							"internalType": "uint256",
							"name": "needed",
							"type": "uint256"
						}
					],
					"name": "ERC20InsufficientBalance",
					"type": "error"
				},
				{
					"inputs": [
						{
							"internalType": "address",
							"name": "approver",
							"type": "address"
						}
					],
					"name": "ERC20InvalidApprover",
					"type": "error"
				},
				{
					"inputs": [
						{
							"internalType": "address",
							"name": "receiver",
							"type": "address"
						}
					],
					"name": "ERC20InvalidReceiver",
					"type": "error"
				},
				{
					"inputs": [
						{
							"internalType": "address",
							"name": "sender",
							"type": "address"
						}
					],
					"name": "ERC20InvalidSender",
					"type": "error"
				},
				{
					"inputs": [
						{
							"internalType": "address",
							"name": "spender",
							"type": "address"
						}
					],
					"name": "ERC20InvalidSpender",
					"type": "error"
				},
				{
					"inputs": [],
					"name": "EnforcedPause",
					"type": "error"
				},
				{
					"inputs": [],
					"name": "ExpectedPause",
					"type": "error"
				},
				{
					"inputs": [],
					"name": "FailedCall",
					"type": "error"
				},
				{
					"inputs": [],
					"name": "InvalidInitialization",
					"type": "error"
				},
				{
					"inputs": [],
					"name": "NotInitializing",
					"type": "error"
				},
				{
					"inputs": [
						{
							"internalType": "address",
							"name": "owner",
							"type": "address"
						}
					],
					"name": "OwnableInvalidOwner",
					"type": "error"
				},
				{
					"inputs": [
						{
							"internalType": "address",
							"name": "account",
							"type": "address"
						}
					],
					"name": "OwnableUnauthorizedAccount",
					"type": "error"
				},
				{
					"inputs": [],
					"name": "UUPSUnauthorizedCallContext",
					"type": "error"
				},
				{
					"inputs": [
						{
							"internalType": "bytes32",
							"name": "slot",
							"type": "bytes32"
						}
					],
					"name": "UUPSUnsupportedProxiableUUID",
					"type": "error"
				},
				{
					"anonymous": false,
					"inputs": [
						{
							"indexed": true,
							"internalType": "address",
							"name": "owner",
							"type": "address"
						},
						{
							"indexed": true,
							"internalType": "address",
							"name": "spender",
							"type": "address"
						},
						{
							"indexed": false,
							"internalType": "uint256",
							"name": "value",
							"type": "uint256"
						}
					],
					"name": "Approval",
					"type": "event"
				},
				{
					"anonymous": false,
					"inputs": [
						{
							"indexed": false,
							"internalType": "uint64",
							"name": "version",
							"type": "uint64"
						}
					],
					"name": "Initialized",
					"type": "event"
				},
				{
					"anonymous": false,
					"inputs": [
						{
							"indexed": true,
							"internalType": "address",
							"name": "previousOwner",
							"type": "address"
						},
						{
							"indexed": true,
							"internalType": "address",
							"name": "newOwner",
							"type": "address"
						}
					],
					"name": "OwnershipTransferred",
					"type": "event"
				},
				{
					"anonymous": false,
					"inputs": [
						{
							"indexed": false,
							"internalType": "address",
							"name": "account",
							"type": "address"
						}
					],
					"name": "Paused",
					"type": "event"
				},
				{
					"anonymous": false,
					"inputs": [
						{
							"indexed": true,
							"internalType": "address",
							"name": "from",
							"type": "address"
						},
						{
							"indexed": true,
							"internalType": "address",
							"name": "to",
							"type": "address"
						},
						{
							"indexed": false,
							"internalType": "uint256",
							"name": "value",
							"type": "uint256"
						}
					],
					"name": "Transfer",
					"type": "event"
				},
				{
					"anonymous": false,
					"inputs": [
						{
							"indexed": false,
							"internalType": "address",
							"name": "account",
							"type": "address"
						}
					],
					"name": "Unpaused",
					"type": "event"
				},
				{
					"anonymous": false,
					"inputs": [
						{
							"indexed": true,
							"internalType": "address",
							"name": "implementation",
							"type": "address"
						}
					],
					"name": "Upgraded",
					"type": "event"
				},
				{
					"inputs": [],
					"name": "UPGRADE_INTERFACE_VERSION",
					"outputs": [
						{
							"internalType": "string",
							"name": "",
							"type": "string"
						}
					],
					"stateMutability": "view",
					"type": "function"
				},
				{
					"inputs": [
						{
							"internalType": "address",
							"name": "owner",
							"type": "address"
						},
						{
							"internalType": "address",
							"name": "spender",
							"type": "address"
						}
					],
					"name": "allowance",
					"outputs": [
						{
							"internalType": "uint256",
							"name": "",
							"type": "uint256"
						}
					],
					"stateMutability": "view",
					"type": "function"
				},
				{
					"inputs": [
						{
							"internalType": "address",
							"name": "spender",
							"type": "address"
						},
						{
							"internalType": "uint256",
							"name": "value",
							"type": "uint256"
						}
					],
					"name": "approve",
					"outputs": [
						{
							"internalType": "bool",
							"name": "",
							"type": "bool"
						}
					],
					"stateMutability": "nonpayable",
					"type": "function"
				},
				{
					"inputs": [
						{
							"internalType": "address",
							"name": "account",
							"type": "address"
						}
					],
					"name": "balanceOf",
					"outputs": [
						{
							"internalType": "uint256",
							"name": "",
							"type": "uint256"
						}
					],
					"stateMutability": "view",
					"type": "function"
				},
				{
					"inputs": [
						{
							"internalType": "address",
							"name": "account",
							"type": "address"
						},
						{
							"internalType": "uint256",
							"name": "amount",
							"type": "uint256"
						}
					],
					"name": "burnFromSupply",
					"outputs": [],
					"stateMutability": "nonpayable",
					"type": "function"
				},
				{
					"inputs": [],
					"name": "decimals",
					"outputs": [
						{
							"internalType": "uint8",
							"name": "",
							"type": "uint8"
						}
					],
					"stateMutability": "view",
					"type": "function"
				},
				{
					"inputs": [
						{
							"internalType": "string",
							"name": "name",
							"type": "string"
						},
						{
							"internalType": "string",
							"name": "symbol",
							"type": "string"
						},
						{
							"internalType": "address",
							"name": "initialOwner",
							"type": "address"
						}
					],
					"name": "initialize",
					"outputs": [],
					"stateMutability": "nonpayable",
					"type": "function"
				},
				{
					"inputs": [
						{
							"internalType": "address",
							"name": "",
							"type": "address"
						}
					],
					"name": "isMinter",
					"outputs": [
						{
							"internalType": "bool",
							"name": "",
							"type": "bool"
						}
					],
					"stateMutability": "view",
					"type": "function"
				},
				{
					"inputs": [
						{
							"internalType": "address",
							"name": "poolAddress",
							"type": "address"
						},
						{
							"internalType": "uint256",
							"name": "amount",
							"type": "uint256"
						}
					],
					"name": "mintToPool",
					"outputs": [],
					"stateMutability": "nonpayable",
					"type": "function"
				},
				{
					"inputs": [
						{
							"internalType": "address",
							"name": "wallet",
							"type": "address"
						},
						{
							"internalType": "uint256",
							"name": "amount",
							"type": "uint256"
						}
					],
					"name": "mintToWallet",
					"outputs": [],
					"stateMutability": "nonpayable",
					"type": "function"
				},
				{
					"inputs": [],
					"name": "name",
					"outputs": [
						{
							"internalType": "string",
							"name": "",
							"type": "string"
						}
					],
					"stateMutability": "view",
					"type": "function"
				},
				{
					"inputs": [],
					"name": "owner",
					"outputs": [
						{
							"internalType": "address",
							"name": "",
							"type": "address"
						}
					],
					"stateMutability": "view",
					"type": "function"
				},
				{
					"inputs": [],
					"name": "pause",
					"outputs": [],
					"stateMutability": "nonpayable",
					"type": "function"
				},
				{
					"inputs": [],
					"name": "paused",
					"outputs": [
						{
							"internalType": "bool",
							"name": "",
							"type": "bool"
						}
					],
					"stateMutability": "view",
					"type": "function"
				},
				{
					"inputs": [],
					"name": "proxiableUUID",
					"outputs": [
						{
							"internalType": "bytes32",
							"name": "",
							"type": "bytes32"
						}
					],
					"stateMutability": "view",
					"type": "function"
				},
				{
					"inputs": [],
					"name": "renounceOwnership",
					"outputs": [],
					"stateMutability": "nonpayable",
					"type": "function"
				},
				{
					"inputs": [
						{
							"internalType": "address",
							"name": "minter",
							"type": "address"
						},
						{
							"internalType": "bool",
							"name": "status",
							"type": "bool"
						}
					],
					"name": "setMinter",
					"outputs": [],
					"stateMutability": "nonpayable",
					"type": "function"
				},
				{
					"inputs": [],
					"name": "symbol",
					"outputs": [
						{
							"internalType": "string",
							"name": "",
							"type": "string"
						}
					],
					"stateMutability": "view",
					"type": "function"
				},
				{
					"inputs": [],
					"name": "totalSupply",
					"outputs": [
						{
							"internalType": "uint256",
							"name": "",
							"type": "uint256"
						}
					],
					"stateMutability": "view",
					"type": "function"
				},
				{
					"inputs": [
						{
							"internalType": "address",
							"name": "to",
							"type": "address"
						},
						{
							"internalType": "uint256",
							"name": "value",
							"type": "uint256"
						}
					],
					"name": "transfer",
					"outputs": [
						{
							"internalType": "bool",
							"name": "",
							"type": "bool"
						}
					],
					"stateMutability": "nonpayable",
					"type": "function"
				},
				{
					"inputs": [
						{
							"internalType": "address",
							"name": "from",
							"type": "address"
						},
						{
							"internalType": "address",
							"name": "to",
							"type": "address"
						},
						{
							"internalType": "uint256",
							"name": "value",
							"type": "uint256"
						}
					],
					"name": "transferFrom",
					"outputs": [
						{
							"internalType": "bool",
							"name": "",
							"type": "bool"
						}
					],
					"stateMutability": "nonpayable",
					"type": "function"
				},
				{
					"inputs": [
						{
							"internalType": "address",
							"name": "newOwner",
							"type": "address"
						}
					],
					"name": "transferOwnership",
					"outputs": [],
					"stateMutability": "nonpayable",
					"type": "function"
				},
				{
					"inputs": [],
					"name": "unpause",
					"outputs": [],
					"stateMutability": "nonpayable",
					"type": "function"
				},
				{
					"inputs": [
						{
							"internalType": "address",
							"name": "newImplementation",
							"type": "address"
						},
						{
							"internalType": "bytes",
							"name": "data",
							"type": "bytes"
						}
					],
					"name": "upgradeToAndCall",
					"outputs": [],
					"stateMutability": "payable",
					"type": "function"
				}
			],
			"devdoc": {
				"errors": {
					"AddressEmptyCode(address)": [
						{
							"details": "There's no code at `target` (it is not a contract)."
						}
					],
					"ERC1967InvalidImplementation(address)": [
						{
							"details": "The `implementation` of the proxy is invalid."
						}
					],
					"ERC1967NonPayable()": [
						{
							"details": "An upgrade function sees `msg.value > 0` that may be lost."
						}
					],
					"ERC20InsufficientAllowance(address,uint256,uint256)": [
						{
							"details": "Indicates a failure with the `spender`’s `allowance`. Used in transfers.",
							"params": {
								"allowance": "Amount of tokens a `spender` is allowed to operate with.",
								"needed": "Minimum amount required to perform a transfer.",
								"spender": "Address that may be allowed to operate on tokens without being their owner."
							}
						}
					],
					"ERC20InsufficientBalance(address,uint256,uint256)": [
						{
							"details": "Indicates an error related to the current `balance` of a `sender`. Used in transfers.",
							"params": {
								"balance": "Current balance for the interacting account.",
								"needed": "Minimum amount required to perform a transfer.",
								"sender": "Address whose tokens are being transferred."
							}
						}
					],
					"ERC20InvalidApprover(address)": [
						{
							"details": "Indicates a failure with the `approver` of a token to be approved. Used in approvals.",
							"params": {
								"approver": "Address initiating an approval operation."
							}
						}
					],
					"ERC20InvalidReceiver(address)": [
						{
							"details": "Indicates a failure with the token `receiver`. Used in transfers.",
							"params": {
								"receiver": "Address to which tokens are being transferred."
							}
						}
					],
					"ERC20InvalidSender(address)": [
						{
							"details": "Indicates a failure with the token `sender`. Used in transfers.",
							"params": {
								"sender": "Address whose tokens are being transferred."
							}
						}
					],
					"ERC20InvalidSpender(address)": [
						{
							"details": "Indicates a failure with the `spender` to be approved. Used in approvals.",
							"params": {
								"spender": "Address that may be allowed to operate on tokens without being their owner."
							}
						}
					],
					"EnforcedPause()": [
						{
							"details": "The operation failed because the contract is paused."
						}
					],
					"ExpectedPause()": [
						{
							"details": "The operation failed because the contract is not paused."
						}
					],
					"FailedCall()": [
						{
							"details": "A call to an address target failed. The target may have reverted."
						}
					],
					"InvalidInitialization()": [
						{
							"details": "The contract is already initialized."
						}
					],
					"NotInitializing()": [
						{
							"details": "The contract is not initializing."
						}
					],
					"OwnableInvalidOwner(address)": [
						{
							"details": "The owner is not a valid owner account. (eg. `address(0)`)"
						}
					],
					"OwnableUnauthorizedAccount(address)": [
						{
							"details": "The caller account is not authorized to perform an operation."
						}
					],
					"UUPSUnauthorizedCallContext()": [
						{
							"details": "The call is from an unauthorized context."
						}
					],
					"UUPSUnsupportedProxiableUUID(bytes32)": [
						{
							"details": "The storage `slot` is unsupported as a UUID."
						}
					]
				},
				"events": {
					"Approval(address,address,uint256)": {
						"details": "Emitted when the allowance of a `spender` for an `owner` is set by a call to {approve}. `value` is the new allowance."
					},
					"Initialized(uint64)": {
						"details": "Triggered when the contract has been initialized or reinitialized."
					},
					"Paused(address)": {
						"details": "Emitted when the pause is triggered by `account`."
					},
					"Transfer(address,address,uint256)": {
						"details": "Emitted when `value` tokens are moved from one account (`from`) to another (`to`). Note that `value` may be zero."
					},
					"Unpaused(address)": {
						"details": "Emitted when the pause is lifted by `account`."
					},
					"Upgraded(address)": {
						"details": "Emitted when the implementation is upgraded."
					}
				},
				"kind": "dev",
				"methods": {
					"allowance(address,address)": {
						"details": "Returns the remaining number of tokens that `spender` will be allowed to spend on behalf of `owner` through {transferFrom}. This is zero by default. This value changes when {approve} or {transferFrom} are called."
					},
					"approve(address,uint256)": {
						"details": "See {IERC20-approve}. NOTE: If `value` is the maximum `uint256`, the allowance is not updated on `transferFrom`. This is semantically equivalent to an infinite approval. Requirements: - `spender` cannot be the zero address."
					},
					"balanceOf(address)": {
						"details": "Returns the value of tokens owned by `account`."
					},
					"burnFromSupply(address,uint256)": {
						"details": "Farn owner can burn tokens from any address EMERGENCY USE ONLY to correct any major errors affecting parity w/inventory especially due to a severe hack or compromise. Function will be removed in the future after significant testing"
					},
					"constructor": {
						"custom:oz-upgrades-unsafe-allow": "constructor"
					},
					"decimals()": {
						"details": "Returns the number of decimals used to get its user representation. For example, if `decimals` equals `2`, a balance of `505` tokens should be displayed to a user as `5.05` (`505 / 10 ** 2`). Tokens usually opt for a value of 18, imitating the relationship between Ether and Wei. This is the default value returned by this function, unless it's overridden. NOTE: This information is only used for _display_ purposes: it in no way affects any of the arithmetic of the contract, including {IERC20-balanceOf} and {IERC20-transfer}."
					},
					"mintToPool(address,uint256)": {
						"details": "Mint tokens directly into a Liquidity Pool or Marketplace contract. Automatically notifies the DEX to update its internal inventory state."
					},
					"mintToWallet(address,uint256)": {
						"details": "Mint tokens directly to a personal wallet."
					},
					"name()": {
						"details": "Returns the name of the token."
					},
					"owner()": {
						"details": "Returns the address of the current owner."
					},
					"pause()": {
						"details": "Stops all token transfers. Useful for emergencies or maintenance."
					},
					"paused()": {
						"details": "Returns true if the contract is paused, and false otherwise."
					},
					"proxiableUUID()": {
						"details": "Implementation of the ERC-1822 {proxiableUUID} function. This returns the storage slot used by the implementation. It is used to validate the implementation's compatibility when performing an upgrade. IMPORTANT: A proxy pointing at a proxiable contract should not be considered proxiable itself, because this risks bricking a proxy that upgrades to it, by delegating to itself until out of gas. Thus it is critical that this function revert if invoked through a proxy. This is guaranteed by the `notDelegated` modifier."
					},
					"renounceOwnership()": {
						"details": "Leaves the contract without owner. It will not be possible to call `onlyOwner` functions. Can only be called by the current owner. NOTE: Renouncing ownership will leave the contract without an owner, thereby disabling any functionality that is only available to the owner."
					},
					"setMinter(address,bool)": {
						"details": "Add or remove a wallet from the minter list."
					},
					"symbol()": {
						"details": "Returns the symbol of the token, usually a shorter version of the name."
					},
					"totalSupply()": {
						"details": "Returns the value of tokens in existence."
					},
					"transfer(address,uint256)": {
						"details": "See {IERC20-transfer}. Requirements: - `to` cannot be the zero address. - the caller must have a balance of at least `value`."
					},
					"transferFrom(address,address,uint256)": {
						"details": "See {IERC20-transferFrom}. Skips emitting an {Approval} event indicating an allowance update. This is not required by the ERC. See {xref-ERC20-_approve-address-address-uint256-bool-}[_approve]. NOTE: Does not update the allowance if the current allowance is the maximum `uint256`. Requirements: - `from` and `to` cannot be the zero address. - `from` must have a balance of at least `value`. - the caller must have allowance for ``from``'s tokens of at least `value`."
					},
					"transferOwnership(address)": {
						"details": "Transfers ownership of the contract to a new account (`newOwner`). Can only be called by the current owner."
					},
					"unpause()": {
						"details": "Restumes all token transfers."
					},
					"upgradeToAndCall(address,bytes)": {
						"custom:oz-upgrades-unsafe-allow-reachable": "delegatecall",
						"details": "Upgrade the implementation of the proxy to `newImplementation`, and subsequently execute the function call encoded in `data`. Calls {_authorizeUpgrade}. Emits an {Upgraded} event."
					}
				},
				"stateVariables": {
					"isMinter": {
						"details": "Mapping to allow multiple wallets or bots to mint tokens."
					}
				},
				"version": 1
			},
			"evm": {
				"assembly": "    /* \"masterTemplate.sol\":467:3767  contract masterTemplate is ERC20Upgradeable, ERC20PausableUpgradeable, UUPSUpgradeable, OwnableUpgradeable {... */\n  mstore(0x40, 0xa0)\n    /* \"@openzeppelin/contracts/proxy/utils/UUPSUpgradeable.sol\":1084:1088  this */\n  address\n    /* \"@openzeppelin/contracts/proxy/utils/UUPSUpgradeable.sol\":1041:1089  address private immutable __self = address(this) */\n  0xffffffffffffffffffffffffffffffffffffffff\n  and\n  0x80\n  swap1\n  0xffffffffffffffffffffffffffffffffffffffff\n  and\n  dup2\n  mstore\n  pop\n    /* \"masterTemplate.sol\":1596:1649  constructor() {... */\n  callvalue\n  dup1\n  iszero\n  tag_1\n  jumpi\n  revert(0x00, 0x00)\ntag_1:\n  pop\n    /* \"masterTemplate.sol\":1620:1642  _disableInitializers() */\n  tag_4\n    /* \"masterTemplate.sol\":1620:1640  _disableInitializers */\n  shl(0x20, tag_5)\n    /* \"masterTemplate.sol\":1620:1642  _disableInitializers() */\n  0x20\n  shr\n  jump\t// in\ntag_4:\n    /* \"masterTemplate.sol\":467:3767  contract masterTemplate is ERC20Upgradeable, ERC20PausableUpgradeable, UUPSUpgradeable, OwnableUpgradeable {... */\n  jump(tag_6)\n    /* \"@openzeppelin/contracts/proxy/utils/Initializable.sol\":7709:8131  function _disableInitializers() internal virtual {... */\ntag_5:\n    /* \"@openzeppelin/contracts/proxy/utils/Initializable.sol\":7824:7854  InitializableStorage storage $ */\n  0x00\n    /* \"@openzeppelin/contracts/proxy/utils/Initializable.sol\":7857:7883  _getInitializableStorage() */\n  tag_8\n    /* \"@openzeppelin/contracts/proxy/utils/Initializable.sol\":7857:7881  _getInitializableStorage */\n  shl(0x20, tag_9)\n    /* \"@openzeppelin/contracts/proxy/utils/Initializable.sol\":7857:7883  _getInitializableStorage() */\n  0x20\n  shr\n  jump\t// in\ntag_8:\n    /* \"@openzeppelin/contracts/proxy/utils/Initializable.sol\":7824:7883  InitializableStorage storage $ = _getInitializableStorage() */\n  swap1\n  pop\n    /* \"@openzeppelin/contracts/proxy/utils/Initializable.sol\":7898:7899  $ */\n  dup1\n    /* \"@openzeppelin/contracts/proxy/utils/Initializable.sol\":7898:7913  $._initializing */\n  0x00\n  add\n  0x08\n  swap1\n  sload\n  swap1\n  0x0100\n  exp\n  swap1\n  div\n  0xff\n  and\n    /* \"@openzeppelin/contracts/proxy/utils/Initializable.sol\":7894:7970  if ($._initializing) {... */\n  iszero\n  tag_10\n  jumpi\n    /* \"@openzeppelin/contracts/proxy/utils/Initializable.sol\":7936:7959  InvalidInitialization() */\n  mload(0x40)\n  0xf92ee8a900000000000000000000000000000000000000000000000000000000\n  dup2\n  mstore\n  0x04\n  add\n  mload(0x40)\n  dup1\n  swap2\n  sub\n  swap1\n  revert\n    /* \"@openzeppelin/contracts/proxy/utils/Initializable.sol\":7894:7970  if ($._initializing) {... */\ntag_10:\n    /* \"@openzeppelin/contracts/proxy/utils/Initializable.sol\":8001:8017  type(uint64).max */\n  0xffffffffffffffff\n    /* \"@openzeppelin/contracts/proxy/utils/Initializable.sol\":7983:8017  $._initialized != type(uint64).max */\n  dup1\n  and\n    /* \"@openzeppelin/contracts/proxy/utils/Initializable.sol\":7983:7984  $ */\n  dup2\n    /* \"@openzeppelin/contracts/proxy/utils/Initializable.sol\":7983:7997  $._initialized */\n  0x00\n  add\n  0x00\n  swap1\n  sload\n  swap1\n  0x0100\n  exp\n  swap1\n  div\n  0xffffffffffffffff\n  and\n    /* \"@openzeppelin/contracts/proxy/utils/Initializable.sol\":7983:8017  $._initialized != type(uint64).max */\n  0xffffffffffffffff\n  and\n  eq\n    /* \"@openzeppelin/contracts/proxy/utils/Initializable.sol\":7979:8125  if ($._initialized != type(uint64).max) {... */\n  tag_11\n  jumpi\n    /* \"@openzeppelin/contracts/proxy/utils/Initializable.sol\":8050:8066  type(uint64).max */\n  0xffffffffffffffff\n    /* \"@openzeppelin/contracts/proxy/utils/Initializable.sol\":8033:8034  $ */\n  dup2\n    /* \"@openzeppelin/contracts/proxy/utils/Initializable.sol\":8033:8047  $._initialized */\n  0x00\n  add\n  0x00\n    /* \"@openzeppelin/contracts/proxy/utils/Initializable.sol\":8033:8066  $._initialized = type(uint64).max */\n  0x0100\n  exp\n  dup2\n  sload\n  dup2\n  0xffffffffffffffff\n  mul\n  not\n  and\n  swap1\n  dup4\n  0xffffffffffffffff\n  and\n  mul\n  or\n  swap1\n  sstore\n  pop\n    /* \"@openzeppelin/contracts/proxy/utils/Initializable.sol\":8085:8114  Initialized(type(uint64).max) */\n  0xc7f505b2f371ae2175ee4913f4499e1f2633a7b5936321eed1cdaeb6115181d2\n    /* \"@openzeppelin/contracts/proxy/utils/Initializable.sol\":8097:8113  type(uint64).max */\n  0xffffffffffffffff\n    /* \"@openzeppelin/contracts/proxy/utils/Initializable.sol\":8085:8114  Initialized(type(uint64).max) */\n  mload(0x40)\n  tag_12\n  swap2\n  swap1\n  tag_13\n  jump\t// in\ntag_12:\n  mload(0x40)\n  dup1\n  swap2\n  sub\n  swap1\n  log1\n    /* \"@openzeppelin/contracts/proxy/utils/Initializable.sol\":7979:8125  if ($._initialized != type(uint64).max) {... */\ntag_11:\n    /* \"@openzeppelin/contracts/proxy/utils/Initializable.sol\":7758:8131  {... */\n  pop\n    /* \"@openzeppelin/contracts/proxy/utils/Initializable.sol\":7709:8131  function _disableInitializers() internal virtual {... */\n  jump\t// out\n    /* \"@openzeppelin/contracts/proxy/utils/Initializable.sol\":9071:9276  function _getInitializableStorage() private pure returns (InitializableStorage storage $) {... */\ntag_9:\n    /* \"@openzeppelin/contracts/proxy/utils/Initializable.sol\":9129:9159  InitializableStorage storage $ */\n  0x00\n    /* \"@openzeppelin/contracts/proxy/utils/Initializable.sol\":9171:9183  bytes32 slot */\n  0x00\n    /* \"@openzeppelin/contracts/proxy/utils/Initializable.sol\":9186:9213  _initializableStorageSlot() */\n  tag_15\n    /* \"@openzeppelin/contracts/proxy/utils/Initializable.sol\":9186:9211  _initializableStorageSlot */\n  shl(0x20, tag_16)\n    /* \"@openzeppelin/contracts/proxy/utils/Initializable.sol\":9186:9213  _initializableStorageSlot() */\n  0x20\n  shr\n  jump\t// in\ntag_15:\n    /* \"@openzeppelin/contracts/proxy/utils/Initializable.sol\":9171:9213  bytes32 slot = _initializableStorageSlot() */\n  swap1\n  pop\n    /* \"@openzeppelin/contracts/proxy/utils/Initializable.sol\":9256:9260  slot */\n  dup1\n    /* \"@openzeppelin/contracts/proxy/utils/Initializable.sol\":9246:9260  $.slot := slot */\n  swap2\n  pop\n    /* \"@openzeppelin/contracts/proxy/utils/Initializable.sol\":9232:9270  {... */\n  pop\n    /* \"@openzeppelin/contracts/proxy/utils/Initializable.sol\":9071:9276  function _getInitializableStorage() private pure returns (InitializableStorage storage $) {... */\n  swap1\n  jump\t// out\n    /* \"@openzeppelin/contracts/proxy/utils/Initializable.sol\":8819:8941  function _initializableStorageSlot() internal pure virtual returns (bytes32) {... */\ntag_16:\n    /* \"@openzeppelin/contracts/proxy/utils/Initializable.sol\":8887:8894  bytes32 */\n  0x00\n    /* \"@openzeppelin/contracts/proxy/utils/Initializable.sol\":3147:3213  0xf0c57e16840df040f15088dc2f81fe391c3923bec73e23a9662efc9c229c6a00 */\n  0xf0c57e16840df040f15088dc2f81fe391c3923bec73e23a9662efc9c229c6a00\n    /* \"@openzeppelin/contracts/proxy/utils/Initializable.sol\":8913:8934  INITIALIZABLE_STORAGE */\n  0x00\n  shl\n    /* \"@openzeppelin/contracts/proxy/utils/Initializable.sol\":8906:8934  return INITIALIZABLE_STORAGE */\n  swap1\n  pop\n    /* \"@openzeppelin/contracts/proxy/utils/Initializable.sol\":8819:8941  function _initializableStorageSlot() internal pure virtual returns (bytes32) {... */\n  swap1\n  jump\t// out\n    /* \"#utility.yul\":7:108   */\ntag_18:\n    /* \"#utility.yul\":43:50   */\n  0x00\n    /* \"#utility.yul\":83:101   */\n  0xffffffffffffffff\n    /* \"#utility.yul\":76:81   */\n  dup3\n    /* \"#utility.yul\":72:102   */\n  and\n    /* \"#utility.yul\":61:102   */\n  swap1\n  pop\n    /* \"#utility.yul\":7:108   */\n  swap2\n  swap1\n  pop\n  jump\t// out\n    /* \"#utility.yul\":114:229   */\ntag_19:\n    /* \"#utility.yul\":199:222   */\n  tag_23\n    /* \"#utility.yul\":216:221   */\n  dup2\n    /* \"#utility.yul\":199:222   */\n  tag_18\n  jump\t// in\ntag_23:\n    /* \"#utility.yul\":194:197   */\n  dup3\n    /* \"#utility.yul\":187:223   */\n  mstore\n    /* \"#utility.yul\":114:229   */\n  pop\n  pop\n  jump\t// out\n    /* \"#utility.yul\":235:453   */\ntag_13:\n    /* \"#utility.yul\":326:330   */\n  0x00\n    /* \"#utility.yul\":364:366   */\n  0x20\n    /* \"#utility.yul\":353:362   */\n  dup3\n    /* \"#utility.yul\":349:367   */\n  add\n    /* \"#utility.yul\":341:367   */\n  swap1\n  pop\n    /* \"#utility.yul\":377:446   */\n  tag_25\n    /* \"#utility.yul\":443:444   */\n  0x00\n    /* \"#utility.yul\":432:441   */\n  dup4\n    /* \"#utility.yul\":428:445   */\n  add\n    /* \"#utility.yul\":419:425   */\n  dup5\n    /* \"#utility.yul\":377:446   */\n  tag_19\n  jump\t// in\ntag_25:\n    /* \"#utility.yul\":235:453   */\n  swap3\n  swap2\n  pop\n  pop\n  jump\t// out\n    /* \"masterTemplate.sol\":467:3767  contract masterTemplate is ERC20Upgradeable, ERC20PausableUpgradeable, UUPSUpgradeable, OwnableUpgradeable {... */\ntag_6:\n  mload(0x80)\n  codecopy(0x00, dataOffset(sub_0), dataSize(sub_0))\n  0x00\n  assignImmutable(\"0xe3ad9d11ffe1b279ffae4d8ab5a61a2b100315674b05ff7368cdd57dfd3e130a\")\n  return(0x00, dataSize(sub_0))\nstop\n\nsub_0: assembly {\n        /* \"masterTemplate.sol\":467:3767  contract masterTemplate is ERC20Upgradeable, ERC20PausableUpgradeable, UUPSUpgradeable, OwnableUpgradeable {... */\n      mstore(0x40, 0x80)\n      jumpi(tag_1, lt(calldatasize, 0x04))\n      shr(0xe0, calldataload(0x00))\n      dup1\n      0x715018a6\n      gt\n      tag_26\n      jumpi\n      dup1\n      0xad3cb1cc\n      gt\n      tag_27\n      jumpi\n      dup1\n      0xad3cb1cc\n      eq\n      tag_20\n      jumpi\n      dup1\n      0xcf456ae7\n      eq\n      tag_21\n      jumpi\n      dup1\n      0xdd62ed3e\n      eq\n      tag_22\n      jumpi\n      dup1\n      0xf2fde38b\n      eq\n      tag_23\n      jumpi\n      dup1\n      0xf9a1e8f9\n      eq\n      tag_24\n      jumpi\n      dup1\n      0xfcb6c263\n      eq\n      tag_25\n      jumpi\n      jump(tag_1)\n    tag_27:\n      dup1\n      0x715018a6\n      eq\n      tag_14\n      jumpi\n      dup1\n      0x8456cb59\n      eq\n      tag_15\n      jumpi\n      dup1\n      0x8da5cb5b\n      eq\n      tag_16\n      jumpi\n      dup1\n      0x95d89b41\n      eq\n      tag_17\n      jumpi\n      dup1\n      0xa9059cbb\n      eq\n      tag_18\n      jumpi\n      dup1\n      0xaa271e1a\n      eq\n      tag_19\n      jumpi\n      jump(tag_1)\n    tag_26:\n      dup1\n      0x3f4ba83a\n      gt\n      tag_28\n      jumpi\n      dup1\n      0x3f4ba83a\n      eq\n      tag_8\n      jumpi\n      dup1\n      0x4f1ef286\n      eq\n      tag_9\n      jumpi\n      dup1\n      0x52d1902d\n      eq\n      tag_10\n      jumpi\n      dup1\n      0x5c975abb\n      eq\n      tag_11\n      jumpi\n      dup1\n      0x6d625218\n      eq\n      tag_12\n      jumpi\n      dup1\n      0x70a08231\n      eq\n      tag_13\n      jumpi\n      jump(tag_1)\n    tag_28:\n      dup1\n      0x06fdde03\n      eq\n      tag_2\n      jumpi\n      dup1\n      0x077f224a\n      eq\n      tag_3\n      jumpi\n      dup1\n      0x095ea7b3\n      eq\n      tag_4\n      jumpi\n      dup1\n      0x18160ddd\n      eq\n      tag_5\n      jumpi\n      dup1\n      0x23b872dd\n      eq\n      tag_6\n      jumpi\n      dup1\n      0x313ce567\n      eq\n      tag_7\n      jumpi\n    tag_1:\n      revert(0x00, 0x00)\n        /* \"@openzeppelin/contracts-upgradeable/token/ERC20/ERC20Upgradeable.sol\":2715:2859  function name() public view virtual returns (string memory) {... */\n    tag_2:\n      callvalue\n      dup1\n      iszero\n      tag_29\n      jumpi\n      revert(0x00, 0x00)\n    tag_29:\n      pop\n      tag_30\n      tag_31\n      jump\t// in\n    tag_30:\n      mload(0x40)\n      tag_32\n      swap2\n      swap1\n      tag_33\n      jump\t// in\n    tag_32:\n      mload(0x40)\n      dup1\n      swap2\n      sub\n      swap1\n      return\n        /* \"masterTemplate.sol\":1655:1941  function initialize(... */\n    tag_3:\n      callvalue\n      dup1\n      iszero\n      tag_34\n      jumpi\n      revert(0x00, 0x00)\n    tag_34:\n      pop\n      tag_35\n      0x04\n      dup1\n      calldatasize\n      sub\n      dup2\n      add\n      swap1\n      tag_36\n      swap2\n      swap1\n      tag_37\n      jump\t// in\n    tag_36:\n      tag_38\n      jump\t// in\n    tag_35:\n      stop\n        /* \"@openzeppelin/contracts-upgradeable/token/ERC20/ERC20Upgradeable.sol\":5132:5318  function approve(address spender, uint256 value) public virtual returns (bool) {... */\n    tag_4:\n      callvalue\n      dup1\n      iszero\n      tag_39\n      jumpi\n      revert(0x00, 0x00)\n    tag_39:\n      pop\n      tag_40\n      0x04\n      dup1\n      calldatasize\n      sub\n      dup2\n      add\n      swap1\n      tag_41\n      swap2\n      swap1\n      tag_42\n      jump\t// in\n    tag_41:\n      tag_43\n      jump\t// in\n    tag_40:\n      mload(0x40)\n      tag_44\n      swap2\n      swap1\n      tag_45\n      jump\t// in\n    tag_44:\n      mload(0x40)\n      dup1\n      swap2\n      sub\n      swap1\n      return\n        /* \"@openzeppelin/contracts-upgradeable/token/ERC20/ERC20Upgradeable.sol\":3868:4020  function totalSupply() public view virtual returns (uint256) {... */\n    tag_5:\n      callvalue\n      dup1\n      iszero\n      tag_46\n      jumpi\n      revert(0x00, 0x00)\n    tag_46:\n      pop\n      tag_47\n      tag_48\n      jump\t// in\n    tag_47:\n      mload(0x40)\n      tag_49\n      swap2\n      swap1\n      tag_50\n      jump\t// in\n    tag_49:\n      mload(0x40)\n      dup1\n      swap2\n      sub\n      swap1\n      return\n        /* \"@openzeppelin/contracts-upgradeable/token/ERC20/ERC20Upgradeable.sol\":5910:6154  function transferFrom(address from, address to, uint256 value) public virtual returns (bool) {... */\n    tag_6:\n      callvalue\n      dup1\n      iszero\n      tag_51\n      jumpi\n      revert(0x00, 0x00)\n    tag_51:\n      pop\n      tag_52\n      0x04\n      dup1\n      calldatasize\n      sub\n      dup2\n      add\n      swap1\n      tag_53\n      swap2\n      swap1\n      tag_54\n      jump\t// in\n    tag_53:\n      tag_55\n      jump\t// in\n    tag_52:\n      mload(0x40)\n      tag_56\n      swap2\n      swap1\n      tag_45\n      jump\t// in\n    tag_56:\n      mload(0x40)\n      dup1\n      swap2\n      sub\n      swap1\n      return\n        /* \"masterTemplate.sol\":1973:2063  function decimals() public view virtual override returns (uint8) {... */\n    tag_7:\n      callvalue\n      dup1\n      iszero\n      tag_57\n      jumpi\n      revert(0x00, 0x00)\n    tag_57:\n      pop\n      tag_58\n      tag_59\n      jump\t// in\n    tag_58:\n      mload(0x40)\n      tag_60\n      swap2\n      swap1\n      tag_61\n      jump\t// in\n    tag_60:\n      mload(0x40)\n      dup1\n      swap2\n      sub\n      swap1\n      return\n        /* \"masterTemplate.sol\":2476:2541  function unpause() external onlyOwner {... */\n    tag_8:\n      callvalue\n      dup1\n      iszero\n      tag_62\n      jumpi\n      revert(0x00, 0x00)\n    tag_62:\n      pop\n      tag_63\n      tag_64\n      jump\t// in\n    tag_63:\n      stop\n        /* \"@openzeppelin/contracts/proxy/utils/UUPSUpgradeable.sol\":3911:4125  function upgradeToAndCall(address newImplementation, bytes memory data) public payable virtual onlyProxy {... */\n    tag_9:\n      tag_65\n      0x04\n      dup1\n      calldatasize\n      sub\n      dup2\n      add\n      swap1\n      tag_66\n      swap2\n      swap1\n      tag_67\n      jump\t// in\n    tag_66:\n      tag_68\n      jump\t// in\n    tag_65:\n      stop\n        /* \"@openzeppelin/contracts/proxy/utils/UUPSUpgradeable.sol\":3466:3592  function proxiableUUID() external view notDelegated returns (bytes32) {... */\n    tag_10:\n      callvalue\n      dup1\n      iszero\n      tag_69\n      jumpi\n      revert(0x00, 0x00)\n    tag_69:\n      pop\n      tag_70\n      tag_71\n      jump\t// in\n    tag_70:\n      mload(0x40)\n      tag_72\n      swap2\n      swap1\n      tag_73\n      jump\t// in\n    tag_72:\n      mload(0x40)\n      dup1\n      swap2\n      sub\n      swap1\n      return\n        /* \"@openzeppelin/contracts-upgradeable/utils/PausableUpgradeable.sol\":2517:2662  function paused() public view virtual returns (bool) {... */\n    tag_11:\n      callvalue\n      dup1\n      iszero\n      tag_74\n      jumpi\n      revert(0x00, 0x00)\n    tag_74:\n      pop\n      tag_75\n      tag_76\n      jump\t// in\n    tag_75:\n      mload(0x40)\n      tag_77\n      swap2\n      swap1\n      tag_45\n      jump\t// in\n    tag_77:\n      mload(0x40)\n      dup1\n      swap2\n      sub\n      swap1\n      return\n        /* \"masterTemplate.sol\":3370:3485  function burnFromSupply(address account, uint256 amount) external onlyOwner {... */\n    tag_12:\n      callvalue\n      dup1\n      iszero\n      tag_78\n      jumpi\n      revert(0x00, 0x00)\n    tag_78:\n      pop\n      tag_79\n      0x04\n      dup1\n      calldatasize\n      sub\n      dup2\n      add\n      swap1\n      tag_80\n      swap2\n      swap1\n      tag_42\n      jump\t// in\n    tag_80:\n      tag_81\n      jump\t// in\n    tag_79:\n      stop\n        /* \"@openzeppelin/contracts-upgradeable/token/ERC20/ERC20Upgradeable.sol\":4053:4224  function balanceOf(address account) public view virtual returns (uint256) {... */\n    tag_13:\n      callvalue\n      dup1\n      iszero\n      tag_82\n      jumpi\n      revert(0x00, 0x00)\n    tag_82:\n      pop\n      tag_83\n      0x04\n      dup1\n      calldatasize\n      sub\n      dup2\n      add\n      swap1\n      tag_84\n      swap2\n      swap1\n      tag_85\n      jump\t// in\n    tag_84:\n      tag_86\n      jump\t// in\n    tag_83:\n      mload(0x40)\n      tag_87\n      swap2\n      swap1\n      tag_50\n      jump\t// in\n    tag_87:\n      mload(0x40)\n      dup1\n      swap2\n      sub\n      swap1\n      return\n        /* \"@openzeppelin/contracts-upgradeable/access/OwnableUpgradeable.sol\":3176:3277  function renounceOwnership() public virtual onlyOwner {... */\n    tag_14:\n      callvalue\n      dup1\n      iszero\n      tag_88\n      jumpi\n      revert(0x00, 0x00)\n    tag_88:\n      pop\n      tag_89\n      tag_90\n      jump\t// in\n    tag_89:\n      stop\n        /* \"masterTemplate.sol\":2351:2412  function pause() external onlyOwner {... */\n    tag_15:\n      callvalue\n      dup1\n      iszero\n      tag_91\n      jumpi\n      revert(0x00, 0x00)\n    tag_91:\n      pop\n      tag_92\n      tag_93\n      jump\t// in\n    tag_92:\n      stop\n        /* \"@openzeppelin/contracts-upgradeable/access/OwnableUpgradeable.sol\":2462:2606  function owner() public view virtual returns (address) {... */\n    tag_16:\n      callvalue\n      dup1\n      iszero\n      tag_94\n      jumpi\n      revert(0x00, 0x00)\n    tag_94:\n      pop\n      tag_95\n      tag_96\n      jump\t// in\n    tag_95:\n      mload(0x40)\n      tag_97\n      swap2\n      swap1\n      tag_98\n      jump\t// in\n    tag_97:\n      mload(0x40)\n      dup1\n      swap2\n      sub\n      swap1\n      return\n        /* \"@openzeppelin/contracts-upgradeable/token/ERC20/ERC20Upgradeable.sol\":2972:3120  function symbol() public view virtual returns (string memory) {... */\n    tag_17:\n      callvalue\n      dup1\n      iszero\n      tag_99\n      jumpi\n      revert(0x00, 0x00)\n    tag_99:\n      pop\n      tag_100\n      tag_101\n      jump\t// in\n    tag_100:\n      mload(0x40)\n      tag_102\n      swap2\n      swap1\n      tag_33\n      jump\t// in\n    tag_102:\n      mload(0x40)\n      dup1\n      swap2\n      sub\n      swap1\n      return\n        /* \"@openzeppelin/contracts-upgradeable/token/ERC20/ERC20Upgradeable.sol\":4419:4597  function transfer(address to, uint256 value) public virtual returns (bool) {... */\n    tag_18:\n      callvalue\n      dup1\n      iszero\n      tag_103\n      jumpi\n      revert(0x00, 0x00)\n    tag_103:\n      pop\n      tag_104\n      0x04\n      dup1\n      calldatasize\n      sub\n      dup2\n      add\n      swap1\n      tag_105\n      swap2\n      swap1\n      tag_42\n      jump\t// in\n    tag_105:\n      tag_106\n      jump\t// in\n    tag_104:\n      mload(0x40)\n      tag_107\n      swap2\n      swap1\n      tag_45\n      jump\t// in\n    tag_107:\n      mload(0x40)\n      dup1\n      swap2\n      sub\n      swap1\n      return\n        /* \"masterTemplate.sol\":1179:1219  mapping(address => bool) public isMinter */\n    tag_19:\n      callvalue\n      dup1\n      iszero\n      tag_108\n      jumpi\n      revert(0x00, 0x00)\n    tag_108:\n      pop\n      tag_109\n      0x04\n      dup1\n      calldatasize\n      sub\n      dup2\n      add\n      swap1\n      tag_110\n      swap2\n      swap1\n      tag_85\n      jump\t// in\n    tag_110:\n      tag_111\n      jump\t// in\n    tag_109:\n      mload(0x40)\n      tag_112\n      swap2\n      swap1\n      tag_45\n      jump\t// in\n    tag_112:\n      mload(0x40)\n      dup1\n      swap2\n      sub\n      swap1\n      return\n        /* \"@openzeppelin/contracts/proxy/utils/UUPSUpgradeable.sol\":1732:1790  string public constant UPGRADE_INTERFACE_VERSION = \"5.0.0\" */\n    tag_20:\n      callvalue\n      dup1\n      iszero\n      tag_113\n      jumpi\n      revert(0x00, 0x00)\n    tag_113:\n      pop\n      tag_114\n      tag_115\n      jump\t// in\n    tag_114:\n      mload(0x40)\n      tag_116\n      swap2\n      swap1\n      tag_33\n      jump\t// in\n    tag_116:\n      mload(0x40)\n      dup1\n      swap2\n      sub\n      swap1\n      return\n        /* \"masterTemplate.sol\":2142:2251  function setMinter(address minter, bool status) external onlyOwner {... */\n    tag_21:\n      callvalue\n      dup1\n      iszero\n      tag_117\n      jumpi\n      revert(0x00, 0x00)\n    tag_117:\n      pop\n      tag_118\n      0x04\n      dup1\n      calldatasize\n      sub\n      dup2\n      add\n      swap1\n      tag_119\n      swap2\n      swap1\n      tag_120\n      jump\t// in\n    tag_119:\n      tag_121\n      jump\t// in\n    tag_118:\n      stop\n        /* \"@openzeppelin/contracts-upgradeable/token/ERC20/ERC20Upgradeable.sol\":4630:4825  function allowance(address owner, address spender) public view virtual returns (uint256) {... */\n    tag_22:\n      callvalue\n      dup1\n      iszero\n      tag_122\n      jumpi\n      revert(0x00, 0x00)\n    tag_122:\n      pop\n      tag_123\n      0x04\n      dup1\n      calldatasize\n      sub\n      dup2\n      add\n      swap1\n      tag_124\n      swap2\n      swap1\n      tag_125\n      jump\t// in\n    tag_124:\n      tag_126\n      jump\t// in\n    tag_123:\n      mload(0x40)\n      tag_127\n      swap2\n      swap1\n      tag_50\n      jump\t// in\n    tag_127:\n      mload(0x40)\n      dup1\n      swap2\n      sub\n      swap1\n      return\n        /* \"@openzeppelin/contracts-upgradeable/access/OwnableUpgradeable.sol\":3426:3641  function transferOwnership(address newOwner) public virtual onlyOwner {... */\n    tag_23:\n      callvalue\n      dup1\n      iszero\n      tag_128\n      jumpi\n      revert(0x00, 0x00)\n    tag_128:\n      pop\n      tag_129\n      0x04\n      dup1\n      calldatasize\n      sub\n      dup2\n      add\n      swap1\n      tag_130\n      swap2\n      swap1\n      tag_85\n      jump\t// in\n    tag_130:\n      tag_131\n      jump\t// in\n    tag_129:\n      stop\n        /* \"masterTemplate.sol\":2910:3083  function mintToPool(address poolAddress, uint256 amount) external onlyMinter {... */\n    tag_24:\n      callvalue\n      dup1\n      iszero\n      tag_132\n      jumpi\n      revert(0x00, 0x00)\n    tag_132:\n      pop\n      tag_133\n      0x04\n      dup1\n      calldatasize\n      sub\n      dup2\n      add\n      swap1\n      tag_134\n      swap2\n      swap1\n      tag_42\n      jump\t// in\n    tag_134:\n      tag_135\n      jump\t// in\n    tag_133:\n      stop\n        /* \"masterTemplate.sol\":2618:2730  function mintToWallet(address wallet, uint256 amount) external onlyMinter {... */\n    tag_25:\n      callvalue\n      dup1\n      iszero\n      tag_136\n      jumpi\n      revert(0x00, 0x00)\n    tag_136:\n      pop\n      tag_137\n      0x04\n      dup1\n      calldatasize\n      sub\n      dup2\n      add\n      swap1\n      tag_138\n      swap2\n      swap1\n      tag_42\n      jump\t// in\n    tag_138:\n      tag_139\n      jump\t// in\n    tag_137:\n      stop\n        /* \"@openzeppelin/contracts-upgradeable/token/ERC20/ERC20Upgradeable.sol\":2715:2859  function name() public view virtual returns (string memory) {... */\n    tag_31:\n        /* \"@openzeppelin/contracts-upgradeable/token/ERC20/ERC20Upgradeable.sol\":2760:2773  string memory */\n      0x60\n        /* \"@openzeppelin/contracts-upgradeable/token/ERC20/ERC20Upgradeable.sol\":2785:2807  ERC20Storage storage $ */\n      0x00\n        /* \"@openzeppelin/contracts-upgradeable/token/ERC20/ERC20Upgradeable.sol\":2810:2828  _getERC20Storage() */\n      tag_141\n        /* \"@openzeppelin/contracts-upgradeable/token/ERC20/ERC20Upgradeable.sol\":2810:2826  _getERC20Storage */\n      tag_142\n        /* \"@openzeppelin/contracts-upgradeable/token/ERC20/ERC20Upgradeable.sol\":2810:2828  _getERC20Storage() */\n      jump\t// in\n    tag_141:\n        /* \"@openzeppelin/contracts-upgradeable/token/ERC20/ERC20Upgradeable.sol\":2785:2828  ERC20Storage storage $ = _getERC20Storage() */\n      swap1\n      pop\n        /* \"@openzeppelin/contracts-upgradeable/token/ERC20/ERC20Upgradeable.sol\":2845:2846  $ */\n      dup1\n        /* \"@openzeppelin/contracts-upgradeable/token/ERC20/ERC20Upgradeable.sol\":2845:2852  $._name */\n      0x03\n      add\n        /* \"@openzeppelin/contracts-upgradeable/token/ERC20/ERC20Upgradeable.sol\":2838:2852  return $._name */\n      dup1\n      sload\n      tag_143\n      swap1\n      tag_144\n      jump\t// in\n    tag_143:\n      dup1\n      0x1f\n      add\n      0x20\n      dup1\n      swap2\n      div\n      mul\n      0x20\n      add\n      mload(0x40)\n      swap1\n      dup2\n      add\n      0x40\n      mstore\n      dup1\n      swap3\n      swap2\n      swap1\n      dup2\n      dup2\n      mstore\n      0x20\n      add\n      dup3\n      dup1\n      sload\n      tag_145\n      swap1\n      tag_144\n      jump\t// in\n    tag_145:\n      dup1\n      iszero\n      tag_146\n      jumpi\n      dup1\n      0x1f\n      lt\n      tag_147\n      jumpi\n      0x0100\n      dup1\n      dup4\n      sload\n      div\n      mul\n      dup4\n      mstore\n      swap2\n      0x20\n      add\n      swap2\n      jump(tag_146)\n    tag_147:\n      dup3\n      add\n      swap2\n      swap1\n      0x00\n      mstore\n      keccak256(0x00, 0x20)\n      swap1\n    tag_148:\n      dup2\n      sload\n      dup2\n      mstore\n      swap1\n      0x01\n      add\n      swap1\n      0x20\n      add\n      dup1\n      dup4\n      gt\n      tag_148\n      jumpi\n      dup3\n      swap1\n      sub\n      0x1f\n      and\n      dup3\n      add\n      swap2\n    tag_146:\n      pop\n      pop\n      pop\n      pop\n      pop\n      swap2\n      pop\n      pop\n        /* \"@openzeppelin/contracts-upgradeable/token/ERC20/ERC20Upgradeable.sol\":2715:2859  function name() public view virtual returns (string memory) {... */\n      swap1\n      jump\t// out\n        /* \"masterTemplate.sol\":1655:1941  function initialize(... */\n    tag_38:\n        /* \"@openzeppelin/contracts/proxy/utils/Initializable.sol\":4158:4188  InitializableStorage storage $ */\n      0x00\n        /* \"@openzeppelin/contracts/proxy/utils/Initializable.sol\":4191:4217  _getInitializableStorage() */\n      tag_150\n        /* \"@openzeppelin/contracts/proxy/utils/Initializable.sol\":4191:4215  _getInitializableStorage */\n      tag_151\n        /* \"@openzeppelin/contracts/proxy/utils/Initializable.sol\":4191:4217  _getInitializableStorage() */\n      jump\t// in\n    tag_150:\n        /* \"@openzeppelin/contracts/proxy/utils/Initializable.sol\":4158:4217  InitializableStorage storage $ = _getInitializableStorage() */\n      swap1\n      pop\n        /* \"@openzeppelin/contracts/proxy/utils/Initializable.sol\":4279:4298  bool isTopLevelCall */\n      0x00\n        /* \"@openzeppelin/contracts/proxy/utils/Initializable.sol\":4302:4303  $ */\n      dup2\n        /* \"@openzeppelin/contracts/proxy/utils/Initializable.sol\":4302:4317  $._initializing */\n      0x00\n      add\n      0x08\n      swap1\n      sload\n      swap1\n      0x0100\n      exp\n      swap1\n      div\n      0xff\n      and\n        /* \"@openzeppelin/contracts/proxy/utils/Initializable.sol\":4301:4317  !$._initializing */\n      iszero\n        /* \"@openzeppelin/contracts/proxy/utils/Initializable.sol\":4279:4317  bool isTopLevelCall = !$._initializing */\n      swap1\n      pop\n        /* \"@openzeppelin/contracts/proxy/utils/Initializable.sol\":4327:4345  uint64 initialized */\n      0x00\n        /* \"@openzeppelin/contracts/proxy/utils/Initializable.sol\":4348:4349  $ */\n      dup3\n        /* \"@openzeppelin/contracts/proxy/utils/Initializable.sol\":4348:4362  $._initialized */\n      0x00\n      add\n      0x00\n      swap1\n      sload\n      swap1\n      0x0100\n      exp\n      swap1\n      div\n      0xffffffffffffffff\n      and\n        /* \"@openzeppelin/contracts/proxy/utils/Initializable.sol\":4327:4362  uint64 initialized = $._initialized */\n      swap1\n      pop\n        /* \"@openzeppelin/contracts/proxy/utils/Initializable.sol\":4704:4721  bool initialSetup */\n      0x00\n        /* \"@openzeppelin/contracts/proxy/utils/Initializable.sol\":4739:4740  0 */\n      0x00\n        /* \"@openzeppelin/contracts/proxy/utils/Initializable.sol\":4724:4735  initialized */\n      dup3\n        /* \"@openzeppelin/contracts/proxy/utils/Initializable.sol\":4724:4740  initialized == 0 */\n      0xffffffffffffffff\n      and\n      eq\n        /* \"@openzeppelin/contracts/proxy/utils/Initializable.sol\":4724:4758  initialized == 0 && isTopLevelCall */\n      dup1\n      iszero\n      tag_152\n      jumpi\n      pop\n        /* \"@openzeppelin/contracts/proxy/utils/Initializable.sol\":4744:4758  isTopLevelCall */\n      dup3\n        /* \"@openzeppelin/contracts/proxy/utils/Initializable.sol\":4724:4758  initialized == 0 && isTopLevelCall */\n    tag_152:\n        /* \"@openzeppelin/contracts/proxy/utils/Initializable.sol\":4704:4758  bool initialSetup = initialized == 0 && isTopLevelCall */\n      swap1\n      pop\n        /* \"@openzeppelin/contracts/proxy/utils/Initializable.sol\":4768:4785  bool construction */\n      0x00\n        /* \"@openzeppelin/contracts/proxy/utils/Initializable.sol\":4803:4804  1 */\n      0x01\n        /* \"@openzeppelin/contracts/proxy/utils/Initializable.sol\":4788:4799  initialized */\n      dup4\n        /* \"@openzeppelin/contracts/proxy/utils/Initializable.sol\":4788:4804  initialized == 1 */\n      0xffffffffffffffff\n      and\n      eq\n        /* \"@openzeppelin/contracts/proxy/utils/Initializable.sol\":4788:4838  initialized == 1 && address(this).code.length == 0 */\n      dup1\n      iszero\n      tag_153\n      jumpi\n      pop\n        /* \"@openzeppelin/contracts/proxy/utils/Initializable.sol\":4837:4838  0 */\n      0x00\n        /* \"@openzeppelin/contracts/proxy/utils/Initializable.sol\":4816:4820  this */\n      address\n        /* \"@openzeppelin/contracts/proxy/utils/Initializable.sol\":4808:4833  address(this).code.length */\n      0xffffffffffffffffffffffffffffffffffffffff\n      and\n      extcodesize\n        /* \"@openzeppelin/contracts/proxy/utils/Initializable.sol\":4808:4838  address(this).code.length == 0 */\n      eq\n        /* \"@openzeppelin/contracts/proxy/utils/Initializable.sol\":4788:4838  initialized == 1 && address(this).code.length == 0 */\n    tag_153:\n        /* \"@openzeppelin/contracts/proxy/utils/Initializable.sol\":4768:4838  bool construction = initialized == 1 && address(this).code.length == 0 */\n      swap1\n      pop\n        /* \"@openzeppelin/contracts/proxy/utils/Initializable.sol\":4854:4866  initialSetup */\n      dup2\n        /* \"@openzeppelin/contracts/proxy/utils/Initializable.sol\":4853:4866  !initialSetup */\n      iszero\n        /* \"@openzeppelin/contracts/proxy/utils/Initializable.sol\":4853:4883  !initialSetup && !construction */\n      dup1\n      iszero\n      tag_154\n      jumpi\n      pop\n        /* \"@openzeppelin/contracts/proxy/utils/Initializable.sol\":4871:4883  construction */\n      dup1\n        /* \"@openzeppelin/contracts/proxy/utils/Initializable.sol\":4870:4883  !construction */\n      iszero\n        /* \"@openzeppelin/contracts/proxy/utils/Initializable.sol\":4853:4883  !initialSetup && !construction */\n    tag_154:\n        /* \"@openzeppelin/contracts/proxy/utils/Initializable.sol\":4849:4940  if (!initialSetup && !construction) {... */\n      iszero\n      tag_155\n      jumpi\n        /* \"@openzeppelin/contracts/proxy/utils/Initializable.sol\":4906:4929  InvalidInitialization() */\n      mload(0x40)\n      0xf92ee8a900000000000000000000000000000000000000000000000000000000\n      dup2\n      mstore\n      0x04\n      add\n      mload(0x40)\n      dup1\n      swap2\n      sub\n      swap1\n      revert\n        /* \"@openzeppelin/contracts/proxy/utils/Initializable.sol\":4849:4940  if (!initialSetup && !construction) {... */\n    tag_155:\n        /* \"@openzeppelin/contracts/proxy/utils/Initializable.sol\":4966:4967  1 */\n      0x01\n        /* \"@openzeppelin/contracts/proxy/utils/Initializable.sol\":4949:4950  $ */\n      dup6\n        /* \"@openzeppelin/contracts/proxy/utils/Initializable.sol\":4949:4963  $._initialized */\n      0x00\n      add\n      0x00\n        /* \"@openzeppelin/contracts/proxy/utils/Initializable.sol\":4949:4967  $._initialized = 1 */\n      0x0100\n      exp\n      dup2\n      sload\n      dup2\n      0xffffffffffffffff\n      mul\n      not\n      and\n      swap1\n      dup4\n      0xffffffffffffffff\n      and\n      mul\n      or\n      swap1\n      sstore\n      pop\n        /* \"@openzeppelin/contracts/proxy/utils/Initializable.sol\":4981:4995  isTopLevelCall */\n      dup4\n        /* \"@openzeppelin/contracts/proxy/utils/Initializable.sol\":4977:5044  if (isTopLevelCall) {... */\n      iszero\n      tag_156\n      jumpi\n        /* \"@openzeppelin/contracts/proxy/utils/Initializable.sol\":5029:5033  true */\n      0x01\n        /* \"@openzeppelin/contracts/proxy/utils/Initializable.sol\":5011:5012  $ */\n      dup6\n        /* \"@openzeppelin/contracts/proxy/utils/Initializable.sol\":5011:5026  $._initializing */\n      0x00\n      add\n      0x08\n        /* \"@openzeppelin/contracts/proxy/utils/Initializable.sol\":5011:5033  $._initializing = true */\n      0x0100\n      exp\n      dup2\n      sload\n      dup2\n      0xff\n      mul\n      not\n      and\n      swap1\n      dup4\n      iszero\n      iszero\n      mul\n      or\n      swap1\n      sstore\n      pop\n        /* \"@openzeppelin/contracts/proxy/utils/Initializable.sol\":4977:5044  if (isTopLevelCall) {... */\n    tag_156:\n        /* \"masterTemplate.sol\":1798:1824  __ERC20_init(name, symbol) */\n      tag_158\n        /* \"masterTemplate.sol\":1811:1815  name */\n      dup9\n        /* \"masterTemplate.sol\":1817:1823  symbol */\n      dup9\n        /* \"masterTemplate.sol\":1798:1810  __ERC20_init */\n      tag_159\n        /* \"masterTemplate.sol\":1798:1824  __ERC20_init(name, symbol) */\n      jump\t// in\n    tag_158:\n        /* \"masterTemplate.sol\":1834:1856  __ERC20Pausable_init() */\n      tag_160\n        /* \"masterTemplate.sol\":1834:1854  __ERC20Pausable_init */\n      tag_161\n        /* \"masterTemplate.sol\":1834:1856  __ERC20Pausable_init() */\n      jump\t// in\n    tag_160:\n        /* \"masterTemplate.sol\":1866:1894  __Ownable_init(initialOwner) */\n      tag_162\n        /* \"masterTemplate.sol\":1881:1893  initialOwner */\n      dup7\n        /* \"masterTemplate.sol\":1866:1880  __Ownable_init */\n      tag_163\n        /* \"masterTemplate.sol\":1866:1894  __Ownable_init(initialOwner) */\n      jump\t// in\n    tag_162:\n        /* \"masterTemplate.sol\":1930:1934  true */\n      0x01\n        /* \"masterTemplate.sol\":1905:1913  isMinter */\n      0x00\n        /* \"masterTemplate.sol\":1905:1927  isMinter[initialOwner] */\n      0x00\n        /* \"masterTemplate.sol\":1914:1926  initialOwner */\n      dup9\n        /* \"masterTemplate.sol\":1905:1927  isMinter[initialOwner] */\n      0xffffffffffffffffffffffffffffffffffffffff\n      and\n      0xffffffffffffffffffffffffffffffffffffffff\n      and\n      dup2\n      mstore\n      0x20\n      add\n      swap1\n      dup2\n      mstore\n      0x20\n      add\n      0x00\n      keccak256\n      0x00\n        /* \"masterTemplate.sol\":1905:1934  isMinter[initialOwner] = true */\n      0x0100\n      exp\n      dup2\n      sload\n      dup2\n      0xff\n      mul\n      not\n      and\n      swap1\n      dup4\n      iszero\n      iszero\n      mul\n      or\n      swap1\n      sstore\n      pop\n        /* \"@openzeppelin/contracts/proxy/utils/Initializable.sol\":5068:5082  isTopLevelCall */\n      dup4\n        /* \"@openzeppelin/contracts/proxy/utils/Initializable.sol\":5064:5165  if (isTopLevelCall) {... */\n      iszero\n      tag_164\n      jumpi\n        /* \"@openzeppelin/contracts/proxy/utils/Initializable.sol\":5116:5121  false */\n      0x00\n        /* \"@openzeppelin/contracts/proxy/utils/Initializable.sol\":5098:5099  $ */\n      dup6\n        /* \"@openzeppelin/contracts/proxy/utils/Initializable.sol\":5098:5113  $._initializing */\n      0x00\n      add\n      0x08\n        /* \"@openzeppelin/contracts/proxy/utils/Initializable.sol\":5098:5121  $._initializing = false */\n      0x0100\n      exp\n      dup2\n      sload\n      dup2\n      0xff\n      mul\n      not\n      and\n      swap1\n      dup4\n      iszero\n      iszero\n      mul\n      or\n      swap1\n      sstore\n      pop\n        /* \"@openzeppelin/contracts/proxy/utils/Initializable.sol\":5140:5154  Initialized(1) */\n      0xc7f505b2f371ae2175ee4913f4499e1f2633a7b5936321eed1cdaeb6115181d2\n        /* \"@openzeppelin/contracts/proxy/utils/Initializable.sol\":5152:5153  1 */\n      0x01\n        /* \"@openzeppelin/contracts/proxy/utils/Initializable.sol\":5140:5154  Initialized(1) */\n      mload(0x40)\n      tag_165\n      swap2\n      swap1\n      tag_166\n      jump\t// in\n    tag_165:\n      mload(0x40)\n      dup1\n      swap2\n      sub\n      swap1\n      log1\n        /* \"@openzeppelin/contracts/proxy/utils/Initializable.sol\":5064:5165  if (isTopLevelCall) {... */\n    tag_164:\n        /* \"@openzeppelin/contracts/proxy/utils/Initializable.sol\":4092:5171  {... */\n      pop\n      pop\n      pop\n      pop\n      pop\n        /* \"masterTemplate.sol\":1655:1941  function initialize(... */\n      pop\n      pop\n      pop\n      jump\t// out\n        /* \"@openzeppelin/contracts-upgradeable/token/ERC20/ERC20Upgradeable.sol\":5132:5318  function approve(address spender, uint256 value) public virtual returns (bool) {... */\n    tag_43:\n        /* \"@openzeppelin/contracts-upgradeable/token/ERC20/ERC20Upgradeable.sol\":5205:5209  bool */\n      0x00\n        /* \"@openzeppelin/contracts-upgradeable/token/ERC20/ERC20Upgradeable.sol\":5221:5234  address owner */\n      0x00\n        /* \"@openzeppelin/contracts-upgradeable/token/ERC20/ERC20Upgradeable.sol\":5237:5249  _msgSender() */\n      tag_168\n        /* \"@openzeppelin/contracts-upgradeable/token/ERC20/ERC20Upgradeable.sol\":5237:5247  _msgSender */\n      tag_169\n        /* \"@openzeppelin/contracts-upgradeable/token/ERC20/ERC20Upgradeable.sol\":5237:5249  _msgSender() */\n      jump\t// in\n    tag_168:\n        /* \"@openzeppelin/contracts-upgradeable/token/ERC20/ERC20Upgradeable.sol\":5221:5249  address owner = _msgSender() */\n      swap1\n      pop\n        /* \"@openzeppelin/contracts-upgradeable/token/ERC20/ERC20Upgradeable.sol\":5259:5290  _approve(owner, spender, value) */\n      tag_170\n        /* \"@openzeppelin/contracts-upgradeable/token/ERC20/ERC20Upgradeable.sol\":5268:5273  owner */\n      dup2\n        /* \"@openzeppelin/contracts-upgradeable/token/ERC20/ERC20Upgradeable.sol\":5275:5282  spender */\n      dup6\n        /* \"@openzeppelin/contracts-upgradeable/token/ERC20/ERC20Upgradeable.sol\":5284:5289  value */\n      dup6\n        /* \"@openzeppelin/contracts-upgradeable/token/ERC20/ERC20Upgradeable.sol\":5259:5267  _approve */\n      tag_171\n        /* \"@openzeppelin/contracts-upgradeable/token/ERC20/ERC20Upgradeable.sol\":5259:5290  _approve(owner, spender, value) */\n      jump\t// in\n    tag_170:\n        /* \"@openzeppelin/contracts-upgradeable/token/ERC20/ERC20Upgradeable.sol\":5307:5311  true */\n      0x01\n        /* \"@openzeppelin/contracts-upgradeable/token/ERC20/ERC20Upgradeable.sol\":5300:5311  return true */\n      swap2\n      pop\n      pop\n        /* \"@openzeppelin/contracts-upgradeable/token/ERC20/ERC20Upgradeable.sol\":5132:5318  function approve(address spender, uint256 value) public virtual returns (bool) {... */\n      swap3\n      swap2\n      pop\n      pop\n      jump\t// out\n        /* \"@openzeppelin/contracts-upgradeable/token/ERC20/ERC20Upgradeable.sol\":3868:4020  function totalSupply() public view virtual returns (uint256) {... */\n    tag_48:\n        /* \"@openzeppelin/contracts-upgradeable/token/ERC20/ERC20Upgradeable.sol\":3920:3927  uint256 */\n      0x00\n        /* \"@openzeppelin/contracts-upgradeable/token/ERC20/ERC20Upgradeable.sol\":3939:3961  ERC20Storage storage $ */\n      0x00\n        /* \"@openzeppelin/contracts-upgradeable/token/ERC20/ERC20Upgradeable.sol\":3964:3982  _getERC20Storage() */\n      tag_173\n        /* \"@openzeppelin/contracts-upgradeable/token/ERC20/ERC20Upgradeable.sol\":3964:3980  _getERC20Storage */\n      tag_142\n        /* \"@openzeppelin/contracts-upgradeable/token/ERC20/ERC20Upgradeable.sol\":3964:3982  _getERC20Storage() */\n      jump\t// in\n    tag_173:\n        /* \"@openzeppelin/contracts-upgradeable/token/ERC20/ERC20Upgradeable.sol\":3939:3982  ERC20Storage storage $ = _getERC20Storage() */\n      swap1\n      pop\n        /* \"@openzeppelin/contracts-upgradeable/token/ERC20/ERC20Upgradeable.sol\":3999:4000  $ */\n      dup1\n        /* \"@openzeppelin/contracts-upgradeable/token/ERC20/ERC20Upgradeable.sol\":3999:4013  $._totalSupply */\n      0x02\n      add\n      sload\n        /* \"@openzeppelin/contracts-upgradeable/token/ERC20/ERC20Upgradeable.sol\":3992:4013  return $._totalSupply */\n      swap2\n      pop\n      pop\n        /* \"@openzeppelin/contracts-upgradeable/token/ERC20/ERC20Upgradeable.sol\":3868:4020  function totalSupply() public view virtual returns (uint256) {... */\n      swap1\n      jump\t// out\n        /* \"@openzeppelin/contracts-upgradeable/token/ERC20/ERC20Upgradeable.sol\":5910:6154  function transferFrom(address from, address to, uint256 value) public virtual returns (bool) {... */\n    tag_55:\n        /* \"@openzeppelin/contracts-upgradeable/token/ERC20/ERC20Upgradeable.sol\":5997:6001  bool */\n      0x00\n        /* \"@openzeppelin/contracts-upgradeable/token/ERC20/ERC20Upgradeable.sol\":6013:6028  address spender */\n      0x00\n        /* \"@openzeppelin/contracts-upgradeable/token/ERC20/ERC20Upgradeable.sol\":6031:6043  _msgSender() */\n      tag_175\n        /* \"@openzeppelin/contracts-upgradeable/token/ERC20/ERC20Upgradeable.sol\":6031:6041  _msgSender */\n      tag_169\n        /* \"@openzeppelin/contracts-upgradeable/token/ERC20/ERC20Upgradeable.sol\":6031:6043  _msgSender() */\n      jump\t// in\n    tag_175:\n        /* \"@openzeppelin/contracts-upgradeable/token/ERC20/ERC20Upgradeable.sol\":6013:6043  address spender = _msgSender() */\n      swap1\n      pop\n        /* \"@openzeppelin/contracts-upgradeable/token/ERC20/ERC20Upgradeable.sol\":6053:6090  _spendAllowance(from, spender, value) */\n      tag_176\n        /* \"@openzeppelin/contracts-upgradeable/token/ERC20/ERC20Upgradeable.sol\":6069:6073  from */\n      dup6\n        /* \"@openzeppelin/contracts-upgradeable/token/ERC20/ERC20Upgradeable.sol\":6075:6082  spender */\n      dup3\n        /* \"@openzeppelin/contracts-upgradeable/token/ERC20/ERC20Upgradeable.sol\":6084:6089  value */\n      dup6\n        /* \"@openzeppelin/contracts-upgradeable/token/ERC20/ERC20Upgradeable.sol\":6053:6068  _spendAllowance */\n      tag_177\n        /* \"@openzeppelin/contracts-upgradeable/token/ERC20/ERC20Upgradeable.sol\":6053:6090  _spendAllowance(from, spender, value) */\n      jump\t// in\n    tag_176:\n        /* \"@openzeppelin/contracts-upgradeable/token/ERC20/ERC20Upgradeable.sol\":6100:6126  _transfer(from, to, value) */\n      tag_178\n        /* \"@openzeppelin/contracts-upgradeable/token/ERC20/ERC20Upgradeable.sol\":6110:6114  from */\n      dup6\n        /* \"@openzeppelin/contracts-upgradeable/token/ERC20/ERC20Upgradeable.sol\":6116:6118  to */\n      dup6\n        /* \"@openzeppelin/contracts-upgradeable/token/ERC20/ERC20Upgradeable.sol\":6120:6125  value */\n      dup6\n        /* \"@openzeppelin/contracts-upgradeable/token/ERC20/ERC20Upgradeable.sol\":6100:6109  _transfer */\n      tag_179\n        /* \"@openzeppelin/contracts-upgradeable/token/ERC20/ERC20Upgradeable.sol\":6100:6126  _transfer(from, to, value) */\n      jump\t// in\n    tag_178:\n        /* \"@openzeppelin/contracts-upgradeable/token/ERC20/ERC20Upgradeable.sol\":6143:6147  true */\n      0x01\n        /* \"@openzeppelin/contracts-upgradeable/token/ERC20/ERC20Upgradeable.sol\":6136:6147  return true */\n      swap2\n      pop\n      pop\n        /* \"@openzeppelin/contracts-upgradeable/token/ERC20/ERC20Upgradeable.sol\":5910:6154  function transferFrom(address from, address to, uint256 value) public virtual returns (bool) {... */\n      swap4\n      swap3\n      pop\n      pop\n      pop\n      jump\t// out\n        /* \"masterTemplate.sol\":1973:2063  function decimals() public view virtual override returns (uint8) {... */\n    tag_59:\n        /* \"masterTemplate.sol\":2031:2036  uint8 */\n      0x00\n        /* \"masterTemplate.sol\":2055:2056  0 */\n      0x00\n        /* \"masterTemplate.sol\":2048:2056  return 0 */\n      swap1\n      pop\n        /* \"masterTemplate.sol\":1973:2063  function decimals() public view virtual override returns (uint8) {... */\n      swap1\n      jump\t// out\n        /* \"masterTemplate.sol\":2476:2541  function unpause() external onlyOwner {... */\n    tag_64:\n        /* \"@openzeppelin/contracts-upgradeable/access/OwnableUpgradeable.sol\":2355:2368  _checkOwner() */\n      tag_182\n        /* \"@openzeppelin/contracts-upgradeable/access/OwnableUpgradeable.sol\":2355:2366  _checkOwner */\n      tag_183\n        /* \"@openzeppelin/contracts-upgradeable/access/OwnableUpgradeable.sol\":2355:2368  _checkOwner() */\n      jump\t// in\n    tag_182:\n        /* \"masterTemplate.sol\":2524:2534  _unpause() */\n      tag_185\n        /* \"masterTemplate.sol\":2524:2532  _unpause */\n      tag_186\n        /* \"masterTemplate.sol\":2524:2534  _unpause() */\n      jump\t// in\n    tag_185:\n        /* \"masterTemplate.sol\":2476:2541  function unpause() external onlyOwner {... */\n      jump\t// out\n        /* \"@openzeppelin/contracts/proxy/utils/UUPSUpgradeable.sol\":3911:4125  function upgradeToAndCall(address newImplementation, bytes memory data) public payable virtual onlyProxy {... */\n    tag_68:\n        /* \"@openzeppelin/contracts/proxy/utils/UUPSUpgradeable.sol\":2568:2581  _checkProxy() */\n      tag_188\n        /* \"@openzeppelin/contracts/proxy/utils/UUPSUpgradeable.sol\":2568:2579  _checkProxy */\n      tag_189\n        /* \"@openzeppelin/contracts/proxy/utils/UUPSUpgradeable.sol\":2568:2581  _checkProxy() */\n      jump\t// in\n    tag_188:\n        /* \"@openzeppelin/contracts/proxy/utils/UUPSUpgradeable.sol\":4026:4062  _authorizeUpgrade(newImplementation) */\n      tag_191\n        /* \"@openzeppelin/contracts/proxy/utils/UUPSUpgradeable.sol\":4044:4061  newImplementation */\n      dup3\n        /* \"@openzeppelin/contracts/proxy/utils/UUPSUpgradeable.sol\":4026:4043  _authorizeUpgrade */\n      tag_192\n        /* \"@openzeppelin/contracts/proxy/utils/UUPSUpgradeable.sol\":4026:4062  _authorizeUpgrade(newImplementation) */\n      jump\t// in\n    tag_191:\n        /* \"@openzeppelin/contracts/proxy/utils/UUPSUpgradeable.sol\":4072:4118  _upgradeToAndCallUUPS(newImplementation, data) */\n      tag_193\n        /* \"@openzeppelin/contracts/proxy/utils/UUPSUpgradeable.sol\":4094:4111  newImplementation */\n      dup3\n        /* \"@openzeppelin/contracts/proxy/utils/UUPSUpgradeable.sol\":4113:4117  data */\n      dup3\n        /* \"@openzeppelin/contracts/proxy/utils/UUPSUpgradeable.sol\":4072:4093  _upgradeToAndCallUUPS */\n      tag_194\n        /* \"@openzeppelin/contracts/proxy/utils/UUPSUpgradeable.sol\":4072:4118  _upgradeToAndCallUUPS(newImplementation, data) */\n      jump\t// in\n    tag_193:\n        /* \"@openzeppelin/contracts/proxy/utils/UUPSUpgradeable.sol\":3911:4125  function upgradeToAndCall(address newImplementation, bytes memory data) public payable virtual onlyProxy {... */\n      pop\n      pop\n      jump\t// out\n        /* \"@openzeppelin/contracts/proxy/utils/UUPSUpgradeable.sol\":3466:3592  function proxiableUUID() external view notDelegated returns (bytes32) {... */\n    tag_71:\n        /* \"@openzeppelin/contracts/proxy/utils/UUPSUpgradeable.sol\":3527:3534  bytes32 */\n      0x00\n        /* \"@openzeppelin/contracts/proxy/utils/UUPSUpgradeable.sol\":2839:2859  _checkNotDelegated() */\n      tag_196\n        /* \"@openzeppelin/contracts/proxy/utils/UUPSUpgradeable.sol\":2839:2857  _checkNotDelegated */\n      tag_197\n        /* \"@openzeppelin/contracts/proxy/utils/UUPSUpgradeable.sol\":2839:2859  _checkNotDelegated() */\n      jump\t// in\n    tag_196:\n        /* \"@openzeppelin/contracts/proxy/ERC1967/ERC1967Utils.sol\":811:877  0x360894a13ba1a3210667c828492db98dca3e2076cc3735a920a3ca505d382bbc */\n      0x360894a13ba1a3210667c828492db98dca3e2076cc3735a920a3ca505d382bbc\n        /* \"@openzeppelin/contracts/proxy/utils/UUPSUpgradeable.sol\":3553:3585  ERC1967Utils.IMPLEMENTATION_SLOT */\n      0x00\n      shl\n        /* \"@openzeppelin/contracts/proxy/utils/UUPSUpgradeable.sol\":3546:3585  return ERC1967Utils.IMPLEMENTATION_SLOT */\n      swap1\n      pop\n        /* \"@openzeppelin/contracts/proxy/utils/UUPSUpgradeable.sol\":3466:3592  function proxiableUUID() external view notDelegated returns (bytes32) {... */\n      swap1\n      jump\t// out\n        /* \"@openzeppelin/contracts-upgradeable/utils/PausableUpgradeable.sol\":2517:2662  function paused() public view virtual returns (bool) {... */\n    tag_76:\n        /* \"@openzeppelin/contracts-upgradeable/utils/PausableUpgradeable.sol\":2564:2568  bool */\n      0x00\n        /* \"@openzeppelin/contracts-upgradeable/utils/PausableUpgradeable.sol\":2580:2605  PausableStorage storage $ */\n      0x00\n        /* \"@openzeppelin/contracts-upgradeable/utils/PausableUpgradeable.sol\":2608:2629  _getPausableStorage() */\n      tag_200\n        /* \"@openzeppelin/contracts-upgradeable/utils/PausableUpgradeable.sol\":2608:2627  _getPausableStorage */\n      tag_201\n        /* \"@openzeppelin/contracts-upgradeable/utils/PausableUpgradeable.sol\":2608:2629  _getPausableStorage() */\n      jump\t// in\n    tag_200:\n        /* \"@openzeppelin/contracts-upgradeable/utils/PausableUpgradeable.sol\":2580:2629  PausableStorage storage $ = _getPausableStorage() */\n      swap1\n      pop\n        /* \"@openzeppelin/contracts-upgradeable/utils/PausableUpgradeable.sol\":2646:2647  $ */\n      dup1\n        /* \"@openzeppelin/contracts-upgradeable/utils/PausableUpgradeable.sol\":2646:2655  $._paused */\n      0x00\n      add\n      0x00\n      swap1\n      sload\n      swap1\n      0x0100\n      exp\n      swap1\n      div\n      0xff\n      and\n        /* \"@openzeppelin/contracts-upgradeable/utils/PausableUpgradeable.sol\":2639:2655  return $._paused */\n      swap2\n      pop\n      pop\n        /* \"@openzeppelin/contracts-upgradeable/utils/PausableUpgradeable.sol\":2517:2662  function paused() public view virtual returns (bool) {... */\n      swap1\n      jump\t// out\n        /* \"masterTemplate.sol\":3370:3485  function burnFromSupply(address account, uint256 amount) external onlyOwner {... */\n    tag_81:\n        /* \"@openzeppelin/contracts-upgradeable/access/OwnableUpgradeable.sol\":2355:2368  _checkOwner() */\n      tag_203\n        /* \"@openzeppelin/contracts-upgradeable/access/OwnableUpgradeable.sol\":2355:2366  _checkOwner */\n      tag_183\n        /* \"@openzeppelin/contracts-upgradeable/access/OwnableUpgradeable.sol\":2355:2368  _checkOwner() */\n      jump\t// in\n    tag_203:\n        /* \"masterTemplate.sol\":3456:3478  _burn(account, amount) */\n      tag_205\n        /* \"masterTemplate.sol\":3462:3469  account */\n      dup3\n        /* \"masterTemplate.sol\":3471:3477  amount */\n      dup3\n        /* \"masterTemplate.sol\":3456:3461  _burn */\n      tag_206\n        /* \"masterTemplate.sol\":3456:3478  _burn(account, amount) */\n      jump\t// in\n    tag_205:\n        /* \"masterTemplate.sol\":3370:3485  function burnFromSupply(address account, uint256 amount) external onlyOwner {... */\n      pop\n      pop\n      jump\t// out\n        /* \"@openzeppelin/contracts-upgradeable/token/ERC20/ERC20Upgradeable.sol\":4053:4224  function balanceOf(address account) public view virtual returns (uint256) {... */\n    tag_86:\n        /* \"@openzeppelin/contracts-upgradeable/token/ERC20/ERC20Upgradeable.sol\":4118:4125  uint256 */\n      0x00\n        /* \"@openzeppelin/contracts-upgradeable/token/ERC20/ERC20Upgradeable.sol\":4137:4159  ERC20Storage storage $ */\n      0x00\n        /* \"@openzeppelin/contracts-upgradeable/token/ERC20/ERC20Upgradeable.sol\":4162:4180  _getERC20Storage() */\n      tag_208\n        /* \"@openzeppelin/contracts-upgradeable/token/ERC20/ERC20Upgradeable.sol\":4162:4178  _getERC20Storage */\n      tag_142\n        /* \"@openzeppelin/contracts-upgradeable/token/ERC20/ERC20Upgradeable.sol\":4162:4180  _getERC20Storage() */\n      jump\t// in\n    tag_208:\n        /* \"@openzeppelin/contracts-upgradeable/token/ERC20/ERC20Upgradeable.sol\":4137:4180  ERC20Storage storage $ = _getERC20Storage() */\n      swap1\n      pop\n        /* \"@openzeppelin/contracts-upgradeable/token/ERC20/ERC20Upgradeable.sol\":4197:4198  $ */\n      dup1\n        /* \"@openzeppelin/contracts-upgradeable/token/ERC20/ERC20Upgradeable.sol\":4197:4208  $._balances */\n      0x00\n      add\n        /* \"@openzeppelin/contracts-upgradeable/token/ERC20/ERC20Upgradeable.sol\":4197:4217  $._balances[account] */\n      0x00\n        /* \"@openzeppelin/contracts-upgradeable/token/ERC20/ERC20Upgradeable.sol\":4209:4216  account */\n      dup5\n        /* \"@openzeppelin/contracts-upgradeable/token/ERC20/ERC20Upgradeable.sol\":4197:4217  $._balances[account] */\n      0xffffffffffffffffffffffffffffffffffffffff\n      and\n      0xffffffffffffffffffffffffffffffffffffffff\n      and\n      dup2\n      mstore\n      0x20\n      add\n      swap1\n      dup2\n      mstore\n      0x20\n      add\n      0x00\n      keccak256\n      sload\n        /* \"@openzeppelin/contracts-upgradeable/token/ERC20/ERC20Upgradeable.sol\":4190:4217  return $._balances[account] */\n      swap2\n      pop\n      pop\n        /* \"@openzeppelin/contracts-upgradeable/token/ERC20/ERC20Upgradeable.sol\":4053:4224  function balanceOf(address account) public view virtual returns (uint256) {... */\n      swap2\n      swap1\n      pop\n      jump\t// out\n        /* \"@openzeppelin/contracts-upgradeable/access/OwnableUpgradeable.sol\":3176:3277  function renounceOwnership() public virtual onlyOwner {... */\n    tag_90:\n        /* \"@openzeppelin/contracts-upgradeable/access/OwnableUpgradeable.sol\":2355:2368  _checkOwner() */\n      tag_210\n        /* \"@openzeppelin/contracts-upgradeable/access/OwnableUpgradeable.sol\":2355:2366  _checkOwner */\n      tag_183\n        /* \"@openzeppelin/contracts-upgradeable/access/OwnableUpgradeable.sol\":2355:2368  _checkOwner() */\n      jump\t// in\n    tag_210:\n        /* \"@openzeppelin/contracts-upgradeable/access/OwnableUpgradeable.sol\":3240:3270  _transferOwnership(address(0)) */\n      tag_212\n        /* \"@openzeppelin/contracts-upgradeable/access/OwnableUpgradeable.sol\":3267:3268  0 */\n      0x00\n        /* \"@openzeppelin/contracts-upgradeable/access/OwnableUpgradeable.sol\":3240:3258  _transferOwnership */\n      tag_213\n        /* \"@openzeppelin/contracts-upgradeable/access/OwnableUpgradeable.sol\":3240:3270  _transferOwnership(address(0)) */\n      jump\t// in\n    tag_212:\n        /* \"@openzeppelin/contracts-upgradeable/access/OwnableUpgradeable.sol\":3176:3277  function renounceOwnership() public virtual onlyOwner {... */\n      jump\t// out\n        /* \"masterTemplate.sol\":2351:2412  function pause() external onlyOwner {... */\n    tag_93:\n        /* \"@openzeppelin/contracts-upgradeable/access/OwnableUpgradeable.sol\":2355:2368  _checkOwner() */\n      tag_215\n        /* \"@openzeppelin/contracts-upgradeable/access/OwnableUpgradeable.sol\":2355:2366  _checkOwner */\n      tag_183\n        /* \"@openzeppelin/contracts-upgradeable/access/OwnableUpgradeable.sol\":2355:2368  _checkOwner() */\n      jump\t// in\n    tag_215:\n        /* \"masterTemplate.sol\":2397:2405  _pause() */\n      tag_217\n        /* \"masterTemplate.sol\":2397:2403  _pause */\n      tag_218\n        /* \"masterTemplate.sol\":2397:2405  _pause() */\n      jump\t// in\n    tag_217:\n        /* \"masterTemplate.sol\":2351:2412  function pause() external onlyOwner {... */\n      jump\t// out\n        /* \"@openzeppelin/contracts-upgradeable/access/OwnableUpgradeable.sol\":2462:2606  function owner() public view virtual returns (address) {... */\n    tag_96:\n        /* \"@openzeppelin/contracts-upgradeable/access/OwnableUpgradeable.sol\":2508:2515  address */\n      0x00\n        /* \"@openzeppelin/contracts-upgradeable/access/OwnableUpgradeable.sol\":2527:2551  OwnableStorage storage $ */\n      0x00\n        /* \"@openzeppelin/contracts-upgradeable/access/OwnableUpgradeable.sol\":2554:2574  _getOwnableStorage() */\n      tag_220\n        /* \"@openzeppelin/contracts-upgradeable/access/OwnableUpgradeable.sol\":2554:2572  _getOwnableStorage */\n      tag_221\n        /* \"@openzeppelin/contracts-upgradeable/access/OwnableUpgradeable.sol\":2554:2574  _getOwnableStorage() */\n      jump\t// in\n    tag_220:\n        /* \"@openzeppelin/contracts-upgradeable/access/OwnableUpgradeable.sol\":2527:2574  OwnableStorage storage $ = _getOwnableStorage() */\n      swap1\n      pop\n        /* \"@openzeppelin/contracts-upgradeable/access/OwnableUpgradeable.sol\":2591:2592  $ */\n      dup1\n        /* \"@openzeppelin/contracts-upgradeable/access/OwnableUpgradeable.sol\":2591:2599  $._owner */\n      0x00\n      add\n      0x00\n      swap1\n      sload\n      swap1\n      0x0100\n      exp\n      swap1\n      div\n      0xffffffffffffffffffffffffffffffffffffffff\n      and\n        /* \"@openzeppelin/contracts-upgradeable/access/OwnableUpgradeable.sol\":2584:2599  return $._owner */\n      swap2\n      pop\n      pop\n        /* \"@openzeppelin/contracts-upgradeable/access/OwnableUpgradeable.sol\":2462:2606  function owner() public view virtual returns (address) {... */\n      swap1\n      jump\t// out\n        /* \"@openzeppelin/contracts-upgradeable/token/ERC20/ERC20Upgradeable.sol\":2972:3120  function symbol() public view virtual returns (string memory) {... */\n    tag_101:\n        /* \"@openzeppelin/contracts-upgradeable/token/ERC20/ERC20Upgradeable.sol\":3019:3032  string memory */\n      0x60\n        /* \"@openzeppelin/contracts-upgradeable/token/ERC20/ERC20Upgradeable.sol\":3044:3066  ERC20Storage storage $ */\n      0x00\n        /* \"@openzeppelin/contracts-upgradeable/token/ERC20/ERC20Upgradeable.sol\":3069:3087  _getERC20Storage() */\n      tag_223\n        /* \"@openzeppelin/contracts-upgradeable/token/ERC20/ERC20Upgradeable.sol\":3069:3085  _getERC20Storage */\n      tag_142\n        /* \"@openzeppelin/contracts-upgradeable/token/ERC20/ERC20Upgradeable.sol\":3069:3087  _getERC20Storage() */\n      jump\t// in\n    tag_223:\n        /* \"@openzeppelin/contracts-upgradeable/token/ERC20/ERC20Upgradeable.sol\":3044:3087  ERC20Storage storage $ = _getERC20Storage() */\n      swap1\n      pop\n        /* \"@openzeppelin/contracts-upgradeable/token/ERC20/ERC20Upgradeable.sol\":3104:3105  $ */\n      dup1\n        /* \"@openzeppelin/contracts-upgradeable/token/ERC20/ERC20Upgradeable.sol\":3104:3113  $._symbol */\n      0x04\n      add\n        /* \"@openzeppelin/contracts-upgradeable/token/ERC20/ERC20Upgradeable.sol\":3097:3113  return $._symbol */\n      dup1\n      sload\n      tag_224\n      swap1\n      tag_144\n      jump\t// in\n    tag_224:\n      dup1\n      0x1f\n      add\n      0x20\n      dup1\n      swap2\n      div\n      mul\n      0x20\n      add\n      mload(0x40)\n      swap1\n      dup2\n      add\n      0x40\n      mstore\n      dup1\n      swap3\n      swap2\n      swap1\n      dup2\n      dup2\n      mstore\n      0x20\n      add\n      dup3\n      dup1\n      sload\n      tag_225\n      swap1\n      tag_144\n      jump\t// in\n    tag_225:\n      dup1\n      iszero\n      tag_226\n      jumpi\n      dup1\n      0x1f\n      lt\n      tag_227\n      jumpi\n      0x0100\n      dup1\n      dup4\n      sload\n      div\n      mul\n      dup4\n      mstore\n      swap2\n      0x20\n      add\n      swap2\n      jump(tag_226)\n    tag_227:\n      dup3\n      add\n      swap2\n      swap1\n      0x00\n      mstore\n      keccak256(0x00, 0x20)\n      swap1\n    tag_228:\n      dup2\n      sload\n      dup2\n      mstore\n      swap1\n      0x01\n      add\n      swap1\n      0x20\n      add\n      dup1\n      dup4\n      gt\n      tag_228\n      jumpi\n      dup3\n      swap1\n      sub\n      0x1f\n      and\n      dup3\n      add\n      swap2\n    tag_226:\n      pop\n      pop\n      pop\n      pop\n      pop\n      swap2\n      pop\n      pop\n        /* \"@openzeppelin/contracts-upgradeable/token/ERC20/ERC20Upgradeable.sol\":2972:3120  function symbol() public view virtual returns (string memory) {... */\n      swap1\n      jump\t// out\n        /* \"@openzeppelin/contracts-upgradeable/token/ERC20/ERC20Upgradeable.sol\":4419:4597  function transfer(address to, uint256 value) public virtual returns (bool) {... */\n    tag_106:\n        /* \"@openzeppelin/contracts-upgradeable/token/ERC20/ERC20Upgradeable.sol\":4488:4492  bool */\n      0x00\n        /* \"@openzeppelin/contracts-upgradeable/token/ERC20/ERC20Upgradeable.sol\":4504:4517  address owner */\n      0x00\n        /* \"@openzeppelin/contracts-upgradeable/token/ERC20/ERC20Upgradeable.sol\":4520:4532  _msgSender() */\n      tag_230\n        /* \"@openzeppelin/contracts-upgradeable/token/ERC20/ERC20Upgradeable.sol\":4520:4530  _msgSender */\n      tag_169\n        /* \"@openzeppelin/contracts-upgradeable/token/ERC20/ERC20Upgradeable.sol\":4520:4532  _msgSender() */\n      jump\t// in\n    tag_230:\n        /* \"@openzeppelin/contracts-upgradeable/token/ERC20/ERC20Upgradeable.sol\":4504:4532  address owner = _msgSender() */\n      swap1\n      pop\n        /* \"@openzeppelin/contracts-upgradeable/token/ERC20/ERC20Upgradeable.sol\":4542:4569  _transfer(owner, to, value) */\n      tag_231\n        /* \"@openzeppelin/contracts-upgradeable/token/ERC20/ERC20Upgradeable.sol\":4552:4557  owner */\n      dup2\n        /* \"@openzeppelin/contracts-upgradeable/token/ERC20/ERC20Upgradeable.sol\":4559:4561  to */\n      dup6\n        /* \"@openzeppelin/contracts-upgradeable/token/ERC20/ERC20Upgradeable.sol\":4563:4568  value */\n      dup6\n        /* \"@openzeppelin/contracts-upgradeable/token/ERC20/ERC20Upgradeable.sol\":4542:4551  _transfer */\n      tag_179\n        /* \"@openzeppelin/contracts-upgradeable/token/ERC20/ERC20Upgradeable.sol\":4542:4569  _transfer(owner, to, value) */\n      jump\t// in\n    tag_231:\n        /* \"@openzeppelin/contracts-upgradeable/token/ERC20/ERC20Upgradeable.sol\":4586:4590  true */\n      0x01\n        /* \"@openzeppelin/contracts-upgradeable/token/ERC20/ERC20Upgradeable.sol\":4579:4590  return true */\n      swap2\n      pop\n      pop\n        /* \"@openzeppelin/contracts-upgradeable/token/ERC20/ERC20Upgradeable.sol\":4419:4597  function transfer(address to, uint256 value) public virtual returns (bool) {... */\n      swap3\n      swap2\n      pop\n      pop\n      jump\t// out\n        /* \"masterTemplate.sol\":1179:1219  mapping(address => bool) public isMinter */\n    tag_111:\n      mstore(0x20, 0x00)\n      dup1\n      0x00\n      mstore\n      keccak256(0x00, 0x40)\n      0x00\n      swap2\n      pop\n      sload\n      swap1\n      0x0100\n      exp\n      swap1\n      div\n      0xff\n      and\n      dup2\n      jump\t// out\n        /* \"@openzeppelin/contracts/proxy/utils/UUPSUpgradeable.sol\":1732:1790  string public constant UPGRADE_INTERFACE_VERSION = \"5.0.0\" */\n    tag_115:\n      mload(0x40)\n      dup1\n      0x40\n      add\n      0x40\n      mstore\n      dup1\n      0x05\n      dup2\n      mstore\n      0x20\n      add\n      0x352e302e30000000000000000000000000000000000000000000000000000000\n      dup2\n      mstore\n      pop\n      dup2\n      jump\t// out\n        /* \"masterTemplate.sol\":2142:2251  function setMinter(address minter, bool status) external onlyOwner {... */\n    tag_121:\n        /* \"@openzeppelin/contracts-upgradeable/access/OwnableUpgradeable.sol\":2355:2368  _checkOwner() */\n      tag_233\n        /* \"@openzeppelin/contracts-upgradeable/access/OwnableUpgradeable.sol\":2355:2366  _checkOwner */\n      tag_183\n        /* \"@openzeppelin/contracts-upgradeable/access/OwnableUpgradeable.sol\":2355:2368  _checkOwner() */\n      jump\t// in\n    tag_233:\n        /* \"masterTemplate.sol\":2238:2244  status */\n      dup1\n        /* \"masterTemplate.sol\":2219:2227  isMinter */\n      0x00\n        /* \"masterTemplate.sol\":2219:2235  isMinter[minter] */\n      0x00\n        /* \"masterTemplate.sol\":2228:2234  minter */\n      dup5\n        /* \"masterTemplate.sol\":2219:2235  isMinter[minter] */\n      0xffffffffffffffffffffffffffffffffffffffff\n      and\n      0xffffffffffffffffffffffffffffffffffffffff\n      and\n      dup2\n      mstore\n      0x20\n      add\n      swap1\n      dup2\n      mstore\n      0x20\n      add\n      0x00\n      keccak256\n      0x00\n        /* \"masterTemplate.sol\":2219:2244  isMinter[minter] = status */\n      0x0100\n      exp\n      dup2\n      sload\n      dup2\n      0xff\n      mul\n      not\n      and\n      swap1\n      dup4\n      iszero\n      iszero\n      mul\n      or\n      swap1\n      sstore\n      pop\n        /* \"masterTemplate.sol\":2142:2251  function setMinter(address minter, bool status) external onlyOwner {... */\n      pop\n      pop\n      jump\t// out\n        /* \"@openzeppelin/contracts-upgradeable/token/ERC20/ERC20Upgradeable.sol\":4630:4825  function allowance(address owner, address spender) public view virtual returns (uint256) {... */\n    tag_126:\n        /* \"@openzeppelin/contracts-upgradeable/token/ERC20/ERC20Upgradeable.sol\":4710:4717  uint256 */\n      0x00\n        /* \"@openzeppelin/contracts-upgradeable/token/ERC20/ERC20Upgradeable.sol\":4729:4751  ERC20Storage storage $ */\n      0x00\n        /* \"@openzeppelin/contracts-upgradeable/token/ERC20/ERC20Upgradeable.sol\":4754:4772  _getERC20Storage() */\n      tag_236\n        /* \"@openzeppelin/contracts-upgradeable/token/ERC20/ERC20Upgradeable.sol\":4754:4770  _getERC20Storage */\n      tag_142\n        /* \"@openzeppelin/contracts-upgradeable/token/ERC20/ERC20Upgradeable.sol\":4754:4772  _getERC20Storage() */\n      jump\t// in\n    tag_236:\n        /* \"@openzeppelin/contracts-upgradeable/token/ERC20/ERC20Upgradeable.sol\":4729:4772  ERC20Storage storage $ = _getERC20Storage() */\n      swap1\n      pop\n        /* \"@openzeppelin/contracts-upgradeable/token/ERC20/ERC20Upgradeable.sol\":4789:4790  $ */\n      dup1\n        /* \"@openzeppelin/contracts-upgradeable/token/ERC20/ERC20Upgradeable.sol\":4789:4802  $._allowances */\n      0x01\n      add\n        /* \"@openzeppelin/contracts-upgradeable/token/ERC20/ERC20Upgradeable.sol\":4789:4809  $._allowances[owner] */\n      0x00\n        /* \"@openzeppelin/contracts-upgradeable/token/ERC20/ERC20Upgradeable.sol\":4803:4808  owner */\n      dup6\n        /* \"@openzeppelin/contracts-upgradeable/token/ERC20/ERC20Upgradeable.sol\":4789:4809  $._allowances[owner] */\n      0xffffffffffffffffffffffffffffffffffffffff\n      and\n      0xffffffffffffffffffffffffffffffffffffffff\n      and\n      dup2\n      mstore\n      0x20\n      add\n      swap1\n      dup2\n      mstore\n      0x20\n      add\n      0x00\n      keccak256\n        /* \"@openzeppelin/contracts-upgradeable/token/ERC20/ERC20Upgradeable.sol\":4789:4818  $._allowances[owner][spender] */\n      0x00\n        /* \"@openzeppelin/contracts-upgradeable/token/ERC20/ERC20Upgradeable.sol\":4810:4817  spender */\n      dup5\n        /* \"@openzeppelin/contracts-upgradeable/token/ERC20/ERC20Upgradeable.sol\":4789:4818  $._allowances[owner][spender] */\n      0xffffffffffffffffffffffffffffffffffffffff\n      and\n      0xffffffffffffffffffffffffffffffffffffffff\n      and\n      dup2\n      mstore\n      0x20\n      add\n      swap1\n      dup2\n      mstore\n      0x20\n      add\n      0x00\n      keccak256\n      sload\n        /* \"@openzeppelin/contracts-upgradeable/token/ERC20/ERC20Upgradeable.sol\":4782:4818  return $._allowances[owner][spender] */\n      swap2\n      pop\n      pop\n        /* \"@openzeppelin/contracts-upgradeable/token/ERC20/ERC20Upgradeable.sol\":4630:4825  function allowance(address owner, address spender) public view virtual returns (uint256) {... */\n      swap3\n      swap2\n      pop\n      pop\n      jump\t// out\n        /* \"@openzeppelin/contracts-upgradeable/access/OwnableUpgradeable.sol\":3426:3641  function transferOwnership(address newOwner) public virtual onlyOwner {... */\n    tag_131:\n        /* \"@openzeppelin/contracts-upgradeable/access/OwnableUpgradeable.sol\":2355:2368  _checkOwner() */\n      tag_238\n        /* \"@openzeppelin/contracts-upgradeable/access/OwnableUpgradeable.sol\":2355:2366  _checkOwner */\n      tag_183\n        /* \"@openzeppelin/contracts-upgradeable/access/OwnableUpgradeable.sol\":2355:2368  _checkOwner() */\n      jump\t// in\n    tag_238:\n        /* \"@openzeppelin/contracts-upgradeable/access/OwnableUpgradeable.sol\":3530:3531  0 */\n      0x00\n        /* \"@openzeppelin/contracts-upgradeable/access/OwnableUpgradeable.sol\":3510:3532  newOwner == address(0) */\n      0xffffffffffffffffffffffffffffffffffffffff\n      and\n        /* \"@openzeppelin/contracts-upgradeable/access/OwnableUpgradeable.sol\":3510:3518  newOwner */\n      dup2\n        /* \"@openzeppelin/contracts-upgradeable/access/OwnableUpgradeable.sol\":3510:3532  newOwner == address(0) */\n      0xffffffffffffffffffffffffffffffffffffffff\n      and\n      sub\n        /* \"@openzeppelin/contracts-upgradeable/access/OwnableUpgradeable.sol\":3506:3597  if (newOwner == address(0)) {... */\n      tag_240\n      jumpi\n        /* \"@openzeppelin/contracts-upgradeable/access/OwnableUpgradeable.sol\":3583:3584  0 */\n      0x00\n        /* \"@openzeppelin/contracts-upgradeable/access/OwnableUpgradeable.sol\":3555:3586  OwnableInvalidOwner(address(0)) */\n      mload(0x40)\n      0x1e4fbdf700000000000000000000000000000000000000000000000000000000\n      dup2\n      mstore\n      0x04\n      add\n      tag_241\n      swap2\n      swap1\n      tag_98\n      jump\t// in\n    tag_241:\n      mload(0x40)\n      dup1\n      swap2\n      sub\n      swap1\n      revert\n        /* \"@openzeppelin/contracts-upgradeable/access/OwnableUpgradeable.sol\":3506:3597  if (newOwner == address(0)) {... */\n    tag_240:\n        /* \"@openzeppelin/contracts-upgradeable/access/OwnableUpgradeable.sol\":3606:3634  _transferOwnership(newOwner) */\n      tag_242\n        /* \"@openzeppelin/contracts-upgradeable/access/OwnableUpgradeable.sol\":3625:3633  newOwner */\n      dup2\n        /* \"@openzeppelin/contracts-upgradeable/access/OwnableUpgradeable.sol\":3606:3624  _transferOwnership */\n      tag_213\n        /* \"@openzeppelin/contracts-upgradeable/access/OwnableUpgradeable.sol\":3606:3634  _transferOwnership(newOwner) */\n      jump\t// in\n    tag_242:\n        /* \"@openzeppelin/contracts-upgradeable/access/OwnableUpgradeable.sol\":3426:3641  function transferOwnership(address newOwner) public virtual onlyOwner {... */\n      pop\n      jump\t// out\n        /* \"masterTemplate.sol\":2910:3083  function mintToPool(address poolAddress, uint256 amount) external onlyMinter {... */\n    tag_135:\n        /* \"masterTemplate.sol\":1458:1468  msg.sender */\n      caller\n        /* \"masterTemplate.sol\":1447:1468  owner() == msg.sender */\n      0xffffffffffffffffffffffffffffffffffffffff\n      and\n        /* \"masterTemplate.sol\":1447:1454  owner() */\n      tag_244\n        /* \"masterTemplate.sol\":1447:1452  owner */\n      tag_96\n        /* \"masterTemplate.sol\":1447:1454  owner() */\n      jump\t// in\n    tag_244:\n        /* \"masterTemplate.sol\":1447:1468  owner() == msg.sender */\n      0xffffffffffffffffffffffffffffffffffffffff\n      and\n      eq\n        /* \"masterTemplate.sol\":1447:1492  owner() == msg.sender || isMinter[msg.sender] */\n      dup1\n      tag_245\n      jumpi\n      pop\n        /* \"masterTemplate.sol\":1472:1480  isMinter */\n      0x00\n        /* \"masterTemplate.sol\":1472:1492  isMinter[msg.sender] */\n      0x00\n        /* \"masterTemplate.sol\":1481:1491  msg.sender */\n      caller\n        /* \"masterTemplate.sol\":1472:1492  isMinter[msg.sender] */\n      0xffffffffffffffffffffffffffffffffffffffff\n      and\n      0xffffffffffffffffffffffffffffffffffffffff\n      and\n      dup2\n      mstore\n      0x20\n      add\n      swap1\n      dup2\n      mstore\n      0x20\n      add\n      0x00\n      keccak256\n      0x00\n      swap1\n      sload\n      swap1\n      0x0100\n      exp\n      swap1\n      div\n      0xff\n      and\n        /* \"masterTemplate.sol\":1447:1492  owner() == msg.sender || isMinter[msg.sender] */\n    tag_245:\n        /* \"masterTemplate.sol\":1439:1519  require(owner() == msg.sender || isMinter[msg.sender], \"Caller is not a minter\") */\n      tag_246\n      jumpi\n      mload(0x40)\n      0x08c379a000000000000000000000000000000000000000000000000000000000\n      dup2\n      mstore\n      0x04\n      add\n      tag_247\n      swap1\n      tag_248\n      jump\t// in\n    tag_247:\n      mload(0x40)\n      dup1\n      swap2\n      sub\n      swap1\n      revert\n    tag_246:\n        /* \"masterTemplate.sol\":2997:3023  _mint(poolAddress, amount) */\n      tag_250\n        /* \"masterTemplate.sol\":3003:3014  poolAddress */\n      dup3\n        /* \"masterTemplate.sol\":3016:3022  amount */\n      dup3\n        /* \"masterTemplate.sol\":2997:3002  _mint */\n      tag_251\n        /* \"masterTemplate.sol\":2997:3023  _mint(poolAddress, amount) */\n      jump\t// in\n    tag_250:\n        /* \"masterTemplate.sol\":3042:3053  poolAddress */\n      dup2\n        /* \"masterTemplate.sol\":3033:3068  IFarmDEX(poolAddress).onTokenMinted */\n      0xffffffffffffffffffffffffffffffffffffffff\n      and\n      0x3676a601\n        /* \"masterTemplate.sol\":3069:3075  amount */\n      dup3\n        /* \"masterTemplate.sol\":3033:3076  IFarmDEX(poolAddress).onTokenMinted(amount) */\n      mload(0x40)\n      dup3\n      0xffffffff\n      and\n      0xe0\n      shl\n      dup2\n      mstore\n      0x04\n      add\n      tag_252\n      swap2\n      swap1\n      tag_50\n      jump\t// in\n    tag_252:\n      0x00\n      mload(0x40)\n      dup1\n      dup4\n      sub\n      dup2\n      0x00\n      dup8\n      dup1\n      extcodesize\n      iszero\n      dup1\n      iszero\n      tag_253\n      jumpi\n      revert(0x00, 0x00)\n    tag_253:\n      pop\n      gas\n      call\n      iszero\n      dup1\n      iszero\n      tag_255\n      jumpi\n      returndatacopy(0x00, 0x00, returndatasize)\n      revert(0x00, returndatasize)\n    tag_255:\n      pop\n      pop\n      pop\n      pop\n        /* \"masterTemplate.sol\":2910:3083  function mintToPool(address poolAddress, uint256 amount) external onlyMinter {... */\n      pop\n      pop\n      jump\t// out\n        /* \"masterTemplate.sol\":2618:2730  function mintToWallet(address wallet, uint256 amount) external onlyMinter {... */\n    tag_139:\n        /* \"masterTemplate.sol\":1458:1468  msg.sender */\n      caller\n        /* \"masterTemplate.sol\":1447:1468  owner() == msg.sender */\n      0xffffffffffffffffffffffffffffffffffffffff\n      and\n        /* \"masterTemplate.sol\":1447:1454  owner() */\n      tag_257\n        /* \"masterTemplate.sol\":1447:1452  owner */\n      tag_96\n        /* \"masterTemplate.sol\":1447:1454  owner() */\n      jump\t// in\n    tag_257:\n        /* \"masterTemplate.sol\":1447:1468  owner() == msg.sender */\n      0xffffffffffffffffffffffffffffffffffffffff\n      and\n      eq\n        /* \"masterTemplate.sol\":1447:1492  owner() == msg.sender || isMinter[msg.sender] */\n      dup1\n      tag_258\n      jumpi\n      pop\n        /* \"masterTemplate.sol\":1472:1480  isMinter */\n      0x00\n        /* \"masterTemplate.sol\":1472:1492  isMinter[msg.sender] */\n      0x00\n        /* \"masterTemplate.sol\":1481:1491  msg.sender */\n      caller\n        /* \"masterTemplate.sol\":1472:1492  isMinter[msg.sender] */\n      0xffffffffffffffffffffffffffffffffffffffff\n      and\n      0xffffffffffffffffffffffffffffffffffffffff\n      and\n      dup2\n      mstore\n      0x20\n      add\n      swap1\n      dup2\n      mstore\n      0x20\n      add\n      0x00\n      keccak256\n      0x00\n      swap1\n      sload\n      swap1\n      0x0100\n      exp\n      swap1\n      div\n      0xff\n      and\n        /* \"masterTemplate.sol\":1447:1492  owner() == msg.sender || isMinter[msg.sender] */\n    tag_258:\n        /* \"masterTemplate.sol\":1439:1519  require(owner() == msg.sender || isMinter[msg.sender], \"Caller is not a minter\") */\n      tag_259\n      jumpi\n      mload(0x40)\n      0x08c379a000000000000000000000000000000000000000000000000000000000\n      dup2\n      mstore\n      0x04\n      add\n      tag_260\n      swap1\n      tag_248\n      jump\t// in\n    tag_260:\n      mload(0x40)\n      dup1\n      swap2\n      sub\n      swap1\n      revert\n    tag_259:\n        /* \"masterTemplate.sol\":2702:2723  _mint(wallet, amount) */\n      tag_262\n        /* \"masterTemplate.sol\":2708:2714  wallet */\n      dup3\n        /* \"masterTemplate.sol\":2716:2722  amount */\n      dup3\n        /* \"masterTemplate.sol\":2702:2707  _mint */\n      tag_251\n        /* \"masterTemplate.sol\":2702:2723  _mint(wallet, amount) */\n      jump\t// in\n    tag_262:\n        /* \"masterTemplate.sol\":2618:2730  function mintToWallet(address wallet, uint256 amount) external onlyMinter {... */\n      pop\n      pop\n      jump\t// out\n        /* \"@openzeppelin/contracts-upgradeable/token/ERC20/ERC20Upgradeable.sol\":1965:2118  function _getERC20Storage() private pure returns (ERC20Storage storage $) {... */\n    tag_142:\n        /* \"@openzeppelin/contracts-upgradeable/token/ERC20/ERC20Upgradeable.sol\":2015:2037  ERC20Storage storage $ */\n      0x00\n        /* \"@openzeppelin/contracts-upgradeable/token/ERC20/ERC20Upgradeable.sol\":2082:2102  ERC20StorageLocation */\n      0x52c63247e1f47db19d5ce0460030c497f067ca4cebf71ba98eeadabe20bace00\n        /* \"@openzeppelin/contracts-upgradeable/token/ERC20/ERC20Upgradeable.sol\":2072:2102  $.slot := ERC20StorageLocation */\n      swap1\n      pop\n        /* \"@openzeppelin/contracts-upgradeable/token/ERC20/ERC20Upgradeable.sol\":1965:2118  function _getERC20Storage() private pure returns (ERC20Storage storage $) {... */\n      swap1\n      jump\t// out\n        /* \"@openzeppelin/contracts/proxy/utils/Initializable.sol\":9071:9276  function _getInitializableStorage() private pure returns (InitializableStorage storage $) {... */\n    tag_151:\n        /* \"@openzeppelin/contracts/proxy/utils/Initializable.sol\":9129:9159  InitializableStorage storage $ */\n      0x00\n        /* \"@openzeppelin/contracts/proxy/utils/Initializable.sol\":9171:9183  bytes32 slot */\n      0x00\n        /* \"@openzeppelin/contracts/proxy/utils/Initializable.sol\":9186:9213  _initializableStorageSlot() */\n      tag_265\n        /* \"@openzeppelin/contracts/proxy/utils/Initializable.sol\":9186:9211  _initializableStorageSlot */\n      tag_266\n        /* \"@openzeppelin/contracts/proxy/utils/Initializable.sol\":9186:9213  _initializableStorageSlot() */\n      jump\t// in\n    tag_265:\n        /* \"@openzeppelin/contracts/proxy/utils/Initializable.sol\":9171:9213  bytes32 slot = _initializableStorageSlot() */\n      swap1\n      pop\n        /* \"@openzeppelin/contracts/proxy/utils/Initializable.sol\":9256:9260  slot */\n      dup1\n        /* \"@openzeppelin/contracts/proxy/utils/Initializable.sol\":9246:9260  $.slot := slot */\n      swap2\n      pop\n        /* \"@openzeppelin/contracts/proxy/utils/Initializable.sol\":9232:9270  {... */\n      pop\n        /* \"@openzeppelin/contracts/proxy/utils/Initializable.sol\":9071:9276  function _getInitializableStorage() private pure returns (InitializableStorage storage $) {... */\n      swap1\n      jump\t// out\n        /* \"@openzeppelin/contracts-upgradeable/token/ERC20/ERC20Upgradeable.sol\":2281:2428  function __ERC20_init(string memory name_, string memory symbol_) internal onlyInitializing {... */\n    tag_159:\n        /* \"@openzeppelin/contracts/proxy/utils/Initializable.sol\":6929:6949  _checkInitializing() */\n      tag_268\n        /* \"@openzeppelin/contracts/proxy/utils/Initializable.sol\":6929:6947  _checkInitializing */\n      tag_269\n        /* \"@openzeppelin/contracts/proxy/utils/Initializable.sol\":6929:6949  _checkInitializing() */\n      jump\t// in\n    tag_268:\n        /* \"@openzeppelin/contracts-upgradeable/token/ERC20/ERC20Upgradeable.sol\":2383:2421  __ERC20_init_unchained(name_, symbol_) */\n      tag_271\n        /* \"@openzeppelin/contracts-upgradeable/token/ERC20/ERC20Upgradeable.sol\":2406:2411  name_ */\n      dup3\n        /* \"@openzeppelin/contracts-upgradeable/token/ERC20/ERC20Upgradeable.sol\":2413:2420  symbol_ */\n      dup3\n        /* \"@openzeppelin/contracts-upgradeable/token/ERC20/ERC20Upgradeable.sol\":2383:2405  __ERC20_init_unchained */\n      tag_272\n        /* \"@openzeppelin/contracts-upgradeable/token/ERC20/ERC20Upgradeable.sol\":2383:2421  __ERC20_init_unchained(name_, symbol_) */\n      jump\t// in\n    tag_271:\n        /* \"@openzeppelin/contracts-upgradeable/token/ERC20/ERC20Upgradeable.sol\":2281:2428  function __ERC20_init(string memory name_, string memory symbol_) internal onlyInitializing {... */\n      pop\n      pop\n      jump\t// out\n        /* \"@openzeppelin/contracts-upgradeable/token/ERC20/extensions/ERC20PausableUpgradeable.sol\":1164:1229  function __ERC20Pausable_init() internal onlyInitializing {... */\n    tag_161:\n        /* \"@openzeppelin/contracts/proxy/utils/Initializable.sol\":6929:6949  _checkInitializing() */\n      tag_274\n        /* \"@openzeppelin/contracts/proxy/utils/Initializable.sol\":6929:6947  _checkInitializing */\n      tag_269\n        /* \"@openzeppelin/contracts/proxy/utils/Initializable.sol\":6929:6949  _checkInitializing() */\n      jump\t// in\n    tag_274:\n        /* \"@openzeppelin/contracts-upgradeable/token/ERC20/extensions/ERC20PausableUpgradeable.sol\":1164:1229  function __ERC20Pausable_init() internal onlyInitializing {... */\n      jump\t// out\n        /* \"@openzeppelin/contracts-upgradeable/access/OwnableUpgradeable.sol\":1868:1995  function __Ownable_init(address initialOwner) internal onlyInitializing {... */\n    tag_163:\n        /* \"@openzeppelin/contracts/proxy/utils/Initializable.sol\":6929:6949  _checkInitializing() */\n      tag_277\n        /* \"@openzeppelin/contracts/proxy/utils/Initializable.sol\":6929:6947  _checkInitializing */\n      tag_269\n        /* \"@openzeppelin/contracts/proxy/utils/Initializable.sol\":6929:6949  _checkInitializing() */\n      jump\t// in\n    tag_277:\n        /* \"@openzeppelin/contracts-upgradeable/access/OwnableUpgradeable.sol\":1950:1988  __Ownable_init_unchained(initialOwner) */\n      tag_279\n        /* \"@openzeppelin/contracts-upgradeable/access/OwnableUpgradeable.sol\":1975:1987  initialOwner */\n      dup2\n        /* \"@openzeppelin/contracts-upgradeable/access/OwnableUpgradeable.sol\":1950:1974  __Ownable_init_unchained */\n      tag_280\n        /* \"@openzeppelin/contracts-upgradeable/access/OwnableUpgradeable.sol\":1950:1988  __Ownable_init_unchained(initialOwner) */\n      jump\t// in\n    tag_279:\n        /* \"@openzeppelin/contracts-upgradeable/access/OwnableUpgradeable.sol\":1868:1995  function __Ownable_init(address initialOwner) internal onlyInitializing {... */\n      pop\n      jump\t// out\n        /* \"@openzeppelin/contracts-upgradeable/utils/ContextUpgradeable.sol\":908:1004  function _msgSender() internal view virtual returns (address) {... */\n    tag_169:\n        /* \"@openzeppelin/contracts-upgradeable/utils/ContextUpgradeable.sol\":961:968  address */\n      0x00\n        /* \"@openzeppelin/contracts-upgradeable/utils/ContextUpgradeable.sol\":987:997  msg.sender */\n      caller\n        /* \"@openzeppelin/contracts-upgradeable/utils/ContextUpgradeable.sol\":980:997  return msg.sender */\n      swap1\n      pop\n        /* \"@openzeppelin/contracts-upgradeable/utils/ContextUpgradeable.sol\":908:1004  function _msgSender() internal view virtual returns (address) {... */\n      swap1\n      jump\t// out\n        /* \"@openzeppelin/contracts-upgradeable/token/ERC20/ERC20Upgradeable.sol\":9923:10051  function _approve(address owner, address spender, uint256 value) internal {... */\n    tag_171:\n        /* \"@openzeppelin/contracts-upgradeable/token/ERC20/ERC20Upgradeable.sol\":10007:10044  _approve(owner, spender, value, true) */\n      tag_283\n        /* \"@openzeppelin/contracts-upgradeable/token/ERC20/ERC20Upgradeable.sol\":10016:10021  owner */\n      dup4\n        /* \"@openzeppelin/contracts-upgradeable/token/ERC20/ERC20Upgradeable.sol\":10023:10030  spender */\n      dup4\n        /* \"@openzeppelin/contracts-upgradeable/token/ERC20/ERC20Upgradeable.sol\":10032:10037  value */\n      dup4\n        /* \"@openzeppelin/contracts-upgradeable/token/ERC20/ERC20Upgradeable.sol\":10039:10043  true */\n      0x01\n        /* \"@openzeppelin/contracts-upgradeable/token/ERC20/ERC20Upgradeable.sol\":10007:10015  _approve */\n      tag_284\n        /* \"@openzeppelin/contracts-upgradeable/token/ERC20/ERC20Upgradeable.sol\":10007:10044  _approve(owner, spender, value, true) */\n      jump\t// in\n    tag_283:\n        /* \"@openzeppelin/contracts-upgradeable/token/ERC20/ERC20Upgradeable.sol\":9923:10051  function _approve(address owner, address spender, uint256 value) internal {... */\n      pop\n      pop\n      pop\n      jump\t// out\n        /* \"@openzeppelin/contracts-upgradeable/token/ERC20/ERC20Upgradeable.sol\":11669:12145  function _spendAllowance(address owner, address spender, uint256 value) internal virtual {... */\n    tag_177:\n        /* \"@openzeppelin/contracts-upgradeable/token/ERC20/ERC20Upgradeable.sol\":11768:11792  uint256 currentAllowance */\n      0x00\n        /* \"@openzeppelin/contracts-upgradeable/token/ERC20/ERC20Upgradeable.sol\":11795:11820  allowance(owner, spender) */\n      tag_286\n        /* \"@openzeppelin/contracts-upgradeable/token/ERC20/ERC20Upgradeable.sol\":11805:11810  owner */\n      dup5\n        /* \"@openzeppelin/contracts-upgradeable/token/ERC20/ERC20Upgradeable.sol\":11812:11819  spender */\n      dup5\n        /* \"@openzeppelin/contracts-upgradeable/token/ERC20/ERC20Upgradeable.sol\":11795:11804  allowance */\n      tag_126\n        /* \"@openzeppelin/contracts-upgradeable/token/ERC20/ERC20Upgradeable.sol\":11795:11820  allowance(owner, spender) */\n      jump\t// in\n    tag_286:\n        /* \"@openzeppelin/contracts-upgradeable/token/ERC20/ERC20Upgradeable.sol\":11768:11820  uint256 currentAllowance = allowance(owner, spender) */\n      swap1\n      pop\n        /* \"@openzeppelin/contracts-upgradeable/token/ERC20/ERC20Upgradeable.sol\":11853:11870  type(uint256).max */\n      0xffffffffffffffffffffffffffffffffffffffffffffffffffffffffffffffff\n        /* \"@openzeppelin/contracts-upgradeable/token/ERC20/ERC20Upgradeable.sol\":11834:11850  currentAllowance */\n      dup2\n        /* \"@openzeppelin/contracts-upgradeable/token/ERC20/ERC20Upgradeable.sol\":11834:11870  currentAllowance < type(uint256).max */\n      lt\n        /* \"@openzeppelin/contracts-upgradeable/token/ERC20/ERC20Upgradeable.sol\":11830:12139  if (currentAllowance < type(uint256).max) {... */\n      iszero\n      tag_287\n      jumpi\n        /* \"@openzeppelin/contracts-upgradeable/token/ERC20/ERC20Upgradeable.sol\":11909:11914  value */\n      dup2\n        /* \"@openzeppelin/contracts-upgradeable/token/ERC20/ERC20Upgradeable.sol\":11890:11906  currentAllowance */\n      dup2\n        /* \"@openzeppelin/contracts-upgradeable/token/ERC20/ERC20Upgradeable.sol\":11890:11914  currentAllowance < value */\n      lt\n        /* \"@openzeppelin/contracts-upgradeable/token/ERC20/ERC20Upgradeable.sol\":11886:12016  if (currentAllowance < value) {... */\n      iszero\n      tag_288\n      jumpi\n        /* \"@openzeppelin/contracts-upgradeable/token/ERC20/ERC20Upgradeable.sol\":11968:11975  spender */\n      dup3\n        /* \"@openzeppelin/contracts-upgradeable/token/ERC20/ERC20Upgradeable.sol\":11977:11993  currentAllowance */\n      dup2\n        /* \"@openzeppelin/contracts-upgradeable/token/ERC20/ERC20Upgradeable.sol\":11995:12000  value */\n      dup4\n        /* \"@openzeppelin/contracts-upgradeable/token/ERC20/ERC20Upgradeable.sol\":11941:12001  ERC20InsufficientAllowance(spender, currentAllowance, value) */\n      mload(0x40)\n      0xfb8f41b200000000000000000000000000000000000000000000000000000000\n      dup2\n      mstore\n      0x04\n      add\n      tag_289\n      swap4\n      swap3\n      swap2\n      swap1\n      tag_290\n      jump\t// in\n    tag_289:\n      mload(0x40)\n      dup1\n      swap2\n      sub\n      swap1\n      revert\n        /* \"@openzeppelin/contracts-upgradeable/token/ERC20/ERC20Upgradeable.sol\":11886:12016  if (currentAllowance < value) {... */\n    tag_288:\n        /* \"@openzeppelin/contracts-upgradeable/token/ERC20/ERC20Upgradeable.sol\":12057:12114  _approve(owner, spender, currentAllowance - value, false) */\n      tag_291\n        /* \"@openzeppelin/contracts-upgradeable/token/ERC20/ERC20Upgradeable.sol\":12066:12071  owner */\n      dup5\n        /* \"@openzeppelin/contracts-upgradeable/token/ERC20/ERC20Upgradeable.sol\":12073:12080  spender */\n      dup5\n        /* \"@openzeppelin/contracts-upgradeable/token/ERC20/ERC20Upgradeable.sol\":12101:12106  value */\n      dup5\n        /* \"@openzeppelin/contracts-upgradeable/token/ERC20/ERC20Upgradeable.sol\":12082:12098  currentAllowance */\n      dup5\n        /* \"@openzeppelin/contracts-upgradeable/token/ERC20/ERC20Upgradeable.sol\":12082:12106  currentAllowance - value */\n      sub\n        /* \"@openzeppelin/contracts-upgradeable/token/ERC20/ERC20Upgradeable.sol\":12108:12113  false */\n      0x00\n        /* \"@openzeppelin/contracts-upgradeable/token/ERC20/ERC20Upgradeable.sol\":12057:12065  _approve */\n      tag_284\n        /* \"@openzeppelin/contracts-upgradeable/token/ERC20/ERC20Upgradeable.sol\":12057:12114  _approve(owner, spender, currentAllowance - value, false) */\n      jump\t// in\n    tag_291:\n        /* \"@openzeppelin/contracts-upgradeable/token/ERC20/ERC20Upgradeable.sol\":11830:12139  if (currentAllowance < type(uint256).max) {... */\n    tag_287:\n        /* \"@openzeppelin/contracts-upgradeable/token/ERC20/ERC20Upgradeable.sol\":11758:12145  {... */\n      pop\n        /* \"@openzeppelin/contracts-upgradeable/token/ERC20/ERC20Upgradeable.sol\":11669:12145  function _spendAllowance(address owner, address spender, uint256 value) internal virtual {... */\n      pop\n      pop\n      pop\n      jump\t// out\n        /* \"@openzeppelin/contracts-upgradeable/token/ERC20/ERC20Upgradeable.sol\":6527:6827  function _transfer(address from, address to, uint256 value) internal {... */\n    tag_179:\n        /* \"@openzeppelin/contracts-upgradeable/token/ERC20/ERC20Upgradeable.sol\":6626:6627  0 */\n      0x00\n        /* \"@openzeppelin/contracts-upgradeable/token/ERC20/ERC20Upgradeable.sol\":6610:6628  from == address(0) */\n      0xffffffffffffffffffffffffffffffffffffffff\n      and\n        /* \"@openzeppelin/contracts-upgradeable/token/ERC20/ERC20Upgradeable.sol\":6610:6614  from */\n      dup4\n        /* \"@openzeppelin/contracts-upgradeable/token/ERC20/ERC20Upgradeable.sol\":6610:6628  from == address(0) */\n      0xffffffffffffffffffffffffffffffffffffffff\n      and\n      sub\n        /* \"@openzeppelin/contracts-upgradeable/token/ERC20/ERC20Upgradeable.sol\":6606:6692  if (from == address(0)) {... */\n      tag_293\n      jumpi\n        /* \"@openzeppelin/contracts-upgradeable/token/ERC20/ERC20Upgradeable.sol\":6678:6679  0 */\n      0x00\n        /* \"@openzeppelin/contracts-upgradeable/token/ERC20/ERC20Upgradeable.sol\":6651:6681  ERC20InvalidSender(address(0)) */\n      mload(0x40)\n      0x96c6fd1e00000000000000000000000000000000000000000000000000000000\n      dup2\n      mstore\n      0x04\n      add\n      tag_294\n      swap2\n      swap1\n      tag_98\n      jump\t// in\n    tag_294:\n      mload(0x40)\n      dup1\n      swap2\n      sub\n      swap1\n      revert\n        /* \"@openzeppelin/contracts-upgradeable/token/ERC20/ERC20Upgradeable.sol\":6606:6692  if (from == address(0)) {... */\n    tag_293:\n        /* \"@openzeppelin/contracts-upgradeable/token/ERC20/ERC20Upgradeable.sol\":6719:6720  0 */\n      0x00\n        /* \"@openzeppelin/contracts-upgradeable/token/ERC20/ERC20Upgradeable.sol\":6705:6721  to == address(0) */\n      0xffffffffffffffffffffffffffffffffffffffff\n      and\n        /* \"@openzeppelin/contracts-upgradeable/token/ERC20/ERC20Upgradeable.sol\":6705:6707  to */\n      dup3\n        /* \"@openzeppelin/contracts-upgradeable/token/ERC20/ERC20Upgradeable.sol\":6705:6721  to == address(0) */\n      0xffffffffffffffffffffffffffffffffffffffff\n      and\n      sub\n        /* \"@openzeppelin/contracts-upgradeable/token/ERC20/ERC20Upgradeable.sol\":6701:6787  if (to == address(0)) {... */\n      tag_295\n      jumpi\n        /* \"@openzeppelin/contracts-upgradeable/token/ERC20/ERC20Upgradeable.sol\":6773:6774  0 */\n      0x00\n        /* \"@openzeppelin/contracts-upgradeable/token/ERC20/ERC20Upgradeable.sol\":6744:6776  ERC20InvalidReceiver(address(0)) */\n      mload(0x40)\n      0xec442f0500000000000000000000000000000000000000000000000000000000\n      dup2\n      mstore\n      0x04\n      add\n      tag_296\n      swap2\n      swap1\n      tag_98\n      jump\t// in\n    tag_296:\n      mload(0x40)\n      dup1\n      swap2\n      sub\n      swap1\n      revert\n        /* \"@openzeppelin/contracts-upgradeable/token/ERC20/ERC20Upgradeable.sol\":6701:6787  if (to == address(0)) {... */\n    tag_295:\n        /* \"@openzeppelin/contracts-upgradeable/token/ERC20/ERC20Upgradeable.sol\":6796:6820  _update(from, to, value) */\n      tag_297\n        /* \"@openzeppelin/contracts-upgradeable/token/ERC20/ERC20Upgradeable.sol\":6804:6808  from */\n      dup4\n        /* \"@openzeppelin/contracts-upgradeable/token/ERC20/ERC20Upgradeable.sol\":6810:6812  to */\n      dup4\n        /* \"@openzeppelin/contracts-upgradeable/token/ERC20/ERC20Upgradeable.sol\":6814:6819  value */\n      dup4\n        /* \"@openzeppelin/contracts-upgradeable/token/ERC20/ERC20Upgradeable.sol\":6796:6803  _update */\n      tag_298\n        /* \"@openzeppelin/contracts-upgradeable/token/ERC20/ERC20Upgradeable.sol\":6796:6820  _update(from, to, value) */\n      jump\t// in\n    tag_297:\n        /* \"@openzeppelin/contracts-upgradeable/token/ERC20/ERC20Upgradeable.sol\":6527:6827  function _transfer(address from, address to, uint256 value) internal {... */\n      pop\n      pop\n      pop\n      jump\t// out\n        /* \"@openzeppelin/contracts-upgradeable/access/OwnableUpgradeable.sol\":2679:2841  function _checkOwner() internal view virtual {... */\n    tag_183:\n        /* \"@openzeppelin/contracts-upgradeable/access/OwnableUpgradeable.sol\":2749:2761  _msgSender() */\n      tag_300\n        /* \"@openzeppelin/contracts-upgradeable/access/OwnableUpgradeable.sol\":2749:2759  _msgSender */\n      tag_169\n        /* \"@openzeppelin/contracts-upgradeable/access/OwnableUpgradeable.sol\":2749:2761  _msgSender() */\n      jump\t// in\n    tag_300:\n        /* \"@openzeppelin/contracts-upgradeable/access/OwnableUpgradeable.sol\":2738:2761  owner() != _msgSender() */\n      0xffffffffffffffffffffffffffffffffffffffff\n      and\n        /* \"@openzeppelin/contracts-upgradeable/access/OwnableUpgradeable.sol\":2738:2745  owner() */\n      tag_301\n        /* \"@openzeppelin/contracts-upgradeable/access/OwnableUpgradeable.sol\":2738:2743  owner */\n      tag_96\n        /* \"@openzeppelin/contracts-upgradeable/access/OwnableUpgradeable.sol\":2738:2745  owner() */\n      jump\t// in\n    tag_301:\n        /* \"@openzeppelin/contracts-upgradeable/access/OwnableUpgradeable.sol\":2738:2761  owner() != _msgSender() */\n      0xffffffffffffffffffffffffffffffffffffffff\n      and\n      eq\n        /* \"@openzeppelin/contracts-upgradeable/access/OwnableUpgradeable.sol\":2734:2835  if (owner() != _msgSender()) {... */\n      tag_302\n      jumpi\n        /* \"@openzeppelin/contracts-upgradeable/access/OwnableUpgradeable.sol\":2811:2823  _msgSender() */\n      tag_303\n        /* \"@openzeppelin/contracts-upgradeable/access/OwnableUpgradeable.sol\":2811:2821  _msgSender */\n      tag_169\n        /* \"@openzeppelin/contracts-upgradeable/access/OwnableUpgradeable.sol\":2811:2823  _msgSender() */\n      jump\t// in\n    tag_303:\n        /* \"@openzeppelin/contracts-upgradeable/access/OwnableUpgradeable.sol\":2784:2824  OwnableUnauthorizedAccount(_msgSender()) */\n      mload(0x40)\n      0x118cdaa700000000000000000000000000000000000000000000000000000000\n      dup2\n      mstore\n      0x04\n      add\n      tag_304\n      swap2\n      swap1\n      tag_98\n      jump\t// in\n    tag_304:\n      mload(0x40)\n      dup1\n      swap2\n      sub\n      swap1\n      revert\n        /* \"@openzeppelin/contracts-upgradeable/access/OwnableUpgradeable.sol\":2734:2835  if (owner() != _msgSender()) {... */\n    tag_302:\n        /* \"@openzeppelin/contracts-upgradeable/access/OwnableUpgradeable.sol\":2679:2841  function _checkOwner() internal view virtual {... */\n      jump\t// out\n        /* \"@openzeppelin/contracts-upgradeable/utils/PausableUpgradeable.sol\":3499:3677  function _unpause() internal virtual whenPaused {... */\n    tag_186:\n        /* \"@openzeppelin/contracts-upgradeable/utils/PausableUpgradeable.sol\":2247:2263  _requirePaused() */\n      tag_306\n        /* \"@openzeppelin/contracts-upgradeable/utils/PausableUpgradeable.sol\":2247:2261  _requirePaused */\n      tag_307\n        /* \"@openzeppelin/contracts-upgradeable/utils/PausableUpgradeable.sol\":2247:2263  _requirePaused() */\n      jump\t// in\n    tag_306:\n        /* \"@openzeppelin/contracts-upgradeable/utils/PausableUpgradeable.sol\":3557:3582  PausableStorage storage $ */\n      0x00\n        /* \"@openzeppelin/contracts-upgradeable/utils/PausableUpgradeable.sol\":3585:3606  _getPausableStorage() */\n      tag_309\n        /* \"@openzeppelin/contracts-upgradeable/utils/PausableUpgradeable.sol\":3585:3604  _getPausableStorage */\n      tag_201\n        /* \"@openzeppelin/contracts-upgradeable/utils/PausableUpgradeable.sol\":3585:3606  _getPausableStorage() */\n      jump\t// in\n    tag_309:\n        /* \"@openzeppelin/contracts-upgradeable/utils/PausableUpgradeable.sol\":3557:3606  PausableStorage storage $ = _getPausableStorage() */\n      swap1\n      pop\n        /* \"@openzeppelin/contracts-upgradeable/utils/PausableUpgradeable.sol\":3628:3633  false */\n      0x00\n        /* \"@openzeppelin/contracts-upgradeable/utils/PausableUpgradeable.sol\":3616:3617  $ */\n      dup2\n        /* \"@openzeppelin/contracts-upgradeable/utils/PausableUpgradeable.sol\":3616:3625  $._paused */\n      0x00\n      add\n      0x00\n        /* \"@openzeppelin/contracts-upgradeable/utils/PausableUpgradeable.sol\":3616:3633  $._paused = false */\n      0x0100\n      exp\n      dup2\n      sload\n      dup2\n      0xff\n      mul\n      not\n      and\n      swap1\n      dup4\n      iszero\n      iszero\n      mul\n      or\n      swap1\n      sstore\n      pop\n        /* \"@openzeppelin/contracts-upgradeable/utils/PausableUpgradeable.sol\":3648:3670  Unpaused(_msgSender()) */\n      0x5db9ee0a495bf2e6ff9c91a7834c1ba4fdd244a5e8aa4e537bd38aeae4b073aa\n        /* \"@openzeppelin/contracts-upgradeable/utils/PausableUpgradeable.sol\":3657:3669  _msgSender() */\n      tag_310\n        /* \"@openzeppelin/contracts-upgradeable/utils/PausableUpgradeable.sol\":3657:3667  _msgSender */\n      tag_169\n        /* \"@openzeppelin/contracts-upgradeable/utils/PausableUpgradeable.sol\":3657:3669  _msgSender() */\n      jump\t// in\n    tag_310:\n        /* \"@openzeppelin/contracts-upgradeable/utils/PausableUpgradeable.sol\":3648:3670  Unpaused(_msgSender()) */\n      mload(0x40)\n      tag_311\n      swap2\n      swap1\n      tag_98\n      jump\t// in\n    tag_311:\n      mload(0x40)\n      dup1\n      swap2\n      sub\n      swap1\n      log1\n        /* \"@openzeppelin/contracts-upgradeable/utils/PausableUpgradeable.sol\":3547:3677  {... */\n      pop\n        /* \"@openzeppelin/contracts-upgradeable/utils/PausableUpgradeable.sol\":3499:3677  function _unpause() internal virtual whenPaused {... */\n      jump\t// out\n        /* \"@openzeppelin/contracts/proxy/utils/UUPSUpgradeable.sol\":4328:4640  function _checkProxy() internal view virtual {... */\n    tag_189:\n        /* \"@openzeppelin/contracts/proxy/utils/UUPSUpgradeable.sol\":4417:4423  __self */\n      immutable(\"0xe3ad9d11ffe1b279ffae4d8ab5a61a2b100315674b05ff7368cdd57dfd3e130a\")\n        /* \"@openzeppelin/contracts/proxy/utils/UUPSUpgradeable.sol\":4400:4423  address(this) == __self */\n      0xffffffffffffffffffffffffffffffffffffffff\n      and\n        /* \"@openzeppelin/contracts/proxy/utils/UUPSUpgradeable.sol\":4408:4412  this */\n      address\n        /* \"@openzeppelin/contracts/proxy/utils/UUPSUpgradeable.sol\":4400:4423  address(this) == __self */\n      0xffffffffffffffffffffffffffffffffffffffff\n      and\n      eq\n        /* \"@openzeppelin/contracts/proxy/utils/UUPSUpgradeable.sol\":4400:4520  address(this) == __self || // Must be called through delegatecall... */\n      dup1\n      tag_313\n      jumpi\n      pop\n        /* \"@openzeppelin/contracts/proxy/utils/UUPSUpgradeable.sol\":4514:4520  __self */\n      immutable(\"0xe3ad9d11ffe1b279ffae4d8ab5a61a2b100315674b05ff7368cdd57dfd3e130a\")\n        /* \"@openzeppelin/contracts/proxy/utils/UUPSUpgradeable.sol\":4478:4520  ERC1967Utils.getImplementation() != __self */\n      0xffffffffffffffffffffffffffffffffffffffff\n      and\n        /* \"@openzeppelin/contracts/proxy/utils/UUPSUpgradeable.sol\":4478:4510  ERC1967Utils.getImplementation() */\n      tag_314\n        /* \"@openzeppelin/contracts/proxy/utils/UUPSUpgradeable.sol\":4478:4508  ERC1967Utils.getImplementation */\n      tag_315\n        /* \"@openzeppelin/contracts/proxy/utils/UUPSUpgradeable.sol\":4478:4510  ERC1967Utils.getImplementation() */\n      jump\t// in\n    tag_314:\n        /* \"@openzeppelin/contracts/proxy/utils/UUPSUpgradeable.sol\":4478:4520  ERC1967Utils.getImplementation() != __self */\n      0xffffffffffffffffffffffffffffffffffffffff\n      and\n      eq\n      iszero\n        /* \"@openzeppelin/contracts/proxy/utils/UUPSUpgradeable.sol\":4400:4520  address(this) == __self || // Must be called through delegatecall... */\n    tag_313:\n        /* \"@openzeppelin/contracts/proxy/utils/UUPSUpgradeable.sol\":4383:4634  if (... */\n      iszero\n      tag_316\n      jumpi\n        /* \"@openzeppelin/contracts/proxy/utils/UUPSUpgradeable.sol\":4594:4623  UUPSUnauthorizedCallContext() */\n      mload(0x40)\n      0xe07c8dba00000000000000000000000000000000000000000000000000000000\n      dup2\n      mstore\n      0x04\n      add\n      mload(0x40)\n      dup1\n      swap2\n      sub\n      swap1\n      revert\n        /* \"@openzeppelin/contracts/proxy/utils/UUPSUpgradeable.sol\":4383:4634  if (... */\n    tag_316:\n        /* \"@openzeppelin/contracts/proxy/utils/UUPSUpgradeable.sol\":4328:4640  function _checkProxy() internal view virtual {... */\n      jump\t// out\n        /* \"masterTemplate.sol\":3676:3760  function _authorizeUpgrade(address newImplementation) internal override onlyOwner {} */\n    tag_192:\n        /* \"@openzeppelin/contracts-upgradeable/access/OwnableUpgradeable.sol\":2355:2368  _checkOwner() */\n      tag_318\n        /* \"@openzeppelin/contracts-upgradeable/access/OwnableUpgradeable.sol\":2355:2366  _checkOwner */\n      tag_183\n        /* \"@openzeppelin/contracts-upgradeable/access/OwnableUpgradeable.sol\":2355:2368  _checkOwner() */\n      jump\t// in\n    tag_318:\n        /* \"masterTemplate.sol\":3676:3760  function _authorizeUpgrade(address newImplementation) internal override onlyOwner {} */\n      pop\n      jump\t// out\n        /* \"@openzeppelin/contracts/proxy/utils/UUPSUpgradeable.sol\":5782:6320  function _upgradeToAndCallUUPS(address newImplementation, bytes memory data) private {... */\n    tag_194:\n        /* \"@openzeppelin/contracts/proxy/utils/UUPSUpgradeable.sol\":5899:5916  newImplementation */\n      dup2\n        /* \"@openzeppelin/contracts/proxy/utils/UUPSUpgradeable.sol\":5881:5931  IERC1822Proxiable(newImplementation).proxiableUUID */\n      0xffffffffffffffffffffffffffffffffffffffff\n      and\n      0x52d1902d\n        /* \"@openzeppelin/contracts/proxy/utils/UUPSUpgradeable.sol\":5881:5933  IERC1822Proxiable(newImplementation).proxiableUUID() */\n      mload(0x40)\n      dup2\n      0xffffffff\n      and\n      0xe0\n      shl\n      dup2\n      mstore\n      0x04\n      add\n      0x20\n      mload(0x40)\n      dup1\n      dup4\n      sub\n      dup2\n      dup7\n      gas\n      staticcall\n      swap3\n      pop\n      pop\n      pop\n      dup1\n      iszero\n      tag_321\n      jumpi\n      pop\n      mload(0x40)\n      returndatasize\n      not(0x1f)\n      0x1f\n      dup3\n      add\n      and\n      dup3\n      add\n      dup1\n      0x40\n      mstore\n      pop\n      dup2\n      add\n      swap1\n      tag_322\n      swap2\n      swap1\n      tag_323\n      jump\t// in\n    tag_322:\n      0x01\n    tag_321:\n        /* \"@openzeppelin/contracts/proxy/utils/UUPSUpgradeable.sol\":5877:6314  try IERC1822Proxiable(newImplementation).proxiableUUID() returns (bytes32 slot) {... */\n      tag_324\n      jumpi\n        /* \"@openzeppelin/contracts/proxy/utils/UUPSUpgradeable.sol\":6285:6302  newImplementation */\n      dup2\n        /* \"@openzeppelin/contracts/proxy/utils/UUPSUpgradeable.sol\":6243:6303  ERC1967Utils.ERC1967InvalidImplementation(newImplementation) */\n      mload(0x40)\n      0x4c9c8ce300000000000000000000000000000000000000000000000000000000\n      dup2\n      mstore\n      0x04\n      add\n      tag_328\n      swap2\n      swap1\n      tag_98\n      jump\t// in\n    tag_328:\n      mload(0x40)\n      dup1\n      swap2\n      sub\n      swap1\n      revert\n        /* \"@openzeppelin/contracts/proxy/utils/UUPSUpgradeable.sol\":5877:6314  try IERC1822Proxiable(newImplementation).proxiableUUID() returns (bytes32 slot) {... */\n    tag_324:\n        /* \"@openzeppelin/contracts/proxy/ERC1967/ERC1967Utils.sol\":811:877  0x360894a13ba1a3210667c828492db98dca3e2076cc3735a920a3ca505d382bbc */\n      0x360894a13ba1a3210667c828492db98dca3e2076cc3735a920a3ca505d382bbc\n        /* \"@openzeppelin/contracts/proxy/utils/UUPSUpgradeable.sol\":5983:6015  ERC1967Utils.IMPLEMENTATION_SLOT */\n      0x00\n      shl\n        /* \"@openzeppelin/contracts/proxy/utils/UUPSUpgradeable.sol\":5975:5979  slot */\n      dup2\n        /* \"@openzeppelin/contracts/proxy/utils/UUPSUpgradeable.sol\":5975:6015  slot != ERC1967Utils.IMPLEMENTATION_SLOT */\n      eq\n        /* \"@openzeppelin/contracts/proxy/utils/UUPSUpgradeable.sol\":5971:6091  if (slot != ERC1967Utils.IMPLEMENTATION_SLOT) {... */\n      tag_330\n      jumpi\n        /* \"@openzeppelin/contracts/proxy/utils/UUPSUpgradeable.sol\":6071:6075  slot */\n      dup1\n        /* \"@openzeppelin/contracts/proxy/utils/UUPSUpgradeable.sol\":6042:6076  UUPSUnsupportedProxiableUUID(slot) */\n      mload(0x40)\n      0xaa1d49a400000000000000000000000000000000000000000000000000000000\n      dup2\n      mstore\n      0x04\n      add\n      tag_331\n      swap2\n      swap1\n      tag_73\n      jump\t// in\n    tag_331:\n      mload(0x40)\n      dup1\n      swap2\n      sub\n      swap1\n      revert\n        /* \"@openzeppelin/contracts/proxy/utils/UUPSUpgradeable.sol\":5971:6091  if (slot != ERC1967Utils.IMPLEMENTATION_SLOT) {... */\n    tag_330:\n        /* \"@openzeppelin/contracts/proxy/utils/UUPSUpgradeable.sol\":6104:6158  ERC1967Utils.upgradeToAndCall(newImplementation, data) */\n      tag_332\n        /* \"@openzeppelin/contracts/proxy/utils/UUPSUpgradeable.sol\":6134:6151  newImplementation */\n      dup4\n        /* \"@openzeppelin/contracts/proxy/utils/UUPSUpgradeable.sol\":6153:6157  data */\n      dup4\n        /* \"@openzeppelin/contracts/proxy/utils/UUPSUpgradeable.sol\":6104:6133  ERC1967Utils.upgradeToAndCall */\n      tag_333\n        /* \"@openzeppelin/contracts/proxy/utils/UUPSUpgradeable.sol\":6104:6158  ERC1967Utils.upgradeToAndCall(newImplementation, data) */\n      jump\t// in\n    tag_332:\n        /* \"@openzeppelin/contracts/proxy/utils/UUPSUpgradeable.sol\":5934:6169  returns (bytes32 slot) {... */\n      pop\n        /* \"@openzeppelin/contracts/proxy/utils/UUPSUpgradeable.sol\":5782:6320  function _upgradeToAndCallUUPS(address newImplementation, bytes memory data) private {... */\n      pop\n      pop\n      jump\t// out\n        /* \"@openzeppelin/contracts/proxy/utils/UUPSUpgradeable.sol\":4757:4970  function _checkNotDelegated() internal view virtual {... */\n    tag_197:\n        /* \"@openzeppelin/contracts/proxy/utils/UUPSUpgradeable.sol\":4840:4846  __self */\n      immutable(\"0xe3ad9d11ffe1b279ffae4d8ab5a61a2b100315674b05ff7368cdd57dfd3e130a\")\n        /* \"@openzeppelin/contracts/proxy/utils/UUPSUpgradeable.sol\":4823:4846  address(this) != __self */\n      0xffffffffffffffffffffffffffffffffffffffff\n      and\n        /* \"@openzeppelin/contracts/proxy/utils/UUPSUpgradeable.sol\":4831:4835  this */\n      address\n        /* \"@openzeppelin/contracts/proxy/utils/UUPSUpgradeable.sol\":4823:4846  address(this) != __self */\n      0xffffffffffffffffffffffffffffffffffffffff\n      and\n      eq\n        /* \"@openzeppelin/contracts/proxy/utils/UUPSUpgradeable.sol\":4819:4964  if (address(this) != __self) {... */\n      tag_335\n      jumpi\n        /* \"@openzeppelin/contracts/proxy/utils/UUPSUpgradeable.sol\":4924:4953  UUPSUnauthorizedCallContext() */\n      mload(0x40)\n      0xe07c8dba00000000000000000000000000000000000000000000000000000000\n      dup2\n      mstore\n      0x04\n      add\n      mload(0x40)\n      dup1\n      swap2\n      sub\n      swap1\n      revert\n        /* \"@openzeppelin/contracts/proxy/utils/UUPSUpgradeable.sol\":4819:4964  if (address(this) != __self) {... */\n    tag_335:\n        /* \"@openzeppelin/contracts/proxy/utils/UUPSUpgradeable.sol\":4757:4970  function _checkNotDelegated() internal view virtual {... */\n      jump\t// out\n        /* \"@openzeppelin/contracts-upgradeable/utils/PausableUpgradeable.sol\":1168:1330  function _getPausableStorage() private pure returns (PausableStorage storage $) {... */\n    tag_201:\n        /* \"@openzeppelin/contracts-upgradeable/utils/PausableUpgradeable.sol\":1221:1246  PausableStorage storage $ */\n      0x00\n        /* \"@openzeppelin/contracts-upgradeable/utils/PausableUpgradeable.sol\":1291:1314  PausableStorageLocation */\n      0xcd5ed15c6e187e77e9aee88184c21f4f2182ab5827cb3b7e07fbedcd63f03300\n        /* \"@openzeppelin/contracts-upgradeable/utils/PausableUpgradeable.sol\":1281:1314  $.slot := PausableStorageLocation */\n      swap1\n      pop\n        /* \"@openzeppelin/contracts-upgradeable/utils/PausableUpgradeable.sol\":1168:1330  function _getPausableStorage() private pure returns (PausableStorage storage $) {... */\n      swap1\n      jump\t// out\n        /* \"@openzeppelin/contracts-upgradeable/token/ERC20/ERC20Upgradeable.sol\":9181:9387  function _burn(address account, uint256 value) internal {... */\n    tag_206:\n        /* \"@openzeppelin/contracts-upgradeable/token/ERC20/ERC20Upgradeable.sol\":9270:9271  0 */\n      0x00\n        /* \"@openzeppelin/contracts-upgradeable/token/ERC20/ERC20Upgradeable.sol\":9251:9272  account == address(0) */\n      0xffffffffffffffffffffffffffffffffffffffff\n      and\n        /* \"@openzeppelin/contracts-upgradeable/token/ERC20/ERC20Upgradeable.sol\":9251:9258  account */\n      dup3\n        /* \"@openzeppelin/contracts-upgradeable/token/ERC20/ERC20Upgradeable.sol\":9251:9272  account == address(0) */\n      0xffffffffffffffffffffffffffffffffffffffff\n      and\n      sub\n        /* \"@openzeppelin/contracts-upgradeable/token/ERC20/ERC20Upgradeable.sol\":9247:9336  if (account == address(0)) {... */\n      tag_338\n      jumpi\n        /* \"@openzeppelin/contracts-upgradeable/token/ERC20/ERC20Upgradeable.sol\":9322:9323  0 */\n      0x00\n        /* \"@openzeppelin/contracts-upgradeable/token/ERC20/ERC20Upgradeable.sol\":9295:9325  ERC20InvalidSender(address(0)) */\n      mload(0x40)\n      0x96c6fd1e00000000000000000000000000000000000000000000000000000000\n      dup2\n      mstore\n      0x04\n      add\n      tag_339\n      swap2\n      swap1\n      tag_98\n      jump\t// in\n    tag_339:\n      mload(0x40)\n      dup1\n      swap2\n      sub\n      swap1\n      revert\n        /* \"@openzeppelin/contracts-upgradeable/token/ERC20/ERC20Upgradeable.sol\":9247:9336  if (account == address(0)) {... */\n    tag_338:\n        /* \"@openzeppelin/contracts-upgradeable/token/ERC20/ERC20Upgradeable.sol\":9345:9380  _update(account, address(0), value) */\n      tag_340\n        /* \"@openzeppelin/contracts-upgradeable/token/ERC20/ERC20Upgradeable.sol\":9353:9360  account */\n      dup3\n        /* \"@openzeppelin/contracts-upgradeable/token/ERC20/ERC20Upgradeable.sol\":9370:9371  0 */\n      0x00\n        /* \"@openzeppelin/contracts-upgradeable/token/ERC20/ERC20Upgradeable.sol\":9374:9379  value */\n      dup4\n        /* \"@openzeppelin/contracts-upgradeable/token/ERC20/ERC20Upgradeable.sol\":9345:9352  _update */\n      tag_298\n        /* \"@openzeppelin/contracts-upgradeable/token/ERC20/ERC20Upgradeable.sol\":9345:9380  _update(account, address(0), value) */\n      jump\t// in\n    tag_340:\n        /* \"@openzeppelin/contracts-upgradeable/token/ERC20/ERC20Upgradeable.sol\":9181:9387  function _burn(address account, uint256 value) internal {... */\n      pop\n      pop\n      jump\t// out\n        /* \"@openzeppelin/contracts-upgradeable/access/OwnableUpgradeable.sol\":3795:4043  function _transferOwnership(address newOwner) internal virtual {... */\n    tag_213:\n        /* \"@openzeppelin/contracts-upgradeable/access/OwnableUpgradeable.sol\":3868:3892  OwnableStorage storage $ */\n      0x00\n        /* \"@openzeppelin/contracts-upgradeable/access/OwnableUpgradeable.sol\":3895:3915  _getOwnableStorage() */\n      tag_342\n        /* \"@openzeppelin/contracts-upgradeable/access/OwnableUpgradeable.sol\":3895:3913  _getOwnableStorage */\n      tag_221\n        /* \"@openzeppelin/contracts-upgradeable/access/OwnableUpgradeable.sol\":3895:3915  _getOwnableStorage() */\n      jump\t// in\n    tag_342:\n        /* \"@openzeppelin/contracts-upgradeable/access/OwnableUpgradeable.sol\":3868:3915  OwnableStorage storage $ = _getOwnableStorage() */\n      swap1\n      pop\n        /* \"@openzeppelin/contracts-upgradeable/access/OwnableUpgradeable.sol\":3925:3941  address oldOwner */\n      0x00\n        /* \"@openzeppelin/contracts-upgradeable/access/OwnableUpgradeable.sol\":3944:3945  $ */\n      dup2\n        /* \"@openzeppelin/contracts-upgradeable/access/OwnableUpgradeable.sol\":3944:3952  $._owner */\n      0x00\n      add\n      0x00\n      swap1\n      sload\n      swap1\n      0x0100\n      exp\n      swap1\n      div\n      0xffffffffffffffffffffffffffffffffffffffff\n      and\n        /* \"@openzeppelin/contracts-upgradeable/access/OwnableUpgradeable.sol\":3925:3952  address oldOwner = $._owner */\n      swap1\n      pop\n        /* \"@openzeppelin/contracts-upgradeable/access/OwnableUpgradeable.sol\":3973:3981  newOwner */\n      dup3\n        /* \"@openzeppelin/contracts-upgradeable/access/OwnableUpgradeable.sol\":3962:3963  $ */\n      dup3\n        /* \"@openzeppelin/contracts-upgradeable/access/OwnableUpgradeable.sol\":3962:3970  $._owner */\n      0x00\n      add\n      0x00\n        /* \"@openzeppelin/contracts-upgradeable/access/OwnableUpgradeable.sol\":3962:3981  $._owner = newOwner */\n      0x0100\n      exp\n      dup2\n      sload\n      dup2\n      0xffffffffffffffffffffffffffffffffffffffff\n      mul\n      not\n      and\n      swap1\n      dup4\n      0xffffffffffffffffffffffffffffffffffffffff\n      and\n      mul\n      or\n      swap1\n      sstore\n      pop\n        /* \"@openzeppelin/contracts-upgradeable/access/OwnableUpgradeable.sol\":4027:4035  newOwner */\n      dup3\n        /* \"@openzeppelin/contracts-upgradeable/access/OwnableUpgradeable.sol\":3996:4036  OwnershipTransferred(oldOwner, newOwner) */\n      0xffffffffffffffffffffffffffffffffffffffff\n      and\n        /* \"@openzeppelin/contracts-upgradeable/access/OwnableUpgradeable.sol\":4017:4025  oldOwner */\n      dup2\n        /* \"@openzeppelin/contracts-upgradeable/access/OwnableUpgradeable.sol\":3996:4036  OwnershipTransferred(oldOwner, newOwner) */\n      0xffffffffffffffffffffffffffffffffffffffff\n      and\n      0x8be0079c531659141344cd1fd0a4f28419497f9722a3daafe3b4186f6b6457e0\n      mload(0x40)\n      mload(0x40)\n      dup1\n      swap2\n      sub\n      swap1\n      log3\n        /* \"@openzeppelin/contracts-upgradeable/access/OwnableUpgradeable.sol\":3858:4043  {... */\n      pop\n      pop\n        /* \"@openzeppelin/contracts-upgradeable/access/OwnableUpgradeable.sol\":3795:4043  function _transferOwnership(address newOwner) internal virtual {... */\n      pop\n      jump\t// out\n        /* \"@openzeppelin/contracts-upgradeable/utils/PausableUpgradeable.sol\":3191:3367  function _pause() internal virtual whenNotPaused {... */\n    tag_218:\n        /* \"@openzeppelin/contracts-upgradeable/utils/PausableUpgradeable.sol\":2000:2019  _requireNotPaused() */\n      tag_344\n        /* \"@openzeppelin/contracts-upgradeable/utils/PausableUpgradeable.sol\":2000:2017  _requireNotPaused */\n      tag_345\n        /* \"@openzeppelin/contracts-upgradeable/utils/PausableUpgradeable.sol\":2000:2019  _requireNotPaused() */\n      jump\t// in\n    tag_344:\n        /* \"@openzeppelin/contracts-upgradeable/utils/PausableUpgradeable.sol\":3250:3275  PausableStorage storage $ */\n      0x00\n        /* \"@openzeppelin/contracts-upgradeable/utils/PausableUpgradeable.sol\":3278:3299  _getPausableStorage() */\n      tag_347\n        /* \"@openzeppelin/contracts-upgradeable/utils/PausableUpgradeable.sol\":3278:3297  _getPausableStorage */\n      tag_201\n        /* \"@openzeppelin/contracts-upgradeable/utils/PausableUpgradeable.sol\":3278:3299  _getPausableStorage() */\n      jump\t// in\n    tag_347:\n        /* \"@openzeppelin/contracts-upgradeable/utils/PausableUpgradeable.sol\":3250:3299  PausableStorage storage $ = _getPausableStorage() */\n      swap1\n      pop\n        /* \"@openzeppelin/contracts-upgradeable/utils/PausableUpgradeable.sol\":3321:3325  true */\n      0x01\n        /* \"@openzeppelin/contracts-upgradeable/utils/PausableUpgradeable.sol\":3309:3310  $ */\n      dup2\n        /* \"@openzeppelin/contracts-upgradeable/utils/PausableUpgradeable.sol\":3309:3318  $._paused */\n      0x00\n      add\n      0x00\n        /* \"@openzeppelin/contracts-upgradeable/utils/PausableUpgradeable.sol\":3309:3325  $._paused = true */\n      0x0100\n      exp\n      dup2\n      sload\n      dup2\n      0xff\n      mul\n      not\n      and\n      swap1\n      dup4\n      iszero\n      iszero\n      mul\n      or\n      swap1\n      sstore\n      pop\n        /* \"@openzeppelin/contracts-upgradeable/utils/PausableUpgradeable.sol\":3340:3360  Paused(_msgSender()) */\n      0x62e78cea01bee320cd4e420270b5ea74000d11b0c9f74754ebdbfc544b05a258\n        /* \"@openzeppelin/contracts-upgradeable/utils/PausableUpgradeable.sol\":3347:3359  _msgSender() */\n      tag_348\n        /* \"@openzeppelin/contracts-upgradeable/utils/PausableUpgradeable.sol\":3347:3357  _msgSender */\n      tag_169\n        /* \"@openzeppelin/contracts-upgradeable/utils/PausableUpgradeable.sol\":3347:3359  _msgSender() */\n      jump\t// in\n    tag_348:\n        /* \"@openzeppelin/contracts-upgradeable/utils/PausableUpgradeable.sol\":3340:3360  Paused(_msgSender()) */\n      mload(0x40)\n      tag_349\n      swap2\n      swap1\n      tag_98\n      jump\t// in\n    tag_349:\n      mload(0x40)\n      dup1\n      swap2\n      sub\n      swap1\n      log1\n        /* \"@openzeppelin/contracts-upgradeable/utils/PausableUpgradeable.sol\":3240:3367  {... */\n      pop\n        /* \"@openzeppelin/contracts-upgradeable/utils/PausableUpgradeable.sol\":3191:3367  function _pause() internal virtual whenNotPaused {... */\n      jump\t// out\n        /* \"@openzeppelin/contracts-upgradeable/access/OwnableUpgradeable.sol\":1213:1372  function _getOwnableStorage() private pure returns (OwnableStorage storage $) {... */\n    tag_221:\n        /* \"@openzeppelin/contracts-upgradeable/access/OwnableUpgradeable.sol\":1265:1289  OwnableStorage storage $ */\n      0x00\n        /* \"@openzeppelin/contracts-upgradeable/access/OwnableUpgradeable.sol\":1334:1356  OwnableStorageLocation */\n      0x9016d09d72d40fdae2fd8ceac6b6234c7706214fd39c1cd1e609a0528c199300\n        /* \"@openzeppelin/contracts-upgradeable/access/OwnableUpgradeable.sol\":1324:1356  $.slot := OwnableStorageLocation */\n      swap1\n      pop\n        /* \"@openzeppelin/contracts-upgradeable/access/OwnableUpgradeable.sol\":1213:1372  function _getOwnableStorage() private pure returns (OwnableStorage storage $) {... */\n      swap1\n      jump\t// out\n        /* \"@openzeppelin/contracts-upgradeable/token/ERC20/ERC20Upgradeable.sol\":8655:8863  function _mint(address account, uint256 value) internal {... */\n    tag_251:\n        /* \"@openzeppelin/contracts-upgradeable/token/ERC20/ERC20Upgradeable.sol\":8744:8745  0 */\n      0x00\n        /* \"@openzeppelin/contracts-upgradeable/token/ERC20/ERC20Upgradeable.sol\":8725:8746  account == address(0) */\n      0xffffffffffffffffffffffffffffffffffffffff\n      and\n        /* \"@openzeppelin/contracts-upgradeable/token/ERC20/ERC20Upgradeable.sol\":8725:8732  account */\n      dup3\n        /* \"@openzeppelin/contracts-upgradeable/token/ERC20/ERC20Upgradeable.sol\":8725:8746  account == address(0) */\n      0xffffffffffffffffffffffffffffffffffffffff\n      and\n      sub\n        /* \"@openzeppelin/contracts-upgradeable/token/ERC20/ERC20Upgradeable.sol\":8721:8812  if (account == address(0)) {... */\n      tag_352\n      jumpi\n        /* \"@openzeppelin/contracts-upgradeable/token/ERC20/ERC20Upgradeable.sol\":8798:8799  0 */\n      0x00\n        /* \"@openzeppelin/contracts-upgradeable/token/ERC20/ERC20Upgradeable.sol\":8769:8801  ERC20InvalidReceiver(address(0)) */\n      mload(0x40)\n      0xec442f0500000000000000000000000000000000000000000000000000000000\n      dup2\n      mstore\n      0x04\n      add\n      tag_353\n      swap2\n      swap1\n      tag_98\n      jump\t// in\n    tag_353:\n      mload(0x40)\n      dup1\n      swap2\n      sub\n      swap1\n      revert\n        /* \"@openzeppelin/contracts-upgradeable/token/ERC20/ERC20Upgradeable.sol\":8721:8812  if (account == address(0)) {... */\n    tag_352:\n        /* \"@openzeppelin/contracts-upgradeable/token/ERC20/ERC20Upgradeable.sol\":8821:8856  _update(address(0), account, value) */\n      tag_354\n        /* \"@openzeppelin/contracts-upgradeable/token/ERC20/ERC20Upgradeable.sol\":8837:8838  0 */\n      0x00\n        /* \"@openzeppelin/contracts-upgradeable/token/ERC20/ERC20Upgradeable.sol\":8841:8848  account */\n      dup4\n        /* \"@openzeppelin/contracts-upgradeable/token/ERC20/ERC20Upgradeable.sol\":8850:8855  value */\n      dup4\n        /* \"@openzeppelin/contracts-upgradeable/token/ERC20/ERC20Upgradeable.sol\":8821:8828  _update */\n      tag_298\n        /* \"@openzeppelin/contracts-upgradeable/token/ERC20/ERC20Upgradeable.sol\":8821:8856  _update(address(0), account, value) */\n      jump\t// in\n    tag_354:\n        /* \"@openzeppelin/contracts-upgradeable/token/ERC20/ERC20Upgradeable.sol\":8655:8863  function _mint(address account, uint256 value) internal {... */\n      pop\n      pop\n      jump\t// out\n        /* \"@openzeppelin/contracts/proxy/utils/Initializable.sol\":8819:8941  function _initializableStorageSlot() internal pure virtual returns (bytes32) {... */\n    tag_266:\n        /* \"@openzeppelin/contracts/proxy/utils/Initializable.sol\":8887:8894  bytes32 */\n      0x00\n        /* \"@openzeppelin/contracts/proxy/utils/Initializable.sol\":3147:3213  0xf0c57e16840df040f15088dc2f81fe391c3923bec73e23a9662efc9c229c6a00 */\n      0xf0c57e16840df040f15088dc2f81fe391c3923bec73e23a9662efc9c229c6a00\n        /* \"@openzeppelin/contracts/proxy/utils/Initializable.sol\":8913:8934  INITIALIZABLE_STORAGE */\n      0x00\n      shl\n        /* \"@openzeppelin/contracts/proxy/utils/Initializable.sol\":8906:8934  return INITIALIZABLE_STORAGE */\n      swap1\n      pop\n        /* \"@openzeppelin/contracts/proxy/utils/Initializable.sol\":8819:8941  function _initializableStorageSlot() internal pure virtual returns (bytes32) {... */\n      swap1\n      jump\t// out\n        /* \"@openzeppelin/contracts/proxy/utils/Initializable.sol\":7082:7223  function _checkInitializing() internal view virtual {... */\n    tag_269:\n        /* \"@openzeppelin/contracts/proxy/utils/Initializable.sol\":7149:7166  _isInitializing() */\n      tag_357\n        /* \"@openzeppelin/contracts/proxy/utils/Initializable.sol\":7149:7164  _isInitializing */\n      tag_358\n        /* \"@openzeppelin/contracts/proxy/utils/Initializable.sol\":7149:7166  _isInitializing() */\n      jump\t// in\n    tag_357:\n        /* \"@openzeppelin/contracts/proxy/utils/Initializable.sol\":7144:7217  if (!_isInitializing()) {... */\n      tag_359\n      jumpi\n        /* \"@openzeppelin/contracts/proxy/utils/Initializable.sol\":7189:7206  NotInitializing() */\n      mload(0x40)\n      0xd7e6bcf800000000000000000000000000000000000000000000000000000000\n      dup2\n      mstore\n      0x04\n      add\n      mload(0x40)\n      dup1\n      swap2\n      sub\n      swap1\n      revert\n        /* \"@openzeppelin/contracts/proxy/utils/Initializable.sol\":7144:7217  if (!_isInitializing()) {... */\n    tag_359:\n        /* \"@openzeppelin/contracts/proxy/utils/Initializable.sol\":7082:7223  function _checkInitializing() internal view virtual {... */\n      jump\t// out\n        /* \"@openzeppelin/contracts-upgradeable/token/ERC20/ERC20Upgradeable.sol\":2434:2650  function __ERC20_init_unchained(string memory name_, string memory symbol_) internal onlyInitializing {... */\n    tag_272:\n        /* \"@openzeppelin/contracts/proxy/utils/Initializable.sol\":6929:6949  _checkInitializing() */\n      tag_361\n        /* \"@openzeppelin/contracts/proxy/utils/Initializable.sol\":6929:6947  _checkInitializing */\n      tag_269\n        /* \"@openzeppelin/contracts/proxy/utils/Initializable.sol\":6929:6949  _checkInitializing() */\n      jump\t// in\n    tag_361:\n        /* \"@openzeppelin/contracts-upgradeable/token/ERC20/ERC20Upgradeable.sol\":2546:2568  ERC20Storage storage $ */\n      0x00\n        /* \"@openzeppelin/contracts-upgradeable/token/ERC20/ERC20Upgradeable.sol\":2571:2589  _getERC20Storage() */\n      tag_363\n        /* \"@openzeppelin/contracts-upgradeable/token/ERC20/ERC20Upgradeable.sol\":2571:2587  _getERC20Storage */\n      tag_142\n        /* \"@openzeppelin/contracts-upgradeable/token/ERC20/ERC20Upgradeable.sol\":2571:2589  _getERC20Storage() */\n      jump\t// in\n    tag_363:\n        /* \"@openzeppelin/contracts-upgradeable/token/ERC20/ERC20Upgradeable.sol\":2546:2589  ERC20Storage storage $ = _getERC20Storage() */\n      swap1\n      pop\n        /* \"@openzeppelin/contracts-upgradeable/token/ERC20/ERC20Upgradeable.sol\":2609:2614  name_ */\n      dup3\n        /* \"@openzeppelin/contracts-upgradeable/token/ERC20/ERC20Upgradeable.sol\":2599:2600  $ */\n      dup2\n        /* \"@openzeppelin/contracts-upgradeable/token/ERC20/ERC20Upgradeable.sol\":2599:2606  $._name */\n      0x03\n      add\n        /* \"@openzeppelin/contracts-upgradeable/token/ERC20/ERC20Upgradeable.sol\":2599:2614  $._name = name_ */\n      swap1\n      dup2\n      tag_364\n      swap2\n      swap1\n      tag_365\n      jump\t// in\n    tag_364:\n      pop\n        /* \"@openzeppelin/contracts-upgradeable/token/ERC20/ERC20Upgradeable.sol\":2636:2643  symbol_ */\n      dup2\n        /* \"@openzeppelin/contracts-upgradeable/token/ERC20/ERC20Upgradeable.sol\":2624:2625  $ */\n      dup2\n        /* \"@openzeppelin/contracts-upgradeable/token/ERC20/ERC20Upgradeable.sol\":2624:2633  $._symbol */\n      0x04\n      add\n        /* \"@openzeppelin/contracts-upgradeable/token/ERC20/ERC20Upgradeable.sol\":2624:2643  $._symbol = symbol_ */\n      swap1\n      dup2\n      tag_366\n      swap2\n      swap1\n      tag_365\n      jump\t// in\n    tag_366:\n      pop\n        /* \"@openzeppelin/contracts-upgradeable/token/ERC20/ERC20Upgradeable.sol\":2536:2650  {... */\n      pop\n        /* \"@openzeppelin/contracts-upgradeable/token/ERC20/ERC20Upgradeable.sol\":2434:2650  function __ERC20_init_unchained(string memory name_, string memory symbol_) internal onlyInitializing {... */\n      pop\n      pop\n      jump\t// out\n        /* \"@openzeppelin/contracts-upgradeable/access/OwnableUpgradeable.sol\":2001:2236  function __Ownable_init_unchained(address initialOwner) internal onlyInitializing {... */\n    tag_280:\n        /* \"@openzeppelin/contracts/proxy/utils/Initializable.sol\":6929:6949  _checkInitializing() */\n      tag_368\n        /* \"@openzeppelin/contracts/proxy/utils/Initializable.sol\":6929:6947  _checkInitializing */\n      tag_269\n        /* \"@openzeppelin/contracts/proxy/utils/Initializable.sol\":6929:6949  _checkInitializing() */\n      jump\t// in\n    tag_368:\n        /* \"@openzeppelin/contracts-upgradeable/access/OwnableUpgradeable.sol\":2121:2122  0 */\n      0x00\n        /* \"@openzeppelin/contracts-upgradeable/access/OwnableUpgradeable.sol\":2097:2123  initialOwner == address(0) */\n      0xffffffffffffffffffffffffffffffffffffffff\n      and\n        /* \"@openzeppelin/contracts-upgradeable/access/OwnableUpgradeable.sol\":2097:2109  initialOwner */\n      dup2\n        /* \"@openzeppelin/contracts-upgradeable/access/OwnableUpgradeable.sol\":2097:2123  initialOwner == address(0) */\n      0xffffffffffffffffffffffffffffffffffffffff\n      and\n      sub\n        /* \"@openzeppelin/contracts-upgradeable/access/OwnableUpgradeable.sol\":2093:2188  if (initialOwner == address(0)) {... */\n      tag_370\n      jumpi\n        /* \"@openzeppelin/contracts-upgradeable/access/OwnableUpgradeable.sol\":2174:2175  0 */\n      0x00\n        /* \"@openzeppelin/contracts-upgradeable/access/OwnableUpgradeable.sol\":2146:2177  OwnableInvalidOwner(address(0)) */\n      mload(0x40)\n      0x1e4fbdf700000000000000000000000000000000000000000000000000000000\n      dup2\n      mstore\n      0x04\n      add\n      tag_371\n      swap2\n      swap1\n      tag_98\n      jump\t// in\n    tag_371:\n      mload(0x40)\n      dup1\n      swap2\n      sub\n      swap1\n      revert\n        /* \"@openzeppelin/contracts-upgradeable/access/OwnableUpgradeable.sol\":2093:2188  if (initialOwner == address(0)) {... */\n    tag_370:\n        /* \"@openzeppelin/contracts-upgradeable/access/OwnableUpgradeable.sol\":2197:2229  _transferOwnership(initialOwner) */\n      tag_372\n        /* \"@openzeppelin/contracts-upgradeable/access/OwnableUpgradeable.sol\":2216:2228  initialOwner */\n      dup2\n        /* \"@openzeppelin/contracts-upgradeable/access/OwnableUpgradeable.sol\":2197:2215  _transferOwnership */\n      tag_213\n        /* \"@openzeppelin/contracts-upgradeable/access/OwnableUpgradeable.sol\":2197:2229  _transferOwnership(initialOwner) */\n      jump\t// in\n    tag_372:\n        /* \"@openzeppelin/contracts-upgradeable/access/OwnableUpgradeable.sol\":2001:2236  function __Ownable_init_unchained(address initialOwner) internal onlyInitializing {... */\n      pop\n      jump\t// out\n        /* \"@openzeppelin/contracts-upgradeable/token/ERC20/ERC20Upgradeable.sol\":10900:11387  function _approve(address owner, address spender, uint256 value, bool emitEvent) internal virtual {... */\n    tag_284:\n        /* \"@openzeppelin/contracts-upgradeable/token/ERC20/ERC20Upgradeable.sol\":11008:11030  ERC20Storage storage $ */\n      0x00\n        /* \"@openzeppelin/contracts-upgradeable/token/ERC20/ERC20Upgradeable.sol\":11033:11051  _getERC20Storage() */\n      tag_374\n        /* \"@openzeppelin/contracts-upgradeable/token/ERC20/ERC20Upgradeable.sol\":11033:11049  _getERC20Storage */\n      tag_142\n        /* \"@openzeppelin/contracts-upgradeable/token/ERC20/ERC20Upgradeable.sol\":11033:11051  _getERC20Storage() */\n      jump\t// in\n    tag_374:\n        /* \"@openzeppelin/contracts-upgradeable/token/ERC20/ERC20Upgradeable.sol\":11008:11051  ERC20Storage storage $ = _getERC20Storage() */\n      swap1\n      pop\n        /* \"@openzeppelin/contracts-upgradeable/token/ERC20/ERC20Upgradeable.sol\":11082:11083  0 */\n      0x00\n        /* \"@openzeppelin/contracts-upgradeable/token/ERC20/ERC20Upgradeable.sol\":11065:11084  owner == address(0) */\n      0xffffffffffffffffffffffffffffffffffffffff\n      and\n        /* \"@openzeppelin/contracts-upgradeable/token/ERC20/ERC20Upgradeable.sol\":11065:11070  owner */\n      dup6\n        /* \"@openzeppelin/contracts-upgradeable/token/ERC20/ERC20Upgradeable.sol\":11065:11084  owner == address(0) */\n      0xffffffffffffffffffffffffffffffffffffffff\n      and\n      sub\n        /* \"@openzeppelin/contracts-upgradeable/token/ERC20/ERC20Upgradeable.sol\":11061:11150  if (owner == address(0)) {... */\n      tag_375\n      jumpi\n        /* \"@openzeppelin/contracts-upgradeable/token/ERC20/ERC20Upgradeable.sol\":11136:11137  0 */\n      0x00\n        /* \"@openzeppelin/contracts-upgradeable/token/ERC20/ERC20Upgradeable.sol\":11107:11139  ERC20InvalidApprover(address(0)) */\n      mload(0x40)\n      0xe602df0500000000000000000000000000000000000000000000000000000000\n      dup2\n      mstore\n      0x04\n      add\n      tag_376\n      swap2\n      swap1\n      tag_98\n      jump\t// in\n    tag_376:\n      mload(0x40)\n      dup1\n      swap2\n      sub\n      swap1\n      revert\n        /* \"@openzeppelin/contracts-upgradeable/token/ERC20/ERC20Upgradeable.sol\":11061:11150  if (owner == address(0)) {... */\n    tag_375:\n        /* \"@openzeppelin/contracts-upgradeable/token/ERC20/ERC20Upgradeable.sol\":11182:11183  0 */\n      0x00\n        /* \"@openzeppelin/contracts-upgradeable/token/ERC20/ERC20Upgradeable.sol\":11163:11184  spender == address(0) */\n      0xffffffffffffffffffffffffffffffffffffffff\n      and\n        /* \"@openzeppelin/contracts-upgradeable/token/ERC20/ERC20Upgradeable.sol\":11163:11170  spender */\n      dup5\n        /* \"@openzeppelin/contracts-upgradeable/token/ERC20/ERC20Upgradeable.sol\":11163:11184  spender == address(0) */\n      0xffffffffffffffffffffffffffffffffffffffff\n      and\n      sub\n        /* \"@openzeppelin/contracts-upgradeable/token/ERC20/ERC20Upgradeable.sol\":11159:11249  if (spender == address(0)) {... */\n      tag_377\n      jumpi\n        /* \"@openzeppelin/contracts-upgradeable/token/ERC20/ERC20Upgradeable.sol\":11235:11236  0 */\n      0x00\n        /* \"@openzeppelin/contracts-upgradeable/token/ERC20/ERC20Upgradeable.sol\":11207:11238  ERC20InvalidSpender(address(0)) */\n      mload(0x40)\n      0x94280d6200000000000000000000000000000000000000000000000000000000\n      dup2\n      mstore\n      0x04\n      add\n      tag_378\n      swap2\n      swap1\n      tag_98\n      jump\t// in\n    tag_378:\n      mload(0x40)\n      dup1\n      swap2\n      sub\n      swap1\n      revert\n        /* \"@openzeppelin/contracts-upgradeable/token/ERC20/ERC20Upgradeable.sol\":11159:11249  if (spender == address(0)) {... */\n    tag_377:\n        /* \"@openzeppelin/contracts-upgradeable/token/ERC20/ERC20Upgradeable.sol\":11290:11295  value */\n      dup3\n        /* \"@openzeppelin/contracts-upgradeable/token/ERC20/ERC20Upgradeable.sol\":11258:11259  $ */\n      dup2\n        /* \"@openzeppelin/contracts-upgradeable/token/ERC20/ERC20Upgradeable.sol\":11258:11271  $._allowances */\n      0x01\n      add\n        /* \"@openzeppelin/contracts-upgradeable/token/ERC20/ERC20Upgradeable.sol\":11258:11278  $._allowances[owner] */\n      0x00\n        /* \"@openzeppelin/contracts-upgradeable/token/ERC20/ERC20Upgradeable.sol\":11272:11277  owner */\n      dup8\n        /* \"@openzeppelin/contracts-upgradeable/token/ERC20/ERC20Upgradeable.sol\":11258:11278  $._allowances[owner] */\n      0xffffffffffffffffffffffffffffffffffffffff\n      and\n      0xffffffffffffffffffffffffffffffffffffffff\n      and\n      dup2\n      mstore\n      0x20\n      add\n      swap1\n      dup2\n      mstore\n      0x20\n      add\n      0x00\n      keccak256\n        /* \"@openzeppelin/contracts-upgradeable/token/ERC20/ERC20Upgradeable.sol\":11258:11287  $._allowances[owner][spender] */\n      0x00\n        /* \"@openzeppelin/contracts-upgradeable/token/ERC20/ERC20Upgradeable.sol\":11279:11286  spender */\n      dup7\n        /* \"@openzeppelin/contracts-upgradeable/token/ERC20/ERC20Upgradeable.sol\":11258:11287  $._allowances[owner][spender] */\n      0xffffffffffffffffffffffffffffffffffffffff\n      and\n      0xffffffffffffffffffffffffffffffffffffffff\n      and\n      dup2\n      mstore\n      0x20\n      add\n      swap1\n      dup2\n      mstore\n      0x20\n      add\n      0x00\n      keccak256\n        /* \"@openzeppelin/contracts-upgradeable/token/ERC20/ERC20Upgradeable.sol\":11258:11295  $._allowances[owner][spender] = value */\n      dup2\n      swap1\n      sstore\n      pop\n        /* \"@openzeppelin/contracts-upgradeable/token/ERC20/ERC20Upgradeable.sol\":11309:11318  emitEvent */\n      dup2\n        /* \"@openzeppelin/contracts-upgradeable/token/ERC20/ERC20Upgradeable.sol\":11305:11381  if (emitEvent) {... */\n      iszero\n      tag_379\n      jumpi\n        /* \"@openzeppelin/contracts-upgradeable/token/ERC20/ERC20Upgradeable.sol\":11355:11362  spender */\n      dup4\n        /* \"@openzeppelin/contracts-upgradeable/token/ERC20/ERC20Upgradeable.sol\":11339:11370  Approval(owner, spender, value) */\n      0xffffffffffffffffffffffffffffffffffffffff\n      and\n        /* \"@openzeppelin/contracts-upgradeable/token/ERC20/ERC20Upgradeable.sol\":11348:11353  owner */\n      dup6\n        /* \"@openzeppelin/contracts-upgradeable/token/ERC20/ERC20Upgradeable.sol\":11339:11370  Approval(owner, spender, value) */\n      0xffffffffffffffffffffffffffffffffffffffff\n      and\n      0x8c5be1e5ebec7d5bd14f71427d1e84f3dd0314c0f7b2291e5b200ac8c7c3b925\n        /* \"@openzeppelin/contracts-upgradeable/token/ERC20/ERC20Upgradeable.sol\":11364:11369  value */\n      dup6\n        /* \"@openzeppelin/contracts-upgradeable/token/ERC20/ERC20Upgradeable.sol\":11339:11370  Approval(owner, spender, value) */\n      mload(0x40)\n      tag_380\n      swap2\n      swap1\n      tag_50\n      jump\t// in\n    tag_380:\n      mload(0x40)\n      dup1\n      swap2\n      sub\n      swap1\n      log3\n        /* \"@openzeppelin/contracts-upgradeable/token/ERC20/ERC20Upgradeable.sol\":11305:11381  if (emitEvent) {... */\n    tag_379:\n        /* \"@openzeppelin/contracts-upgradeable/token/ERC20/ERC20Upgradeable.sol\":10998:11387  {... */\n      pop\n        /* \"@openzeppelin/contracts-upgradeable/token/ERC20/ERC20Upgradeable.sol\":10900:11387  function _approve(address owner, address spender, uint256 value, bool emitEvent) internal virtual {... */\n      pop\n      pop\n      pop\n      pop\n      jump\t// out\n        /* \"masterTemplate.sol\":3491:3670  function _update(address from, address to, uint256 value)... */\n    tag_298:\n        /* \"masterTemplate.sol\":3633:3663  super._update(from, to, value) */\n      tag_382\n        /* \"masterTemplate.sol\":3647:3651  from */\n      dup4\n        /* \"masterTemplate.sol\":3653:3655  to */\n      dup4\n        /* \"masterTemplate.sol\":3657:3662  value */\n      dup4\n        /* \"masterTemplate.sol\":3633:3646  super._update */\n      tag_383\n        /* \"masterTemplate.sol\":3633:3663  super._update(from, to, value) */\n      jump\t// in\n    tag_382:\n        /* \"masterTemplate.sol\":3491:3670  function _update(address from, address to, uint256 value)... */\n      pop\n      pop\n      pop\n      jump\t// out\n        /* \"@openzeppelin/contracts-upgradeable/utils/PausableUpgradeable.sol\":2930:3056  function _requirePaused() internal view virtual {... */\n    tag_307:\n        /* \"@openzeppelin/contracts-upgradeable/utils/PausableUpgradeable.sol\":2993:3001  paused() */\n      tag_385\n        /* \"@openzeppelin/contracts-upgradeable/utils/PausableUpgradeable.sol\":2993:2999  paused */\n      tag_76\n        /* \"@openzeppelin/contracts-upgradeable/utils/PausableUpgradeable.sol\":2993:3001  paused() */\n      jump\t// in\n    tag_385:\n        /* \"@openzeppelin/contracts-upgradeable/utils/PausableUpgradeable.sol\":2988:3050  if (!paused()) {... */\n      tag_386\n      jumpi\n        /* \"@openzeppelin/contracts-upgradeable/utils/PausableUpgradeable.sol\":3024:3039  ExpectedPause() */\n      mload(0x40)\n      0x8dfc202b00000000000000000000000000000000000000000000000000000000\n      dup2\n      mstore\n      0x04\n      add\n      mload(0x40)\n      dup1\n      swap2\n      sub\n      swap1\n      revert\n        /* \"@openzeppelin/contracts-upgradeable/utils/PausableUpgradeable.sol\":2988:3050  if (!paused()) {... */\n    tag_386:\n        /* \"@openzeppelin/contracts-upgradeable/utils/PausableUpgradeable.sol\":2930:3056  function _requirePaused() internal view virtual {... */\n      jump\t// out\n        /* \"@openzeppelin/contracts/proxy/ERC1967/ERC1967Utils.sol\":1441:1579  function getImplementation() internal view returns (address) {... */\n    tag_315:\n        /* \"@openzeppelin/contracts/proxy/ERC1967/ERC1967Utils.sol\":1493:1500  address */\n      0x00\n        /* \"@openzeppelin/contracts/proxy/ERC1967/ERC1967Utils.sol\":1519:1566  StorageSlot.getAddressSlot(IMPLEMENTATION_SLOT) */\n      tag_388\n        /* \"@openzeppelin/contracts/proxy/ERC1967/ERC1967Utils.sol\":811:877  0x360894a13ba1a3210667c828492db98dca3e2076cc3735a920a3ca505d382bbc */\n      0x360894a13ba1a3210667c828492db98dca3e2076cc3735a920a3ca505d382bbc\n        /* \"@openzeppelin/contracts/proxy/ERC1967/ERC1967Utils.sol\":1546:1565  IMPLEMENTATION_SLOT */\n      0x00\n      shl\n        /* \"@openzeppelin/contracts/proxy/ERC1967/ERC1967Utils.sol\":1519:1545  StorageSlot.getAddressSlot */\n      tag_389\n        /* \"@openzeppelin/contracts/proxy/ERC1967/ERC1967Utils.sol\":1519:1566  StorageSlot.getAddressSlot(IMPLEMENTATION_SLOT) */\n      jump\t// in\n    tag_388:\n        /* \"@openzeppelin/contracts/proxy/ERC1967/ERC1967Utils.sol\":1519:1572  StorageSlot.getAddressSlot(IMPLEMENTATION_SLOT).value */\n      0x00\n      add\n      0x00\n      swap1\n      sload\n      swap1\n      0x0100\n      exp\n      swap1\n      div\n      0xffffffffffffffffffffffffffffffffffffffff\n      and\n        /* \"@openzeppelin/contracts/proxy/ERC1967/ERC1967Utils.sol\":1512:1572  return StorageSlot.getAddressSlot(IMPLEMENTATION_SLOT).value */\n      swap1\n      pop\n        /* \"@openzeppelin/contracts/proxy/ERC1967/ERC1967Utils.sol\":1441:1579  function getImplementation() internal view returns (address) {... */\n      swap1\n      jump\t// out\n        /* \"@openzeppelin/contracts/proxy/ERC1967/ERC1967Utils.sol\":2264:2608  function upgradeToAndCall(address newImplementation, bytes memory data) internal {... */\n    tag_333:\n        /* \"@openzeppelin/contracts/proxy/ERC1967/ERC1967Utils.sol\":2355:2392  _setImplementation(newImplementation) */\n      tag_391\n        /* \"@openzeppelin/contracts/proxy/ERC1967/ERC1967Utils.sol\":2374:2391  newImplementation */\n      dup3\n        /* \"@openzeppelin/contracts/proxy/ERC1967/ERC1967Utils.sol\":2355:2373  _setImplementation */\n      tag_392\n        /* \"@openzeppelin/contracts/proxy/ERC1967/ERC1967Utils.sol\":2355:2392  _setImplementation(newImplementation) */\n      jump\t// in\n    tag_391:\n        /* \"@openzeppelin/contracts/proxy/ERC1967/ERC1967Utils.sol\":2425:2442  newImplementation */\n      dup2\n        /* \"@openzeppelin/contracts/proxy/ERC1967/ERC1967Utils.sol\":2407:2443  IERC1967.Upgraded(newImplementation) */\n      0xffffffffffffffffffffffffffffffffffffffff\n      and\n      0xbc7cd75a20ee27fd9adebab32041f755214dbc6bffa90cc0225b39da2e5c2d3b\n      mload(0x40)\n      mload(0x40)\n      dup1\n      swap2\n      sub\n      swap1\n      log2\n        /* \"@openzeppelin/contracts/proxy/ERC1967/ERC1967Utils.sol\":2472:2473  0 */\n      0x00\n        /* \"@openzeppelin/contracts/proxy/ERC1967/ERC1967Utils.sol\":2458:2462  data */\n      dup2\n        /* \"@openzeppelin/contracts/proxy/ERC1967/ERC1967Utils.sol\":2458:2469  data.length */\n      mload\n        /* \"@openzeppelin/contracts/proxy/ERC1967/ERC1967Utils.sol\":2458:2473  data.length > 0 */\n      gt\n        /* \"@openzeppelin/contracts/proxy/ERC1967/ERC1967Utils.sol\":2454:2602  if (data.length > 0) {... */\n      iszero\n      tag_393\n      jumpi\n        /* \"@openzeppelin/contracts/proxy/ERC1967/ERC1967Utils.sol\":2489:2542  Address.functionDelegateCall(newImplementation, data) */\n      tag_394\n        /* \"@openzeppelin/contracts/proxy/ERC1967/ERC1967Utils.sol\":2518:2535  newImplementation */\n      dup3\n        /* \"@openzeppelin/contracts/proxy/ERC1967/ERC1967Utils.sol\":2537:2541  data */\n      dup3\n        /* \"@openzeppelin/contracts/proxy/ERC1967/ERC1967Utils.sol\":2489:2517  Address.functionDelegateCall */\n      tag_395\n        /* \"@openzeppelin/contracts/proxy/ERC1967/ERC1967Utils.sol\":2489:2542  Address.functionDelegateCall(newImplementation, data) */\n      jump\t// in\n    tag_394:\n      pop\n        /* \"@openzeppelin/contracts/proxy/ERC1967/ERC1967Utils.sol\":2454:2602  if (data.length > 0) {... */\n      jump(tag_396)\n    tag_393:\n        /* \"@openzeppelin/contracts/proxy/ERC1967/ERC1967Utils.sol\":2573:2591  _checkNonPayable() */\n      tag_397\n        /* \"@openzeppelin/contracts/proxy/ERC1967/ERC1967Utils.sol\":2573:2589  _checkNonPayable */\n      tag_398\n        /* \"@openzeppelin/contracts/proxy/ERC1967/ERC1967Utils.sol\":2573:2591  _checkNonPayable() */\n      jump\t// in\n    tag_397:\n        /* \"@openzeppelin/contracts/proxy/ERC1967/ERC1967Utils.sol\":2454:2602  if (data.length > 0) {... */\n    tag_396:\n        /* \"@openzeppelin/contracts/proxy/ERC1967/ERC1967Utils.sol\":2264:2608  function upgradeToAndCall(address newImplementation, bytes memory data) internal {... */\n      pop\n      pop\n      jump\t// out\n        /* \"@openzeppelin/contracts-upgradeable/utils/PausableUpgradeable.sol\":2730:2858  function _requireNotPaused() internal view virtual {... */\n    tag_345:\n        /* \"@openzeppelin/contracts-upgradeable/utils/PausableUpgradeable.sol\":2795:2803  paused() */\n      tag_400\n        /* \"@openzeppelin/contracts-upgradeable/utils/PausableUpgradeable.sol\":2795:2801  paused */\n      tag_76\n        /* \"@openzeppelin/contracts-upgradeable/utils/PausableUpgradeable.sol\":2795:2803  paused() */\n      jump\t// in\n    tag_400:\n        /* \"@openzeppelin/contracts-upgradeable/utils/PausableUpgradeable.sol\":2791:2852  if (paused()) {... */\n      iszero\n      tag_401\n      jumpi\n        /* \"@openzeppelin/contracts-upgradeable/utils/PausableUpgradeable.sol\":2826:2841  EnforcedPause() */\n      mload(0x40)\n      0xd93c066500000000000000000000000000000000000000000000000000000000\n      dup2\n      mstore\n      0x04\n      add\n      mload(0x40)\n      dup1\n      swap2\n      sub\n      swap1\n      revert\n        /* \"@openzeppelin/contracts-upgradeable/utils/PausableUpgradeable.sol\":2791:2852  if (paused()) {... */\n    tag_401:\n        /* \"@openzeppelin/contracts-upgradeable/utils/PausableUpgradeable.sol\":2730:2858  function _requireNotPaused() internal view virtual {... */\n      jump\t// out\n        /* \"@openzeppelin/contracts/proxy/utils/Initializable.sol\":8485:8605  function _isInitializing() internal view returns (bool) {... */\n    tag_358:\n        /* \"@openzeppelin/contracts/proxy/utils/Initializable.sol\":8535:8539  bool */\n      0x00\n        /* \"@openzeppelin/contracts/proxy/utils/Initializable.sol\":8558:8584  _getInitializableStorage() */\n      tag_403\n        /* \"@openzeppelin/contracts/proxy/utils/Initializable.sol\":8558:8582  _getInitializableStorage */\n      tag_151\n        /* \"@openzeppelin/contracts/proxy/utils/Initializable.sol\":8558:8584  _getInitializableStorage() */\n      jump\t// in\n    tag_403:\n        /* \"@openzeppelin/contracts/proxy/utils/Initializable.sol\":8558:8598  _getInitializableStorage()._initializing */\n      0x00\n      add\n      0x08\n      swap1\n      sload\n      swap1\n      0x0100\n      exp\n      swap1\n      div\n      0xff\n      and\n        /* \"@openzeppelin/contracts/proxy/utils/Initializable.sol\":8551:8598  return _getInitializableStorage()._initializing */\n      swap1\n      pop\n        /* \"@openzeppelin/contracts/proxy/utils/Initializable.sol\":8485:8605  function _isInitializing() internal view returns (bool) {... */\n      swap1\n      jump\t// out\n        /* \"@openzeppelin/contracts-upgradeable/token/ERC20/extensions/ERC20PausableUpgradeable.sol\":1441:1586  function _update(address from, address to, uint256 value) internal virtual override whenNotPaused {... */\n    tag_383:\n        /* \"@openzeppelin/contracts-upgradeable/utils/PausableUpgradeable.sol\":2000:2019  _requireNotPaused() */\n      tag_405\n        /* \"@openzeppelin/contracts-upgradeable/utils/PausableUpgradeable.sol\":2000:2017  _requireNotPaused */\n      tag_345\n        /* \"@openzeppelin/contracts-upgradeable/utils/PausableUpgradeable.sol\":2000:2019  _requireNotPaused() */\n      jump\t// in\n    tag_405:\n        /* \"@openzeppelin/contracts-upgradeable/token/ERC20/extensions/ERC20PausableUpgradeable.sol\":1549:1579  super._update(from, to, value) */\n      tag_407\n        /* \"@openzeppelin/contracts-upgradeable/token/ERC20/extensions/ERC20PausableUpgradeable.sol\":1563:1567  from */\n      dup4\n        /* \"@openzeppelin/contracts-upgradeable/token/ERC20/extensions/ERC20PausableUpgradeable.sol\":1569:1571  to */\n      dup4\n        /* \"@openzeppelin/contracts-upgradeable/token/ERC20/extensions/ERC20PausableUpgradeable.sol\":1573:1578  value */\n      dup4\n        /* \"@openzeppelin/contracts-upgradeable/token/ERC20/extensions/ERC20PausableUpgradeable.sol\":1549:1562  super._update */\n      tag_408\n        /* \"@openzeppelin/contracts-upgradeable/token/ERC20/extensions/ERC20PausableUpgradeable.sol\":1549:1579  super._update(from, to, value) */\n      jump\t// in\n    tag_407:\n        /* \"@openzeppelin/contracts-upgradeable/token/ERC20/extensions/ERC20PausableUpgradeable.sol\":1441:1586  function _update(address from, address to, uint256 value) internal virtual override whenNotPaused {... */\n      pop\n      pop\n      pop\n      jump\t// out\n        /* \"@openzeppelin/contracts/utils/StorageSlot.sol\":1899:2062  function getAddressSlot(bytes32 slot) internal pure returns (AddressSlot storage r) {... */\n    tag_389:\n        /* \"@openzeppelin/contracts/utils/StorageSlot.sol\":1960:1981  AddressSlot storage r */\n      0x00\n        /* \"@openzeppelin/contracts/utils/StorageSlot.sol\":2042:2046  slot */\n      dup2\n        /* \"@openzeppelin/contracts/utils/StorageSlot.sol\":2032:2046  r.slot := slot */\n      swap1\n      pop\n        /* \"@openzeppelin/contracts/utils/StorageSlot.sol\":1899:2062  function getAddressSlot(bytes32 slot) internal pure returns (AddressSlot storage r) {... */\n      swap2\n      swap1\n      pop\n      jump\t// out\n        /* \"@openzeppelin/contracts/proxy/ERC1967/ERC1967Utils.sol\":1671:1952  function _setImplementation(address newImplementation) private {... */\n    tag_392:\n        /* \"@openzeppelin/contracts/proxy/ERC1967/ERC1967Utils.sol\":1781:1782  0 */\n      0x00\n        /* \"@openzeppelin/contracts/proxy/ERC1967/ERC1967Utils.sol\":1748:1765  newImplementation */\n      dup2\n        /* \"@openzeppelin/contracts/proxy/ERC1967/ERC1967Utils.sol\":1748:1777  newImplementation.code.length */\n      0xffffffffffffffffffffffffffffffffffffffff\n      and\n      extcodesize\n        /* \"@openzeppelin/contracts/proxy/ERC1967/ERC1967Utils.sol\":1748:1782  newImplementation.code.length == 0 */\n      sub\n        /* \"@openzeppelin/contracts/proxy/ERC1967/ERC1967Utils.sol\":1744:1863  if (newImplementation.code.length == 0) {... */\n      tag_411\n      jumpi\n        /* \"@openzeppelin/contracts/proxy/ERC1967/ERC1967Utils.sol\":1834:1851  newImplementation */\n      dup1\n        /* \"@openzeppelin/contracts/proxy/ERC1967/ERC1967Utils.sol\":1805:1852  ERC1967InvalidImplementation(newImplementation) */\n      mload(0x40)\n      0x4c9c8ce300000000000000000000000000000000000000000000000000000000\n      dup2\n      mstore\n      0x04\n      add\n      tag_412\n      swap2\n      swap1\n      tag_98\n      jump\t// in\n    tag_412:\n      mload(0x40)\n      dup1\n      swap2\n      sub\n      swap1\n      revert\n        /* \"@openzeppelin/contracts/proxy/ERC1967/ERC1967Utils.sol\":1744:1863  if (newImplementation.code.length == 0) {... */\n    tag_411:\n        /* \"@openzeppelin/contracts/proxy/ERC1967/ERC1967Utils.sol\":1928:1945  newImplementation */\n      dup1\n        /* \"@openzeppelin/contracts/proxy/ERC1967/ERC1967Utils.sol\":1872:1919  StorageSlot.getAddressSlot(IMPLEMENTATION_SLOT) */\n      tag_413\n        /* \"@openzeppelin/contracts/proxy/ERC1967/ERC1967Utils.sol\":811:877  0x360894a13ba1a3210667c828492db98dca3e2076cc3735a920a3ca505d382bbc */\n      0x360894a13ba1a3210667c828492db98dca3e2076cc3735a920a3ca505d382bbc\n        /* \"@openzeppelin/contracts/proxy/ERC1967/ERC1967Utils.sol\":1899:1918  IMPLEMENTATION_SLOT */\n      0x00\n      shl\n        /* \"@openzeppelin/contracts/proxy/ERC1967/ERC1967Utils.sol\":1872:1898  StorageSlot.getAddressSlot */\n      tag_389\n        /* \"@openzeppelin/contracts/proxy/ERC1967/ERC1967Utils.sol\":1872:1919  StorageSlot.getAddressSlot(IMPLEMENTATION_SLOT) */\n      jump\t// in\n    tag_413:\n        /* \"@openzeppelin/contracts/proxy/ERC1967/ERC1967Utils.sol\":1872:1925  StorageSlot.getAddressSlot(IMPLEMENTATION_SLOT).value */\n      0x00\n      add\n      0x00\n        /* \"@openzeppelin/contracts/proxy/ERC1967/ERC1967Utils.sol\":1872:1945  StorageSlot.getAddressSlot(IMPLEMENTATION_SLOT).value = newImplementation */\n      0x0100\n      exp\n      dup2\n      sload\n      dup2\n      0xffffffffffffffffffffffffffffffffffffffff\n      mul\n      not\n      and\n      swap1\n      dup4\n      0xffffffffffffffffffffffffffffffffffffffff\n      and\n      mul\n      or\n      swap1\n      sstore\n      pop\n        /* \"@openzeppelin/contracts/proxy/ERC1967/ERC1967Utils.sol\":1671:1952  function _setImplementation(address newImplementation) private {... */\n      pop\n      jump\t// out\n        /* \"@openzeppelin/contracts/utils/Address.sol\":4691:5240  function functionDelegateCall(address target, bytes memory data) internal returns (bytes memory) {... */\n    tag_395:\n        /* \"@openzeppelin/contracts/utils/Address.sol\":4774:4786  bytes memory */\n      0x60\n        /* \"@openzeppelin/contracts/utils/Address.sol\":4798:4810  bool success */\n      0x00\n        /* \"@openzeppelin/contracts/utils/Address.sol\":4813:4860  LowLevelCall.delegatecallNoReturn(target, data) */\n      tag_415\n        /* \"@openzeppelin/contracts/utils/Address.sol\":4847:4853  target */\n      dup5\n        /* \"@openzeppelin/contracts/utils/Address.sol\":4855:4859  data */\n      dup5\n        /* \"@openzeppelin/contracts/utils/Address.sol\":4813:4846  LowLevelCall.delegatecallNoReturn */\n      tag_416\n        /* \"@openzeppelin/contracts/utils/Address.sol\":4813:4860  LowLevelCall.delegatecallNoReturn(target, data) */\n      jump\t// in\n    tag_415:\n        /* \"@openzeppelin/contracts/utils/Address.sol\":4798:4860  bool success = LowLevelCall.delegatecallNoReturn(target, data) */\n      swap1\n      pop\n        /* \"@openzeppelin/contracts/utils/Address.sol\":4874:4881  success */\n      dup1\n        /* \"@openzeppelin/contracts/utils/Address.sol\":4874:4946  success && (LowLevelCall.returnDataSize() > 0 || target.code.length > 0) */\n      dup1\n      iszero\n      tag_417\n      jumpi\n      pop\n        /* \"@openzeppelin/contracts/utils/Address.sol\":4918:4919  0 */\n      0x00\n        /* \"@openzeppelin/contracts/utils/Address.sol\":4886:4915  LowLevelCall.returnDataSize() */\n      tag_418\n        /* \"@openzeppelin/contracts/utils/Address.sol\":4886:4913  LowLevelCall.returnDataSize */\n      tag_419\n        /* \"@openzeppelin/contracts/utils/Address.sol\":4886:4915  LowLevelCall.returnDataSize() */\n      jump\t// in\n    tag_418:\n        /* \"@openzeppelin/contracts/utils/Address.sol\":4886:4919  LowLevelCall.returnDataSize() > 0 */\n      gt\n        /* \"@openzeppelin/contracts/utils/Address.sol\":4886:4945  LowLevelCall.returnDataSize() > 0 || target.code.length > 0 */\n      dup1\n      tag_420\n      jumpi\n      pop\n        /* \"@openzeppelin/contracts/utils/Address.sol\":4944:4945  0 */\n      0x00\n        /* \"@openzeppelin/contracts/utils/Address.sol\":4923:4929  target */\n      dup5\n        /* \"@openzeppelin/contracts/utils/Address.sol\":4923:4941  target.code.length */\n      0xffffffffffffffffffffffffffffffffffffffff\n      and\n      extcodesize\n        /* \"@openzeppelin/contracts/utils/Address.sol\":4923:4945  target.code.length > 0 */\n      gt\n        /* \"@openzeppelin/contracts/utils/Address.sol\":4886:4945  LowLevelCall.returnDataSize() > 0 || target.code.length > 0 */\n    tag_420:\n        /* \"@openzeppelin/contracts/utils/Address.sol\":4874:4946  success && (LowLevelCall.returnDataSize() > 0 || target.code.length > 0) */\n    tag_417:\n        /* \"@openzeppelin/contracts/utils/Address.sol\":4870:5234  if (success && (LowLevelCall.returnDataSize() > 0 || target.code.length > 0)) {... */\n      iszero\n      tag_421\n      jumpi\n        /* \"@openzeppelin/contracts/utils/Address.sol\":4969:4994  LowLevelCall.returnData() */\n      tag_422\n        /* \"@openzeppelin/contracts/utils/Address.sol\":4969:4992  LowLevelCall.returnData */\n      tag_423\n        /* \"@openzeppelin/contracts/utils/Address.sol\":4969:4994  LowLevelCall.returnData() */\n      jump\t// in\n    tag_422:\n        /* \"@openzeppelin/contracts/utils/Address.sol\":4962:4994  return LowLevelCall.returnData() */\n      swap2\n      pop\n      pop\n      jump(tag_414)\n        /* \"@openzeppelin/contracts/utils/Address.sol\":4870:5234  if (success && (LowLevelCall.returnDataSize() > 0 || target.code.length > 0)) {... */\n    tag_421:\n        /* \"@openzeppelin/contracts/utils/Address.sol\":5015:5022  success */\n      dup1\n        /* \"@openzeppelin/contracts/utils/Address.sol\":5011:5234  if (success) {... */\n      iszero\n      tag_425\n      jumpi\n        /* \"@openzeppelin/contracts/utils/Address.sol\":5062:5068  target */\n      dup4\n        /* \"@openzeppelin/contracts/utils/Address.sol\":5045:5069  AddressEmptyCode(target) */\n      mload(0x40)\n      0x9996b31500000000000000000000000000000000000000000000000000000000\n      dup2\n      mstore\n      0x04\n      add\n      tag_426\n      swap2\n      swap1\n      tag_98\n      jump\t// in\n    tag_426:\n      mload(0x40)\n      dup1\n      swap2\n      sub\n      swap1\n      revert\n        /* \"@openzeppelin/contracts/utils/Address.sol\":5011:5234  if (success) {... */\n    tag_425:\n        /* \"@openzeppelin/contracts/utils/Address.sol\":5122:5123  0 */\n      0x00\n        /* \"@openzeppelin/contracts/utils/Address.sol\":5090:5119  LowLevelCall.returnDataSize() */\n      tag_428\n        /* \"@openzeppelin/contracts/utils/Address.sol\":5090:5117  LowLevelCall.returnDataSize */\n      tag_419\n        /* \"@openzeppelin/contracts/utils/Address.sol\":5090:5119  LowLevelCall.returnDataSize() */\n      jump\t// in\n    tag_428:\n        /* \"@openzeppelin/contracts/utils/Address.sol\":5090:5123  LowLevelCall.returnDataSize() > 0 */\n      gt\n        /* \"@openzeppelin/contracts/utils/Address.sol\":5086:5234  if (LowLevelCall.returnDataSize() > 0) {... */\n      iszero\n      tag_429\n      jumpi\n        /* \"@openzeppelin/contracts/utils/Address.sol\":5139:5166  LowLevelCall.bubbleRevert() */\n      tag_430\n        /* \"@openzeppelin/contracts/utils/Address.sol\":5139:5164  LowLevelCall.bubbleRevert */\n      tag_431\n        /* \"@openzeppelin/contracts/utils/Address.sol\":5139:5166  LowLevelCall.bubbleRevert() */\n      jump\t// in\n    tag_430:\n        /* \"@openzeppelin/contracts/utils/Address.sol\":5086:5234  if (LowLevelCall.returnDataSize() > 0) {... */\n      jump(tag_432)\n    tag_429:\n        /* \"@openzeppelin/contracts/utils/Address.sol\":5204:5223  Errors.FailedCall() */\n      mload(0x40)\n      0xd6bda27500000000000000000000000000000000000000000000000000000000\n      dup2\n      mstore\n      0x04\n      add\n      mload(0x40)\n      dup1\n      swap2\n      sub\n      swap1\n      revert\n        /* \"@openzeppelin/contracts/utils/Address.sol\":5086:5234  if (LowLevelCall.returnDataSize() > 0) {... */\n    tag_432:\n        /* \"@openzeppelin/contracts/utils/Address.sol\":4788:5240  {... */\n      pop\n        /* \"@openzeppelin/contracts/utils/Address.sol\":4691:5240  function functionDelegateCall(address target, bytes memory data) internal returns (bytes memory) {... */\n    tag_414:\n      swap3\n      swap2\n      pop\n      pop\n      jump\t// out\n        /* \"@openzeppelin/contracts/proxy/ERC1967/ERC1967Utils.sol\":6135:6257  function _checkNonPayable() private {... */\n    tag_398:\n        /* \"@openzeppelin/contracts/proxy/ERC1967/ERC1967Utils.sol\":6197:6198  0 */\n      0x00\n        /* \"@openzeppelin/contracts/proxy/ERC1967/ERC1967Utils.sol\":6185:6194  msg.value */\n      callvalue\n        /* \"@openzeppelin/contracts/proxy/ERC1967/ERC1967Utils.sol\":6185:6198  msg.value > 0 */\n      gt\n        /* \"@openzeppelin/contracts/proxy/ERC1967/ERC1967Utils.sol\":6181:6251  if (msg.value > 0) {... */\n      iszero\n      tag_434\n      jumpi\n        /* \"@openzeppelin/contracts/proxy/ERC1967/ERC1967Utils.sol\":6221:6240  ERC1967NonPayable() */\n      mload(0x40)\n      0xb398979f00000000000000000000000000000000000000000000000000000000\n      dup2\n      mstore\n      0x04\n      add\n      mload(0x40)\n      dup1\n      swap2\n      sub\n      swap1\n      revert\n        /* \"@openzeppelin/contracts/proxy/ERC1967/ERC1967Utils.sol\":6181:6251  if (msg.value > 0) {... */\n    tag_434:\n        /* \"@openzeppelin/contracts/proxy/ERC1967/ERC1967Utils.sol\":6135:6257  function _checkNonPayable() private {... */\n      jump\t// out\n        /* \"@openzeppelin/contracts-upgradeable/token/ERC20/ERC20Upgradeable.sol\":7142:8312  function _update(address from, address to, uint256 value) internal virtual {... */\n    tag_408:\n        /* \"@openzeppelin/contracts-upgradeable/token/ERC20/ERC20Upgradeable.sol\":7227:7249  ERC20Storage storage $ */\n      0x00\n        /* \"@openzeppelin/contracts-upgradeable/token/ERC20/ERC20Upgradeable.sol\":7252:7270  _getERC20Storage() */\n      tag_436\n        /* \"@openzeppelin/contracts-upgradeable/token/ERC20/ERC20Upgradeable.sol\":7252:7268  _getERC20Storage */\n      tag_142\n        /* \"@openzeppelin/contracts-upgradeable/token/ERC20/ERC20Upgradeable.sol\":7252:7270  _getERC20Storage() */\n      jump\t// in\n    tag_436:\n        /* \"@openzeppelin/contracts-upgradeable/token/ERC20/ERC20Upgradeable.sol\":7227:7270  ERC20Storage storage $ = _getERC20Storage() */\n      swap1\n      pop\n        /* \"@openzeppelin/contracts-upgradeable/token/ERC20/ERC20Upgradeable.sol\":7300:7301  0 */\n      0x00\n        /* \"@openzeppelin/contracts-upgradeable/token/ERC20/ERC20Upgradeable.sol\":7284:7302  from == address(0) */\n      0xffffffffffffffffffffffffffffffffffffffff\n      and\n        /* \"@openzeppelin/contracts-upgradeable/token/ERC20/ERC20Upgradeable.sol\":7284:7288  from */\n      dup5\n        /* \"@openzeppelin/contracts-upgradeable/token/ERC20/ERC20Upgradeable.sol\":7284:7302  from == address(0) */\n      0xffffffffffffffffffffffffffffffffffffffff\n      and\n      sub\n        /* \"@openzeppelin/contracts-upgradeable/token/ERC20/ERC20Upgradeable.sol\":7280:7826  if (from == address(0)) {... */\n      tag_437\n      jumpi\n        /* \"@openzeppelin/contracts-upgradeable/token/ERC20/ERC20Upgradeable.sol\":7438:7443  value */\n      dup2\n        /* \"@openzeppelin/contracts-upgradeable/token/ERC20/ERC20Upgradeable.sol\":7420:7421  $ */\n      dup2\n        /* \"@openzeppelin/contracts-upgradeable/token/ERC20/ERC20Upgradeable.sol\":7420:7434  $._totalSupply */\n      0x02\n      add\n      0x00\n        /* \"@openzeppelin/contracts-upgradeable/token/ERC20/ERC20Upgradeable.sol\":7420:7443  $._totalSupply += value */\n      dup3\n      dup3\n      sload\n      tag_438\n      swap2\n      swap1\n      tag_439\n      jump\t// in\n    tag_438:\n      swap3\n      pop\n      pop\n      dup2\n      swap1\n      sstore\n      pop\n        /* \"@openzeppelin/contracts-upgradeable/token/ERC20/ERC20Upgradeable.sol\":7280:7826  if (from == address(0)) {... */\n      jump(tag_440)\n    tag_437:\n        /* \"@openzeppelin/contracts-upgradeable/token/ERC20/ERC20Upgradeable.sol\":7474:7493  uint256 fromBalance */\n      0x00\n        /* \"@openzeppelin/contracts-upgradeable/token/ERC20/ERC20Upgradeable.sol\":7496:7497  $ */\n      dup2\n        /* \"@openzeppelin/contracts-upgradeable/token/ERC20/ERC20Upgradeable.sol\":7496:7507  $._balances */\n      0x00\n      add\n        /* \"@openzeppelin/contracts-upgradeable/token/ERC20/ERC20Upgradeable.sol\":7496:7513  $._balances[from] */\n      0x00\n        /* \"@openzeppelin/contracts-upgradeable/token/ERC20/ERC20Upgradeable.sol\":7508:7512  from */\n      dup7\n        /* \"@openzeppelin/contracts-upgradeable/token/ERC20/ERC20Upgradeable.sol\":7496:7513  $._balances[from] */\n      0xffffffffffffffffffffffffffffffffffffffff\n      and\n      0xffffffffffffffffffffffffffffffffffffffff\n      and\n      dup2\n      mstore\n      0x20\n      add\n      swap1\n      dup2\n      mstore\n      0x20\n      add\n      0x00\n      keccak256\n      sload\n        /* \"@openzeppelin/contracts-upgradeable/token/ERC20/ERC20Upgradeable.sol\":7474:7513  uint256 fromBalance = $._balances[from] */\n      swap1\n      pop\n        /* \"@openzeppelin/contracts-upgradeable/token/ERC20/ERC20Upgradeable.sol\":7545:7550  value */\n      dup3\n        /* \"@openzeppelin/contracts-upgradeable/token/ERC20/ERC20Upgradeable.sol\":7531:7542  fromBalance */\n      dup2\n        /* \"@openzeppelin/contracts-upgradeable/token/ERC20/ERC20Upgradeable.sol\":7531:7550  fromBalance < value */\n      lt\n        /* \"@openzeppelin/contracts-upgradeable/token/ERC20/ERC20Upgradeable.sol\":7527:7642  if (fromBalance < value) {... */\n      iszero\n      tag_441\n      jumpi\n        /* \"@openzeppelin/contracts-upgradeable/token/ERC20/ERC20Upgradeable.sol\":7602:7606  from */\n      dup5\n        /* \"@openzeppelin/contracts-upgradeable/token/ERC20/ERC20Upgradeable.sol\":7608:7619  fromBalance */\n      dup2\n        /* \"@openzeppelin/contracts-upgradeable/token/ERC20/ERC20Upgradeable.sol\":7621:7626  value */\n      dup5\n        /* \"@openzeppelin/contracts-upgradeable/token/ERC20/ERC20Upgradeable.sol\":7577:7627  ERC20InsufficientBalance(from, fromBalance, value) */\n      mload(0x40)\n      0xe450d38c00000000000000000000000000000000000000000000000000000000\n      dup2\n      mstore\n      0x04\n      add\n      tag_442\n      swap4\n      swap3\n      swap2\n      swap1\n      tag_290\n      jump\t// in\n    tag_442:\n      mload(0x40)\n      dup1\n      swap2\n      sub\n      swap1\n      revert\n        /* \"@openzeppelin/contracts-upgradeable/token/ERC20/ERC20Upgradeable.sol\":7527:7642  if (fromBalance < value) {... */\n    tag_441:\n        /* \"@openzeppelin/contracts-upgradeable/token/ERC20/ERC20Upgradeable.sol\":7796:7801  value */\n      dup3\n        /* \"@openzeppelin/contracts-upgradeable/token/ERC20/ERC20Upgradeable.sol\":7782:7793  fromBalance */\n      dup2\n        /* \"@openzeppelin/contracts-upgradeable/token/ERC20/ERC20Upgradeable.sol\":7782:7801  fromBalance - value */\n      sub\n        /* \"@openzeppelin/contracts-upgradeable/token/ERC20/ERC20Upgradeable.sol\":7762:7763  $ */\n      dup3\n        /* \"@openzeppelin/contracts-upgradeable/token/ERC20/ERC20Upgradeable.sol\":7762:7773  $._balances */\n      0x00\n      add\n        /* \"@openzeppelin/contracts-upgradeable/token/ERC20/ERC20Upgradeable.sol\":7762:7779  $._balances[from] */\n      0x00\n        /* \"@openzeppelin/contracts-upgradeable/token/ERC20/ERC20Upgradeable.sol\":7774:7778  from */\n      dup8\n        /* \"@openzeppelin/contracts-upgradeable/token/ERC20/ERC20Upgradeable.sol\":7762:7779  $._balances[from] */\n      0xffffffffffffffffffffffffffffffffffffffff\n      and\n      0xffffffffffffffffffffffffffffffffffffffff\n      and\n      dup2\n      mstore\n      0x20\n      add\n      swap1\n      dup2\n      mstore\n      0x20\n      add\n      0x00\n      keccak256\n        /* \"@openzeppelin/contracts-upgradeable/token/ERC20/ERC20Upgradeable.sol\":7762:7801  $._balances[from] = fromBalance - value */\n      dup2\n      swap1\n      sstore\n      pop\n        /* \"@openzeppelin/contracts-upgradeable/token/ERC20/ERC20Upgradeable.sol\":7460:7826  {... */\n      pop\n        /* \"@openzeppelin/contracts-upgradeable/token/ERC20/ERC20Upgradeable.sol\":7280:7826  if (from == address(0)) {... */\n    tag_440:\n        /* \"@openzeppelin/contracts-upgradeable/token/ERC20/ERC20Upgradeable.sol\":7854:7855  0 */\n      0x00\n        /* \"@openzeppelin/contracts-upgradeable/token/ERC20/ERC20Upgradeable.sol\":7840:7856  to == address(0) */\n      0xffffffffffffffffffffffffffffffffffffffff\n      and\n        /* \"@openzeppelin/contracts-upgradeable/token/ERC20/ERC20Upgradeable.sol\":7840:7842  to */\n      dup4\n        /* \"@openzeppelin/contracts-upgradeable/token/ERC20/ERC20Upgradeable.sol\":7840:7856  to == address(0) */\n      0xffffffffffffffffffffffffffffffffffffffff\n      and\n      sub\n        /* \"@openzeppelin/contracts-upgradeable/token/ERC20/ERC20Upgradeable.sol\":7836:8265  if (to == address(0)) {... */\n      tag_443\n      jumpi\n        /* \"@openzeppelin/contracts-upgradeable/token/ERC20/ERC20Upgradeable.sol\":8021:8026  value */\n      dup2\n        /* \"@openzeppelin/contracts-upgradeable/token/ERC20/ERC20Upgradeable.sol\":8003:8004  $ */\n      dup2\n        /* \"@openzeppelin/contracts-upgradeable/token/ERC20/ERC20Upgradeable.sol\":8003:8017  $._totalSupply */\n      0x02\n      add\n      0x00\n        /* \"@openzeppelin/contracts-upgradeable/token/ERC20/ERC20Upgradeable.sol\":8003:8026  $._totalSupply -= value */\n      dup3\n      dup3\n      sload\n      sub\n      swap3\n      pop\n      pop\n      dup2\n      swap1\n      sstore\n      pop\n        /* \"@openzeppelin/contracts-upgradeable/token/ERC20/ERC20Upgradeable.sol\":7836:8265  if (to == address(0)) {... */\n      jump(tag_444)\n    tag_443:\n        /* \"@openzeppelin/contracts-upgradeable/token/ERC20/ERC20Upgradeable.sol\":8235:8240  value */\n      dup2\n        /* \"@openzeppelin/contracts-upgradeable/token/ERC20/ERC20Upgradeable.sol\":8216:8217  $ */\n      dup2\n        /* \"@openzeppelin/contracts-upgradeable/token/ERC20/ERC20Upgradeable.sol\":8216:8227  $._balances */\n      0x00\n      add\n        /* \"@openzeppelin/contracts-upgradeable/token/ERC20/ERC20Upgradeable.sol\":8216:8231  $._balances[to] */\n      0x00\n        /* \"@openzeppelin/contracts-upgradeable/token/ERC20/ERC20Upgradeable.sol\":8228:8230  to */\n      dup6\n        /* \"@openzeppelin/contracts-upgradeable/token/ERC20/ERC20Upgradeable.sol\":8216:8231  $._balances[to] */\n      0xffffffffffffffffffffffffffffffffffffffff\n      and\n      0xffffffffffffffffffffffffffffffffffffffff\n      and\n      dup2\n      mstore\n      0x20\n      add\n      swap1\n      dup2\n      mstore\n      0x20\n      add\n      0x00\n      keccak256\n      0x00\n        /* \"@openzeppelin/contracts-upgradeable/token/ERC20/ERC20Upgradeable.sol\":8216:8240  $._balances[to] += value */\n      dup3\n      dup3\n      sload\n      add\n      swap3\n      pop\n      pop\n      dup2\n      swap1\n      sstore\n      pop\n        /* \"@openzeppelin/contracts-upgradeable/token/ERC20/ERC20Upgradeable.sol\":7836:8265  if (to == address(0)) {... */\n    tag_444:\n        /* \"@openzeppelin/contracts-upgradeable/token/ERC20/ERC20Upgradeable.sol\":8295:8297  to */\n      dup3\n        /* \"@openzeppelin/contracts-upgradeable/token/ERC20/ERC20Upgradeable.sol\":8280:8305  Transfer(from, to, value) */\n      0xffffffffffffffffffffffffffffffffffffffff\n      and\n        /* \"@openzeppelin/contracts-upgradeable/token/ERC20/ERC20Upgradeable.sol\":8289:8293  from */\n      dup5\n        /* \"@openzeppelin/contracts-upgradeable/token/ERC20/ERC20Upgradeable.sol\":8280:8305  Transfer(from, to, value) */\n      0xffffffffffffffffffffffffffffffffffffffff\n      and\n      0xddf252ad1be2c89b69c2b068fc378daa952ba7f163c4a11628f55a4df523b3ef\n        /* \"@openzeppelin/contracts-upgradeable/token/ERC20/ERC20Upgradeable.sol\":8299:8304  value */\n      dup5\n        /* \"@openzeppelin/contracts-upgradeable/token/ERC20/ERC20Upgradeable.sol\":8280:8305  Transfer(from, to, value) */\n      mload(0x40)\n      tag_445\n      swap2\n      swap1\n      tag_50\n      jump\t// in\n    tag_445:\n      mload(0x40)\n      dup1\n      swap2\n      sub\n      swap1\n      log3\n        /* \"@openzeppelin/contracts-upgradeable/token/ERC20/ERC20Upgradeable.sol\":7217:8312  {... */\n      pop\n        /* \"@openzeppelin/contracts-upgradeable/token/ERC20/ERC20Upgradeable.sol\":7142:8312  function _update(address from, address to, uint256 value) internal virtual {... */\n      pop\n      pop\n      pop\n      jump\t// out\n        /* \"@openzeppelin/contracts/utils/LowLevelCall.sol\":3419:3661  function delegatecallNoReturn(address target, bytes memory data) internal returns (bool success) {... */\n    tag_416:\n        /* \"@openzeppelin/contracts/utils/LowLevelCall.sol\":3502:3514  bool success */\n      0x00\n        /* \"@openzeppelin/contracts/utils/LowLevelCall.sol\":3640:3644  0x00 */\n      0x00\n        /* \"@openzeppelin/contracts/utils/LowLevelCall.sol\":3634:3638  0x00 */\n      0x00\n        /* \"@openzeppelin/contracts/utils/LowLevelCall.sol\":3627:3631  data */\n      dup4\n        /* \"@openzeppelin/contracts/utils/LowLevelCall.sol\":3621:3632  mload(data) */\n      mload\n        /* \"@openzeppelin/contracts/utils/LowLevelCall.sol\":3614:3618  0x20 */\n      0x20\n        /* \"@openzeppelin/contracts/utils/LowLevelCall.sol\":3608:3612  data */\n      dup6\n        /* \"@openzeppelin/contracts/utils/LowLevelCall.sol\":3604:3619  add(data, 0x20) */\n      add\n        /* \"@openzeppelin/contracts/utils/LowLevelCall.sol\":3596:3602  target */\n      dup7\n        /* \"@openzeppelin/contracts/utils/LowLevelCall.sol\":3589:3594  gas() */\n      gas\n        /* \"@openzeppelin/contracts/utils/LowLevelCall.sol\":3576:3645  delegatecall(gas(), target, add(data, 0x20), mload(data), 0x00, 0x00) */\n      delegatecall\n        /* \"@openzeppelin/contracts/utils/LowLevelCall.sol\":3565:3645  success := delegatecall(gas(), target, add(data, 0x20), mload(data), 0x00, 0x00) */\n      swap1\n      pop\n        /* \"@openzeppelin/contracts/utils/LowLevelCall.sol\":3419:3661  function delegatecallNoReturn(address target, bytes memory data) internal returns (bool success) {... */\n      swap3\n      swap2\n      pop\n      pop\n      jump\t// out\n        /* \"@openzeppelin/contracts/utils/LowLevelCall.sol\":4505:4657  function returnDataSize() internal pure returns (uint256 size) {... */\n    tag_419:\n        /* \"@openzeppelin/contracts/utils/LowLevelCall.sol\":4554:4566  uint256 size */\n      0x00\n        /* \"@openzeppelin/contracts/utils/LowLevelCall.sol\":4625:4641  returndatasize() */\n      returndatasize\n        /* \"@openzeppelin/contracts/utils/LowLevelCall.sol\":4617:4641  size := returndatasize() */\n      swap1\n      pop\n        /* \"@openzeppelin/contracts/utils/LowLevelCall.sol\":4505:4657  function returnDataSize() internal pure returns (uint256 size) {... */\n      swap1\n      jump\t// out\n        /* \"@openzeppelin/contracts/utils/LowLevelCall.sol\":4740:5074  function returnData() internal pure returns (bytes memory result) {... */\n    tag_423:\n        /* \"@openzeppelin/contracts/utils/LowLevelCall.sol\":4785:4804  bytes memory result */\n      0x60\n        /* \"@openzeppelin/contracts/utils/LowLevelCall.sol\":4871:4875  0x40 */\n      0x40\n        /* \"@openzeppelin/contracts/utils/LowLevelCall.sol\":4865:4876  mload(0x40) */\n      mload\n        /* \"@openzeppelin/contracts/utils/LowLevelCall.sol\":4855:4876  result := mload(0x40) */\n      swap1\n      pop\n        /* \"@openzeppelin/contracts/utils/LowLevelCall.sol\":4904:4920  returndatasize() */\n      returndatasize\n        /* \"@openzeppelin/contracts/utils/LowLevelCall.sol\":4896:4902  result */\n      dup2\n        /* \"@openzeppelin/contracts/utils/LowLevelCall.sol\":4889:4921  mstore(result, returndatasize()) */\n      mstore\n        /* \"@openzeppelin/contracts/utils/LowLevelCall.sol\":4974:4990  returndatasize() */\n      returndatasize\n        /* \"@openzeppelin/contracts/utils/LowLevelCall.sol\":4968:4972  0x00 */\n      0x00\n        /* \"@openzeppelin/contracts/utils/LowLevelCall.sol\":4961:4965  0x20 */\n      0x20\n        /* \"@openzeppelin/contracts/utils/LowLevelCall.sol\":4953:4959  result */\n      dup4\n        /* \"@openzeppelin/contracts/utils/LowLevelCall.sol\":4949:4966  add(result, 0x20) */\n      add\n        /* \"@openzeppelin/contracts/utils/LowLevelCall.sol\":4934:4991  returndatacopy(add(result, 0x20), 0x00, returndatasize()) */\n      returndatacopy\n        /* \"@openzeppelin/contracts/utils/LowLevelCall.sol\":5039:5055  returndatasize() */\n      returndatasize\n        /* \"@openzeppelin/contracts/utils/LowLevelCall.sol\":5033:5037  0x20 */\n      0x20\n        /* \"@openzeppelin/contracts/utils/LowLevelCall.sol\":5029:5056  add(0x20, returndatasize()) */\n      add\n        /* \"@openzeppelin/contracts/utils/LowLevelCall.sol\":5021:5027  result */\n      dup2\n        /* \"@openzeppelin/contracts/utils/LowLevelCall.sol\":5017:5057  add(result, add(0x20, returndatasize())) */\n      add\n        /* \"@openzeppelin/contracts/utils/LowLevelCall.sol\":5011:5015  0x40 */\n      0x40\n        /* \"@openzeppelin/contracts/utils/LowLevelCall.sol\":5004:5058  mstore(0x40, add(result, add(0x20, returndatasize()))) */\n      mstore\n        /* \"@openzeppelin/contracts/utils/LowLevelCall.sol\":4740:5074  function returnData() internal pure returns (bytes memory result) {... */\n      swap1\n      jump\t// out\n        /* \"@openzeppelin/contracts/utils/LowLevelCall.sol\":5141:5364  function bubbleRevert() internal pure {... */\n    tag_431:\n        /* \"@openzeppelin/contracts/utils/LowLevelCall.sol\":5245:5249  0x40 */\n      0x40\n        /* \"@openzeppelin/contracts/utils/LowLevelCall.sol\":5239:5250  mload(0x40) */\n      mload\n        /* \"@openzeppelin/contracts/utils/LowLevelCall.sol\":5289:5305  returndatasize() */\n      returndatasize\n        /* \"@openzeppelin/contracts/utils/LowLevelCall.sol\":5283:5287  0x00 */\n      0x00\n        /* \"@openzeppelin/contracts/utils/LowLevelCall.sol\":5278:5281  fmp */\n      dup3\n        /* \"@openzeppelin/contracts/utils/LowLevelCall.sol\":5263:5306  returndatacopy(fmp, 0x00, returndatasize()) */\n      returndatacopy\n        /* \"@openzeppelin/contracts/utils/LowLevelCall.sol\":5331:5347  returndatasize() */\n      returndatasize\n        /* \"@openzeppelin/contracts/utils/LowLevelCall.sol\":5326:5329  fmp */\n      dup2\n        /* \"@openzeppelin/contracts/utils/LowLevelCall.sol\":5319:5348  revert(fmp, returndatasize()) */\n      revert\n        /* \"#utility.yul\":7:106   */\n    tag_450:\n        /* \"#utility.yul\":59:65   */\n      0x00\n        /* \"#utility.yul\":93:98   */\n      dup2\n        /* \"#utility.yul\":87:99   */\n      mload\n        /* \"#utility.yul\":77:99   */\n      swap1\n      pop\n        /* \"#utility.yul\":7:106   */\n      swap2\n      swap1\n      pop\n      jump\t// out\n        /* \"#utility.yul\":112:281   */\n    tag_451:\n        /* \"#utility.yul\":196:207   */\n      0x00\n        /* \"#utility.yul\":230:236   */\n      dup3\n        /* \"#utility.yul\":225:228   */\n      dup3\n        /* \"#utility.yul\":218:237   */\n      mstore\n        /* \"#utility.yul\":270:274   */\n      0x20\n        /* \"#utility.yul\":265:268   */\n      dup3\n        /* \"#utility.yul\":261:275   */\n      add\n        /* \"#utility.yul\":246:275   */\n      swap1\n      pop\n        /* \"#utility.yul\":112:281   */\n      swap3\n      swap2\n      pop\n      pop\n      jump\t// out\n        /* \"#utility.yul\":287:535   */\n    tag_452:\n        /* \"#utility.yul\":369:370   */\n      0x00\n        /* \"#utility.yul\":379:492   */\n    tag_516:\n        /* \"#utility.yul\":393:399   */\n      dup4\n        /* \"#utility.yul\":390:391   */\n      dup2\n        /* \"#utility.yul\":387:400   */\n      lt\n        /* \"#utility.yul\":379:492   */\n      iszero\n      tag_518\n      jumpi\n        /* \"#utility.yul\":478:479   */\n      dup1\n        /* \"#utility.yul\":473:476   */\n      dup3\n        /* \"#utility.yul\":469:480   */\n      add\n        /* \"#utility.yul\":463:481   */\n      mload\n        /* \"#utility.yul\":459:460   */\n      dup2\n        /* \"#utility.yul\":454:457   */\n      dup5\n        /* \"#utility.yul\":450:461   */\n      add\n        /* \"#utility.yul\":443:482   */\n      mstore\n        /* \"#utility.yul\":415:417   */\n      0x20\n        /* \"#utility.yul\":412:413   */\n      dup2\n        /* \"#utility.yul\":408:418   */\n      add\n        /* \"#utility.yul\":403:418   */\n      swap1\n      pop\n        /* \"#utility.yul\":379:492   */\n      jump(tag_516)\n    tag_518:\n        /* \"#utility.yul\":526:527   */\n      0x00\n        /* \"#utility.yul\":517:523   */\n      dup5\n        /* \"#utility.yul\":512:515   */\n      dup5\n        /* \"#utility.yul\":508:524   */\n      add\n        /* \"#utility.yul\":501:528   */\n      mstore\n        /* \"#utility.yul\":349:535   */\n      pop\n        /* \"#utility.yul\":287:535   */\n      pop\n      pop\n      pop\n      jump\t// out\n        /* \"#utility.yul\":541:643   */\n    tag_453:\n        /* \"#utility.yul\":582:588   */\n      0x00\n        /* \"#utility.yul\":633:635   */\n      0x1f\n        /* \"#utility.yul\":629:636   */\n      not\n        /* \"#utility.yul\":624:626   */\n      0x1f\n        /* \"#utility.yul\":617:622   */\n      dup4\n        /* \"#utility.yul\":613:627   */\n      add\n        /* \"#utility.yul\":609:637   */\n      and\n        /* \"#utility.yul\":599:637   */\n      swap1\n      pop\n        /* \"#utility.yul\":541:643   */\n      swap2\n      swap1\n      pop\n      jump\t// out\n        /* \"#utility.yul\":649:1026   */\n    tag_454:\n        /* \"#utility.yul\":737:740   */\n      0x00\n        /* \"#utility.yul\":765:804   */\n      tag_521\n        /* \"#utility.yul\":798:803   */\n      dup3\n        /* \"#utility.yul\":765:804   */\n      tag_450\n      jump\t// in\n    tag_521:\n        /* \"#utility.yul\":820:891   */\n      tag_522\n        /* \"#utility.yul\":884:890   */\n      dup2\n        /* \"#utility.yul\":879:882   */\n      dup6\n        /* \"#utility.yul\":820:891   */\n      tag_451\n      jump\t// in\n    tag_522:\n        /* \"#utility.yul\":813:891   */\n      swap4\n      pop\n        /* \"#utility.yul\":900:965   */\n      tag_523\n        /* \"#utility.yul\":958:964   */\n      dup2\n        /* \"#utility.yul\":953:956   */\n      dup6\n        /* \"#utility.yul\":946:950   */\n      0x20\n        /* \"#utility.yul\":939:944   */\n      dup7\n        /* \"#utility.yul\":935:951   */\n      add\n        /* \"#utility.yul\":900:965   */\n      tag_452\n      jump\t// in\n    tag_523:\n        /* \"#utility.yul\":990:1019   */\n      tag_524\n        /* \"#utility.yul\":1012:1018   */\n      dup2\n        /* \"#utility.yul\":990:1019   */\n      tag_453\n      jump\t// in\n    tag_524:\n        /* \"#utility.yul\":985:988   */\n      dup5\n        /* \"#utility.yul\":981:1020   */\n      add\n        /* \"#utility.yul\":974:1020   */\n      swap2\n      pop\n        /* \"#utility.yul\":741:1026   */\n      pop\n        /* \"#utility.yul\":649:1026   */\n      swap3\n      swap2\n      pop\n      pop\n      jump\t// out\n        /* \"#utility.yul\":1032:1345   */\n    tag_33:\n        /* \"#utility.yul\":1145:1149   */\n      0x00\n        /* \"#utility.yul\":1183:1185   */\n      0x20\n        /* \"#utility.yul\":1172:1181   */\n      dup3\n        /* \"#utility.yul\":1168:1186   */\n      add\n        /* \"#utility.yul\":1160:1186   */\n      swap1\n      pop\n        /* \"#utility.yul\":1232:1241   */\n      dup2\n        /* \"#utility.yul\":1226:1230   */\n      dup2\n        /* \"#utility.yul\":1222:1242   */\n      sub\n        /* \"#utility.yul\":1218:1219   */\n      0x00\n        /* \"#utility.yul\":1207:1216   */\n      dup4\n        /* \"#utility.yul\":1203:1220   */\n      add\n        /* \"#utility.yul\":1196:1243   */\n      mstore\n        /* \"#utility.yul\":1260:1338   */\n      tag_526\n        /* \"#utility.yul\":1333:1337   */\n      dup2\n        /* \"#utility.yul\":1324:1330   */\n      dup5\n        /* \"#utility.yul\":1260:1338   */\n      tag_454\n      jump\t// in\n    tag_526:\n        /* \"#utility.yul\":1252:1338   */\n      swap1\n      pop\n        /* \"#utility.yul\":1032:1345   */\n      swap3\n      swap2\n      pop\n      pop\n      jump\t// out\n        /* \"#utility.yul\":1351:1426   */\n    tag_455:\n        /* \"#utility.yul\":1384:1390   */\n      0x00\n        /* \"#utility.yul\":1417:1419   */\n      0x40\n        /* \"#utility.yul\":1411:1420   */\n      mload\n        /* \"#utility.yul\":1401:1420   */\n      swap1\n      pop\n        /* \"#utility.yul\":1351:1426   */\n      swap1\n      jump\t// out\n        /* \"#utility.yul\":1432:1549   */\n    tag_456:\n        /* \"#utility.yul\":1541:1542   */\n      0x00\n        /* \"#utility.yul\":1538:1539   */\n      0x00\n        /* \"#utility.yul\":1531:1543   */\n      revert\n        /* \"#utility.yul\":1555:1672   */\n    tag_457:\n        /* \"#utility.yul\":1664:1665   */\n      0x00\n        /* \"#utility.yul\":1661:1662   */\n      0x00\n        /* \"#utility.yul\":1654:1666   */\n      revert\n        /* \"#utility.yul\":1678:1795   */\n    tag_458:\n        /* \"#utility.yul\":1787:1788   */\n      0x00\n        /* \"#utility.yul\":1784:1785   */\n      0x00\n        /* \"#utility.yul\":1777:1789   */\n      revert\n        /* \"#utility.yul\":1801:1918   */\n    tag_459:\n        /* \"#utility.yul\":1910:1911   */\n      0x00\n        /* \"#utility.yul\":1907:1908   */\n      0x00\n        /* \"#utility.yul\":1900:1912   */\n      revert\n        /* \"#utility.yul\":1924:2104   */\n    tag_460:\n        /* \"#utility.yul\":1972:2049   */\n      0x4e487b7100000000000000000000000000000000000000000000000000000000\n        /* \"#utility.yul\":1969:1970   */\n      0x00\n        /* \"#utility.yul\":1962:2050   */\n      mstore\n        /* \"#utility.yul\":2069:2073   */\n      0x41\n        /* \"#utility.yul\":2066:2067   */\n      0x04\n        /* \"#utility.yul\":2059:2074   */\n      mstore\n        /* \"#utility.yul\":2093:2097   */\n      0x24\n        /* \"#utility.yul\":2090:2091   */\n      0x00\n        /* \"#utility.yul\":2083:2098   */\n      revert\n        /* \"#utility.yul\":2110:2391   */\n    tag_461:\n        /* \"#utility.yul\":2193:2220   */\n      tag_534\n        /* \"#utility.yul\":2215:2219   */\n      dup3\n        /* \"#utility.yul\":2193:2220   */\n      tag_453\n      jump\t// in\n    tag_534:\n        /* \"#utility.yul\":2185:2191   */\n      dup2\n        /* \"#utility.yul\":2181:2221   */\n      add\n        /* \"#utility.yul\":2323:2329   */\n      dup2\n        /* \"#utility.yul\":2311:2321   */\n      dup2\n        /* \"#utility.yul\":2308:2330   */\n      lt\n        /* \"#utility.yul\":2287:2305   */\n      0xffffffffffffffff\n        /* \"#utility.yul\":2275:2285   */\n      dup3\n        /* \"#utility.yul\":2272:2306   */\n      gt\n        /* \"#utility.yul\":2269:2331   */\n      or\n        /* \"#utility.yul\":2266:2354   */\n      iszero\n      tag_535\n      jumpi\n        /* \"#utility.yul\":2334:2352   */\n      tag_536\n      tag_460\n      jump\t// in\n    tag_536:\n        /* \"#utility.yul\":2266:2354   */\n    tag_535:\n        /* \"#utility.yul\":2374:2384   */\n      dup1\n        /* \"#utility.yul\":2370:2372   */\n      0x40\n        /* \"#utility.yul\":2363:2385   */\n      mstore\n        /* \"#utility.yul\":2153:2391   */\n      pop\n        /* \"#utility.yul\":2110:2391   */\n      pop\n      pop\n      jump\t// out\n        /* \"#utility.yul\":2397:2526   */\n    tag_462:\n        /* \"#utility.yul\":2431:2437   */\n      0x00\n        /* \"#utility.yul\":2458:2478   */\n      tag_538\n      tag_455\n      jump\t// in\n    tag_538:\n        /* \"#utility.yul\":2448:2478   */\n      swap1\n      pop\n        /* \"#utility.yul\":2487:2520   */\n      tag_539\n        /* \"#utility.yul\":2515:2519   */\n      dup3\n        /* \"#utility.yul\":2507:2513   */\n      dup3\n        /* \"#utility.yul\":2487:2520   */\n      tag_461\n      jump\t// in\n    tag_539:\n        /* \"#utility.yul\":2397:2526   */\n      swap2\n      swap1\n      pop\n      jump\t// out\n        /* \"#utility.yul\":2532:2840   */\n    tag_463:\n        /* \"#utility.yul\":2594:2598   */\n      0x00\n        /* \"#utility.yul\":2684:2702   */\n      0xffffffffffffffff\n        /* \"#utility.yul\":2676:2682   */\n      dup3\n        /* \"#utility.yul\":2673:2703   */\n      gt\n        /* \"#utility.yul\":2670:2726   */\n      iszero\n      tag_541\n      jumpi\n        /* \"#utility.yul\":2706:2724   */\n      tag_542\n      tag_460\n      jump\t// in\n    tag_542:\n        /* \"#utility.yul\":2670:2726   */\n    tag_541:\n        /* \"#utility.yul\":2744:2773   */\n      tag_543\n        /* \"#utility.yul\":2766:2772   */\n      dup3\n        /* \"#utility.yul\":2744:2773   */\n      tag_453\n      jump\t// in\n    tag_543:\n        /* \"#utility.yul\":2736:2773   */\n      swap1\n      pop\n        /* \"#utility.yul\":2828:2832   */\n      0x20\n        /* \"#utility.yul\":2822:2826   */\n      dup2\n        /* \"#utility.yul\":2818:2833   */\n      add\n        /* \"#utility.yul\":2810:2833   */\n      swap1\n      pop\n        /* \"#utility.yul\":2532:2840   */\n      swap2\n      swap1\n      pop\n      jump\t// out\n        /* \"#utility.yul\":2846:2994   */\n    tag_464:\n        /* \"#utility.yul\":2944:2950   */\n      dup3\n        /* \"#utility.yul\":2939:2942   */\n      dup2\n        /* \"#utility.yul\":2934:2937   */\n      dup4\n        /* \"#utility.yul\":2921:2951   */\n      calldatacopy\n        /* \"#utility.yul\":2985:2986   */\n      0x00\n        /* \"#utility.yul\":2976:2982   */\n      dup4\n        /* \"#utility.yul\":2971:2974   */\n      dup4\n        /* \"#utility.yul\":2967:2983   */\n      add\n        /* \"#utility.yul\":2960:2987   */\n      mstore\n        /* \"#utility.yul\":2846:2994   */\n      pop\n      pop\n      pop\n      jump\t// out\n        /* \"#utility.yul\":3000:3425   */\n    tag_465:\n        /* \"#utility.yul\":3078:3083   */\n      0x00\n        /* \"#utility.yul\":3103:3169   */\n      tag_546\n        /* \"#utility.yul\":3119:3168   */\n      tag_547\n        /* \"#utility.yul\":3161:3167   */\n      dup5\n        /* \"#utility.yul\":3119:3168   */\n      tag_463\n      jump\t// in\n    tag_547:\n        /* \"#utility.yul\":3103:3169   */\n      tag_462\n      jump\t// in\n    tag_546:\n        /* \"#utility.yul\":3094:3169   */\n      swap1\n      pop\n        /* \"#utility.yul\":3192:3198   */\n      dup3\n        /* \"#utility.yul\":3185:3190   */\n      dup2\n        /* \"#utility.yul\":3178:3199   */\n      mstore\n        /* \"#utility.yul\":3230:3234   */\n      0x20\n        /* \"#utility.yul\":3223:3228   */\n      dup2\n        /* \"#utility.yul\":3219:3235   */\n      add\n        /* \"#utility.yul\":3268:3271   */\n      dup5\n        /* \"#utility.yul\":3259:3265   */\n      dup5\n        /* \"#utility.yul\":3254:3257   */\n      dup5\n        /* \"#utility.yul\":3250:3266   */\n      add\n        /* \"#utility.yul\":3247:3272   */\n      gt\n        /* \"#utility.yul\":3244:3356   */\n      iszero\n      tag_548\n      jumpi\n        /* \"#utility.yul\":3275:3354   */\n      tag_549\n      tag_459\n      jump\t// in\n    tag_549:\n        /* \"#utility.yul\":3244:3356   */\n    tag_548:\n        /* \"#utility.yul\":3365:3419   */\n      tag_550\n        /* \"#utility.yul\":3412:3418   */\n      dup5\n        /* \"#utility.yul\":3407:3410   */\n      dup3\n        /* \"#utility.yul\":3402:3405   */\n      dup6\n        /* \"#utility.yul\":3365:3419   */\n      tag_464\n      jump\t// in\n    tag_550:\n        /* \"#utility.yul\":3084:3425   */\n      pop\n        /* \"#utility.yul\":3000:3425   */\n      swap4\n      swap3\n      pop\n      pop\n      pop\n      jump\t// out\n        /* \"#utility.yul\":3445:3785   */\n    tag_466:\n        /* \"#utility.yul\":3501:3506   */\n      0x00\n        /* \"#utility.yul\":3550:3553   */\n      dup3\n        /* \"#utility.yul\":3543:3547   */\n      0x1f\n        /* \"#utility.yul\":3535:3541   */\n      dup4\n        /* \"#utility.yul\":3531:3548   */\n      add\n        /* \"#utility.yul\":3527:3554   */\n      slt\n        /* \"#utility.yul\":3517:3639   */\n      tag_552\n      jumpi\n        /* \"#utility.yul\":3558:3637   */\n      tag_553\n      tag_458\n      jump\t// in\n    tag_553:\n        /* \"#utility.yul\":3517:3639   */\n    tag_552:\n        /* \"#utility.yul\":3675:3681   */\n      dup2\n        /* \"#utility.yul\":3662:3682   */\n      calldataload\n        /* \"#utility.yul\":3700:3779   */\n      tag_554\n        /* \"#utility.yul\":3775:3778   */\n      dup5\n        /* \"#utility.yul\":3767:3773   */\n      dup3\n        /* \"#utility.yul\":3760:3764   */\n      0x20\n        /* \"#utility.yul\":3752:3758   */\n      dup7\n        /* \"#utility.yul\":3748:3765   */\n      add\n        /* \"#utility.yul\":3700:3779   */\n      tag_465\n      jump\t// in\n    tag_554:\n        /* \"#utility.yul\":3691:3779   */\n      swap2\n      pop\n        /* \"#utility.yul\":3507:3785   */\n      pop\n        /* \"#utility.yul\":3445:3785   */\n      swap3\n      swap2\n      pop\n      pop\n      jump\t// out\n        /* \"#utility.yul\":3791:3917   */\n    tag_467:\n        /* \"#utility.yul\":3828:3835   */\n      0x00\n        /* \"#utility.yul\":3868:3910   */\n      0xffffffffffffffffffffffffffffffffffffffff\n        /* \"#utility.yul\":3861:3866   */\n      dup3\n        /* \"#utility.yul\":3857:3911   */\n      and\n        /* \"#utility.yul\":3846:3911   */\n      swap1\n      pop\n        /* \"#utility.yul\":3791:3917   */\n      swap2\n      swap1\n      pop\n      jump\t// out\n        /* \"#utility.yul\":3923:4019   */\n    tag_468:\n        /* \"#utility.yul\":3960:3967   */\n      0x00\n        /* \"#utility.yul\":3989:4013   */\n      tag_557\n        /* \"#utility.yul\":4007:4012   */\n      dup3\n        /* \"#utility.yul\":3989:4013   */\n      tag_467\n      jump\t// in\n    tag_557:\n        /* \"#utility.yul\":3978:4013   */\n      swap1\n      pop\n        /* \"#utility.yul\":3923:4019   */\n      swap2\n      swap1\n      pop\n      jump\t// out\n        /* \"#utility.yul\":4025:4147   */\n    tag_469:\n        /* \"#utility.yul\":4098:4122   */\n      tag_559\n        /* \"#utility.yul\":4116:4121   */\n      dup2\n        /* \"#utility.yul\":4098:4122   */\n      tag_468\n      jump\t// in\n    tag_559:\n        /* \"#utility.yul\":4091:4096   */\n      dup2\n        /* \"#utility.yul\":4088:4123   */\n      eq\n        /* \"#utility.yul\":4078:4141   */\n      tag_560\n      jumpi\n        /* \"#utility.yul\":4137:4138   */\n      0x00\n        /* \"#utility.yul\":4134:4135   */\n      0x00\n        /* \"#utility.yul\":4127:4139   */\n      revert\n        /* \"#utility.yul\":4078:4141   */\n    tag_560:\n        /* \"#utility.yul\":4025:4147   */\n      pop\n      jump\t// out\n        /* \"#utility.yul\":4153:4292   */\n    tag_470:\n        /* \"#utility.yul\":4199:4204   */\n      0x00\n        /* \"#utility.yul\":4237:4243   */\n      dup2\n        /* \"#utility.yul\":4224:4244   */\n      calldataload\n        /* \"#utility.yul\":4215:4244   */\n      swap1\n      pop\n        /* \"#utility.yul\":4253:4286   */\n      tag_562\n        /* \"#utility.yul\":4280:4285   */\n      dup2\n        /* \"#utility.yul\":4253:4286   */\n      tag_469\n      jump\t// in\n    tag_562:\n        /* \"#utility.yul\":4153:4292   */\n      swap3\n      swap2\n      pop\n      pop\n      jump\t// out\n        /* \"#utility.yul\":4298:5277   */\n    tag_37:\n        /* \"#utility.yul\":4395:4401   */\n      0x00\n        /* \"#utility.yul\":4403:4409   */\n      0x00\n        /* \"#utility.yul\":4411:4417   */\n      0x00\n        /* \"#utility.yul\":4460:4462   */\n      0x60\n        /* \"#utility.yul\":4448:4457   */\n      dup5\n        /* \"#utility.yul\":4439:4446   */\n      dup7\n        /* \"#utility.yul\":4435:4458   */\n      sub\n        /* \"#utility.yul\":4431:4463   */\n      slt\n        /* \"#utility.yul\":4428:4547   */\n      iszero\n      tag_564\n      jumpi\n        /* \"#utility.yul\":4466:4545   */\n      tag_565\n      tag_456\n      jump\t// in\n    tag_565:\n        /* \"#utility.yul\":4428:4547   */\n    tag_564:\n        /* \"#utility.yul\":4614:4615   */\n      0x00\n        /* \"#utility.yul\":4603:4612   */\n      dup5\n        /* \"#utility.yul\":4599:4616   */\n      add\n        /* \"#utility.yul\":4586:4617   */\n      calldataload\n        /* \"#utility.yul\":4644:4662   */\n      0xffffffffffffffff\n        /* \"#utility.yul\":4636:4642   */\n      dup2\n        /* \"#utility.yul\":4633:4663   */\n      gt\n        /* \"#utility.yul\":4630:4747   */\n      iszero\n      tag_566\n      jumpi\n        /* \"#utility.yul\":4666:4745   */\n      tag_567\n      tag_457\n      jump\t// in\n    tag_567:\n        /* \"#utility.yul\":4630:4747   */\n    tag_566:\n        /* \"#utility.yul\":4771:4834   */\n      tag_568\n        /* \"#utility.yul\":4826:4833   */\n      dup7\n        /* \"#utility.yul\":4817:4823   */\n      dup3\n        /* \"#utility.yul\":4806:4815   */\n      dup8\n        /* \"#utility.yul\":4802:4824   */\n      add\n        /* \"#utility.yul\":4771:4834   */\n      tag_466\n      jump\t// in\n    tag_568:\n        /* \"#utility.yul\":4761:4834   */\n      swap4\n      pop\n        /* \"#utility.yul\":4557:4844   */\n      pop\n        /* \"#utility.yul\":4911:4913   */\n      0x20\n        /* \"#utility.yul\":4900:4909   */\n      dup5\n        /* \"#utility.yul\":4896:4914   */\n      add\n        /* \"#utility.yul\":4883:4915   */\n      calldataload\n        /* \"#utility.yul\":4942:4960   */\n      0xffffffffffffffff\n        /* \"#utility.yul\":4934:4940   */\n      dup2\n        /* \"#utility.yul\":4931:4961   */\n      gt\n        /* \"#utility.yul\":4928:5045   */\n      iszero\n      tag_569\n      jumpi\n        /* \"#utility.yul\":4964:5043   */\n      tag_570\n      tag_457\n      jump\t// in\n    tag_570:\n        /* \"#utility.yul\":4928:5045   */\n    tag_569:\n        /* \"#utility.yul\":5069:5132   */\n      tag_571\n        /* \"#utility.yul\":5124:5131   */\n      dup7\n        /* \"#utility.yul\":5115:5121   */\n      dup3\n        /* \"#utility.yul\":5104:5113   */\n      dup8\n        /* \"#utility.yul\":5100:5122   */\n      add\n        /* \"#utility.yul\":5069:5132   */\n      tag_466\n      jump\t// in\n    tag_571:\n        /* \"#utility.yul\":5059:5132   */\n      swap3\n      pop\n        /* \"#utility.yul\":4854:5142   */\n      pop\n        /* \"#utility.yul\":5181:5183   */\n      0x40\n        /* \"#utility.yul\":5207:5260   */\n      tag_572\n        /* \"#utility.yul\":5252:5259   */\n      dup7\n        /* \"#utility.yul\":5243:5249   */\n      dup3\n        /* \"#utility.yul\":5232:5241   */\n      dup8\n        /* \"#utility.yul\":5228:5250   */\n      add\n        /* \"#utility.yul\":5207:5260   */\n      tag_470\n      jump\t// in\n    tag_572:\n        /* \"#utility.yul\":5197:5260   */\n      swap2\n      pop\n        /* \"#utility.yul\":5152:5270   */\n      pop\n        /* \"#utility.yul\":4298:5277   */\n      swap3\n      pop\n      swap3\n      pop\n      swap3\n      jump\t// out\n        /* \"#utility.yul\":5283:5360   */\n    tag_471:\n        /* \"#utility.yul\":5320:5327   */\n      0x00\n        /* \"#utility.yul\":5349:5354   */\n      dup2\n        /* \"#utility.yul\":5338:5354   */\n      swap1\n      pop\n        /* \"#utility.yul\":5283:5360   */\n      swap2\n      swap1\n      pop\n      jump\t// out\n        /* \"#utility.yul\":5366:5488   */\n    tag_472:\n        /* \"#utility.yul\":5439:5463   */\n      tag_575\n        /* \"#utility.yul\":5457:5462   */\n      dup2\n        /* \"#utility.yul\":5439:5463   */\n      tag_471\n      jump\t// in\n    tag_575:\n        /* \"#utility.yul\":5432:5437   */\n      dup2\n        /* \"#utility.yul\":5429:5464   */\n      eq\n        /* \"#utility.yul\":5419:5482   */\n      tag_576\n      jumpi\n        /* \"#utility.yul\":5478:5479   */\n      0x00\n        /* \"#utility.yul\":5475:5476   */\n      0x00\n        /* \"#utility.yul\":5468:5480   */\n      revert\n        /* \"#utility.yul\":5419:5482   */\n    tag_576:\n        /* \"#utility.yul\":5366:5488   */\n      pop\n      jump\t// out\n        /* \"#utility.yul\":5494:5633   */\n    tag_473:\n        /* \"#utility.yul\":5540:5545   */\n      0x00\n        /* \"#utility.yul\":5578:5584   */\n      dup2\n        /* \"#utility.yul\":5565:5585   */\n      calldataload\n        /* \"#utility.yul\":5556:5585   */\n      swap1\n      pop\n        /* \"#utility.yul\":5594:5627   */\n      tag_578\n        /* \"#utility.yul\":5621:5626   */\n      dup2\n        /* \"#utility.yul\":5594:5627   */\n      tag_472\n      jump\t// in\n    tag_578:\n        /* \"#utility.yul\":5494:5633   */\n      swap3\n      swap2\n      pop\n      pop\n      jump\t// out\n        /* \"#utility.yul\":5639:6113   */\n    tag_42:\n        /* \"#utility.yul\":5707:5713   */\n      0x00\n        /* \"#utility.yul\":5715:5721   */\n      0x00\n        /* \"#utility.yul\":5764:5766   */\n      0x40\n        /* \"#utility.yul\":5752:5761   */\n      dup4\n        /* \"#utility.yul\":5743:5750   */\n      dup6\n        /* \"#utility.yul\":5739:5762   */\n      sub\n        /* \"#utility.yul\":5735:5767   */\n      slt\n        /* \"#utility.yul\":5732:5851   */\n      iszero\n      tag_580\n      jumpi\n        /* \"#utility.yul\":5770:5849   */\n      tag_581\n      tag_456\n      jump\t// in\n    tag_581:\n        /* \"#utility.yul\":5732:5851   */\n    tag_580:\n        /* \"#utility.yul\":5890:5891   */\n      0x00\n        /* \"#utility.yul\":5915:5968   */\n      tag_582\n        /* \"#utility.yul\":5960:5967   */\n      dup6\n        /* \"#utility.yul\":5951:5957   */\n      dup3\n        /* \"#utility.yul\":5940:5949   */\n      dup7\n        /* \"#utility.yul\":5936:5958   */\n      add\n        /* \"#utility.yul\":5915:5968   */\n      tag_470\n      jump\t// in\n    tag_582:\n        /* \"#utility.yul\":5905:5968   */\n      swap3\n      pop\n        /* \"#utility.yul\":5861:5978   */\n      pop\n        /* \"#utility.yul\":6017:6019   */\n      0x20\n        /* \"#utility.yul\":6043:6096   */\n      tag_583\n        /* \"#utility.yul\":6088:6095   */\n      dup6\n        /* \"#utility.yul\":6079:6085   */\n      dup3\n        /* \"#utility.yul\":6068:6077   */\n      dup7\n        /* \"#utility.yul\":6064:6086   */\n      add\n        /* \"#utility.yul\":6043:6096   */\n      tag_473\n      jump\t// in\n    tag_583:\n        /* \"#utility.yul\":6033:6096   */\n      swap2\n      pop\n        /* \"#utility.yul\":5988:6106   */\n      pop\n        /* \"#utility.yul\":5639:6113   */\n      swap3\n      pop\n      swap3\n      swap1\n      pop\n      jump\t// out\n        /* \"#utility.yul\":6119:6209   */\n    tag_474:\n        /* \"#utility.yul\":6153:6160   */\n      0x00\n        /* \"#utility.yul\":6196:6201   */\n      dup2\n        /* \"#utility.yul\":6189:6202   */\n      iszero\n        /* \"#utility.yul\":6182:6203   */\n      iszero\n        /* \"#utility.yul\":6171:6203   */\n      swap1\n      pop\n        /* \"#utility.yul\":6119:6209   */\n      swap2\n      swap1\n      pop\n      jump\t// out\n        /* \"#utility.yul\":6215:6324   */\n    tag_475:\n        /* \"#utility.yul\":6296:6317   */\n      tag_586\n        /* \"#utility.yul\":6311:6316   */\n      dup2\n        /* \"#utility.yul\":6296:6317   */\n      tag_474\n      jump\t// in\n    tag_586:\n        /* \"#utility.yul\":6291:6294   */\n      dup3\n        /* \"#utility.yul\":6284:6318   */\n      mstore\n        /* \"#utility.yul\":6215:6324   */\n      pop\n      pop\n      jump\t// out\n        /* \"#utility.yul\":6330:6540   */\n    tag_45:\n        /* \"#utility.yul\":6417:6421   */\n      0x00\n        /* \"#utility.yul\":6455:6457   */\n      0x20\n        /* \"#utility.yul\":6444:6453   */\n      dup3\n        /* \"#utility.yul\":6440:6458   */\n      add\n        /* \"#utility.yul\":6432:6458   */\n      swap1\n      pop\n        /* \"#utility.yul\":6468:6533   */\n      tag_588\n        /* \"#utility.yul\":6530:6531   */\n      0x00\n        /* \"#utility.yul\":6519:6528   */\n      dup4\n        /* \"#utility.yul\":6515:6532   */\n      add\n        /* \"#utility.yul\":6506:6512   */\n      dup5\n        /* \"#utility.yul\":6468:6533   */\n      tag_475\n      jump\t// in\n    tag_588:\n        /* \"#utility.yul\":6330:6540   */\n      swap3\n      swap2\n      pop\n      pop\n      jump\t// out\n        /* \"#utility.yul\":6546:6664   */\n    tag_476:\n        /* \"#utility.yul\":6633:6657   */\n      tag_590\n        /* \"#utility.yul\":6651:6656   */\n      dup2\n        /* \"#utility.yul\":6633:6657   */\n      tag_471\n      jump\t// in\n    tag_590:\n        /* \"#utility.yul\":6628:6631   */\n      dup3\n        /* \"#utility.yul\":6621:6658   */\n      mstore\n        /* \"#utility.yul\":6546:6664   */\n      pop\n      pop\n      jump\t// out\n        /* \"#utility.yul\":6670:6892   */\n    tag_50:\n        /* \"#utility.yul\":6763:6767   */\n      0x00\n        /* \"#utility.yul\":6801:6803   */\n      0x20\n        /* \"#utility.yul\":6790:6799   */\n      dup3\n        /* \"#utility.yul\":6786:6804   */\n      add\n        /* \"#utility.yul\":6778:6804   */\n      swap1\n      pop\n        /* \"#utility.yul\":6814:6885   */\n      tag_592\n        /* \"#utility.yul\":6882:6883   */\n      0x00\n        /* \"#utility.yul\":6871:6880   */\n      dup4\n        /* \"#utility.yul\":6867:6884   */\n      add\n        /* \"#utility.yul\":6858:6864   */\n      dup5\n        /* \"#utility.yul\":6814:6885   */\n      tag_476\n      jump\t// in\n    tag_592:\n        /* \"#utility.yul\":6670:6892   */\n      swap3\n      swap2\n      pop\n      pop\n      jump\t// out\n        /* \"#utility.yul\":6898:7517   */\n    tag_54:\n        /* \"#utility.yul\":6975:6981   */\n      0x00\n        /* \"#utility.yul\":6983:6989   */\n      0x00\n        /* \"#utility.yul\":6991:6997   */\n      0x00\n        /* \"#utility.yul\":7040:7042   */\n      0x60\n        /* \"#utility.yul\":7028:7037   */\n      dup5\n        /* \"#utility.yul\":7019:7026   */\n      dup7\n        /* \"#utility.yul\":7015:7038   */\n      sub\n        /* \"#utility.yul\":7011:7043   */\n      slt\n        /* \"#utility.yul\":7008:7127   */\n      iszero\n      tag_594\n      jumpi\n        /* \"#utility.yul\":7046:7125   */\n      tag_595\n      tag_456\n      jump\t// in\n    tag_595:\n        /* \"#utility.yul\":7008:7127   */\n    tag_594:\n        /* \"#utility.yul\":7166:7167   */\n      0x00\n        /* \"#utility.yul\":7191:7244   */\n      tag_596\n        /* \"#utility.yul\":7236:7243   */\n      dup7\n        /* \"#utility.yul\":7227:7233   */\n      dup3\n        /* \"#utility.yul\":7216:7225   */\n      dup8\n        /* \"#utility.yul\":7212:7234   */\n      add\n        /* \"#utility.yul\":7191:7244   */\n      tag_470\n      jump\t// in\n    tag_596:\n        /* \"#utility.yul\":7181:7244   */\n      swap4\n      pop\n        /* \"#utility.yul\":7137:7254   */\n      pop\n        /* \"#utility.yul\":7293:7295   */\n      0x20\n        /* \"#utility.yul\":7319:7372   */\n      tag_597\n        /* \"#utility.yul\":7364:7371   */\n      dup7\n        /* \"#utility.yul\":7355:7361   */\n      dup3\n        /* \"#utility.yul\":7344:7353   */\n      dup8\n        /* \"#utility.yul\":7340:7362   */\n      add\n        /* \"#utility.yul\":7319:7372   */\n      tag_470\n      jump\t// in\n    tag_597:\n        /* \"#utility.yul\":7309:7372   */\n      swap3\n      pop\n        /* \"#utility.yul\":7264:7382   */\n      pop\n        /* \"#utility.yul\":7421:7423   */\n      0x40\n        /* \"#utility.yul\":7447:7500   */\n      tag_598\n        /* \"#utility.yul\":7492:7499   */\n      dup7\n        /* \"#utility.yul\":7483:7489   */\n      dup3\n        /* \"#utility.yul\":7472:7481   */\n      dup8\n        /* \"#utility.yul\":7468:7490   */\n      add\n        /* \"#utility.yul\":7447:7500   */\n      tag_473\n      jump\t// in\n    tag_598:\n        /* \"#utility.yul\":7437:7500   */\n      swap2\n      pop\n        /* \"#utility.yul\":7392:7510   */\n      pop\n        /* \"#utility.yul\":6898:7517   */\n      swap3\n      pop\n      swap3\n      pop\n      swap3\n      jump\t// out\n        /* \"#utility.yul\":7523:7609   */\n    tag_477:\n        /* \"#utility.yul\":7558:7565   */\n      0x00\n        /* \"#utility.yul\":7598:7602   */\n      0xff\n        /* \"#utility.yul\":7591:7596   */\n      dup3\n        /* \"#utility.yul\":7587:7603   */\n      and\n        /* \"#utility.yul\":7576:7603   */\n      swap1\n      pop\n        /* \"#utility.yul\":7523:7609   */\n      swap2\n      swap1\n      pop\n      jump\t// out\n        /* \"#utility.yul\":7615:7727   */\n    tag_478:\n        /* \"#utility.yul\":7698:7720   */\n      tag_601\n        /* \"#utility.yul\":7714:7719   */\n      dup2\n        /* \"#utility.yul\":7698:7720   */\n      tag_477\n      jump\t// in\n    tag_601:\n        /* \"#utility.yul\":7693:7696   */\n      dup3\n        /* \"#utility.yul\":7686:7721   */\n      mstore\n        /* \"#utility.yul\":7615:7727   */\n      pop\n      pop\n      jump\t// out\n        /* \"#utility.yul\":7733:7947   */\n    tag_61:\n        /* \"#utility.yul\":7822:7826   */\n      0x00\n        /* \"#utility.yul\":7860:7862   */\n      0x20\n        /* \"#utility.yul\":7849:7858   */\n      dup3\n        /* \"#utility.yul\":7845:7863   */\n      add\n        /* \"#utility.yul\":7837:7863   */\n      swap1\n      pop\n        /* \"#utility.yul\":7873:7940   */\n      tag_603\n        /* \"#utility.yul\":7937:7938   */\n      0x00\n        /* \"#utility.yul\":7926:7935   */\n      dup4\n        /* \"#utility.yul\":7922:7939   */\n      add\n        /* \"#utility.yul\":7913:7919   */\n      dup5\n        /* \"#utility.yul\":7873:7940   */\n      tag_478\n      jump\t// in\n    tag_603:\n        /* \"#utility.yul\":7733:7947   */\n      swap3\n      swap2\n      pop\n      pop\n      jump\t// out\n        /* \"#utility.yul\":7953:8260   */\n    tag_479:\n        /* \"#utility.yul\":8014:8018   */\n      0x00\n        /* \"#utility.yul\":8104:8122   */\n      0xffffffffffffffff\n        /* \"#utility.yul\":8096:8102   */\n      dup3\n        /* \"#utility.yul\":8093:8123   */\n      gt\n        /* \"#utility.yul\":8090:8146   */\n      iszero\n      tag_605\n      jumpi\n        /* \"#utility.yul\":8126:8144   */\n      tag_606\n      tag_460\n      jump\t// in\n    tag_606:\n        /* \"#utility.yul\":8090:8146   */\n    tag_605:\n        /* \"#utility.yul\":8164:8193   */\n      tag_607\n        /* \"#utility.yul\":8186:8192   */\n      dup3\n        /* \"#utility.yul\":8164:8193   */\n      tag_453\n      jump\t// in\n    tag_607:\n        /* \"#utility.yul\":8156:8193   */\n      swap1\n      pop\n        /* \"#utility.yul\":8248:8252   */\n      0x20\n        /* \"#utility.yul\":8242:8246   */\n      dup2\n        /* \"#utility.yul\":8238:8253   */\n      add\n        /* \"#utility.yul\":8230:8253   */\n      swap1\n      pop\n        /* \"#utility.yul\":7953:8260   */\n      swap2\n      swap1\n      pop\n      jump\t// out\n        /* \"#utility.yul\":8266:8689   */\n    tag_480:\n        /* \"#utility.yul\":8343:8348   */\n      0x00\n        /* \"#utility.yul\":8368:8433   */\n      tag_609\n        /* \"#utility.yul\":8384:8432   */\n      tag_610\n        /* \"#utility.yul\":8425:8431   */\n      dup5\n        /* \"#utility.yul\":8384:8432   */\n      tag_479\n      jump\t// in\n    tag_610:\n        /* \"#utility.yul\":8368:8433   */\n      tag_462\n      jump\t// in\n    tag_609:\n        /* \"#utility.yul\":8359:8433   */\n      swap1\n      pop\n        /* \"#utility.yul\":8456:8462   */\n      dup3\n        /* \"#utility.yul\":8449:8454   */\n      dup2\n        /* \"#utility.yul\":8442:8463   */\n      mstore\n        /* \"#utility.yul\":8494:8498   */\n      0x20\n        /* \"#utility.yul\":8487:8492   */\n      dup2\n        /* \"#utility.yul\":8483:8499   */\n      add\n        /* \"#utility.yul\":8532:8535   */\n      dup5\n        /* \"#utility.yul\":8523:8529   */\n      dup5\n        /* \"#utility.yul\":8518:8521   */\n      dup5\n        /* \"#utility.yul\":8514:8530   */\n      add\n        /* \"#utility.yul\":8511:8536   */\n      gt\n        /* \"#utility.yul\":8508:8620   */\n      iszero\n      tag_611\n      jumpi\n        /* \"#utility.yul\":8539:8618   */\n      tag_612\n      tag_459\n      jump\t// in\n    tag_612:\n        /* \"#utility.yul\":8508:8620   */\n    tag_611:\n        /* \"#utility.yul\":8629:8683   */\n      tag_613\n        /* \"#utility.yul\":8676:8682   */\n      dup5\n        /* \"#utility.yul\":8671:8674   */\n      dup3\n        /* \"#utility.yul\":8666:8669   */\n      dup6\n        /* \"#utility.yul\":8629:8683   */\n      tag_464\n      jump\t// in\n    tag_613:\n        /* \"#utility.yul\":8349:8689   */\n      pop\n        /* \"#utility.yul\":8266:8689   */\n      swap4\n      swap3\n      pop\n      pop\n      pop\n      jump\t// out\n        /* \"#utility.yul\":8708:9046   */\n    tag_481:\n        /* \"#utility.yul\":8763:8768   */\n      0x00\n        /* \"#utility.yul\":8812:8815   */\n      dup3\n        /* \"#utility.yul\":8805:8809   */\n      0x1f\n        /* \"#utility.yul\":8797:8803   */\n      dup4\n        /* \"#utility.yul\":8793:8810   */\n      add\n        /* \"#utility.yul\":8789:8816   */\n      slt\n        /* \"#utility.yul\":8779:8901   */\n      tag_615\n      jumpi\n        /* \"#utility.yul\":8820:8899   */\n      tag_616\n      tag_458\n      jump\t// in\n    tag_616:\n        /* \"#utility.yul\":8779:8901   */\n    tag_615:\n        /* \"#utility.yul\":8937:8943   */\n      dup2\n        /* \"#utility.yul\":8924:8944   */\n      calldataload\n        /* \"#utility.yul\":8962:9040   */\n      tag_617\n        /* \"#utility.yul\":9036:9039   */\n      dup5\n        /* \"#utility.yul\":9028:9034   */\n      dup3\n        /* \"#utility.yul\":9021:9025   */\n      0x20\n        /* \"#utility.yul\":9013:9019   */\n      dup7\n        /* \"#utility.yul\":9009:9026   */\n      add\n        /* \"#utility.yul\":8962:9040   */\n      tag_480\n      jump\t// in\n    tag_617:\n        /* \"#utility.yul\":8953:9040   */\n      swap2\n      pop\n        /* \"#utility.yul\":8769:9046   */\n      pop\n        /* \"#utility.yul\":8708:9046   */\n      swap3\n      swap2\n      pop\n      pop\n      jump\t// out\n        /* \"#utility.yul\":9052:9704   */\n    tag_67:\n        /* \"#utility.yul\":9129:9135   */\n      0x00\n        /* \"#utility.yul\":9137:9143   */\n      0x00\n        /* \"#utility.yul\":9186:9188   */\n      0x40\n        /* \"#utility.yul\":9174:9183   */\n      dup4\n        /* \"#utility.yul\":9165:9172   */\n      dup6\n        /* \"#utility.yul\":9161:9184   */\n      sub\n        /* \"#utility.yul\":9157:9189   */\n      slt\n        /* \"#utility.yul\":9154:9273   */\n      iszero\n      tag_619\n      jumpi\n        /* \"#utility.yul\":9192:9271   */\n      tag_620\n      tag_456\n      jump\t// in\n    tag_620:\n        /* \"#utility.yul\":9154:9273   */\n    tag_619:\n        /* \"#utility.yul\":9312:9313   */\n      0x00\n        /* \"#utility.yul\":9337:9390   */\n      tag_621\n        /* \"#utility.yul\":9382:9389   */\n      dup6\n        /* \"#utility.yul\":9373:9379   */\n      dup3\n        /* \"#utility.yul\":9362:9371   */\n      dup7\n        /* \"#utility.yul\":9358:9380   */\n      add\n        /* \"#utility.yul\":9337:9390   */\n      tag_470\n      jump\t// in\n    tag_621:\n        /* \"#utility.yul\":9327:9390   */\n      swap3\n      pop\n        /* \"#utility.yul\":9283:9400   */\n      pop\n        /* \"#utility.yul\":9467:9469   */\n      0x20\n        /* \"#utility.yul\":9456:9465   */\n      dup4\n        /* \"#utility.yul\":9452:9470   */\n      add\n        /* \"#utility.yul\":9439:9471   */\n      calldataload\n        /* \"#utility.yul\":9498:9516   */\n      0xffffffffffffffff\n        /* \"#utility.yul\":9490:9496   */\n      dup2\n        /* \"#utility.yul\":9487:9517   */\n      gt\n        /* \"#utility.yul\":9484:9601   */\n      iszero\n      tag_622\n      jumpi\n        /* \"#utility.yul\":9520:9599   */\n      tag_623\n      tag_457\n      jump\t// in\n    tag_623:\n        /* \"#utility.yul\":9484:9601   */\n    tag_622:\n        /* \"#utility.yul\":9625:9687   */\n      tag_624\n        /* \"#utility.yul\":9679:9686   */\n      dup6\n        /* \"#utility.yul\":9670:9676   */\n      dup3\n        /* \"#utility.yul\":9659:9668   */\n      dup7\n        /* \"#utility.yul\":9655:9677   */\n      add\n        /* \"#utility.yul\":9625:9687   */\n      tag_481\n      jump\t// in\n    tag_624:\n        /* \"#utility.yul\":9615:9687   */\n      swap2\n      pop\n        /* \"#utility.yul\":9410:9697   */\n      pop\n        /* \"#utility.yul\":9052:9704   */\n      swap3\n      pop\n      swap3\n      swap1\n      pop\n      jump\t// out\n        /* \"#utility.yul\":9710:9787   */\n    tag_482:\n        /* \"#utility.yul\":9747:9754   */\n      0x00\n        /* \"#utility.yul\":9776:9781   */\n      dup2\n        /* \"#utility.yul\":9765:9781   */\n      swap1\n      pop\n        /* \"#utility.yul\":9710:9787   */\n      swap2\n      swap1\n      pop\n      jump\t// out\n        /* \"#utility.yul\":9793:9911   */\n    tag_483:\n        /* \"#utility.yul\":9880:9904   */\n      tag_627\n        /* \"#utility.yul\":9898:9903   */\n      dup2\n        /* \"#utility.yul\":9880:9904   */\n      tag_482\n      jump\t// in\n    tag_627:\n        /* \"#utility.yul\":9875:9878   */\n      dup3\n        /* \"#utility.yul\":9868:9905   */\n      mstore\n        /* \"#utility.yul\":9793:9911   */\n      pop\n      pop\n      jump\t// out\n        /* \"#utility.yul\":9917:10139   */\n    tag_73:\n        /* \"#utility.yul\":10010:10014   */\n      0x00\n        /* \"#utility.yul\":10048:10050   */\n      0x20\n        /* \"#utility.yul\":10037:10046   */\n      dup3\n        /* \"#utility.yul\":10033:10051   */\n      add\n        /* \"#utility.yul\":10025:10051   */\n      swap1\n      pop\n        /* \"#utility.yul\":10061:10132   */\n      tag_629\n        /* \"#utility.yul\":10129:10130   */\n      0x00\n        /* \"#utility.yul\":10118:10127   */\n      dup4\n        /* \"#utility.yul\":10114:10131   */\n      add\n        /* \"#utility.yul\":10105:10111   */\n      dup5\n        /* \"#utility.yul\":10061:10132   */\n      tag_483\n      jump\t// in\n    tag_629:\n        /* \"#utility.yul\":9917:10139   */\n      swap3\n      swap2\n      pop\n      pop\n      jump\t// out\n        /* \"#utility.yul\":10145:10474   */\n    tag_85:\n        /* \"#utility.yul\":10204:10210   */\n      0x00\n        /* \"#utility.yul\":10253:10255   */\n      0x20\n        /* \"#utility.yul\":10241:10250   */\n      dup3\n        /* \"#utility.yul\":10232:10239   */\n      dup5\n        /* \"#utility.yul\":10228:10251   */\n      sub\n        /* \"#utility.yul\":10224:10256   */\n      slt\n        /* \"#utility.yul\":10221:10340   */\n      iszero\n      tag_631\n      jumpi\n        /* \"#utility.yul\":10259:10338   */\n      tag_632\n      tag_456\n      jump\t// in\n    tag_632:\n        /* \"#utility.yul\":10221:10340   */\n    tag_631:\n        /* \"#utility.yul\":10379:10380   */\n      0x00\n        /* \"#utility.yul\":10404:10457   */\n      tag_633\n        /* \"#utility.yul\":10449:10456   */\n      dup5\n        /* \"#utility.yul\":10440:10446   */\n      dup3\n        /* \"#utility.yul\":10429:10438   */\n      dup6\n        /* \"#utility.yul\":10425:10447   */\n      add\n        /* \"#utility.yul\":10404:10457   */\n      tag_470\n      jump\t// in\n    tag_633:\n        /* \"#utility.yul\":10394:10457   */\n      swap2\n      pop\n        /* \"#utility.yul\":10350:10467   */\n      pop\n        /* \"#utility.yul\":10145:10474   */\n      swap3\n      swap2\n      pop\n      pop\n      jump\t// out\n        /* \"#utility.yul\":10480:10598   */\n    tag_484:\n        /* \"#utility.yul\":10567:10591   */\n      tag_635\n        /* \"#utility.yul\":10585:10590   */\n      dup2\n        /* \"#utility.yul\":10567:10591   */\n      tag_468\n      jump\t// in\n    tag_635:\n        /* \"#utility.yul\":10562:10565   */\n      dup3\n        /* \"#utility.yul\":10555:10592   */\n      mstore\n        /* \"#utility.yul\":10480:10598   */\n      pop\n      pop\n      jump\t// out\n        /* \"#utility.yul\":10604:10826   */\n    tag_98:\n        /* \"#utility.yul\":10697:10701   */\n      0x00\n        /* \"#utility.yul\":10735:10737   */\n      0x20\n        /* \"#utility.yul\":10724:10733   */\n      dup3\n        /* \"#utility.yul\":10720:10738   */\n      add\n        /* \"#utility.yul\":10712:10738   */\n      swap1\n      pop\n        /* \"#utility.yul\":10748:10819   */\n      tag_637\n        /* \"#utility.yul\":10816:10817   */\n      0x00\n        /* \"#utility.yul\":10805:10814   */\n      dup4\n        /* \"#utility.yul\":10801:10818   */\n      add\n        /* \"#utility.yul\":10792:10798   */\n      dup5\n        /* \"#utility.yul\":10748:10819   */\n      tag_484\n      jump\t// in\n    tag_637:\n        /* \"#utility.yul\":10604:10826   */\n      swap3\n      swap2\n      pop\n      pop\n      jump\t// out\n        /* \"#utility.yul\":10832:10948   */\n    tag_485:\n        /* \"#utility.yul\":10902:10923   */\n      tag_639\n        /* \"#utility.yul\":10917:10922   */\n      dup2\n        /* \"#utility.yul\":10902:10923   */\n      tag_474\n      jump\t// in\n    tag_639:\n        /* \"#utility.yul\":10895:10900   */\n      dup2\n        /* \"#utility.yul\":10892:10924   */\n      eq\n        /* \"#utility.yul\":10882:10942   */\n      tag_640\n      jumpi\n        /* \"#utility.yul\":10938:10939   */\n      0x00\n        /* \"#utility.yul\":10935:10936   */\n      0x00\n        /* \"#utility.yul\":10928:10940   */\n      revert\n        /* \"#utility.yul\":10882:10942   */\n    tag_640:\n        /* \"#utility.yul\":10832:10948   */\n      pop\n      jump\t// out\n        /* \"#utility.yul\":10954:11087   */\n    tag_486:\n        /* \"#utility.yul\":10997:11002   */\n      0x00\n        /* \"#utility.yul\":11035:11041   */\n      dup2\n        /* \"#utility.yul\":11022:11042   */\n      calldataload\n        /* \"#utility.yul\":11013:11042   */\n      swap1\n      pop\n        /* \"#utility.yul\":11051:11081   */\n      tag_642\n        /* \"#utility.yul\":11075:11080   */\n      dup2\n        /* \"#utility.yul\":11051:11081   */\n      tag_485\n      jump\t// in\n    tag_642:\n        /* \"#utility.yul\":10954:11087   */\n      swap3\n      swap2\n      pop\n      pop\n      jump\t// out\n        /* \"#utility.yul\":11093:11561   */\n    tag_120:\n        /* \"#utility.yul\":11158:11164   */\n      0x00\n        /* \"#utility.yul\":11166:11172   */\n      0x00\n        /* \"#utility.yul\":11215:11217   */\n      0x40\n        /* \"#utility.yul\":11203:11212   */\n      dup4\n        /* \"#utility.yul\":11194:11201   */\n      dup6\n        /* \"#utility.yul\":11190:11213   */\n      sub\n        /* \"#utility.yul\":11186:11218   */\n      slt\n        /* \"#utility.yul\":11183:11302   */\n      iszero\n      tag_644\n      jumpi\n        /* \"#utility.yul\":11221:11300   */\n      tag_645\n      tag_456\n      jump\t// in\n    tag_645:\n        /* \"#utility.yul\":11183:11302   */\n    tag_644:\n        /* \"#utility.yul\":11341:11342   */\n      0x00\n        /* \"#utility.yul\":11366:11419   */\n      tag_646\n        /* \"#utility.yul\":11411:11418   */\n      dup6\n        /* \"#utility.yul\":11402:11408   */\n      dup3\n        /* \"#utility.yul\":11391:11400   */\n      dup7\n        /* \"#utility.yul\":11387:11409   */\n      add\n        /* \"#utility.yul\":11366:11419   */\n      tag_470\n      jump\t// in\n    tag_646:\n        /* \"#utility.yul\":11356:11419   */\n      swap3\n      pop\n        /* \"#utility.yul\":11312:11429   */\n      pop\n        /* \"#utility.yul\":11468:11470   */\n      0x20\n        /* \"#utility.yul\":11494:11544   */\n      tag_647\n        /* \"#utility.yul\":11536:11543   */\n      dup6\n        /* \"#utility.yul\":11527:11533   */\n      dup3\n        /* \"#utility.yul\":11516:11525   */\n      dup7\n        /* \"#utility.yul\":11512:11534   */\n      add\n        /* \"#utility.yul\":11494:11544   */\n      tag_486\n      jump\t// in\n    tag_647:\n        /* \"#utility.yul\":11484:11544   */\n      swap2\n      pop\n        /* \"#utility.yul\":11439:11554   */\n      pop\n        /* \"#utility.yul\":11093:11561   */\n      swap3\n      pop\n      swap3\n      swap1\n      pop\n      jump\t// out\n        /* \"#utility.yul\":11567:12041   */\n    tag_125:\n        /* \"#utility.yul\":11635:11641   */\n      0x00\n        /* \"#utility.yul\":11643:11649   */\n      0x00\n        /* \"#utility.yul\":11692:11694   */\n      0x40\n        /* \"#utility.yul\":11680:11689   */\n      dup4\n        /* \"#utility.yul\":11671:11678   */\n      dup6\n        /* \"#utility.yul\":11667:11690   */\n      sub\n        /* \"#utility.yul\":11663:11695   */\n      slt\n        /* \"#utility.yul\":11660:11779   */\n      iszero\n      tag_649\n      jumpi\n        /* \"#utility.yul\":11698:11777   */\n      tag_650\n      tag_456\n      jump\t// in\n    tag_650:\n        /* \"#utility.yul\":11660:11779   */\n    tag_649:\n        /* \"#utility.yul\":11818:11819   */\n      0x00\n        /* \"#utility.yul\":11843:11896   */\n      tag_651\n        /* \"#utility.yul\":11888:11895   */\n      dup6\n        /* \"#utility.yul\":11879:11885   */\n      dup3\n        /* \"#utility.yul\":11868:11877   */\n      dup7\n        /* \"#utility.yul\":11864:11886   */\n      add\n        /* \"#utility.yul\":11843:11896   */\n      tag_470\n      jump\t// in\n    tag_651:\n        /* \"#utility.yul\":11833:11896   */\n      swap3\n      pop\n        /* \"#utility.yul\":11789:11906   */\n      pop\n        /* \"#utility.yul\":11945:11947   */\n      0x20\n        /* \"#utility.yul\":11971:12024   */\n      tag_652\n        /* \"#utility.yul\":12016:12023   */\n      dup6\n        /* \"#utility.yul\":12007:12013   */\n      dup3\n        /* \"#utility.yul\":11996:12005   */\n      dup7\n        /* \"#utility.yul\":11992:12014   */\n      add\n        /* \"#utility.yul\":11971:12024   */\n      tag_470\n      jump\t// in\n    tag_652:\n        /* \"#utility.yul\":11961:12024   */\n      swap2\n      pop\n        /* \"#utility.yul\":11916:12034   */\n      pop\n        /* \"#utility.yul\":11567:12041   */\n      swap3\n      pop\n      swap3\n      swap1\n      pop\n      jump\t// out\n        /* \"#utility.yul\":12047:12227   */\n    tag_487:\n        /* \"#utility.yul\":12095:12172   */\n      0x4e487b7100000000000000000000000000000000000000000000000000000000\n        /* \"#utility.yul\":12092:12093   */\n      0x00\n        /* \"#utility.yul\":12085:12173   */\n      mstore\n        /* \"#utility.yul\":12192:12196   */\n      0x22\n        /* \"#utility.yul\":12189:12190   */\n      0x04\n        /* \"#utility.yul\":12182:12197   */\n      mstore\n        /* \"#utility.yul\":12216:12220   */\n      0x24\n        /* \"#utility.yul\":12213:12214   */\n      0x00\n        /* \"#utility.yul\":12206:12221   */\n      revert\n        /* \"#utility.yul\":12233:12553   */\n    tag_144:\n        /* \"#utility.yul\":12277:12283   */\n      0x00\n        /* \"#utility.yul\":12314:12315   */\n      0x02\n        /* \"#utility.yul\":12308:12312   */\n      dup3\n        /* \"#utility.yul\":12304:12316   */\n      div\n        /* \"#utility.yul\":12294:12316   */\n      swap1\n      pop\n        /* \"#utility.yul\":12361:12362   */\n      0x01\n        /* \"#utility.yul\":12355:12359   */\n      dup3\n        /* \"#utility.yul\":12351:12363   */\n      and\n        /* \"#utility.yul\":12382:12400   */\n      dup1\n        /* \"#utility.yul\":12372:12453   */\n      tag_655\n      jumpi\n        /* \"#utility.yul\":12438:12442   */\n      0x7f\n        /* \"#utility.yul\":12430:12436   */\n      dup3\n        /* \"#utility.yul\":12426:12443   */\n      and\n        /* \"#utility.yul\":12416:12443   */\n      swap2\n      pop\n        /* \"#utility.yul\":12372:12453   */\n    tag_655:\n        /* \"#utility.yul\":12500:12502   */\n      0x20\n        /* \"#utility.yul\":12492:12498   */\n      dup3\n        /* \"#utility.yul\":12489:12503   */\n      lt\n        /* \"#utility.yul\":12469:12487   */\n      dup2\n        /* \"#utility.yul\":12466:12504   */\n      sub\n        /* \"#utility.yul\":12463:12547   */\n      tag_656\n      jumpi\n        /* \"#utility.yul\":12519:12537   */\n      tag_657\n      tag_487\n      jump\t// in\n    tag_657:\n        /* \"#utility.yul\":12463:12547   */\n    tag_656:\n        /* \"#utility.yul\":12284:12553   */\n      pop\n        /* \"#utility.yul\":12233:12553   */\n      swap2\n      swap1\n      pop\n      jump\t// out\n        /* \"#utility.yul\":12559:12644   */\n    tag_488:\n        /* \"#utility.yul\":12604:12611   */\n      0x00\n        /* \"#utility.yul\":12633:12638   */\n      dup2\n        /* \"#utility.yul\":12622:12638   */\n      swap1\n      pop\n        /* \"#utility.yul\":12559:12644   */\n      swap2\n      swap1\n      pop\n      jump\t// out\n        /* \"#utility.yul\":12650:12751   */\n    tag_489:\n        /* \"#utility.yul\":12686:12693   */\n      0x00\n        /* \"#utility.yul\":12726:12744   */\n      0xffffffffffffffff\n        /* \"#utility.yul\":12719:12724   */\n      dup3\n        /* \"#utility.yul\":12715:12745   */\n      and\n        /* \"#utility.yul\":12704:12745   */\n      swap1\n      pop\n        /* \"#utility.yul\":12650:12751   */\n      swap2\n      swap1\n      pop\n      jump\t// out\n        /* \"#utility.yul\":12757:12817   */\n    tag_490:\n        /* \"#utility.yul\":12785:12788   */\n      0x00\n        /* \"#utility.yul\":12806:12811   */\n      dup2\n        /* \"#utility.yul\":12799:12811   */\n      swap1\n      pop\n        /* \"#utility.yul\":12757:12817   */\n      swap2\n      swap1\n      pop\n      jump\t// out\n        /* \"#utility.yul\":12823:12979   */\n    tag_491:\n        /* \"#utility.yul\":12880:12889   */\n      0x00\n        /* \"#utility.yul\":12913:12973   */\n      tag_662\n        /* \"#utility.yul\":12930:12972   */\n      tag_663\n        /* \"#utility.yul\":12939:12971   */\n      tag_664\n        /* \"#utility.yul\":12965:12970   */\n      dup5\n        /* \"#utility.yul\":12939:12971   */\n      tag_488\n      jump\t// in\n    tag_664:\n        /* \"#utility.yul\":12930:12972   */\n      tag_490\n      jump\t// in\n    tag_663:\n        /* \"#utility.yul\":12913:12973   */\n      tag_489\n      jump\t// in\n    tag_662:\n        /* \"#utility.yul\":12900:12973   */\n      swap1\n      pop\n        /* \"#utility.yul\":12823:12979   */\n      swap2\n      swap1\n      pop\n      jump\t// out\n        /* \"#utility.yul\":12985:13130   */\n    tag_492:\n        /* \"#utility.yul\":13079:13123   */\n      tag_666\n        /* \"#utility.yul\":13117:13122   */\n      dup2\n        /* \"#utility.yul\":13079:13123   */\n      tag_491\n      jump\t// in\n    tag_666:\n        /* \"#utility.yul\":13074:13077   */\n      dup3\n        /* \"#utility.yul\":13067:13124   */\n      mstore\n        /* \"#utility.yul\":12985:13130   */\n      pop\n      pop\n      jump\t// out\n        /* \"#utility.yul\":13136:13372   */\n    tag_166:\n        /* \"#utility.yul\":13236:13240   */\n      0x00\n        /* \"#utility.yul\":13274:13276   */\n      0x20\n        /* \"#utility.yul\":13263:13272   */\n      dup3\n        /* \"#utility.yul\":13259:13277   */\n      add\n        /* \"#utility.yul\":13251:13277   */\n      swap1\n      pop\n        /* \"#utility.yul\":13287:13365   */\n      tag_668\n        /* \"#utility.yul\":13362:13363   */\n      0x00\n        /* \"#utility.yul\":13351:13360   */\n      dup4\n        /* \"#utility.yul\":13347:13364   */\n      add\n        /* \"#utility.yul\":13338:13344   */\n      dup5\n        /* \"#utility.yul\":13287:13365   */\n      tag_492\n      jump\t// in\n    tag_668:\n        /* \"#utility.yul\":13136:13372   */\n      swap3\n      swap2\n      pop\n      pop\n      jump\t// out\n        /* \"#utility.yul\":13378:13550   */\n    tag_493:\n        /* \"#utility.yul\":13518:13542   */\n      0x43616c6c6572206973206e6f742061206d696e74657200000000000000000000\n        /* \"#utility.yul\":13514:13515   */\n      0x00\n        /* \"#utility.yul\":13506:13512   */\n      dup3\n        /* \"#utility.yul\":13502:13516   */\n      add\n        /* \"#utility.yul\":13495:13543   */\n      mstore\n        /* \"#utility.yul\":13378:13550   */\n      pop\n      jump\t// out\n        /* \"#utility.yul\":13556:13922   */\n    tag_494:\n        /* \"#utility.yul\":13698:13701   */\n      0x00\n        /* \"#utility.yul\":13719:13786   */\n      tag_671\n        /* \"#utility.yul\":13783:13785   */\n      0x16\n        /* \"#utility.yul\":13778:13781   */\n      dup4\n        /* \"#utility.yul\":13719:13786   */\n      tag_451\n      jump\t// in\n    tag_671:\n        /* \"#utility.yul\":13712:13786   */\n      swap2\n      pop\n        /* \"#utility.yul\":13795:13888   */\n      tag_672\n        /* \"#utility.yul\":13884:13887   */\n      dup3\n        /* \"#utility.yul\":13795:13888   */\n      tag_493\n      jump\t// in\n    tag_672:\n        /* \"#utility.yul\":13913:13915   */\n      0x20\n        /* \"#utility.yul\":13908:13911   */\n      dup3\n        /* \"#utility.yul\":13904:13916   */\n      add\n        /* \"#utility.yul\":13897:13916   */\n      swap1\n      pop\n        /* \"#utility.yul\":13556:13922   */\n      swap2\n      swap1\n      pop\n      jump\t// out\n        /* \"#utility.yul\":13928:14347   */\n    tag_248:\n        /* \"#utility.yul\":14094:14098   */\n      0x00\n        /* \"#utility.yul\":14132:14134   */\n      0x20\n        /* \"#utility.yul\":14121:14130   */\n      dup3\n        /* \"#utility.yul\":14117:14135   */\n      add\n        /* \"#utility.yul\":14109:14135   */\n      swap1\n      pop\n        /* \"#utility.yul\":14181:14190   */\n      dup2\n        /* \"#utility.yul\":14175:14179   */\n      dup2\n        /* \"#utility.yul\":14171:14191   */\n      sub\n        /* \"#utility.yul\":14167:14168   */\n      0x00\n        /* \"#utility.yul\":14156:14165   */\n      dup4\n        /* \"#utility.yul\":14152:14169   */\n      add\n        /* \"#utility.yul\":14145:14192   */\n      mstore\n        /* \"#utility.yul\":14209:14340   */\n      tag_674\n        /* \"#utility.yul\":14335:14339   */\n      dup2\n        /* \"#utility.yul\":14209:14340   */\n      tag_494\n      jump\t// in\n    tag_674:\n        /* \"#utility.yul\":14201:14340   */\n      swap1\n      pop\n        /* \"#utility.yul\":13928:14347   */\n      swap2\n      swap1\n      pop\n      jump\t// out\n        /* \"#utility.yul\":14353:14795   */\n    tag_290:\n        /* \"#utility.yul\":14502:14506   */\n      0x00\n        /* \"#utility.yul\":14540:14542   */\n      0x60\n        /* \"#utility.yul\":14529:14538   */\n      dup3\n        /* \"#utility.yul\":14525:14543   */\n      add\n        /* \"#utility.yul\":14517:14543   */\n      swap1\n      pop\n        /* \"#utility.yul\":14553:14624   */\n      tag_676\n        /* \"#utility.yul\":14621:14622   */\n      0x00\n        /* \"#utility.yul\":14610:14619   */\n      dup4\n        /* \"#utility.yul\":14606:14623   */\n      add\n        /* \"#utility.yul\":14597:14603   */\n      dup7\n        /* \"#utility.yul\":14553:14624   */\n      tag_484\n      jump\t// in\n    tag_676:\n        /* \"#utility.yul\":14634:14706   */\n      tag_677\n        /* \"#utility.yul\":14702:14704   */\n      0x20\n        /* \"#utility.yul\":14691:14700   */\n      dup4\n        /* \"#utility.yul\":14687:14705   */\n      add\n        /* \"#utility.yul\":14678:14684   */\n      dup6\n        /* \"#utility.yul\":14634:14706   */\n      tag_476\n      jump\t// in\n    tag_677:\n        /* \"#utility.yul\":14716:14788   */\n      tag_678\n        /* \"#utility.yul\":14784:14786   */\n      0x40\n        /* \"#utility.yul\":14773:14782   */\n      dup4\n        /* \"#utility.yul\":14769:14787   */\n      add\n        /* \"#utility.yul\":14760:14766   */\n      dup5\n        /* \"#utility.yul\":14716:14788   */\n      tag_476\n      jump\t// in\n    tag_678:\n        /* \"#utility.yul\":14353:14795   */\n      swap5\n      swap4\n      pop\n      pop\n      pop\n      pop\n      jump\t// out\n        /* \"#utility.yul\":14801:14923   */\n    tag_495:\n        /* \"#utility.yul\":14874:14898   */\n      tag_680\n        /* \"#utility.yul\":14892:14897   */\n      dup2\n        /* \"#utility.yul\":14874:14898   */\n      tag_482\n      jump\t// in\n    tag_680:\n        /* \"#utility.yul\":14867:14872   */\n      dup2\n        /* \"#utility.yul\":14864:14899   */\n      eq\n        /* \"#utility.yul\":14854:14917   */\n      tag_681\n      jumpi\n        /* \"#utility.yul\":14913:14914   */\n      0x00\n        /* \"#utility.yul\":14910:14911   */\n      0x00\n        /* \"#utility.yul\":14903:14915   */\n      revert\n        /* \"#utility.yul\":14854:14917   */\n    tag_681:\n        /* \"#utility.yul\":14801:14923   */\n      pop\n      jump\t// out\n        /* \"#utility.yul\":14929:15072   */\n    tag_496:\n        /* \"#utility.yul\":14986:14991   */\n      0x00\n        /* \"#utility.yul\":15017:15023   */\n      dup2\n        /* \"#utility.yul\":15011:15024   */\n      mload\n        /* \"#utility.yul\":15002:15024   */\n      swap1\n      pop\n        /* \"#utility.yul\":15033:15066   */\n      tag_683\n        /* \"#utility.yul\":15060:15065   */\n      dup2\n        /* \"#utility.yul\":15033:15066   */\n      tag_495\n      jump\t// in\n    tag_683:\n        /* \"#utility.yul\":14929:15072   */\n      swap3\n      swap2\n      pop\n      pop\n      jump\t// out\n        /* \"#utility.yul\":15078:15429   */\n    tag_323:\n        /* \"#utility.yul\":15148:15154   */\n      0x00\n        /* \"#utility.yul\":15197:15199   */\n      0x20\n        /* \"#utility.yul\":15185:15194   */\n      dup3\n        /* \"#utility.yul\":15176:15183   */\n      dup5\n        /* \"#utility.yul\":15172:15195   */\n      sub\n        /* \"#utility.yul\":15168:15200   */\n      slt\n        /* \"#utility.yul\":15165:15284   */\n      iszero\n      tag_685\n      jumpi\n        /* \"#utility.yul\":15203:15282   */\n      tag_686\n      tag_456\n      jump\t// in\n    tag_686:\n        /* \"#utility.yul\":15165:15284   */\n    tag_685:\n        /* \"#utility.yul\":15323:15324   */\n      0x00\n        /* \"#utility.yul\":15348:15412   */\n      tag_687\n        /* \"#utility.yul\":15404:15411   */\n      dup5\n        /* \"#utility.yul\":15395:15401   */\n      dup3\n        /* \"#utility.yul\":15384:15393   */\n      dup6\n        /* \"#utility.yul\":15380:15402   */\n      add\n        /* \"#utility.yul\":15348:15412   */\n      tag_496\n      jump\t// in\n    tag_687:\n        /* \"#utility.yul\":15338:15412   */\n      swap2\n      pop\n        /* \"#utility.yul\":15294:15422   */\n      pop\n        /* \"#utility.yul\":15078:15429   */\n      swap3\n      swap2\n      pop\n      pop\n      jump\t// out\n        /* \"#utility.yul\":15435:15576   */\n    tag_497:\n        /* \"#utility.yul\":15484:15488   */\n      0x00\n        /* \"#utility.yul\":15507:15510   */\n      dup2\n        /* \"#utility.yul\":15499:15510   */\n      swap1\n      pop\n        /* \"#utility.yul\":15530:15533   */\n      dup2\n        /* \"#utility.yul\":15527:15528   */\n      0x00\n        /* \"#utility.yul\":15520:15534   */\n      mstore\n        /* \"#utility.yul\":15564:15568   */\n      0x20\n        /* \"#utility.yul\":15561:15562   */\n      0x00\n        /* \"#utility.yul\":15551:15569   */\n      keccak256\n        /* \"#utility.yul\":15543:15569   */\n      swap1\n      pop\n        /* \"#utility.yul\":15435:15576   */\n      swap2\n      swap1\n      pop\n      jump\t// out\n        /* \"#utility.yul\":15582:15675   */\n    tag_498:\n        /* \"#utility.yul\":15619:15625   */\n      0x00\n        /* \"#utility.yul\":15666:15668   */\n      0x20\n        /* \"#utility.yul\":15661:15663   */\n      0x1f\n        /* \"#utility.yul\":15654:15659   */\n      dup4\n        /* \"#utility.yul\":15650:15664   */\n      add\n        /* \"#utility.yul\":15646:15669   */\n      div\n        /* \"#utility.yul\":15636:15669   */\n      swap1\n      pop\n        /* \"#utility.yul\":15582:15675   */\n      swap2\n      swap1\n      pop\n      jump\t// out\n        /* \"#utility.yul\":15681:15788   */\n    tag_499:\n        /* \"#utility.yul\":15725:15733   */\n      0x00\n        /* \"#utility.yul\":15775:15780   */\n      dup3\n        /* \"#utility.yul\":15769:15773   */\n      dup3\n        /* \"#utility.yul\":15765:15781   */\n      shl\n        /* \"#utility.yul\":15744:15781   */\n      swap1\n      pop\n        /* \"#utility.yul\":15681:15788   */\n      swap3\n      swap2\n      pop\n      pop\n      jump\t// out\n        /* \"#utility.yul\":15794:16187   */\n    tag_500:\n        /* \"#utility.yul\":15863:15869   */\n      0x00\n        /* \"#utility.yul\":15913:15914   */\n      0x08\n        /* \"#utility.yul\":15901:15911   */\n      dup4\n        /* \"#utility.yul\":15897:15915   */\n      mul\n        /* \"#utility.yul\":15936:16033   */\n      tag_692\n        /* \"#utility.yul\":15966:16032   */\n      0xffffffffffffffffffffffffffffffffffffffffffffffffffffffffffffffff\n        /* \"#utility.yul\":15955:15964   */\n      dup3\n        /* \"#utility.yul\":15936:16033   */\n      tag_499\n      jump\t// in\n    tag_692:\n        /* \"#utility.yul\":16054:16093   */\n      tag_693\n        /* \"#utility.yul\":16084:16092   */\n      dup7\n        /* \"#utility.yul\":16073:16082   */\n      dup4\n        /* \"#utility.yul\":16054:16093   */\n      tag_499\n      jump\t// in\n    tag_693:\n        /* \"#utility.yul\":16042:16093   */\n      swap6\n      pop\n        /* \"#utility.yul\":16126:16130   */\n      dup1\n        /* \"#utility.yul\":16122:16131   */\n      not\n        /* \"#utility.yul\":16115:16120   */\n      dup5\n        /* \"#utility.yul\":16111:16132   */\n      and\n        /* \"#utility.yul\":16102:16132   */\n      swap4\n      pop\n        /* \"#utility.yul\":16175:16179   */\n      dup1\n        /* \"#utility.yul\":16165:16173   */\n      dup7\n        /* \"#utility.yul\":16161:16180   */\n      and\n        /* \"#utility.yul\":16154:16159   */\n      dup5\n        /* \"#utility.yul\":16151:16181   */\n      or\n        /* \"#utility.yul\":16141:16181   */\n      swap3\n      pop\n        /* \"#utility.yul\":15870:16187   */\n      pop\n      pop\n        /* \"#utility.yul\":15794:16187   */\n      swap4\n      swap3\n      pop\n      pop\n      pop\n      jump\t// out\n        /* \"#utility.yul\":16193:16335   */\n    tag_501:\n        /* \"#utility.yul\":16243:16252   */\n      0x00\n        /* \"#utility.yul\":16276:16329   */\n      tag_695\n        /* \"#utility.yul\":16294:16328   */\n      tag_696\n        /* \"#utility.yul\":16303:16327   */\n      tag_697\n        /* \"#utility.yul\":16321:16326   */\n      dup5\n        /* \"#utility.yul\":16303:16327   */\n      tag_471\n      jump\t// in\n    tag_697:\n        /* \"#utility.yul\":16294:16328   */\n      tag_490\n      jump\t// in\n    tag_696:\n        /* \"#utility.yul\":16276:16329   */\n      tag_471\n      jump\t// in\n    tag_695:\n        /* \"#utility.yul\":16263:16329   */\n      swap1\n      pop\n        /* \"#utility.yul\":16193:16335   */\n      swap2\n      swap1\n      pop\n      jump\t// out\n        /* \"#utility.yul\":16341:16416   */\n    tag_502:\n        /* \"#utility.yul\":16384:16387   */\n      0x00\n        /* \"#utility.yul\":16405:16410   */\n      dup2\n        /* \"#utility.yul\":16398:16410   */\n      swap1\n      pop\n        /* \"#utility.yul\":16341:16416   */\n      swap2\n      swap1\n      pop\n      jump\t// out\n        /* \"#utility.yul\":16422:16691   */\n    tag_503:\n        /* \"#utility.yul\":16532:16571   */\n      tag_700\n        /* \"#utility.yul\":16563:16570   */\n      dup4\n        /* \"#utility.yul\":16532:16571   */\n      tag_501\n      jump\t// in\n    tag_700:\n        /* \"#utility.yul\":16593:16684   */\n      tag_701\n        /* \"#utility.yul\":16642:16683   */\n      tag_702\n        /* \"#utility.yul\":16666:16682   */\n      dup3\n        /* \"#utility.yul\":16642:16683   */\n      tag_502\n      jump\t// in\n    tag_702:\n        /* \"#utility.yul\":16634:16640   */\n      dup5\n        /* \"#utility.yul\":16627:16631   */\n      dup5\n        /* \"#utility.yul\":16621:16632   */\n      sload\n        /* \"#utility.yul\":16593:16684   */\n      tag_500\n      jump\t// in\n    tag_701:\n        /* \"#utility.yul\":16587:16591   */\n      dup3\n        /* \"#utility.yul\":16580:16685   */\n      sstore\n        /* \"#utility.yul\":16498:16691   */\n      pop\n        /* \"#utility.yul\":16422:16691   */\n      pop\n      pop\n      pop\n      jump\t// out\n        /* \"#utility.yul\":16697:16770   */\n    tag_504:\n        /* \"#utility.yul\":16742:16745   */\n      0x00\n        /* \"#utility.yul\":16763:16764   */\n      0x00\n        /* \"#utility.yul\":16756:16764   */\n      swap1\n      pop\n        /* \"#utility.yul\":16697:16770   */\n      swap1\n      jump\t// out\n        /* \"#utility.yul\":16776:16965   */\n    tag_505:\n        /* \"#utility.yul\":16853:16885   */\n      tag_705\n      tag_504\n      jump\t// in\n    tag_705:\n        /* \"#utility.yul\":16894:16959   */\n      tag_706\n        /* \"#utility.yul\":16952:16958   */\n      dup2\n        /* \"#utility.yul\":16944:16950   */\n      dup5\n        /* \"#utility.yul\":16938:16942   */\n      dup5\n        /* \"#utility.yul\":16894:16959   */\n      tag_503\n      jump\t// in\n    tag_706:\n        /* \"#utility.yul\":16829:16965   */\n      pop\n        /* \"#utility.yul\":16776:16965   */\n      pop\n      pop\n      jump\t// out\n        /* \"#utility.yul\":16971:17185   */\n    tag_506:\n        /* \"#utility.yul\":17056:17057   */\n      0x00\n        /* \"#utility.yul\":17041:17179   */\n    tag_708:\n        /* \"#utility.yul\":17066:17075   */\n      dup3\n        /* \"#utility.yul\":17063:17064   */\n      dup2\n        /* \"#utility.yul\":17060:17076   */\n      lt\n        /* \"#utility.yul\":17041:17179   */\n      iszero\n      tag_710\n      jumpi\n        /* \"#utility.yul\":17118:17169   */\n      tag_711\n        /* \"#utility.yul\":17167:17168   */\n      0x00\n        /* \"#utility.yul\":17163:17164   */\n      dup3\n        /* \"#utility.yul\":17152:17161   */\n      dup5\n        /* \"#utility.yul\":17148:17165   */\n      add\n        /* \"#utility.yul\":17118:17169   */\n      tag_505\n      jump\t// in\n    tag_711:\n        /* \"#utility.yul\":17091:17092   */\n      0x01\n        /* \"#utility.yul\":17088:17089   */\n      dup2\n        /* \"#utility.yul\":17084:17093   */\n      add\n        /* \"#utility.yul\":17079:17093   */\n      swap1\n      pop\n        /* \"#utility.yul\":17041:17179   */\n      jump(tag_708)\n    tag_710:\n        /* \"#utility.yul\":17045:17059   */\n      pop\n        /* \"#utility.yul\":16971:17185   */\n      pop\n      pop\n      jump\t// out\n        /* \"#utility.yul\":17191:17937   */\n    tag_507:\n        /* \"#utility.yul\":17292:17294   */\n      0x1f\n        /* \"#utility.yul\":17287:17290   */\n      dup3\n        /* \"#utility.yul\":17284:17295   */\n      gt\n        /* \"#utility.yul\":17281:17930   */\n      iszero\n      tag_713\n      jumpi\n        /* \"#utility.yul\":17321:17331   */\n      dup3\n        /* \"#utility.yul\":17316:17319   */\n      dup3\n        /* \"#utility.yul\":17313:17332   */\n      gt\n        /* \"#utility.yul\":17310:17920   */\n      iszero\n      tag_714\n      jumpi\n        /* \"#utility.yul\":17367:17405   */\n      tag_715\n        /* \"#utility.yul\":17399:17404   */\n      dup2\n        /* \"#utility.yul\":17367:17405   */\n      tag_497\n      jump\t// in\n    tag_715:\n        /* \"#utility.yul\":17442:17464   */\n      tag_716\n        /* \"#utility.yul\":17460:17463   */\n      dup4\n        /* \"#utility.yul\":17442:17464   */\n      tag_498\n      jump\t// in\n    tag_716:\n        /* \"#utility.yul\":17501:17530   */\n      tag_717\n        /* \"#utility.yul\":17519:17529   */\n      dup6\n        /* \"#utility.yul\":17501:17530   */\n      tag_498\n      jump\t// in\n    tag_717:\n        /* \"#utility.yul\":17691:17693   */\n      0x20\n        /* \"#utility.yul\":17679:17689   */\n      dup7\n        /* \"#utility.yul\":17676:17694   */\n      lt\n        /* \"#utility.yul\":17673:17752   */\n      iszero\n      tag_718\n      jumpi\n        /* \"#utility.yul\":17733:17734   */\n      0x00\n        /* \"#utility.yul\":17717:17734   */\n      swap1\n      pop\n        /* \"#utility.yul\":17673:17752   */\n    tag_718:\n        /* \"#utility.yul\":17802:17814   */\n      dup1\n        /* \"#utility.yul\":17792:17800   */\n      dup4\n        /* \"#utility.yul\":17788:17815   */\n      add\n        /* \"#utility.yul\":17832:17906   */\n      tag_719\n        /* \"#utility.yul\":17892:17904   */\n      dup3\n        /* \"#utility.yul\":17878:17890   */\n      dup5\n        /* \"#utility.yul\":17874:17905   */\n      sub\n        /* \"#utility.yul\":17861:17872   */\n      dup3\n        /* \"#utility.yul\":17832:17906   */\n      tag_506\n      jump\t// in\n    tag_719:\n        /* \"#utility.yul\":17333:17920   */\n      pop\n      pop\n      pop\n      pop\n        /* \"#utility.yul\":17310:17920   */\n    tag_714:\n        /* \"#utility.yul\":17281:17930   */\n    tag_713:\n        /* \"#utility.yul\":17191:17937   */\n      pop\n      pop\n      pop\n      jump\t// out\n        /* \"#utility.yul\":17943:18060   */\n    tag_508:\n        /* \"#utility.yul\":17997:18005   */\n      0x00\n        /* \"#utility.yul\":18047:18052   */\n      dup3\n        /* \"#utility.yul\":18041:18045   */\n      dup3\n        /* \"#utility.yul\":18037:18053   */\n      shr\n        /* \"#utility.yul\":18016:18053   */\n      swap1\n      pop\n        /* \"#utility.yul\":17943:18060   */\n      swap3\n      swap2\n      pop\n      pop\n      jump\t// out\n        /* \"#utility.yul\":18066:18235   */\n    tag_509:\n        /* \"#utility.yul\":18110:18116   */\n      0x00\n        /* \"#utility.yul\":18143:18194   */\n      tag_722\n        /* \"#utility.yul\":18191:18192   */\n      0x00\n        /* \"#utility.yul\":18187:18193   */\n      not\n        /* \"#utility.yul\":18179:18184   */\n      dup5\n        /* \"#utility.yul\":18176:18177   */\n      0x08\n        /* \"#utility.yul\":18172:18185   */\n      mul\n        /* \"#utility.yul\":18143:18194   */\n      tag_508\n      jump\t// in\n    tag_722:\n        /* \"#utility.yul\":18139:18195   */\n      not\n        /* \"#utility.yul\":18224:18228   */\n      dup1\n        /* \"#utility.yul\":18218:18222   */\n      dup4\n        /* \"#utility.yul\":18214:18229   */\n      and\n        /* \"#utility.yul\":18204:18229   */\n      swap2\n      pop\n        /* \"#utility.yul\":18117:18235   */\n      pop\n        /* \"#utility.yul\":18066:18235   */\n      swap3\n      swap2\n      pop\n      pop\n      jump\t// out\n        /* \"#utility.yul\":18240:18535   */\n    tag_510:\n        /* \"#utility.yul\":18316:18320   */\n      0x00\n        /* \"#utility.yul\":18462:18491   */\n      tag_724\n        /* \"#utility.yul\":18487:18490   */\n      dup4\n        /* \"#utility.yul\":18481:18485   */\n      dup4\n        /* \"#utility.yul\":18462:18491   */\n      tag_509\n      jump\t// in\n    tag_724:\n        /* \"#utility.yul\":18454:18491   */\n      swap2\n      pop\n        /* \"#utility.yul\":18524:18527   */\n      dup3\n        /* \"#utility.yul\":18521:18522   */\n      0x02\n        /* \"#utility.yul\":18517:18528   */\n      mul\n        /* \"#utility.yul\":18511:18515   */\n      dup3\n        /* \"#utility.yul\":18508:18529   */\n      or\n        /* \"#utility.yul\":18500:18529   */\n      swap1\n      pop\n        /* \"#utility.yul\":18240:18535   */\n      swap3\n      swap2\n      pop\n      pop\n      jump\t// out\n        /* \"#utility.yul\":18540:19935   */\n    tag_365:\n        /* \"#utility.yul\":18657:18694   */\n      tag_726\n        /* \"#utility.yul\":18690:18693   */\n      dup3\n        /* \"#utility.yul\":18657:18694   */\n      tag_450\n      jump\t// in\n    tag_726:\n        /* \"#utility.yul\":18759:18777   */\n      0xffffffffffffffff\n        /* \"#utility.yul\":18751:18757   */\n      dup2\n        /* \"#utility.yul\":18748:18778   */\n      gt\n        /* \"#utility.yul\":18745:18801   */\n      iszero\n      tag_727\n      jumpi\n        /* \"#utility.yul\":18781:18799   */\n      tag_728\n      tag_460\n      jump\t// in\n    tag_728:\n        /* \"#utility.yul\":18745:18801   */\n    tag_727:\n        /* \"#utility.yul\":18825:18863   */\n      tag_729\n        /* \"#utility.yul\":18857:18861   */\n      dup3\n        /* \"#utility.yul\":18851:18862   */\n      sload\n        /* \"#utility.yul\":18825:18863   */\n      tag_144\n      jump\t// in\n    tag_729:\n        /* \"#utility.yul\":18910:18977   */\n      tag_730\n        /* \"#utility.yul\":18970:18976   */\n      dup3\n        /* \"#utility.yul\":18962:18968   */\n      dup3\n        /* \"#utility.yul\":18956:18960   */\n      dup6\n        /* \"#utility.yul\":18910:18977   */\n      tag_507\n      jump\t// in\n    tag_730:\n        /* \"#utility.yul\":19004:19005   */\n      0x00\n        /* \"#utility.yul\":19028:19032   */\n      0x20\n        /* \"#utility.yul\":19015:19032   */\n      swap1\n      pop\n        /* \"#utility.yul\":19060:19062   */\n      0x1f\n        /* \"#utility.yul\":19052:19058   */\n      dup4\n        /* \"#utility.yul\":19049:19063   */\n      gt\n        /* \"#utility.yul\":19077:19078   */\n      0x01\n        /* \"#utility.yul\":19072:19690   */\n      dup2\n      eq\n      tag_732\n      jumpi\n        /* \"#utility.yul\":19734:19735   */\n      0x00\n        /* \"#utility.yul\":19751:19757   */\n      dup5\n        /* \"#utility.yul\":19748:19825   */\n      iszero\n      tag_733\n      jumpi\n        /* \"#utility.yul\":19800:19809   */\n      dup3\n        /* \"#utility.yul\":19795:19798   */\n      dup8\n        /* \"#utility.yul\":19791:19810   */\n      add\n        /* \"#utility.yul\":19785:19811   */\n      mload\n        /* \"#utility.yul\":19776:19811   */\n      swap1\n      pop\n        /* \"#utility.yul\":19748:19825   */\n    tag_733:\n        /* \"#utility.yul\":19851:19918   */\n      tag_734\n        /* \"#utility.yul\":19911:19917   */\n      dup6\n        /* \"#utility.yul\":19904:19909   */\n      dup3\n        /* \"#utility.yul\":19851:19918   */\n      tag_510\n      jump\t// in\n    tag_734:\n        /* \"#utility.yul\":19845:19849   */\n      dup7\n        /* \"#utility.yul\":19838:19919   */\n      sstore\n        /* \"#utility.yul\":19707:19929   */\n      pop\n        /* \"#utility.yul\":19042:19929   */\n      jump(tag_731)\n        /* \"#utility.yul\":19072:19690   */\n    tag_732:\n        /* \"#utility.yul\":19124:19128   */\n      0x1f\n        /* \"#utility.yul\":19120:19129   */\n      not\n        /* \"#utility.yul\":19112:19118   */\n      dup5\n        /* \"#utility.yul\":19108:19130   */\n      and\n        /* \"#utility.yul\":19158:19195   */\n      tag_735\n        /* \"#utility.yul\":19190:19194   */\n      dup7\n        /* \"#utility.yul\":19158:19195   */\n      tag_497\n      jump\t// in\n    tag_735:\n        /* \"#utility.yul\":19217:19218   */\n      0x00\n        /* \"#utility.yul\":19231:19439   */\n    tag_736:\n        /* \"#utility.yul\":19245:19252   */\n      dup3\n        /* \"#utility.yul\":19242:19243   */\n      dup2\n        /* \"#utility.yul\":19239:19253   */\n      lt\n        /* \"#utility.yul\":19231:19439   */\n      iszero\n      tag_738\n      jumpi\n        /* \"#utility.yul\":19324:19333   */\n      dup5\n        /* \"#utility.yul\":19319:19322   */\n      dup10\n        /* \"#utility.yul\":19315:19334   */\n      add\n        /* \"#utility.yul\":19309:19335   */\n      mload\n        /* \"#utility.yul\":19301:19307   */\n      dup3\n        /* \"#utility.yul\":19294:19336   */\n      sstore\n        /* \"#utility.yul\":19375:19376   */\n      0x01\n        /* \"#utility.yul\":19367:19373   */\n      dup3\n        /* \"#utility.yul\":19363:19377   */\n      add\n        /* \"#utility.yul\":19353:19377   */\n      swap2\n      pop\n        /* \"#utility.yul\":19422:19424   */\n      0x20\n        /* \"#utility.yul\":19411:19420   */\n      dup6\n        /* \"#utility.yul\":19407:19425   */\n      add\n        /* \"#utility.yul\":19394:19425   */\n      swap5\n      pop\n        /* \"#utility.yul\":19268:19272   */\n      0x20\n        /* \"#utility.yul\":19265:19266   */\n      dup2\n        /* \"#utility.yul\":19261:19273   */\n      add\n        /* \"#utility.yul\":19256:19273   */\n      swap1\n      pop\n        /* \"#utility.yul\":19231:19439   */\n      jump(tag_736)\n    tag_738:\n        /* \"#utility.yul\":19467:19473   */\n      dup7\n        /* \"#utility.yul\":19458:19465   */\n      dup4\n        /* \"#utility.yul\":19455:19474   */\n      lt\n        /* \"#utility.yul\":19452:19631   */\n      iszero\n      tag_739\n      jumpi\n        /* \"#utility.yul\":19525:19534   */\n      dup5\n        /* \"#utility.yul\":19520:19523   */\n      dup10\n        /* \"#utility.yul\":19516:19535   */\n      add\n        /* \"#utility.yul\":19510:19536   */\n      mload\n        /* \"#utility.yul\":19568:19616   */\n      tag_740\n        /* \"#utility.yul\":19610:19614   */\n      0x1f\n        /* \"#utility.yul\":19602:19608   */\n      dup10\n        /* \"#utility.yul\":19598:19615   */\n      and\n        /* \"#utility.yul\":19587:19596   */\n      dup3\n        /* \"#utility.yul\":19568:19616   */\n      tag_509\n      jump\t// in\n    tag_740:\n        /* \"#utility.yul\":19560:19566   */\n      dup4\n        /* \"#utility.yul\":19553:19617   */\n      sstore\n        /* \"#utility.yul\":19475:19631   */\n      pop\n        /* \"#utility.yul\":19452:19631   */\n    tag_739:\n        /* \"#utility.yul\":19677:19678   */\n      0x01\n        /* \"#utility.yul\":19673:19674   */\n      0x02\n        /* \"#utility.yul\":19665:19671   */\n      dup9\n        /* \"#utility.yul\":19661:19675   */\n      mul\n        /* \"#utility.yul\":19657:19679   */\n      add\n        /* \"#utility.yul\":19651:19655   */\n      dup9\n        /* \"#utility.yul\":19644:19680   */\n      sstore\n        /* \"#utility.yul\":19079:19690   */\n      pop\n      pop\n      pop\n        /* \"#utility.yul\":19042:19929   */\n    tag_731:\n      pop\n        /* \"#utility.yul\":18632:19935   */\n      pop\n      pop\n      pop\n        /* \"#utility.yul\":18540:19935   */\n      pop\n      pop\n      jump\t// out\n        /* \"#utility.yul\":19941:20121   */\n    tag_511:\n        /* \"#utility.yul\":19989:20066   */\n      0x4e487b7100000000000000000000000000000000000000000000000000000000\n        /* \"#utility.yul\":19986:19987   */\n      0x00\n        /* \"#utility.yul\":19979:20067   */\n      mstore\n        /* \"#utility.yul\":20086:20090   */\n      0x11\n        /* \"#utility.yul\":20083:20084   */\n      0x04\n        /* \"#utility.yul\":20076:20091   */\n      mstore\n        /* \"#utility.yul\":20110:20114   */\n      0x24\n        /* \"#utility.yul\":20107:20108   */\n      0x00\n        /* \"#utility.yul\":20100:20115   */\n      revert\n        /* \"#utility.yul\":20127:20318   */\n    tag_439:\n        /* \"#utility.yul\":20167:20170   */\n      0x00\n        /* \"#utility.yul\":20186:20206   */\n      tag_743\n        /* \"#utility.yul\":20204:20205   */\n      dup3\n        /* \"#utility.yul\":20186:20206   */\n      tag_471\n      jump\t// in\n    tag_743:\n        /* \"#utility.yul\":20181:20206   */\n      swap2\n      pop\n        /* \"#utility.yul\":20220:20240   */\n      tag_744\n        /* \"#utility.yul\":20238:20239   */\n      dup4\n        /* \"#utility.yul\":20220:20240   */\n      tag_471\n      jump\t// in\n    tag_744:\n        /* \"#utility.yul\":20215:20240   */\n      swap3\n      pop\n        /* \"#utility.yul\":20263:20264   */\n      dup3\n        /* \"#utility.yul\":20260:20261   */\n      dup3\n        /* \"#utility.yul\":20256:20265   */\n      add\n        /* \"#utility.yul\":20249:20265   */\n      swap1\n      pop\n        /* \"#utility.yul\":20284:20287   */\n      dup1\n        /* \"#utility.yul\":20281:20282   */\n      dup3\n        /* \"#utility.yul\":20278:20288   */\n      gt\n        /* \"#utility.yul\":20275:20311   */\n      iszero\n      tag_745\n      jumpi\n        /* \"#utility.yul\":20291:20309   */\n      tag_746\n      tag_511\n      jump\t// in\n    tag_746:\n        /* \"#utility.yul\":20275:20311   */\n    tag_745:\n        /* \"#utility.yul\":20127:20318   */\n      swap3\n      swap2\n      pop\n      pop\n      jump\t// out\n\n    auxdata: 0xa2646970667358221220d22d1f46375bb8ed187aee18e18159ea43818c973ac1324c2028a1620deff67f64736f6c63430008220033\n}\n",
				"bytecode": {
					"linkReferences": {},
					"object": "60a06040523073ffffffffffffffffffffffffffffffffffffffff1660809073ffffffffffffffffffffffffffffffffffffffff16815250348015610042575f5ffd5b5061005161005660201b60201c565b6101d1565b5f61006561015460201b60201c565b9050805f0160089054906101000a900460ff16156100af576040517ff92ee8a900000000000000000000000000000000000000000000000000000000815260040160405180910390fd5b67ffffffffffffffff8016815f015f9054906101000a900467ffffffffffffffff1667ffffffffffffffff16146101515767ffffffffffffffff815f015f6101000a81548167ffffffffffffffff021916908367ffffffffffffffff1602179055507fc7f505b2f371ae2175ee4913f4499e1f2633a7b5936321eed1cdaeb6115181d267ffffffffffffffff60405161014891906101b8565b60405180910390a15b50565b5f5f61016461016d60201b60201c565b90508091505090565b5f7ff0c57e16840df040f15088dc2f81fe391c3923bec73e23a9662efc9c229c6a005f1b905090565b5f67ffffffffffffffff82169050919050565b6101b281610196565b82525050565b5f6020820190506101cb5f8301846101a9565b92915050565b608051612a4d6101f75f395f81816111250152818161117a01526113340152612a4d5ff3fe60806040526004361061014a575f3560e01c8063715018a6116100b5578063ad3cb1cc1161006e578063ad3cb1cc1461044e578063cf456ae714610478578063dd62ed3e146104a0578063f2fde38b146104dc578063f9a1e8f914610504578063fcb6c2631461052c5761014a565b8063715018a6146103565780638456cb591461036c5780638da5cb5b1461038257806395d89b41146103ac578063a9059cbb146103d6578063aa271e1a146104125761014a565b80633f4ba83a116101075780633f4ba83a1461026c5780634f1ef2861461028257806352d1902d1461029e5780635c975abb146102c85780636d625218146102f257806370a082311461031a5761014a565b806306fdde031461014e578063077f224a14610178578063095ea7b3146101a057806318160ddd146101dc57806323b872dd14610206578063313ce56714610242575b5f5ffd5b348015610159575f5ffd5b50610162610554565b60405161016f9190611fd2565b60405180910390f35b348015610183575f5ffd5b5061019e60048036038101906101999190612189565b6105f2565b005b3480156101ab575f5ffd5b506101c660048036038101906101c19190612244565b6107db565b6040516101d3919061229c565b60405180910390f35b3480156101e7575f5ffd5b506101f06107fd565b6040516101fd91906122c4565b60405180910390f35b348015610211575f5ffd5b5061022c600480360381019061022791906122dd565b610814565b604051610239919061229c565b60405180910390f35b34801561024d575f5ffd5b50610256610842565b6040516102639190612348565b60405180910390f35b348015610277575f5ffd5b50610280610849565b005b61029c600480360381019061029791906123ff565b61085b565b005b3480156102a9575f5ffd5b506102b261087a565b6040516102bf9190612471565b60405180910390f35b3480156102d3575f5ffd5b506102dc6108ab565b6040516102e9919061229c565b60405180910390f35b3480156102fd575f5ffd5b5061031860048036038101906103139190612244565b6108cd565b005b348015610325575f5ffd5b50610340600480360381019061033b919061248a565b6108e3565b60405161034d91906122c4565b60405180910390f35b348015610361575f5ffd5b5061036a610936565b005b348015610377575f5ffd5b50610380610949565b005b34801561038d575f5ffd5b5061039661095b565b6040516103a391906124c4565b60405180910390f35b3480156103b7575f5ffd5b506103c0610990565b6040516103cd9190611fd2565b60405180910390f35b3480156103e1575f5ffd5b506103fc60048036038101906103f79190612244565b610a2e565b604051610409919061229c565b60405180910390f35b34801561041d575f5ffd5b506104386004803603810190610433919061248a565b610a50565b604051610445919061229c565b60405180910390f35b348015610459575f5ffd5b50610462610a6c565b60405161046f9190611fd2565b60405180910390f35b348015610483575f5ffd5b5061049e60048036038101906104999190612507565b610aa5565b005b3480156104ab575f5ffd5b506104c660048036038101906104c19190612545565b610b04565b6040516104d391906122c4565b60405180910390f35b3480156104e7575f5ffd5b5061050260048036038101906104fd919061248a565b610b94565b005b34801561050f575f5ffd5b5061052a60048036038101906105259190612244565b610c18565b005b348015610537575f5ffd5b50610552600480360381019061054d9190612244565b610d51565b005b60605f61055f610e24565b9050806003018054610570906125b0565b80601f016020809104026020016040519081016040528092919081815260200182805461059c906125b0565b80156105e75780601f106105be576101008083540402835291602001916105e7565b820191905f5260205f20905b8154815290600101906020018083116105ca57829003601f168201915b505050505091505090565b5f6105fb610e4b565b90505f815f0160089054906101000a900460ff161590505f825f015f9054906101000a900467ffffffffffffffff1690505f5f8267ffffffffffffffff161480156106435750825b90505f60018367ffffffffffffffff1614801561067657505f3073ffffffffffffffffffffffffffffffffffffffff163b145b905081158015610684575080155b156106bb576040517ff92ee8a900000000000000000000000000000000000000000000000000000000815260040160405180910390fd5b6001855f015f6101000a81548167ffffffffffffffff021916908367ffffffffffffffff1602179055508315610708576001855f0160086101000a81548160ff0219169083151502179055505b6107128888610e5e565b61071a610e74565b61072386610e7e565b60015f5f8873ffffffffffffffffffffffffffffffffffffffff1673ffffffffffffffffffffffffffffffffffffffff1681526020019081526020015f205f6101000a81548160ff02191690831515021790555083156107d1575f855f0160086101000a81548160ff0219169083151502179055507fc7f505b2f371ae2175ee4913f4499e1f2633a7b5936321eed1cdaeb6115181d260016040516107c89190612635565b60405180910390a15b5050505050505050565b5f5f6107e5610e92565b90506107f2818585610e99565b600191505092915050565b5f5f610807610e24565b9050806002015491505090565b5f5f61081e610e92565b905061082b858285610eab565b610836858585610f3e565b60019150509392505050565b5f5f905090565b61085161102e565b6108596110b5565b565b610863611123565b61086c82611209565b6108768282611214565b5050565b5f610883611332565b7f360894a13ba1a3210667c828492db98dca3e2076cc3735a920a3ca505d382bbc5f1b905090565b5f5f6108b56113b9565b9050805f015f9054906101000a900460ff1691505090565b6108d561102e565b6108df82826113e0565b5050565b5f5f6108ed610e24565b9050805f015f8473ffffffffffffffffffffffffffffffffffffffff1673ffffffffffffffffffffffffffffffffffffffff1681526020019081526020015f2054915050919050565b61093e61102e565b6109475f61145f565b565b61095161102e565b610959611530565b565b5f5f61096561159f565b9050805f015f9054906101000a900473ffffffffffffffffffffffffffffffffffffffff1691505090565b60605f61099b610e24565b90508060040180546109ac906125b0565b80601f01602080910402602001604051908101604052809291908181526020018280546109d8906125b0565b8015610a235780601f106109fa57610100808354040283529160200191610a23565b820191905f5260205f20905b815481529060010190602001808311610a0657829003601f168201915b505050505091505090565b5f5f610a38610e92565b9050610a45818585610f3e565b600191505092915050565b5f602052805f5260405f205f915054906101000a900460ff1681565b6040518060400160405280600581526020017f352e302e3000000000000000000000000000000000000000000000000000000081525081565b610aad61102e565b805f5f8473ffffffffffffffffffffffffffffffffffffffff1673ffffffffffffffffffffffffffffffffffffffff1681526020019081526020015f205f6101000a81548160ff0219169083151502179055505050565b5f5f610b0e610e24565b9050806001015f8573ffffffffffffffffffffffffffffffffffffffff1673ffffffffffffffffffffffffffffffffffffffff1681526020019081526020015f205f8473ffffffffffffffffffffffffffffffffffffffff1673ffffffffffffffffffffffffffffffffffffffff1681526020019081526020015f205491505092915050565b610b9c61102e565b5f73ffffffffffffffffffffffffffffffffffffffff168173ffffffffffffffffffffffffffffffffffffffff1603610c0c575f6040517f1e4fbdf7000000000000000000000000000000000000000000000000000000008152600401610c0391906124c4565b60405180910390fd5b610c158161145f565b50565b3373ffffffffffffffffffffffffffffffffffffffff16610c3761095b565b73ffffffffffffffffffffffffffffffffffffffff161480610c9e57505f5f3373ffffffffffffffffffffffffffffffffffffffff1673ffffffffffffffffffffffffffffffffffffffff1681526020019081526020015f205f9054906101000a900460ff165b610cdd576040517f08c379a0000000000000000000000000000000000000000000000000000000008152600401610cd490612698565b60405180910390fd5b610ce782826115c6565b8173ffffffffffffffffffffffffffffffffffffffff16633676a601826040518263ffffffff1660e01b8152600401610d2091906122c4565b5f604051808303815f87803b158015610d37575f5ffd5b505af1158015610d49573d5f5f3e3d5ffd5b505050505050565b3373ffffffffffffffffffffffffffffffffffffffff16610d7061095b565b73ffffffffffffffffffffffffffffffffffffffff161480610dd757505f5f3373ffffffffffffffffffffffffffffffffffffffff1673ffffffffffffffffffffffffffffffffffffffff1681526020019081526020015f205f9054906101000a900460ff165b610e16576040517f08c379a0000000000000000000000000000000000000000000000000000000008152600401610e0d90612698565b60405180910390fd5b610e2082826115c6565b5050565b5f7f52c63247e1f47db19d5ce0460030c497f067ca4cebf71ba98eeadabe20bace00905090565b5f5f610e55611645565b90508091505090565b610e6661166e565b610e7082826116ae565b5050565b610e7c61166e565b565b610e8661166e565b610e8f816116ea565b50565b5f33905090565b610ea6838383600161176e565b505050565b5f610eb68484610b04565b90507fffffffffffffffffffffffffffffffffffffffffffffffffffffffffffffffff811015610f385781811015610f29578281836040517ffb8f41b2000000000000000000000000000000000000000000000000000000008152600401610f20939291906126b6565b60405180910390fd5b610f3784848484035f61176e565b5b50505050565b5f73ffffffffffffffffffffffffffffffffffffffff168373ffffffffffffffffffffffffffffffffffffffff1603610fae575f6040517f96c6fd1e000000000000000000000000000000000000000000000000000000008152600401610fa591906124c4565b60405180910390fd5b5f73ffffffffffffffffffffffffffffffffffffffff168273ffffffffffffffffffffffffffffffffffffffff160361101e575f6040517fec442f0500000000000000000000000000000000000000000000000000000000815260040161101591906124c4565b60405180910390fd5b61102983838361194b565b505050565b611036610e92565b73ffffffffffffffffffffffffffffffffffffffff1661105461095b565b73ffffffffffffffffffffffffffffffffffffffff16146110b357611077610e92565b6040517f118cdaa70000000000000000000000000000000000000000000000000000000081526004016110aa91906124c4565b60405180910390fd5b565b6110bd61195b565b5f6110c66113b9565b90505f815f015f6101000a81548160ff0219169083151502179055507f5db9ee0a495bf2e6ff9c91a7834c1ba4fdd244a5e8aa4e537bd38aeae4b073aa61110b610e92565b60405161111891906124c4565b60405180910390a150565b7f000000000000000000000000000000000000000000000000000000000000000073ffffffffffffffffffffffffffffffffffffffff163073ffffffffffffffffffffffffffffffffffffffff1614806111d057507f000000000000000000000000000000000000000000000000000000000000000073ffffffffffffffffffffffffffffffffffffffff166111b761199b565b73ffffffffffffffffffffffffffffffffffffffff1614155b15611207576040517fe07c8dba00000000000000000000000000000000000000000000000000000000815260040160405180910390fd5b565b61121161102e565b50565b8173ffffffffffffffffffffffffffffffffffffffff166352d1902d6040518163ffffffff1660e01b8152600401602060405180830381865afa92505050801561127c57506040513d601f19601f820116820180604052508101906112799190612715565b60015b6112bd57816040517f4c9c8ce30000000000000000000000000000000000000000000000000000000081526004016112b491906124c4565b60405180910390fd5b7f360894a13ba1a3210667c828492db98dca3e2076cc3735a920a3ca505d382bbc5f1b811461132357806040517faa1d49a400000000000000000000000000000000000000000000000000000000815260040161131a9190612471565b60405180910390fd5b61132d83836119ee565b505050565b7f000000000000000000000000000000000000000000000000000000000000000073ffffffffffffffffffffffffffffffffffffffff163073ffffffffffffffffffffffffffffffffffffffff16146113b7576040517fe07c8dba00000000000000000000000000000000000000000000000000000000815260040160405180910390fd5b565b5f7fcd5ed15c6e187e77e9aee88184c21f4f2182ab5827cb3b7e07fbedcd63f03300905090565b5f73ffffffffffffffffffffffffffffffffffffffff168273ffffffffffffffffffffffffffffffffffffffff1603611450575f6040517f96c6fd1e00000000000000000000000000000000000000000000000000000000815260040161144791906124c4565b60405180910390fd5b61145b825f8361194b565b5050565b5f61146861159f565b90505f815f015f9054906101000a900473ffffffffffffffffffffffffffffffffffffffff16905082825f015f6101000a81548173ffffffffffffffffffffffffffffffffffffffff021916908373ffffffffffffffffffffffffffffffffffffffff1602179055508273ffffffffffffffffffffffffffffffffffffffff168173ffffffffffffffffffffffffffffffffffffffff167f8be0079c531659141344cd1fd0a4f28419497f9722a3daafe3b4186f6b6457e060405160405180910390a3505050565b611538611a60565b5f6115416113b9565b90506001815f015f6101000a81548160ff0219169083151502179055507f62e78cea01bee320cd4e420270b5ea74000d11b0c9f74754ebdbfc544b05a258611587610e92565b60405161159491906124c4565b60405180910390a150565b5f7f9016d09d72d40fdae2fd8ceac6b6234c7706214fd39c1cd1e609a0528c199300905090565b5f73ffffffffffffffffffffffffffffffffffffffff168273ffffffffffffffffffffffffffffffffffffffff1603611636575f6040517fec442f0500000000000000000000000000000000000000000000000000000000815260040161162d91906124c4565b60405180910390fd5b6116415f838361194b565b5050565b5f7ff0c57e16840df040f15088dc2f81fe391c3923bec73e23a9662efc9c229c6a005f1b905090565b611676611aa1565b6116ac576040517fd7e6bcf800000000000000000000000000000000000000000000000000000000815260040160405180910390fd5b565b6116b661166e565b5f6116bf610e24565b9050828160030190816116d291906128e8565b50818160040190816116e491906128e8565b50505050565b6116f261166e565b5f73ffffffffffffffffffffffffffffffffffffffff168173ffffffffffffffffffffffffffffffffffffffff1603611762575f6040517f1e4fbdf700000000000000000000000000000000000000000000000000000000815260040161175991906124c4565b60405180910390fd5b61176b8161145f565b50565b5f611777610e24565b90505f73ffffffffffffffffffffffffffffffffffffffff168573ffffffffffffffffffffffffffffffffffffffff16036117e9575f6040517fe602df050000000000000000000000000000000000000000000000000000000081526004016117e091906124c4565b60405180910390fd5b5f73ffffffffffffffffffffffffffffffffffffffff168473ffffffffffffffffffffffffffffffffffffffff1603611859575f6040517f94280d6200000000000000000000000000000000000000000000000000000000815260040161185091906124c4565b60405180910390fd5b82816001015f8773ffffffffffffffffffffffffffffffffffffffff1673ffffffffffffffffffffffffffffffffffffffff1681526020019081526020015f205f8673ffffffffffffffffffffffffffffffffffffffff1673ffffffffffffffffffffffffffffffffffffffff1681526020019081526020015f20819055508115611944578373ffffffffffffffffffffffffffffffffffffffff168573ffffffffffffffffffffffffffffffffffffffff167f8c5be1e5ebec7d5bd14f71427d1e84f3dd0314c0f7b2291e5b200ac8c7c3b9258560405161193b91906122c4565b60405180910390a35b5050505050565b611956838383611abf565b505050565b6119636108ab565b611999576040517f8dfc202b00000000000000000000000000000000000000000000000000000000815260040160405180910390fd5b565b5f6119c77f360894a13ba1a3210667c828492db98dca3e2076cc3735a920a3ca505d382bbc5f1b611ad7565b5f015f9054906101000a900473ffffffffffffffffffffffffffffffffffffffff16905090565b6119f782611ae0565b8173ffffffffffffffffffffffffffffffffffffffff167fbc7cd75a20ee27fd9adebab32041f755214dbc6bffa90cc0225b39da2e5c2d3b60405160405180910390a25f81511115611a5357611a4d8282611ba9565b50611a5c565b611a5b611c9a565b5b5050565b611a686108ab565b15611a9f576040517fd93c066500000000000000000000000000000000000000000000000000000000815260040160405180910390fd5b565b5f611aaa610e4b565b5f0160089054906101000a900460ff16905090565b611ac7611a60565b611ad2838383611cd6565b505050565b5f819050919050565b5f8173ffffffffffffffffffffffffffffffffffffffff163b03611b3b57806040517f4c9c8ce3000000000000000000000000000000000000000000000000000000008152600401611b3291906124c4565b60405180910390fd5b80611b677f360894a13ba1a3210667c828492db98dca3e2076cc3735a920a3ca505d382bbc5f1b611ad7565b5f015f6101000a81548173ffffffffffffffffffffffffffffffffffffffff021916908373ffffffffffffffffffffffffffffffffffffffff16021790555050565b60605f611bb68484611f05565b9050808015611bec57505f611bc9611f19565b1180611beb57505f8473ffffffffffffffffffffffffffffffffffffffff163b115b5b15611c0157611bf9611f20565b915050611c94565b8015611c4457836040517f9996b315000000000000000000000000000000000000000000000000000000008152600401611c3b91906124c4565b60405180910390fd5b5f611c4d611f19565b1115611c6057611c5b611f3d565b611c92565b6040517fd6bda27500000000000000000000000000000000000000000000000000000000815260040160405180910390fd5b505b92915050565b5f341115611cd4576040517fb398979f00000000000000000000000000000000000000000000000000000000815260040160405180910390fd5b565b5f611cdf610e24565b90505f73ffffffffffffffffffffffffffffffffffffffff168473ffffffffffffffffffffffffffffffffffffffff1603611d335781816002015f828254611d2791906129e4565b92505081905550611e05565b5f815f015f8673ffffffffffffffffffffffffffffffffffffffff1673ffffffffffffffffffffffffffffffffffffffff1681526020019081526020015f2054905082811015611dbe578481846040517fe450d38c000000000000000000000000000000000000000000000000000000008152600401611db5939291906126b6565b60405180910390fd5b828103825f015f8773ffffffffffffffffffffffffffffffffffffffff1673ffffffffffffffffffffffffffffffffffffffff1681526020019081526020015f2081905550505b5f73ffffffffffffffffffffffffffffffffffffffff168373ffffffffffffffffffffffffffffffffffffffff1603611e4e5781816002015f8282540392505081905550611e9a565b81815f015f8573ffffffffffffffffffffffffffffffffffffffff1673ffffffffffffffffffffffffffffffffffffffff1681526020019081526020015f205f82825401925050819055505b8273ffffffffffffffffffffffffffffffffffffffff168473ffffffffffffffffffffffffffffffffffffffff167fddf252ad1be2c89b69c2b068fc378daa952ba7f163c4a11628f55a4df523b3ef84604051611ef791906122c4565b60405180910390a350505050565b5f5f5f835160208501865af4905092915050565b5f3d905090565b606060405190503d81523d5f602083013e3d602001810160405290565b6040513d5f823e3d81fd5b5f81519050919050565b5f82825260208201905092915050565b5f5b83811015611f7f578082015181840152602081019050611f64565b5f8484015250505050565b5f601f19601f8301169050919050565b5f611fa482611f48565b611fae8185611f52565b9350611fbe818560208601611f62565b611fc781611f8a565b840191505092915050565b5f6020820190508181035f830152611fea8184611f9a565b905092915050565b5f604051905090565b5f5ffd5b5f5ffd5b5f5ffd5b5f5ffd5b7f4e487b71000000000000000000000000000000000000000000000000000000005f52604160045260245ffd5b61204182611f8a565b810181811067ffffffffffffffff821117156120605761205f61200b565b5b80604052505050565b5f612072611ff2565b905061207e8282612038565b919050565b5f67ffffffffffffffff82111561209d5761209c61200b565b5b6120a682611f8a565b9050602081019050919050565b828183375f83830152505050565b5f6120d36120ce84612083565b612069565b9050828152602081018484840111156120ef576120ee612007565b5b6120fa8482856120b3565b509392505050565b5f82601f83011261211657612115612003565b5b81356121268482602086016120c1565b91505092915050565b5f73ffffffffffffffffffffffffffffffffffffffff82169050919050565b5f6121588261212f565b9050919050565b6121688161214e565b8114612172575f5ffd5b50565b5f813590506121838161215f565b92915050565b5f5f5f606084860312156121a05761219f611ffb565b5b5f84013567ffffffffffffffff8111156121bd576121bc611fff565b5b6121c986828701612102565b935050602084013567ffffffffffffffff8111156121ea576121e9611fff565b5b6121f686828701612102565b925050604061220786828701612175565b9150509250925092565b5f819050919050565b61222381612211565b811461222d575f5ffd5b50565b5f8135905061223e8161221a565b92915050565b5f5f6040838503121561225a57612259611ffb565b5b5f61226785828601612175565b925050602061227885828601612230565b9150509250929050565b5f8115159050919050565b61229681612282565b82525050565b5f6020820190506122af5f83018461228d565b92915050565b6122be81612211565b82525050565b5f6020820190506122d75f8301846122b5565b92915050565b5f5f5f606084860312156122f4576122f3611ffb565b5b5f61230186828701612175565b935050602061231286828701612175565b925050604061232386828701612230565b9150509250925092565b5f60ff82169050919050565b6123428161232d565b82525050565b5f60208201905061235b5f830184612339565b92915050565b5f67ffffffffffffffff82111561237b5761237a61200b565b5b61238482611f8a565b9050602081019050919050565b5f6123a361239e84612361565b612069565b9050828152602081018484840111156123bf576123be612007565b5b6123ca8482856120b3565b509392505050565b5f82601f8301126123e6576123e5612003565b5b81356123f6848260208601612391565b91505092915050565b5f5f6040838503121561241557612414611ffb565b5b5f61242285828601612175565b925050602083013567ffffffffffffffff81111561244357612442611fff565b5b61244f858286016123d2565b9150509250929050565b5f819050919050565b61246b81612459565b82525050565b5f6020820190506124845f830184612462565b92915050565b5f6020828403121561249f5761249e611ffb565b5b5f6124ac84828501612175565b91505092915050565b6124be8161214e565b82525050565b5f6020820190506124d75f8301846124b5565b92915050565b6124e681612282565b81146124f0575f5ffd5b50565b5f81359050612501816124dd565b92915050565b5f5f6040838503121561251d5761251c611ffb565b5b5f61252a85828601612175565b925050602061253b858286016124f3565b9150509250929050565b5f5f6040838503121561255b5761255a611ffb565b5b5f61256885828601612175565b925050602061257985828601612175565b9150509250929050565b7f4e487b71000000000000000000000000000000000000000000000000000000005f52602260045260245ffd5b5f60028204905060018216806125c757607f821691505b6020821081036125da576125d9612583565b5b50919050565b5f819050919050565b5f67ffffffffffffffff82169050919050565b5f819050919050565b5f61261f61261a612615846125e0565b6125fc565b6125e9565b9050919050565b61262f81612605565b82525050565b5f6020820190506126485f830184612626565b92915050565b7f43616c6c6572206973206e6f742061206d696e746572000000000000000000005f82015250565b5f612682601683611f52565b915061268d8261264e565b602082019050919050565b5f6020820190508181035f8301526126af81612676565b9050919050565b5f6060820190506126c95f8301866124b5565b6126d660208301856122b5565b6126e360408301846122b5565b949350505050565b6126f481612459565b81146126fe575f5ffd5b50565b5f8151905061270f816126eb565b92915050565b5f6020828403121561272a57612729611ffb565b5b5f61273784828501612701565b91505092915050565b5f819050815f5260205f209050919050565b5f6020601f8301049050919050565b5f82821b905092915050565b5f6008830261279c7fffffffffffffffffffffffffffffffffffffffffffffffffffffffffffffffff82612761565b6127a68683612761565b95508019841693508086168417925050509392505050565b5f6127d86127d36127ce84612211565b6125fc565b612211565b9050919050565b5f819050919050565b6127f1836127be565b6128056127fd826127df565b84845461276d565b825550505050565b5f5f905090565b61281c61280d565b6128278184846127e8565b505050565b5f5b8281101561284d576128425f828401612814565b60018101905061282e565b505050565b601f8211156128a0578282111561289f5761286c81612740565b61287583612752565b61287e85612752565b602086101561288b575f90505b80830161289a8284038261282c565b505050505b5b505050565b5f82821c905092915050565b5f6128c05f19846008026128a5565b1980831691505092915050565b5f6128d883836128b1565b9150826002028217905092915050565b6128f182611f48565b67ffffffffffffffff81111561290a5761290961200b565b5b61291482546125b0565b61291f828285612852565b5f60209050601f831160018114612950575f841561293e578287015190505b61294885826128cd565b8655506129af565b601f19841661295e86612740565b5f5b8281101561298557848901518255600182019150602085019450602081019050612960565b868310156129a2578489015161299e601f8916826128b1565b8355505b6001600288020188555050505b505050505050565b7f4e487b71000000000000000000000000000000000000000000000000000000005f52601160045260245ffd5b5f6129ee82612211565b91506129f983612211565b9250828201905080821115612a1157612a106129b7565b5b9291505056fea2646970667358221220d22d1f46375bb8ed187aee18e18159ea43818c973ac1324c2028a1620deff67f64736f6c63430008220033",
					"opcodes": "PUSH1 0xA0 PUSH1 0x40 MSTORE ADDRESS PUSH20 0xFFFFFFFFFFFFFFFFFFFFFFFFFFFFFFFFFFFFFFFF AND PUSH1 0x80 SWAP1 PUSH20 0xFFFFFFFFFFFFFFFFFFFFFFFFFFFFFFFFFFFFFFFF AND DUP2 MSTORE POP CALLVALUE DUP1 ISZERO PUSH2 0x42 JUMPI PUSH0 PUSH0 REVERT JUMPDEST POP PUSH2 0x51 PUSH2 0x56 PUSH1 0x20 SHL PUSH1 0x20 SHR JUMP JUMPDEST PUSH2 0x1D1 JUMP JUMPDEST PUSH0 PUSH2 0x65 PUSH2 0x154 PUSH1 0x20 SHL PUSH1 0x20 SHR JUMP JUMPDEST SWAP1 POP DUP1 PUSH0 ADD PUSH1 0x8 SWAP1 SLOAD SWAP1 PUSH2 0x100 EXP SWAP1 DIV PUSH1 0xFF AND ISZERO PUSH2 0xAF JUMPI PUSH1 0x40 MLOAD PUSH32 0xF92EE8A900000000000000000000000000000000000000000000000000000000 DUP2 MSTORE PUSH1 0x4 ADD PUSH1 0x40 MLOAD DUP1 SWAP2 SUB SWAP1 REVERT JUMPDEST PUSH8 0xFFFFFFFFFFFFFFFF DUP1 AND DUP2 PUSH0 ADD PUSH0 SWAP1 SLOAD SWAP1 PUSH2 0x100 EXP SWAP1 DIV PUSH8 0xFFFFFFFFFFFFFFFF AND PUSH8 0xFFFFFFFFFFFFFFFF AND EQ PUSH2 0x151 JUMPI PUSH8 0xFFFFFFFFFFFFFFFF DUP2 PUSH0 ADD PUSH0 PUSH2 0x100 EXP DUP2 SLOAD DUP2 PUSH8 0xFFFFFFFFFFFFFFFF MUL NOT AND SWAP1 DUP4 PUSH8 0xFFFFFFFFFFFFFFFF AND MUL OR SWAP1 SSTORE POP PUSH32 0xC7F505B2F371AE2175EE4913F4499E1F2633A7B5936321EED1CDAEB6115181D2 PUSH8 0xFFFFFFFFFFFFFFFF PUSH1 0x40 MLOAD PUSH2 0x148 SWAP2 SWAP1 PUSH2 0x1B8 JUMP JUMPDEST PUSH1 0x40 MLOAD DUP1 SWAP2 SUB SWAP1 LOG1 JUMPDEST POP JUMP JUMPDEST PUSH0 PUSH0 PUSH2 0x164 PUSH2 0x16D PUSH1 0x20 SHL PUSH1 0x20 SHR JUMP JUMPDEST SWAP1 POP DUP1 SWAP2 POP POP SWAP1 JUMP JUMPDEST PUSH0 PUSH32 0xF0C57E16840DF040F15088DC2F81FE391C3923BEC73E23A9662EFC9C229C6A00 PUSH0 SHL SWAP1 POP SWAP1 JUMP JUMPDEST PUSH0 PUSH8 0xFFFFFFFFFFFFFFFF DUP3 AND SWAP1 POP SWAP2 SWAP1 POP JUMP JUMPDEST PUSH2 0x1B2 DUP2 PUSH2 0x196 JUMP JUMPDEST DUP3 MSTORE POP POP JUMP JUMPDEST PUSH0 PUSH1 0x20 DUP3 ADD SWAP1 POP PUSH2 0x1CB PUSH0 DUP4 ADD DUP5 PUSH2 0x1A9 JUMP JUMPDEST SWAP3 SWAP2 POP POP JUMP JUMPDEST PUSH1 0x80 MLOAD PUSH2 0x2A4D PUSH2 0x1F7 PUSH0 CODECOPY PUSH0 DUP2 DUP2 PUSH2 0x1125 ADD MSTORE DUP2 DUP2 PUSH2 0x117A ADD MSTORE PUSH2 0x1334 ADD MSTORE PUSH2 0x2A4D PUSH0 RETURN INVALID PUSH1 0x80 PUSH1 0x40 MSTORE PUSH1 0x4 CALLDATASIZE LT PUSH2 0x14A JUMPI PUSH0 CALLDATALOAD PUSH1 0xE0 SHR DUP1 PUSH4 0x715018A6 GT PUSH2 0xB5 JUMPI DUP1 PUSH4 0xAD3CB1CC GT PUSH2 0x6E JUMPI DUP1 PUSH4 0xAD3CB1CC EQ PUSH2 0x44E JUMPI DUP1 PUSH4 0xCF456AE7 EQ PUSH2 0x478 JUMPI DUP1 PUSH4 0xDD62ED3E EQ PUSH2 0x4A0 JUMPI DUP1 PUSH4 0xF2FDE38B EQ PUSH2 0x4DC JUMPI DUP1 PUSH4 0xF9A1E8F9 EQ PUSH2 0x504 JUMPI DUP1 PUSH4 0xFCB6C263 EQ PUSH2 0x52C JUMPI PUSH2 0x14A JUMP JUMPDEST DUP1 PUSH4 0x715018A6 EQ PUSH2 0x356 JUMPI DUP1 PUSH4 0x8456CB59 EQ PUSH2 0x36C JUMPI DUP1 PUSH4 0x8DA5CB5B EQ PUSH2 0x382 JUMPI DUP1 PUSH4 0x95D89B41 EQ PUSH2 0x3AC JUMPI DUP1 PUSH4 0xA9059CBB EQ PUSH2 0x3D6 JUMPI DUP1 PUSH4 0xAA271E1A EQ PUSH2 0x412 JUMPI PUSH2 0x14A JUMP JUMPDEST DUP1 PUSH4 0x3F4BA83A GT PUSH2 0x107 JUMPI DUP1 PUSH4 0x3F4BA83A EQ PUSH2 0x26C JUMPI DUP1 PUSH4 0x4F1EF286 EQ PUSH2 0x282 JUMPI DUP1 PUSH4 0x52D1902D EQ PUSH2 0x29E JUMPI DUP1 PUSH4 0x5C975ABB EQ PUSH2 0x2C8 JUMPI DUP1 PUSH4 0x6D625218 EQ PUSH2 0x2F2 JUMPI DUP1 PUSH4 0x70A08231 EQ PUSH2 0x31A JUMPI PUSH2 0x14A JUMP JUMPDEST DUP1 PUSH4 0x6FDDE03 EQ PUSH2 0x14E JUMPI DUP1 PUSH4 0x77F224A EQ PUSH2 0x178 JUMPI DUP1 PUSH4 0x95EA7B3 EQ PUSH2 0x1A0 JUMPI DUP1 PUSH4 0x18160DDD EQ PUSH2 0x1DC JUMPI DUP1 PUSH4 0x23B872DD EQ PUSH2 0x206 JUMPI DUP1 PUSH4 0x313CE567 EQ PUSH2 0x242 JUMPI JUMPDEST PUSH0 PUSH0 REVERT JUMPDEST CALLVALUE DUP1 ISZERO PUSH2 0x159 JUMPI PUSH0 PUSH0 REVERT JUMPDEST POP PUSH2 0x162 PUSH2 0x554 JUMP JUMPDEST PUSH1 0x40 MLOAD PUSH2 0x16F SWAP2 SWAP1 PUSH2 0x1FD2 JUMP JUMPDEST PUSH1 0x40 MLOAD DUP1 SWAP2 SUB SWAP1 RETURN JUMPDEST CALLVALUE DUP1 ISZERO PUSH2 0x183 JUMPI PUSH0 PUSH0 REVERT JUMPDEST POP PUSH2 0x19E PUSH1 0x4 DUP1 CALLDATASIZE SUB DUP2 ADD SWAP1 PUSH2 0x199 SWAP2 SWAP1 PUSH2 0x2189 JUMP JUMPDEST PUSH2 0x5F2 JUMP JUMPDEST STOP JUMPDEST CALLVALUE DUP1 ISZERO PUSH2 0x1AB JUMPI PUSH0 PUSH0 REVERT JUMPDEST POP PUSH2 0x1C6 PUSH1 0x4 DUP1 CALLDATASIZE SUB DUP2 ADD SWAP1 PUSH2 0x1C1 SWAP2 SWAP1 PUSH2 0x2244 JUMP JUMPDEST PUSH2 0x7DB JUMP JUMPDEST PUSH1 0x40 MLOAD PUSH2 0x1D3 SWAP2 SWAP1 PUSH2 0x229C JUMP JUMPDEST PUSH1 0x40 MLOAD DUP1 SWAP2 SUB SWAP1 RETURN JUMPDEST CALLVALUE DUP1 ISZERO PUSH2 0x1E7 JUMPI PUSH0 PUSH0 REVERT JUMPDEST POP PUSH2 0x1F0 PUSH2 0x7FD JUMP JUMPDEST PUSH1 0x40 MLOAD PUSH2 0x1FD SWAP2 SWAP1 PUSH2 0x22C4 JUMP JUMPDEST PUSH1 0x40 MLOAD DUP1 SWAP2 SUB SWAP1 RETURN JUMPDEST CALLVALUE DUP1 ISZERO PUSH2 0x211 JUMPI PUSH0 PUSH0 REVERT JUMPDEST POP PUSH2 0x22C PUSH1 0x4 DUP1 CALLDATASIZE SUB DUP2 ADD SWAP1 PUSH2 0x227 SWAP2 SWAP1 PUSH2 0x22DD JUMP JUMPDEST PUSH2 0x814 JUMP JUMPDEST PUSH1 0x40 MLOAD PUSH2 0x239 SWAP2 SWAP1 PUSH2 0x229C JUMP JUMPDEST PUSH1 0x40 MLOAD DUP1 SWAP2 SUB SWAP1 RETURN JUMPDEST CALLVALUE DUP1 ISZERO PUSH2 0x24D JUMPI PUSH0 PUSH0 REVERT JUMPDEST POP PUSH2 0x256 PUSH2 0x842 JUMP JUMPDEST PUSH1 0x40 MLOAD PUSH2 0x263 SWAP2 SWAP1 PUSH2 0x2348 JUMP JUMPDEST PUSH1 0x40 MLOAD DUP1 SWAP2 SUB SWAP1 RETURN JUMPDEST CALLVALUE DUP1 ISZERO PUSH2 0x277 JUMPI PUSH0 PUSH0 REVERT JUMPDEST POP PUSH2 0x280 PUSH2 0x849 JUMP JUMPDEST STOP JUMPDEST PUSH2 0x29C PUSH1 0x4 DUP1 CALLDATASIZE SUB DUP2 ADD SWAP1 PUSH2 0x297 SWAP2 SWAP1 PUSH2 0x23FF JUMP JUMPDEST PUSH2 0x85B JUMP JUMPDEST STOP JUMPDEST CALLVALUE DUP1 ISZERO PUSH2 0x2A9 JUMPI PUSH0 PUSH0 REVERT JUMPDEST POP PUSH2 0x2B2 PUSH2 0x87A JUMP JUMPDEST PUSH1 0x40 MLOAD PUSH2 0x2BF SWAP2 SWAP1 PUSH2 0x2471 JUMP JUMPDEST PUSH1 0x40 MLOAD DUP1 SWAP2 SUB SWAP1 RETURN JUMPDEST CALLVALUE DUP1 ISZERO PUSH2 0x2D3 JUMPI PUSH0 PUSH0 REVERT JUMPDEST POP PUSH2 0x2DC PUSH2 0x8AB JUMP JUMPDEST PUSH1 0x40 MLOAD PUSH2 0x2E9 SWAP2 SWAP1 PUSH2 0x229C JUMP JUMPDEST PUSH1 0x40 MLOAD DUP1 SWAP2 SUB SWAP1 RETURN JUMPDEST CALLVALUE DUP1 ISZERO PUSH2 0x2FD JUMPI PUSH0 PUSH0 REVERT JUMPDEST POP PUSH2 0x318 PUSH1 0x4 DUP1 CALLDATASIZE SUB DUP2 ADD SWAP1 PUSH2 0x313 SWAP2 SWAP1 PUSH2 0x2244 JUMP JUMPDEST PUSH2 0x8CD JUMP JUMPDEST STOP JUMPDEST CALLVALUE DUP1 ISZERO PUSH2 0x325 JUMPI PUSH0 PUSH0 REVERT JUMPDEST POP PUSH2 0x340 PUSH1 0x4 DUP1 CALLDATASIZE SUB DUP2 ADD SWAP1 PUSH2 0x33B SWAP2 SWAP1 PUSH2 0x248A JUMP JUMPDEST PUSH2 0x8E3 JUMP JUMPDEST PUSH1 0x40 MLOAD PUSH2 0x34D SWAP2 SWAP1 PUSH2 0x22C4 JUMP JUMPDEST PUSH1 0x40 MLOAD DUP1 SWAP2 SUB SWAP1 RETURN JUMPDEST CALLVALUE DUP1 ISZERO PUSH2 0x361 JUMPI PUSH0 PUSH0 REVERT JUMPDEST POP PUSH2 0x36A PUSH2 0x936 JUMP JUMPDEST STOP JUMPDEST CALLVALUE DUP1 ISZERO PUSH2 0x377 JUMPI PUSH0 PUSH0 REVERT JUMPDEST POP PUSH2 0x380 PUSH2 0x949 JUMP JUMPDEST STOP JUMPDEST CALLVALUE DUP1 ISZERO PUSH2 0x38D JUMPI PUSH0 PUSH0 REVERT JUMPDEST POP PUSH2 0x396 PUSH2 0x95B JUMP JUMPDEST PUSH1 0x40 MLOAD PUSH2 0x3A3 SWAP2 SWAP1 PUSH2 0x24C4 JUMP JUMPDEST PUSH1 0x40 MLOAD DUP1 SWAP2 SUB SWAP1 RETURN JUMPDEST CALLVALUE DUP1 ISZERO PUSH2 0x3B7 JUMPI PUSH0 PUSH0 REVERT JUMPDEST POP PUSH2 0x3C0 PUSH2 0x990 JUMP JUMPDEST PUSH1 0x40 MLOAD PUSH2 0x3CD SWAP2 SWAP1 PUSH2 0x1FD2 JUMP JUMPDEST PUSH1 0x40 MLOAD DUP1 SWAP2 SUB SWAP1 RETURN JUMPDEST CALLVALUE DUP1 ISZERO PUSH2 0x3E1 JUMPI PUSH0 PUSH0 REVERT JUMPDEST POP PUSH2 0x3FC PUSH1 0x4 DUP1 CALLDATASIZE SUB DUP2 ADD SWAP1 PUSH2 0x3F7 SWAP2 SWAP1 PUSH2 0x2244 JUMP JUMPDEST PUSH2 0xA2E JUMP JUMPDEST PUSH1 0x40 MLOAD PUSH2 0x409 SWAP2 SWAP1 PUSH2 0x229C JUMP JUMPDEST PUSH1 0x40 MLOAD DUP1 SWAP2 SUB SWAP1 RETURN JUMPDEST CALLVALUE DUP1 ISZERO PUSH2 0x41D JUMPI PUSH0 PUSH0 REVERT JUMPDEST POP PUSH2 0x438 PUSH1 0x4 DUP1 CALLDATASIZE SUB DUP2 ADD SWAP1 PUSH2 0x433 SWAP2 SWAP1 PUSH2 0x248A JUMP JUMPDEST PUSH2 0xA50 JUMP JUMPDEST PUSH1 0x40 MLOAD PUSH2 0x445 SWAP2 SWAP1 PUSH2 0x229C JUMP JUMPDEST PUSH1 0x40 MLOAD DUP1 SWAP2 SUB SWAP1 RETURN JUMPDEST CALLVALUE DUP1 ISZERO PUSH2 0x459 JUMPI PUSH0 PUSH0 REVERT JUMPDEST POP PUSH2 0x462 PUSH2 0xA6C JUMP JUMPDEST PUSH1 0x40 MLOAD PUSH2 0x46F SWAP2 SWAP1 PUSH2 0x1FD2 JUMP JUMPDEST PUSH1 0x40 MLOAD DUP1 SWAP2 SUB SWAP1 RETURN JUMPDEST CALLVALUE DUP1 ISZERO PUSH2 0x483 JUMPI PUSH0 PUSH0 REVERT JUMPDEST POP PUSH2 0x49E PUSH1 0x4 DUP1 CALLDATASIZE SUB DUP2 ADD SWAP1 PUSH2 0x499 SWAP2 SWAP1 PUSH2 0x2507 JUMP JUMPDEST PUSH2 0xAA5 JUMP JUMPDEST STOP JUMPDEST CALLVALUE DUP1 ISZERO PUSH2 0x4AB JUMPI PUSH0 PUSH0 REVERT JUMPDEST POP PUSH2 0x4C6 PUSH1 0x4 DUP1 CALLDATASIZE SUB DUP2 ADD SWAP1 PUSH2 0x4C1 SWAP2 SWAP1 PUSH2 0x2545 JUMP JUMPDEST PUSH2 0xB04 JUMP JUMPDEST PUSH1 0x40 MLOAD PUSH2 0x4D3 SWAP2 SWAP1 PUSH2 0x22C4 JUMP JUMPDEST PUSH1 0x40 MLOAD DUP1 SWAP2 SUB SWAP1 RETURN JUMPDEST CALLVALUE DUP1 ISZERO PUSH2 0x4E7 JUMPI PUSH0 PUSH0 REVERT JUMPDEST POP PUSH2 0x502 PUSH1 0x4 DUP1 CALLDATASIZE SUB DUP2 ADD SWAP1 PUSH2 0x4FD SWAP2 SWAP1 PUSH2 0x248A JUMP JUMPDEST PUSH2 0xB94 JUMP JUMPDEST STOP JUMPDEST CALLVALUE DUP1 ISZERO PUSH2 0x50F JUMPI PUSH0 PUSH0 REVERT JUMPDEST POP PUSH2 0x52A PUSH1 0x4 DUP1 CALLDATASIZE SUB DUP2 ADD SWAP1 PUSH2 0x525 SWAP2 SWAP1 PUSH2 0x2244 JUMP JUMPDEST PUSH2 0xC18 JUMP JUMPDEST STOP JUMPDEST CALLVALUE DUP1 ISZERO PUSH2 0x537 JUMPI PUSH0 PUSH0 REVERT JUMPDEST POP PUSH2 0x552 PUSH1 0x4 DUP1 CALLDATASIZE SUB DUP2 ADD SWAP1 PUSH2 0x54D SWAP2 SWAP1 PUSH2 0x2244 JUMP JUMPDEST PUSH2 0xD51 JUMP JUMPDEST STOP JUMPDEST PUSH1 0x60 PUSH0 PUSH2 0x55F PUSH2 0xE24 JUMP JUMPDEST SWAP1 POP DUP1 PUSH1 0x3 ADD DUP1 SLOAD PUSH2 0x570 SWAP1 PUSH2 0x25B0 JUMP JUMPDEST DUP1 PUSH1 0x1F ADD PUSH1 0x20 DUP1 SWAP2 DIV MUL PUSH1 0x20 ADD PUSH1 0x40 MLOAD SWAP1 DUP2 ADD PUSH1 0x40 MSTORE DUP1 SWAP3 SWAP2 SWAP1 DUP2 DUP2 MSTORE PUSH1 0x20 ADD DUP3 DUP1 SLOAD PUSH2 0x59C SWAP1 PUSH2 0x25B0 JUMP JUMPDEST DUP1 ISZERO PUSH2 0x5E7 JUMPI DUP1 PUSH1 0x1F LT PUSH2 0x5BE JUMPI PUSH2 0x100 DUP1 DUP4 SLOAD DIV MUL DUP4 MSTORE SWAP2 PUSH1 0x20 ADD SWAP2 PUSH2 0x5E7 JUMP JUMPDEST DUP3 ADD SWAP2 SWAP1 PUSH0 MSTORE PUSH1 0x20 PUSH0 KECCAK256 SWAP1 JUMPDEST DUP2 SLOAD DUP2 MSTORE SWAP1 PUSH1 0x1 ADD SWAP1 PUSH1 0x20 ADD DUP1 DUP4 GT PUSH2 0x5CA JUMPI DUP3 SWAP1 SUB PUSH1 0x1F AND DUP3 ADD SWAP2 JUMPDEST POP POP POP POP POP SWAP2 POP POP SWAP1 JUMP JUMPDEST PUSH0 PUSH2 0x5FB PUSH2 0xE4B JUMP JUMPDEST SWAP1 POP PUSH0 DUP2 PUSH0 ADD PUSH1 0x8 SWAP1 SLOAD SWAP1 PUSH2 0x100 EXP SWAP1 DIV PUSH1 0xFF AND ISZERO SWAP1 POP PUSH0 DUP3 PUSH0 ADD PUSH0 SWAP1 SLOAD SWAP1 PUSH2 0x100 EXP SWAP1 DIV PUSH8 0xFFFFFFFFFFFFFFFF AND SWAP1 POP PUSH0 PUSH0 DUP3 PUSH8 0xFFFFFFFFFFFFFFFF AND EQ DUP1 ISZERO PUSH2 0x643 JUMPI POP DUP3 JUMPDEST SWAP1 POP PUSH0 PUSH1 0x1 DUP4 PUSH8 0xFFFFFFFFFFFFFFFF AND EQ DUP1 ISZERO PUSH2 0x676 JUMPI POP PUSH0 ADDRESS PUSH20 0xFFFFFFFFFFFFFFFFFFFFFFFFFFFFFFFFFFFFFFFF AND EXTCODESIZE EQ JUMPDEST SWAP1 POP DUP2 ISZERO DUP1 ISZERO PUSH2 0x684 JUMPI POP DUP1 ISZERO JUMPDEST ISZERO PUSH2 0x6BB JUMPI PUSH1 0x40 MLOAD PUSH32 0xF92EE8A900000000000000000000000000000000000000000000000000000000 DUP2 MSTORE PUSH1 0x4 ADD PUSH1 0x40 MLOAD DUP1 SWAP2 SUB SWAP1 REVERT JUMPDEST PUSH1 0x1 DUP6 PUSH0 ADD PUSH0 PUSH2 0x100 EXP DUP2 SLOAD DUP2 PUSH8 0xFFFFFFFFFFFFFFFF MUL NOT AND SWAP1 DUP4 PUSH8 0xFFFFFFFFFFFFFFFF AND MUL OR SWAP1 SSTORE POP DUP4 ISZERO PUSH2 0x708 JUMPI PUSH1 0x1 DUP6 PUSH0 ADD PUSH1 0x8 PUSH2 0x100 EXP DUP2 SLOAD DUP2 PUSH1 0xFF MUL NOT AND SWAP1 DUP4 ISZERO ISZERO MUL OR SWAP1 SSTORE POP JUMPDEST PUSH2 0x712 DUP9 DUP9 PUSH2 0xE5E JUMP JUMPDEST PUSH2 0x71A PUSH2 0xE74 JUMP JUMPDEST PUSH2 0x723 DUP7 PUSH2 0xE7E JUMP JUMPDEST PUSH1 0x1 PUSH0 PUSH0 DUP9 PUSH20 0xFFFFFFFFFFFFFFFFFFFFFFFFFFFFFFFFFFFFFFFF AND PUSH20 0xFFFFFFFFFFFFFFFFFFFFFFFFFFFFFFFFFFFFFFFF AND DUP2 MSTORE PUSH1 0x20 ADD SWAP1 DUP2 MSTORE PUSH1 0x20 ADD PUSH0 KECCAK256 PUSH0 PUSH2 0x100 EXP DUP2 SLOAD DUP2 PUSH1 0xFF MUL NOT AND SWAP1 DUP4 ISZERO ISZERO MUL OR SWAP1 SSTORE POP DUP4 ISZERO PUSH2 0x7D1 JUMPI PUSH0 DUP6 PUSH0 ADD PUSH1 0x8 PUSH2 0x100 EXP DUP2 SLOAD DUP2 PUSH1 0xFF MUL NOT AND SWAP1 DUP4 ISZERO ISZERO MUL OR SWAP1 SSTORE POP PUSH32 0xC7F505B2F371AE2175EE4913F4499E1F2633A7B5936321EED1CDAEB6115181D2 PUSH1 0x1 PUSH1 0x40 MLOAD PUSH2 0x7C8 SWAP2 SWAP1 PUSH2 0x2635 JUMP JUMPDEST PUSH1 0x40 MLOAD DUP1 SWAP2 SUB SWAP1 LOG1 JUMPDEST POP POP POP POP POP POP POP POP JUMP JUMPDEST PUSH0 PUSH0 PUSH2 0x7E5 PUSH2 0xE92 JUMP JUMPDEST SWAP1 POP PUSH2 0x7F2 DUP2 DUP6 DUP6 PUSH2 0xE99 JUMP JUMPDEST PUSH1 0x1 SWAP2 POP POP SWAP3 SWAP2 POP POP JUMP JUMPDEST PUSH0 PUSH0 PUSH2 0x807 PUSH2 0xE24 JUMP JUMPDEST SWAP1 POP DUP1 PUSH1 0x2 ADD SLOAD SWAP2 POP POP SWAP1 JUMP JUMPDEST PUSH0 PUSH0 PUSH2 0x81E PUSH2 0xE92 JUMP JUMPDEST SWAP1 POP PUSH2 0x82B DUP6 DUP3 DUP6 PUSH2 0xEAB JUMP JUMPDEST PUSH2 0x836 DUP6 DUP6 DUP6 PUSH2 0xF3E JUMP JUMPDEST PUSH1 0x1 SWAP2 POP POP SWAP4 SWAP3 POP POP POP JUMP JUMPDEST PUSH0 PUSH0 SWAP1 POP SWAP1 JUMP JUMPDEST PUSH2 0x851 PUSH2 0x102E JUMP JUMPDEST PUSH2 0x859 PUSH2 0x10B5 JUMP JUMPDEST JUMP JUMPDEST PUSH2 0x863 PUSH2 0x1123 JUMP JUMPDEST PUSH2 0x86C DUP3 PUSH2 0x1209 JUMP JUMPDEST PUSH2 0x876 DUP3 DUP3 PUSH2 0x1214 JUMP JUMPDEST POP POP JUMP JUMPDEST PUSH0 PUSH2 0x883 PUSH2 0x1332 JUMP JUMPDEST PUSH32 0x360894A13BA1A3210667C828492DB98DCA3E2076CC3735A920A3CA505D382BBC PUSH0 SHL SWAP1 POP SWAP1 JUMP JUMPDEST PUSH0 PUSH0 PUSH2 0x8B5 PUSH2 0x13B9 JUMP JUMPDEST SWAP1 POP DUP1 PUSH0 ADD PUSH0 SWAP1 SLOAD SWAP1 PUSH2 0x100 EXP SWAP1 DIV PUSH1 0xFF AND SWAP2 POP POP SWAP1 JUMP JUMPDEST PUSH2 0x8D5 PUSH2 0x102E JUMP JUMPDEST PUSH2 0x8DF DUP3 DUP3 PUSH2 0x13E0 JUMP JUMPDEST POP POP JUMP JUMPDEST PUSH0 PUSH0 PUSH2 0x8ED PUSH2 0xE24 JUMP JUMPDEST SWAP1 POP DUP1 PUSH0 ADD PUSH0 DUP5 PUSH20 0xFFFFFFFFFFFFFFFFFFFFFFFFFFFFFFFFFFFFFFFF AND PUSH20 0xFFFFFFFFFFFFFFFFFFFFFFFFFFFFFFFFFFFFFFFF AND DUP2 MSTORE PUSH1 0x20 ADD SWAP1 DUP2 MSTORE PUSH1 0x20 ADD PUSH0 KECCAK256 SLOAD SWAP2 POP POP SWAP2 SWAP1 POP JUMP JUMPDEST PUSH2 0x93E PUSH2 0x102E JUMP JUMPDEST PUSH2 0x947 PUSH0 PUSH2 0x145F JUMP JUMPDEST JUMP JUMPDEST PUSH2 0x951 PUSH2 0x102E JUMP JUMPDEST PUSH2 0x959 PUSH2 0x1530 JUMP JUMPDEST JUMP JUMPDEST PUSH0 PUSH0 PUSH2 0x965 PUSH2 0x159F JUMP JUMPDEST SWAP1 POP DUP1 PUSH0 ADD PUSH0 SWAP1 SLOAD SWAP1 PUSH2 0x100 EXP SWAP1 DIV PUSH20 0xFFFFFFFFFFFFFFFFFFFFFFFFFFFFFFFFFFFFFFFF AND SWAP2 POP POP SWAP1 JUMP JUMPDEST PUSH1 0x60 PUSH0 PUSH2 0x99B PUSH2 0xE24 JUMP JUMPDEST SWAP1 POP DUP1 PUSH1 0x4 ADD DUP1 SLOAD PUSH2 0x9AC SWAP1 PUSH2 0x25B0 JUMP JUMPDEST DUP1 PUSH1 0x1F ADD PUSH1 0x20 DUP1 SWAP2 DIV MUL PUSH1 0x20 ADD PUSH1 0x40 MLOAD SWAP1 DUP2 ADD PUSH1 0x40 MSTORE DUP1 SWAP3 SWAP2 SWAP1 DUP2 DUP2 MSTORE PUSH1 0x20 ADD DUP3 DUP1 SLOAD PUSH2 0x9D8 SWAP1 PUSH2 0x25B0 JUMP JUMPDEST DUP1 ISZERO PUSH2 0xA23 JUMPI DUP1 PUSH1 0x1F LT PUSH2 0x9FA JUMPI PUSH2 0x100 DUP1 DUP4 SLOAD DIV MUL DUP4 MSTORE SWAP2 PUSH1 0x20 ADD SWAP2 PUSH2 0xA23 JUMP JUMPDEST DUP3 ADD SWAP2 SWAP1 PUSH0 MSTORE PUSH1 0x20 PUSH0 KECCAK256 SWAP1 JUMPDEST DUP2 SLOAD DUP2 MSTORE SWAP1 PUSH1 0x1 ADD SWAP1 PUSH1 0x20 ADD DUP1 DUP4 GT PUSH2 0xA06 JUMPI DUP3 SWAP1 SUB PUSH1 0x1F AND DUP3 ADD SWAP2 JUMPDEST POP POP POP POP POP SWAP2 POP POP SWAP1 JUMP JUMPDEST PUSH0 PUSH0 PUSH2 0xA38 PUSH2 0xE92 JUMP JUMPDEST SWAP1 POP PUSH2 0xA45 DUP2 DUP6 DUP6 PUSH2 0xF3E JUMP JUMPDEST PUSH1 0x1 SWAP2 POP POP SWAP3 SWAP2 POP POP JUMP JUMPDEST PUSH0 PUSH1 0x20 MSTORE DUP1 PUSH0 MSTORE PUSH1 0x40 PUSH0 KECCAK256 PUSH0 SWAP2 POP SLOAD SWAP1 PUSH2 0x100 EXP SWAP1 DIV PUSH1 0xFF AND DUP2 JUMP JUMPDEST PUSH1 0x40 MLOAD DUP1 PUSH1 0x40 ADD PUSH1 0x40 MSTORE DUP1 PUSH1 0x5 DUP2 MSTORE PUSH1 0x20 ADD PUSH32 0x352E302E30000000000000000000000000000000000000000000000000000000 DUP2 MSTORE POP DUP2 JUMP JUMPDEST PUSH2 0xAAD PUSH2 0x102E JUMP JUMPDEST DUP1 PUSH0 PUSH0 DUP5 PUSH20 0xFFFFFFFFFFFFFFFFFFFFFFFFFFFFFFFFFFFFFFFF AND PUSH20 0xFFFFFFFFFFFFFFFFFFFFFFFFFFFFFFFFFFFFFFFF AND DUP2 MSTORE PUSH1 0x20 ADD SWAP1 DUP2 MSTORE PUSH1 0x20 ADD PUSH0 KECCAK256 PUSH0 PUSH2 0x100 EXP DUP2 SLOAD DUP2 PUSH1 0xFF MUL NOT AND SWAP1 DUP4 ISZERO ISZERO MUL OR SWAP1 SSTORE POP POP POP JUMP JUMPDEST PUSH0 PUSH0 PUSH2 0xB0E PUSH2 0xE24 JUMP JUMPDEST SWAP1 POP DUP1 PUSH1 0x1 ADD PUSH0 DUP6 PUSH20 0xFFFFFFFFFFFFFFFFFFFFFFFFFFFFFFFFFFFFFFFF AND PUSH20 0xFFFFFFFFFFFFFFFFFFFFFFFFFFFFFFFFFFFFFFFF AND DUP2 MSTORE PUSH1 0x20 ADD SWAP1 DUP2 MSTORE PUSH1 0x20 ADD PUSH0 KECCAK256 PUSH0 DUP5 PUSH20 0xFFFFFFFFFFFFFFFFFFFFFFFFFFFFFFFFFFFFFFFF AND PUSH20 0xFFFFFFFFFFFFFFFFFFFFFFFFFFFFFFFFFFFFFFFF AND DUP2 MSTORE PUSH1 0x20 ADD SWAP1 DUP2 MSTORE PUSH1 0x20 ADD PUSH0 KECCAK256 SLOAD SWAP2 POP POP SWAP3 SWAP2 POP POP JUMP JUMPDEST PUSH2 0xB9C PUSH2 0x102E JUMP JUMPDEST PUSH0 PUSH20 0xFFFFFFFFFFFFFFFFFFFFFFFFFFFFFFFFFFFFFFFF AND DUP2 PUSH20 0xFFFFFFFFFFFFFFFFFFFFFFFFFFFFFFFFFFFFFFFF AND SUB PUSH2 0xC0C JUMPI PUSH0 PUSH1 0x40 MLOAD PUSH32 0x1E4FBDF700000000000000000000000000000000000000000000000000000000 DUP2 MSTORE PUSH1 0x4 ADD PUSH2 0xC03 SWAP2 SWAP1 PUSH2 0x24C4 JUMP JUMPDEST PUSH1 0x40 MLOAD DUP1 SWAP2 SUB SWAP1 REVERT JUMPDEST PUSH2 0xC15 DUP2 PUSH2 0x145F JUMP JUMPDEST POP JUMP JUMPDEST CALLER PUSH20 0xFFFFFFFFFFFFFFFFFFFFFFFFFFFFFFFFFFFFFFFF AND PUSH2 0xC37 PUSH2 0x95B JUMP JUMPDEST PUSH20 0xFFFFFFFFFFFFFFFFFFFFFFFFFFFFFFFFFFFFFFFF AND EQ DUP1 PUSH2 0xC9E JUMPI POP PUSH0 PUSH0 CALLER PUSH20 0xFFFFFFFFFFFFFFFFFFFFFFFFFFFFFFFFFFFFFFFF AND PUSH20 0xFFFFFFFFFFFFFFFFFFFFFFFFFFFFFFFFFFFFFFFF AND DUP2 MSTORE PUSH1 0x20 ADD SWAP1 DUP2 MSTORE PUSH1 0x20 ADD PUSH0 KECCAK256 PUSH0 SWAP1 SLOAD SWAP1 PUSH2 0x100 EXP SWAP1 DIV PUSH1 0xFF AND JUMPDEST PUSH2 0xCDD JUMPI PUSH1 0x40 MLOAD PUSH32 0x8C379A000000000000000000000000000000000000000000000000000000000 DUP2 MSTORE PUSH1 0x4 ADD PUSH2 0xCD4 SWAP1 PUSH2 0x2698 JUMP JUMPDEST PUSH1 0x40 MLOAD DUP1 SWAP2 SUB SWAP1 REVERT JUMPDEST PUSH2 0xCE7 DUP3 DUP3 PUSH2 0x15C6 JUMP JUMPDEST DUP2 PUSH20 0xFFFFFFFFFFFFFFFFFFFFFFFFFFFFFFFFFFFFFFFF AND PUSH4 0x3676A601 DUP3 PUSH1 0x40 MLOAD DUP3 PUSH4 0xFFFFFFFF AND PUSH1 0xE0 SHL DUP2 MSTORE PUSH1 0x4 ADD PUSH2 0xD20 SWAP2 SWAP1 PUSH2 0x22C4 JUMP JUMPDEST PUSH0 PUSH1 0x40 MLOAD DUP1 DUP4 SUB DUP2 PUSH0 DUP8 DUP1 EXTCODESIZE ISZERO DUP1 ISZERO PUSH2 0xD37 JUMPI PUSH0 PUSH0 REVERT JUMPDEST POP GAS CALL ISZERO DUP1 ISZERO PUSH2 0xD49 JUMPI RETURNDATASIZE PUSH0 PUSH0 RETURNDATACOPY RETURNDATASIZE PUSH0 REVERT JUMPDEST POP POP POP POP POP POP JUMP JUMPDEST CALLER PUSH20 0xFFFFFFFFFFFFFFFFFFFFFFFFFFFFFFFFFFFFFFFF AND PUSH2 0xD70 PUSH2 0x95B JUMP JUMPDEST PUSH20 0xFFFFFFFFFFFFFFFFFFFFFFFFFFFFFFFFFFFFFFFF AND EQ DUP1 PUSH2 0xDD7 JUMPI POP PUSH0 PUSH0 CALLER PUSH20 0xFFFFFFFFFFFFFFFFFFFFFFFFFFFFFFFFFFFFFFFF AND PUSH20 0xFFFFFFFFFFFFFFFFFFFFFFFFFFFFFFFFFFFFFFFF AND DUP2 MSTORE PUSH1 0x20 ADD SWAP1 DUP2 MSTORE PUSH1 0x20 ADD PUSH0 KECCAK256 PUSH0 SWAP1 SLOAD SWAP1 PUSH2 0x100 EXP SWAP1 DIV PUSH1 0xFF AND JUMPDEST PUSH2 0xE16 JUMPI PUSH1 0x40 MLOAD PUSH32 0x8C379A000000000000000000000000000000000000000000000000000000000 DUP2 MSTORE PUSH1 0x4 ADD PUSH2 0xE0D SWAP1 PUSH2 0x2698 JUMP JUMPDEST PUSH1 0x40 MLOAD DUP1 SWAP2 SUB SWAP1 REVERT JUMPDEST PUSH2 0xE20 DUP3 DUP3 PUSH2 0x15C6 JUMP JUMPDEST POP POP JUMP JUMPDEST PUSH0 PUSH32 0x52C63247E1F47DB19D5CE0460030C497F067CA4CEBF71BA98EEADABE20BACE00 SWAP1 POP SWAP1 JUMP JUMPDEST PUSH0 PUSH0 PUSH2 0xE55 PUSH2 0x1645 JUMP JUMPDEST SWAP1 POP DUP1 SWAP2 POP POP SWAP1 JUMP JUMPDEST PUSH2 0xE66 PUSH2 0x166E JUMP JUMPDEST PUSH2 0xE70 DUP3 DUP3 PUSH2 0x16AE JUMP JUMPDEST POP POP JUMP JUMPDEST PUSH2 0xE7C PUSH2 0x166E JUMP JUMPDEST JUMP JUMPDEST PUSH2 0xE86 PUSH2 0x166E JUMP JUMPDEST PUSH2 0xE8F DUP2 PUSH2 0x16EA JUMP JUMPDEST POP JUMP JUMPDEST PUSH0 CALLER SWAP1 POP SWAP1 JUMP JUMPDEST PUSH2 0xEA6 DUP4 DUP4 DUP4 PUSH1 0x1 PUSH2 0x176E JUMP JUMPDEST POP POP POP JUMP JUMPDEST PUSH0 PUSH2 0xEB6 DUP5 DUP5 PUSH2 0xB04 JUMP JUMPDEST SWAP1 POP PUSH32 0xFFFFFFFFFFFFFFFFFFFFFFFFFFFFFFFFFFFFFFFFFFFFFFFFFFFFFFFFFFFFFFFF DUP2 LT ISZERO PUSH2 0xF38 JUMPI DUP2 DUP2 LT ISZERO PUSH2 0xF29 JUMPI DUP3 DUP2 DUP4 PUSH1 0x40 MLOAD PUSH32 0xFB8F41B200000000000000000000000000000000000000000000000000000000 DUP2 MSTORE PUSH1 0x4 ADD PUSH2 0xF20 SWAP4 SWAP3 SWAP2 SWAP1 PUSH2 0x26B6 JUMP JUMPDEST PUSH1 0x40 MLOAD DUP1 SWAP2 SUB SWAP1 REVERT JUMPDEST PUSH2 0xF37 DUP5 DUP5 DUP5 DUP5 SUB PUSH0 PUSH2 0x176E JUMP JUMPDEST JUMPDEST POP POP POP POP JUMP JUMPDEST PUSH0 PUSH20 0xFFFFFFFFFFFFFFFFFFFFFFFFFFFFFFFFFFFFFFFF AND DUP4 PUSH20 0xFFFFFFFFFFFFFFFFFFFFFFFFFFFFFFFFFFFFFFFF AND SUB PUSH2 0xFAE JUMPI PUSH0 PUSH1 0x40 MLOAD PUSH32 0x96C6FD1E00000000000000000000000000000000000000000000000000000000 DUP2 MSTORE PUSH1 0x4 ADD PUSH2 0xFA5 SWAP2 SWAP1 PUSH2 0x24C4 JUMP JUMPDEST PUSH1 0x40 MLOAD DUP1 SWAP2 SUB SWAP1 REVERT JUMPDEST PUSH0 PUSH20 0xFFFFFFFFFFFFFFFFFFFFFFFFFFFFFFFFFFFFFFFF AND DUP3 PUSH20 0xFFFFFFFFFFFFFFFFFFFFFFFFFFFFFFFFFFFFFFFF AND SUB PUSH2 0x101E JUMPI PUSH0 PUSH1 0x40 MLOAD PUSH32 0xEC442F0500000000000000000000000000000000000000000000000000000000 DUP2 MSTORE PUSH1 0x4 ADD PUSH2 0x1015 SWAP2 SWAP1 PUSH2 0x24C4 JUMP JUMPDEST PUSH1 0x40 MLOAD DUP1 SWAP2 SUB SWAP1 REVERT JUMPDEST PUSH2 0x1029 DUP4 DUP4 DUP4 PUSH2 0x194B JUMP JUMPDEST POP POP POP JUMP JUMPDEST PUSH2 0x1036 PUSH2 0xE92 JUMP JUMPDEST PUSH20 0xFFFFFFFFFFFFFFFFFFFFFFFFFFFFFFFFFFFFFFFF AND PUSH2 0x1054 PUSH2 0x95B JUMP JUMPDEST PUSH20 0xFFFFFFFFFFFFFFFFFFFFFFFFFFFFFFFFFFFFFFFF AND EQ PUSH2 0x10B3 JUMPI PUSH2 0x1077 PUSH2 0xE92 JUMP JUMPDEST PUSH1 0x40 MLOAD PUSH32 0x118CDAA700000000000000000000000000000000000000000000000000000000 DUP2 MSTORE PUSH1 0x4 ADD PUSH2 0x10AA SWAP2 SWAP1 PUSH2 0x24C4 JUMP JUMPDEST PUSH1 0x40 MLOAD DUP1 SWAP2 SUB SWAP1 REVERT JUMPDEST JUMP JUMPDEST PUSH2 0x10BD PUSH2 0x195B JUMP JUMPDEST PUSH0 PUSH2 0x10C6 PUSH2 0x13B9 JUMP JUMPDEST SWAP1 POP PUSH0 DUP2 PUSH0 ADD PUSH0 PUSH2 0x100 EXP DUP2 SLOAD DUP2 PUSH1 0xFF MUL NOT AND SWAP1 DUP4 ISZERO ISZERO MUL OR SWAP1 SSTORE POP PUSH32 0x5DB9EE0A495BF2E6FF9C91A7834C1BA4FDD244A5E8AA4E537BD38AEAE4B073AA PUSH2 0x110B PUSH2 0xE92 JUMP JUMPDEST PUSH1 0x40 MLOAD PUSH2 0x1118 SWAP2 SWAP1 PUSH2 0x24C4 JUMP JUMPDEST PUSH1 0x40 MLOAD DUP1 SWAP2 SUB SWAP1 LOG1 POP JUMP JUMPDEST PUSH32 0x0 PUSH20 0xFFFFFFFFFFFFFFFFFFFFFFFFFFFFFFFFFFFFFFFF AND ADDRESS PUSH20 0xFFFFFFFFFFFFFFFFFFFFFFFFFFFFFFFFFFFFFFFF AND EQ DUP1 PUSH2 0x11D0 JUMPI POP PUSH32 0x0 PUSH20 0xFFFFFFFFFFFFFFFFFFFFFFFFFFFFFFFFFFFFFFFF AND PUSH2 0x11B7 PUSH2 0x199B JUMP JUMPDEST PUSH20 0xFFFFFFFFFFFFFFFFFFFFFFFFFFFFFFFFFFFFFFFF AND EQ ISZERO JUMPDEST ISZERO PUSH2 0x1207 JUMPI PUSH1 0x40 MLOAD PUSH32 0xE07C8DBA00000000000000000000000000000000000000000000000000000000 DUP2 MSTORE PUSH1 0x4 ADD PUSH1 0x40 MLOAD DUP1 SWAP2 SUB SWAP1 REVERT JUMPDEST JUMP JUMPDEST PUSH2 0x1211 PUSH2 0x102E JUMP JUMPDEST POP JUMP JUMPDEST DUP2 PUSH20 0xFFFFFFFFFFFFFFFFFFFFFFFFFFFFFFFFFFFFFFFF AND PUSH4 0x52D1902D PUSH1 0x40 MLOAD DUP2 PUSH4 0xFFFFFFFF AND PUSH1 0xE0 SHL DUP2 MSTORE PUSH1 0x4 ADD PUSH1 0x20 PUSH1 0x40 MLOAD DUP1 DUP4 SUB DUP2 DUP7 GAS STATICCALL SWAP3 POP POP POP DUP1 ISZERO PUSH2 0x127C JUMPI POP PUSH1 0x40 MLOAD RETURNDATASIZE PUSH1 0x1F NOT PUSH1 0x1F DUP3 ADD AND DUP3 ADD DUP1 PUSH1 0x40 MSTORE POP DUP2 ADD SWAP1 PUSH2 0x1279 SWAP2 SWAP1 PUSH2 0x2715 JUMP JUMPDEST PUSH1 0x1 JUMPDEST PUSH2 0x12BD JUMPI DUP2 PUSH1 0x40 MLOAD PUSH32 0x4C9C8CE300000000000000000000000000000000000000000000000000000000 DUP2 MSTORE PUSH1 0x4 ADD PUSH2 0x12B4 SWAP2 SWAP1 PUSH2 0x24C4 JUMP JUMPDEST PUSH1 0x40 MLOAD DUP1 SWAP2 SUB SWAP1 REVERT JUMPDEST PUSH32 0x360894A13BA1A3210667C828492DB98DCA3E2076CC3735A920A3CA505D382BBC PUSH0 SHL DUP2 EQ PUSH2 0x1323 JUMPI DUP1 PUSH1 0x40 MLOAD PUSH32 0xAA1D49A400000000000000000000000000000000000000000000000000000000 DUP2 MSTORE PUSH1 0x4 ADD PUSH2 0x131A SWAP2 SWAP1 PUSH2 0x2471 JUMP JUMPDEST PUSH1 0x40 MLOAD DUP1 SWAP2 SUB SWAP1 REVERT JUMPDEST PUSH2 0x132D DUP4 DUP4 PUSH2 0x19EE JUMP JUMPDEST POP POP POP JUMP JUMPDEST PUSH32 0x0 PUSH20 0xFFFFFFFFFFFFFFFFFFFFFFFFFFFFFFFFFFFFFFFF AND ADDRESS PUSH20 0xFFFFFFFFFFFFFFFFFFFFFFFFFFFFFFFFFFFFFFFF AND EQ PUSH2 0x13B7 JUMPI PUSH1 0x40 MLOAD PUSH32 0xE07C8DBA00000000000000000000000000000000000000000000000000000000 DUP2 MSTORE PUSH1 0x4 ADD PUSH1 0x40 MLOAD DUP1 SWAP2 SUB SWAP1 REVERT JUMPDEST JUMP JUMPDEST PUSH0 PUSH32 0xCD5ED15C6E187E77E9AEE88184C21F4F2182AB5827CB3B7E07FBEDCD63F03300 SWAP1 POP SWAP1 JUMP JUMPDEST PUSH0 PUSH20 0xFFFFFFFFFFFFFFFFFFFFFFFFFFFFFFFFFFFFFFFF AND DUP3 PUSH20 0xFFFFFFFFFFFFFFFFFFFFFFFFFFFFFFFFFFFFFFFF AND SUB PUSH2 0x1450 JUMPI PUSH0 PUSH1 0x40 MLOAD PUSH32 0x96C6FD1E00000000000000000000000000000000000000000000000000000000 DUP2 MSTORE PUSH1 0x4 ADD PUSH2 0x1447 SWAP2 SWAP1 PUSH2 0x24C4 JUMP JUMPDEST PUSH1 0x40 MLOAD DUP1 SWAP2 SUB SWAP1 REVERT JUMPDEST PUSH2 0x145B DUP3 PUSH0 DUP4 PUSH2 0x194B JUMP JUMPDEST POP POP JUMP JUMPDEST PUSH0 PUSH2 0x1468 PUSH2 0x159F JUMP JUMPDEST SWAP1 POP PUSH0 DUP2 PUSH0 ADD PUSH0 SWAP1 SLOAD SWAP1 PUSH2 0x100 EXP SWAP1 DIV PUSH20 0xFFFFFFFFFFFFFFFFFFFFFFFFFFFFFFFFFFFFFFFF AND SWAP1 POP DUP3 DUP3 PUSH0 ADD PUSH0 PUSH2 0x100 EXP DUP2 SLOAD DUP2 PUSH20 0xFFFFFFFFFFFFFFFFFFFFFFFFFFFFFFFFFFFFFFFF MUL NOT AND SWAP1 DUP4 PUSH20 0xFFFFFFFFFFFFFFFFFFFFFFFFFFFFFFFFFFFFFFFF AND MUL OR SWAP1 SSTORE POP DUP3 PUSH20 0xFFFFFFFFFFFFFFFFFFFFFFFFFFFFFFFFFFFFFFFF AND DUP2 PUSH20 0xFFFFFFFFFFFFFFFFFFFFFFFFFFFFFFFFFFFFFFFF AND PUSH32 0x8BE0079C531659141344CD1FD0A4F28419497F9722A3DAAFE3B4186F6B6457E0 PUSH1 0x40 MLOAD PUSH1 0x40 MLOAD DUP1 SWAP2 SUB SWAP1 LOG3 POP POP POP JUMP JUMPDEST PUSH2 0x1538 PUSH2 0x1A60 JUMP JUMPDEST PUSH0 PUSH2 0x1541 PUSH2 0x13B9 JUMP JUMPDEST SWAP1 POP PUSH1 0x1 DUP2 PUSH0 ADD PUSH0 PUSH2 0x100 EXP DUP2 SLOAD DUP2 PUSH1 0xFF MUL NOT AND SWAP1 DUP4 ISZERO ISZERO MUL OR SWAP1 SSTORE POP PUSH32 0x62E78CEA01BEE320CD4E420270B5EA74000D11B0C9F74754EBDBFC544B05A258 PUSH2 0x1587 PUSH2 0xE92 JUMP JUMPDEST PUSH1 0x40 MLOAD PUSH2 0x1594 SWAP2 SWAP1 PUSH2 0x24C4 JUMP JUMPDEST PUSH1 0x40 MLOAD DUP1 SWAP2 SUB SWAP1 LOG1 POP JUMP JUMPDEST PUSH0 PUSH32 0x9016D09D72D40FDAE2FD8CEAC6B6234C7706214FD39C1CD1E609A0528C199300 SWAP1 POP SWAP1 JUMP JUMPDEST PUSH0 PUSH20 0xFFFFFFFFFFFFFFFFFFFFFFFFFFFFFFFFFFFFFFFF AND DUP3 PUSH20 0xFFFFFFFFFFFFFFFFFFFFFFFFFFFFFFFFFFFFFFFF AND SUB PUSH2 0x1636 JUMPI PUSH0 PUSH1 0x40 MLOAD PUSH32 0xEC442F0500000000000000000000000000000000000000000000000000000000 DUP2 MSTORE PUSH1 0x4 ADD PUSH2 0x162D SWAP2 SWAP1 PUSH2 0x24C4 JUMP JUMPDEST PUSH1 0x40 MLOAD DUP1 SWAP2 SUB SWAP1 REVERT JUMPDEST PUSH2 0x1641 PUSH0 DUP4 DUP4 PUSH2 0x194B JUMP JUMPDEST POP POP JUMP JUMPDEST PUSH0 PUSH32 0xF0C57E16840DF040F15088DC2F81FE391C3923BEC73E23A9662EFC9C229C6A00 PUSH0 SHL SWAP1 POP SWAP1 JUMP JUMPDEST PUSH2 0x1676 PUSH2 0x1AA1 JUMP JUMPDEST PUSH2 0x16AC JUMPI PUSH1 0x40 MLOAD PUSH32 0xD7E6BCF800000000000000000000000000000000000000000000000000000000 DUP2 MSTORE PUSH1 0x4 ADD PUSH1 0x40 MLOAD DUP1 SWAP2 SUB SWAP1 REVERT JUMPDEST JUMP JUMPDEST PUSH2 0x16B6 PUSH2 0x166E JUMP JUMPDEST PUSH0 PUSH2 0x16BF PUSH2 0xE24 JUMP JUMPDEST SWAP1 POP DUP3 DUP2 PUSH1 0x3 ADD SWAP1 DUP2 PUSH2 0x16D2 SWAP2 SWAP1 PUSH2 0x28E8 JUMP JUMPDEST POP DUP2 DUP2 PUSH1 0x4 ADD SWAP1 DUP2 PUSH2 0x16E4 SWAP2 SWAP1 PUSH2 0x28E8 JUMP JUMPDEST POP POP POP POP JUMP JUMPDEST PUSH2 0x16F2 PUSH2 0x166E JUMP JUMPDEST PUSH0 PUSH20 0xFFFFFFFFFFFFFFFFFFFFFFFFFFFFFFFFFFFFFFFF AND DUP2 PUSH20 0xFFFFFFFFFFFFFFFFFFFFFFFFFFFFFFFFFFFFFFFF AND SUB PUSH2 0x1762 JUMPI PUSH0 PUSH1 0x40 MLOAD PUSH32 0x1E4FBDF700000000000000000000000000000000000000000000000000000000 DUP2 MSTORE PUSH1 0x4 ADD PUSH2 0x1759 SWAP2 SWAP1 PUSH2 0x24C4 JUMP JUMPDEST PUSH1 0x40 MLOAD DUP1 SWAP2 SUB SWAP1 REVERT JUMPDEST PUSH2 0x176B DUP2 PUSH2 0x145F JUMP JUMPDEST POP JUMP JUMPDEST PUSH0 PUSH2 0x1777 PUSH2 0xE24 JUMP JUMPDEST SWAP1 POP PUSH0 PUSH20 0xFFFFFFFFFFFFFFFFFFFFFFFFFFFFFFFFFFFFFFFF AND DUP6 PUSH20 0xFFFFFFFFFFFFFFFFFFFFFFFFFFFFFFFFFFFFFFFF AND SUB PUSH2 0x17E9 JUMPI PUSH0 PUSH1 0x40 MLOAD PUSH32 0xE602DF0500000000000000000000000000000000000000000000000000000000 DUP2 MSTORE PUSH1 0x4 ADD PUSH2 0x17E0 SWAP2 SWAP1 PUSH2 0x24C4 JUMP JUMPDEST PUSH1 0x40 MLOAD DUP1 SWAP2 SUB SWAP1 REVERT JUMPDEST PUSH0 PUSH20 0xFFFFFFFFFFFFFFFFFFFFFFFFFFFFFFFFFFFFFFFF AND DUP5 PUSH20 0xFFFFFFFFFFFFFFFFFFFFFFFFFFFFFFFFFFFFFFFF AND SUB PUSH2 0x1859 JUMPI PUSH0 PUSH1 0x40 MLOAD PUSH32 0x94280D6200000000000000000000000000000000000000000000000000000000 DUP2 MSTORE PUSH1 0x4 ADD PUSH2 0x1850 SWAP2 SWAP1 PUSH2 0x24C4 JUMP JUMPDEST PUSH1 0x40 MLOAD DUP1 SWAP2 SUB SWAP1 REVERT JUMPDEST DUP3 DUP2 PUSH1 0x1 ADD PUSH0 DUP8 PUSH20 0xFFFFFFFFFFFFFFFFFFFFFFFFFFFFFFFFFFFFFFFF AND PUSH20 0xFFFFFFFFFFFFFFFFFFFFFFFFFFFFFFFFFFFFFFFF AND DUP2 MSTORE PUSH1 0x20 ADD SWAP1 DUP2 MSTORE PUSH1 0x20 ADD PUSH0 KECCAK256 PUSH0 DUP7 PUSH20 0xFFFFFFFFFFFFFFFFFFFFFFFFFFFFFFFFFFFFFFFF AND PUSH20 0xFFFFFFFFFFFFFFFFFFFFFFFFFFFFFFFFFFFFFFFF AND DUP2 MSTORE PUSH1 0x20 ADD SWAP1 DUP2 MSTORE PUSH1 0x20 ADD PUSH0 KECCAK256 DUP2 SWAP1 SSTORE POP DUP2 ISZERO PUSH2 0x1944 JUMPI DUP4 PUSH20 0xFFFFFFFFFFFFFFFFFFFFFFFFFFFFFFFFFFFFFFFF AND DUP6 PUSH20 0xFFFFFFFFFFFFFFFFFFFFFFFFFFFFFFFFFFFFFFFF AND PUSH32 0x8C5BE1E5EBEC7D5BD14F71427D1E84F3DD0314C0F7B2291E5B200AC8C7C3B925 DUP6 PUSH1 0x40 MLOAD PUSH2 0x193B SWAP2 SWAP1 PUSH2 0x22C4 JUMP JUMPDEST PUSH1 0x40 MLOAD DUP1 SWAP2 SUB SWAP1 LOG3 JUMPDEST POP POP POP POP POP JUMP JUMPDEST PUSH2 0x1956 DUP4 DUP4 DUP4 PUSH2 0x1ABF JUMP JUMPDEST POP POP POP JUMP JUMPDEST PUSH2 0x1963 PUSH2 0x8AB JUMP JUMPDEST PUSH2 0x1999 JUMPI PUSH1 0x40 MLOAD PUSH32 0x8DFC202B00000000000000000000000000000000000000000000000000000000 DUP2 MSTORE PUSH1 0x4 ADD PUSH1 0x40 MLOAD DUP1 SWAP2 SUB SWAP1 REVERT JUMPDEST JUMP JUMPDEST PUSH0 PUSH2 0x19C7 PUSH32 0x360894A13BA1A3210667C828492DB98DCA3E2076CC3735A920A3CA505D382BBC PUSH0 SHL PUSH2 0x1AD7 JUMP JUMPDEST PUSH0 ADD PUSH0 SWAP1 SLOAD SWAP1 PUSH2 0x100 EXP SWAP1 DIV PUSH20 0xFFFFFFFFFFFFFFFFFFFFFFFFFFFFFFFFFFFFFFFF AND SWAP1 POP SWAP1 JUMP JUMPDEST PUSH2 0x19F7 DUP3 PUSH2 0x1AE0 JUMP JUMPDEST DUP2 PUSH20 0xFFFFFFFFFFFFFFFFFFFFFFFFFFFFFFFFFFFFFFFF AND PUSH32 0xBC7CD75A20EE27FD9ADEBAB32041F755214DBC6BFFA90CC0225B39DA2E5C2D3B PUSH1 0x40 MLOAD PUSH1 0x40 MLOAD DUP1 SWAP2 SUB SWAP1 LOG2 PUSH0 DUP2 MLOAD GT ISZERO PUSH2 0x1A53 JUMPI PUSH2 0x1A4D DUP3 DUP3 PUSH2 0x1BA9 JUMP JUMPDEST POP PUSH2 0x1A5C JUMP JUMPDEST PUSH2 0x1A5B PUSH2 0x1C9A JUMP JUMPDEST JUMPDEST POP POP JUMP JUMPDEST PUSH2 0x1A68 PUSH2 0x8AB JUMP JUMPDEST ISZERO PUSH2 0x1A9F JUMPI PUSH1 0x40 MLOAD PUSH32 0xD93C066500000000000000000000000000000000000000000000000000000000 DUP2 MSTORE PUSH1 0x4 ADD PUSH1 0x40 MLOAD DUP1 SWAP2 SUB SWAP1 REVERT JUMPDEST JUMP JUMPDEST PUSH0 PUSH2 0x1AAA PUSH2 0xE4B JUMP JUMPDEST PUSH0 ADD PUSH1 0x8 SWAP1 SLOAD SWAP1 PUSH2 0x100 EXP SWAP1 DIV PUSH1 0xFF AND SWAP1 POP SWAP1 JUMP JUMPDEST PUSH2 0x1AC7 PUSH2 0x1A60 JUMP JUMPDEST PUSH2 0x1AD2 DUP4 DUP4 DUP4 PUSH2 0x1CD6 JUMP JUMPDEST POP POP POP JUMP JUMPDEST PUSH0 DUP2 SWAP1 POP SWAP2 SWAP1 POP JUMP JUMPDEST PUSH0 DUP2 PUSH20 0xFFFFFFFFFFFFFFFFFFFFFFFFFFFFFFFFFFFFFFFF AND EXTCODESIZE SUB PUSH2 0x1B3B JUMPI DUP1 PUSH1 0x40 MLOAD PUSH32 0x4C9C8CE300000000000000000000000000000000000000000000000000000000 DUP2 MSTORE PUSH1 0x4 ADD PUSH2 0x1B32 SWAP2 SWAP1 PUSH2 0x24C4 JUMP JUMPDEST PUSH1 0x40 MLOAD DUP1 SWAP2 SUB SWAP1 REVERT JUMPDEST DUP1 PUSH2 0x1B67 PUSH32 0x360894A13BA1A3210667C828492DB98DCA3E2076CC3735A920A3CA505D382BBC PUSH0 SHL PUSH2 0x1AD7 JUMP JUMPDEST PUSH0 ADD PUSH0 PUSH2 0x100 EXP DUP2 SLOAD DUP2 PUSH20 0xFFFFFFFFFFFFFFFFFFFFFFFFFFFFFFFFFFFFFFFF MUL NOT AND SWAP1 DUP4 PUSH20 0xFFFFFFFFFFFFFFFFFFFFFFFFFFFFFFFFFFFFFFFF AND MUL OR SWAP1 SSTORE POP POP JUMP JUMPDEST PUSH1 0x60 PUSH0 PUSH2 0x1BB6 DUP5 DUP5 PUSH2 0x1F05 JUMP JUMPDEST SWAP1 POP DUP1 DUP1 ISZERO PUSH2 0x1BEC JUMPI POP PUSH0 PUSH2 0x1BC9 PUSH2 0x1F19 JUMP JUMPDEST GT DUP1 PUSH2 0x1BEB JUMPI POP PUSH0 DUP5 PUSH20 0xFFFFFFFFFFFFFFFFFFFFFFFFFFFFFFFFFFFFFFFF AND EXTCODESIZE GT JUMPDEST JUMPDEST ISZERO PUSH2 0x1C01 JUMPI PUSH2 0x1BF9 PUSH2 0x1F20 JUMP JUMPDEST SWAP2 POP POP PUSH2 0x1C94 JUMP JUMPDEST DUP1 ISZERO PUSH2 0x1C44 JUMPI DUP4 PUSH1 0x40 MLOAD PUSH32 0x9996B31500000000000000000000000000000000000000000000000000000000 DUP2 MSTORE PUSH1 0x4 ADD PUSH2 0x1C3B SWAP2 SWAP1 PUSH2 0x24C4 JUMP JUMPDEST PUSH1 0x40 MLOAD DUP1 SWAP2 SUB SWAP1 REVERT JUMPDEST PUSH0 PUSH2 0x1C4D PUSH2 0x1F19 JUMP JUMPDEST GT ISZERO PUSH2 0x1C60 JUMPI PUSH2 0x1C5B PUSH2 0x1F3D JUMP JUMPDEST PUSH2 0x1C92 JUMP JUMPDEST PUSH1 0x40 MLOAD PUSH32 0xD6BDA27500000000000000000000000000000000000000000000000000000000 DUP2 MSTORE PUSH1 0x4 ADD PUSH1 0x40 MLOAD DUP1 SWAP2 SUB SWAP1 REVERT JUMPDEST POP JUMPDEST SWAP3 SWAP2 POP POP JUMP JUMPDEST PUSH0 CALLVALUE GT ISZERO PUSH2 0x1CD4 JUMPI PUSH1 0x40 MLOAD PUSH32 0xB398979F00000000000000000000000000000000000000000000000000000000 DUP2 MSTORE PUSH1 0x4 ADD PUSH1 0x40 MLOAD DUP1 SWAP2 SUB SWAP1 REVERT JUMPDEST JUMP JUMPDEST PUSH0 PUSH2 0x1CDF PUSH2 0xE24 JUMP JUMPDEST SWAP1 POP PUSH0 PUSH20 0xFFFFFFFFFFFFFFFFFFFFFFFFFFFFFFFFFFFFFFFF AND DUP5 PUSH20 0xFFFFFFFFFFFFFFFFFFFFFFFFFFFFFFFFFFFFFFFF AND SUB PUSH2 0x1D33 JUMPI DUP2 DUP2 PUSH1 0x2 ADD PUSH0 DUP3 DUP3 SLOAD PUSH2 0x1D27 SWAP2 SWAP1 PUSH2 0x29E4 JUMP JUMPDEST SWAP3 POP POP DUP2 SWAP1 SSTORE POP PUSH2 0x1E05 JUMP JUMPDEST PUSH0 DUP2 PUSH0 ADD PUSH0 DUP7 PUSH20 0xFFFFFFFFFFFFFFFFFFFFFFFFFFFFFFFFFFFFFFFF AND PUSH20 0xFFFFFFFFFFFFFFFFFFFFFFFFFFFFFFFFFFFFFFFF AND DUP2 MSTORE PUSH1 0x20 ADD SWAP1 DUP2 MSTORE PUSH1 0x20 ADD PUSH0 KECCAK256 SLOAD SWAP1 POP DUP3 DUP2 LT ISZERO PUSH2 0x1DBE JUMPI DUP5 DUP2 DUP5 PUSH1 0x40 MLOAD PUSH32 0xE450D38C00000000000000000000000000000000000000000000000000000000 DUP2 MSTORE PUSH1 0x4 ADD PUSH2 0x1DB5 SWAP4 SWAP3 SWAP2 SWAP1 PUSH2 0x26B6 JUMP JUMPDEST PUSH1 0x40 MLOAD DUP1 SWAP2 SUB SWAP1 REVERT JUMPDEST DUP3 DUP2 SUB DUP3 PUSH0 ADD PUSH0 DUP8 PUSH20 0xFFFFFFFFFFFFFFFFFFFFFFFFFFFFFFFFFFFFFFFF AND PUSH20 0xFFFFFFFFFFFFFFFFFFFFFFFFFFFFFFFFFFFFFFFF AND DUP2 MSTORE PUSH1 0x20 ADD SWAP1 DUP2 MSTORE PUSH1 0x20 ADD PUSH0 KECCAK256 DUP2 SWAP1 SSTORE POP POP JUMPDEST PUSH0 PUSH20 0xFFFFFFFFFFFFFFFFFFFFFFFFFFFFFFFFFFFFFFFF AND DUP4 PUSH20 0xFFFFFFFFFFFFFFFFFFFFFFFFFFFFFFFFFFFFFFFF AND SUB PUSH2 0x1E4E JUMPI DUP2 DUP2 PUSH1 0x2 ADD PUSH0 DUP3 DUP3 SLOAD SUB SWAP3 POP POP DUP2 SWAP1 SSTORE POP PUSH2 0x1E9A JUMP JUMPDEST DUP2 DUP2 PUSH0 ADD PUSH0 DUP6 PUSH20 0xFFFFFFFFFFFFFFFFFFFFFFFFFFFFFFFFFFFFFFFF AND PUSH20 0xFFFFFFFFFFFFFFFFFFFFFFFFFFFFFFFFFFFFFFFF AND DUP2 MSTORE PUSH1 0x20 ADD SWAP1 DUP2 MSTORE PUSH1 0x20 ADD PUSH0 KECCAK256 PUSH0 DUP3 DUP3 SLOAD ADD SWAP3 POP POP DUP2 SWAP1 SSTORE POP JUMPDEST DUP3 PUSH20 0xFFFFFFFFFFFFFFFFFFFFFFFFFFFFFFFFFFFFFFFF AND DUP5 PUSH20 0xFFFFFFFFFFFFFFFFFFFFFFFFFFFFFFFFFFFFFFFF AND PUSH32 0xDDF252AD1BE2C89B69C2B068FC378DAA952BA7F163C4A11628F55A4DF523B3EF DUP5 PUSH1 0x40 MLOAD PUSH2 0x1EF7 SWAP2 SWAP1 PUSH2 0x22C4 JUMP JUMPDEST PUSH1 0x40 MLOAD DUP1 SWAP2 SUB SWAP1 LOG3 POP POP POP POP JUMP JUMPDEST PUSH0 PUSH0 PUSH0 DUP4 MLOAD PUSH1 0x20 DUP6 ADD DUP7 GAS DELEGATECALL SWAP1 POP SWAP3 SWAP2 POP POP JUMP JUMPDEST PUSH0 RETURNDATASIZE SWAP1 POP SWAP1 JUMP JUMPDEST PUSH1 0x60 PUSH1 0x40 MLOAD SWAP1 POP RETURNDATASIZE DUP2 MSTORE RETURNDATASIZE PUSH0 PUSH1 0x20 DUP4 ADD RETURNDATACOPY RETURNDATASIZE PUSH1 0x20 ADD DUP2 ADD PUSH1 0x40 MSTORE SWAP1 JUMP JUMPDEST PUSH1 0x40 MLOAD RETURNDATASIZE PUSH0 DUP3 RETURNDATACOPY RETURNDATASIZE DUP2 REVERT JUMPDEST PUSH0 DUP2 MLOAD SWAP1 POP SWAP2 SWAP1 POP JUMP JUMPDEST PUSH0 DUP3 DUP3 MSTORE PUSH1 0x20 DUP3 ADD SWAP1 POP SWAP3 SWAP2 POP POP JUMP JUMPDEST PUSH0 JUMPDEST DUP4 DUP2 LT ISZERO PUSH2 0x1F7F JUMPI DUP1 DUP3 ADD MLOAD DUP2 DUP5 ADD MSTORE PUSH1 0x20 DUP2 ADD SWAP1 POP PUSH2 0x1F64 JUMP JUMPDEST PUSH0 DUP5 DUP5 ADD MSTORE POP POP POP POP JUMP JUMPDEST PUSH0 PUSH1 0x1F NOT PUSH1 0x1F DUP4 ADD AND SWAP1 POP SWAP2 SWAP1 POP JUMP JUMPDEST PUSH0 PUSH2 0x1FA4 DUP3 PUSH2 0x1F48 JUMP JUMPDEST PUSH2 0x1FAE DUP2 DUP6 PUSH2 0x1F52 JUMP JUMPDEST SWAP4 POP PUSH2 0x1FBE DUP2 DUP6 PUSH1 0x20 DUP7 ADD PUSH2 0x1F62 JUMP JUMPDEST PUSH2 0x1FC7 DUP2 PUSH2 0x1F8A JUMP JUMPDEST DUP5 ADD SWAP2 POP POP SWAP3 SWAP2 POP POP JUMP JUMPDEST PUSH0 PUSH1 0x20 DUP3 ADD SWAP1 POP DUP2 DUP2 SUB PUSH0 DUP4 ADD MSTORE PUSH2 0x1FEA DUP2 DUP5 PUSH2 0x1F9A JUMP JUMPDEST SWAP1 POP SWAP3 SWAP2 POP POP JUMP JUMPDEST PUSH0 PUSH1 0x40 MLOAD SWAP1 POP SWAP1 JUMP JUMPDEST PUSH0 PUSH0 REVERT JUMPDEST PUSH0 PUSH0 REVERT JUMPDEST PUSH0 PUSH0 REVERT JUMPDEST PUSH0 PUSH0 REVERT JUMPDEST PUSH32 0x4E487B7100000000000000000000000000000000000000000000000000000000 PUSH0 MSTORE PUSH1 0x41 PUSH1 0x4 MSTORE PUSH1 0x24 PUSH0 REVERT JUMPDEST PUSH2 0x2041 DUP3 PUSH2 0x1F8A JUMP JUMPDEST DUP2 ADD DUP2 DUP2 LT PUSH8 0xFFFFFFFFFFFFFFFF DUP3 GT OR ISZERO PUSH2 0x2060 JUMPI PUSH2 0x205F PUSH2 0x200B JUMP JUMPDEST JUMPDEST DUP1 PUSH1 0x40 MSTORE POP POP POP JUMP JUMPDEST PUSH0 PUSH2 0x2072 PUSH2 0x1FF2 JUMP JUMPDEST SWAP1 POP PUSH2 0x207E DUP3 DUP3 PUSH2 0x2038 JUMP JUMPDEST SWAP2 SWAP1 POP JUMP JUMPDEST PUSH0 PUSH8 0xFFFFFFFFFFFFFFFF DUP3 GT ISZERO PUSH2 0x209D JUMPI PUSH2 0x209C PUSH2 0x200B JUMP JUMPDEST JUMPDEST PUSH2 0x20A6 DUP3 PUSH2 0x1F8A JUMP JUMPDEST SWAP1 POP PUSH1 0x20 DUP2 ADD SWAP1 POP SWAP2 SWAP1 POP JUMP JUMPDEST DUP3 DUP2 DUP4 CALLDATACOPY PUSH0 DUP4 DUP4 ADD MSTORE POP POP POP JUMP JUMPDEST PUSH0 PUSH2 0x20D3 PUSH2 0x20CE DUP5 PUSH2 0x2083 JUMP JUMPDEST PUSH2 0x2069 JUMP JUMPDEST SWAP1 POP DUP3 DUP2 MSTORE PUSH1 0x20 DUP2 ADD DUP5 DUP5 DUP5 ADD GT ISZERO PUSH2 0x20EF JUMPI PUSH2 0x20EE PUSH2 0x2007 JUMP JUMPDEST JUMPDEST PUSH2 0x20FA DUP5 DUP3 DUP6 PUSH2 0x20B3 JUMP JUMPDEST POP SWAP4 SWAP3 POP POP POP JUMP JUMPDEST PUSH0 DUP3 PUSH1 0x1F DUP4 ADD SLT PUSH2 0x2116 JUMPI PUSH2 0x2115 PUSH2 0x2003 JUMP JUMPDEST JUMPDEST DUP2 CALLDATALOAD PUSH2 0x2126 DUP5 DUP3 PUSH1 0x20 DUP7 ADD PUSH2 0x20C1 JUMP JUMPDEST SWAP2 POP POP SWAP3 SWAP2 POP POP JUMP JUMPDEST PUSH0 PUSH20 0xFFFFFFFFFFFFFFFFFFFFFFFFFFFFFFFFFFFFFFFF DUP3 AND SWAP1 POP SWAP2 SWAP1 POP JUMP JUMPDEST PUSH0 PUSH2 0x2158 DUP3 PUSH2 0x212F JUMP JUMPDEST SWAP1 POP SWAP2 SWAP1 POP JUMP JUMPDEST PUSH2 0x2168 DUP2 PUSH2 0x214E JUMP JUMPDEST DUP2 EQ PUSH2 0x2172 JUMPI PUSH0 PUSH0 REVERT JUMPDEST POP JUMP JUMPDEST PUSH0 DUP2 CALLDATALOAD SWAP1 POP PUSH2 0x2183 DUP2 PUSH2 0x215F JUMP JUMPDEST SWAP3 SWAP2 POP POP JUMP JUMPDEST PUSH0 PUSH0 PUSH0 PUSH1 0x60 DUP5 DUP7 SUB SLT ISZERO PUSH2 0x21A0 JUMPI PUSH2 0x219F PUSH2 0x1FFB JUMP JUMPDEST JUMPDEST PUSH0 DUP5 ADD CALLDATALOAD PUSH8 0xFFFFFFFFFFFFFFFF DUP2 GT ISZERO PUSH2 0x21BD JUMPI PUSH2 0x21BC PUSH2 0x1FFF JUMP JUMPDEST JUMPDEST PUSH2 0x21C9 DUP7 DUP3 DUP8 ADD PUSH2 0x2102 JUMP JUMPDEST SWAP4 POP POP PUSH1 0x20 DUP5 ADD CALLDATALOAD PUSH8 0xFFFFFFFFFFFFFFFF DUP2 GT ISZERO PUSH2 0x21EA JUMPI PUSH2 0x21E9 PUSH2 0x1FFF JUMP JUMPDEST JUMPDEST PUSH2 0x21F6 DUP7 DUP3 DUP8 ADD PUSH2 0x2102 JUMP JUMPDEST SWAP3 POP POP PUSH1 0x40 PUSH2 0x2207 DUP7 DUP3 DUP8 ADD PUSH2 0x2175 JUMP JUMPDEST SWAP2 POP POP SWAP3 POP SWAP3 POP SWAP3 JUMP JUMPDEST PUSH0 DUP2 SWAP1 POP SWAP2 SWAP1 POP JUMP JUMPDEST PUSH2 0x2223 DUP2 PUSH2 0x2211 JUMP JUMPDEST DUP2 EQ PUSH2 0x222D JUMPI PUSH0 PUSH0 REVERT JUMPDEST POP JUMP JUMPDEST PUSH0 DUP2 CALLDATALOAD SWAP1 POP PUSH2 0x223E DUP2 PUSH2 0x221A JUMP JUMPDEST SWAP3 SWAP2 POP POP JUMP JUMPDEST PUSH0 PUSH0 PUSH1 0x40 DUP4 DUP6 SUB SLT ISZERO PUSH2 0x225A JUMPI PUSH2 0x2259 PUSH2 0x1FFB JUMP JUMPDEST JUMPDEST PUSH0 PUSH2 0x2267 DUP6 DUP3 DUP7 ADD PUSH2 0x2175 JUMP JUMPDEST SWAP3 POP POP PUSH1 0x20 PUSH2 0x2278 DUP6 DUP3 DUP7 ADD PUSH2 0x2230 JUMP JUMPDEST SWAP2 POP POP SWAP3 POP SWAP3 SWAP1 POP JUMP JUMPDEST PUSH0 DUP2 ISZERO ISZERO SWAP1 POP SWAP2 SWAP1 POP JUMP JUMPDEST PUSH2 0x2296 DUP2 PUSH2 0x2282 JUMP JUMPDEST DUP3 MSTORE POP POP JUMP JUMPDEST PUSH0 PUSH1 0x20 DUP3 ADD SWAP1 POP PUSH2 0x22AF PUSH0 DUP4 ADD DUP5 PUSH2 0x228D JUMP JUMPDEST SWAP3 SWAP2 POP POP JUMP JUMPDEST PUSH2 0x22BE DUP2 PUSH2 0x2211 JUMP JUMPDEST DUP3 MSTORE POP POP JUMP JUMPDEST PUSH0 PUSH1 0x20 DUP3 ADD SWAP1 POP PUSH2 0x22D7 PUSH0 DUP4 ADD DUP5 PUSH2 0x22B5 JUMP JUMPDEST SWAP3 SWAP2 POP POP JUMP JUMPDEST PUSH0 PUSH0 PUSH0 PUSH1 0x60 DUP5 DUP7 SUB SLT ISZERO PUSH2 0x22F4 JUMPI PUSH2 0x22F3 PUSH2 0x1FFB JUMP JUMPDEST JUMPDEST PUSH0 PUSH2 0x2301 DUP7 DUP3 DUP8 ADD PUSH2 0x2175 JUMP JUMPDEST SWAP4 POP POP PUSH1 0x20 PUSH2 0x2312 DUP7 DUP3 DUP8 ADD PUSH2 0x2175 JUMP JUMPDEST SWAP3 POP POP PUSH1 0x40 PUSH2 0x2323 DUP7 DUP3 DUP8 ADD PUSH2 0x2230 JUMP JUMPDEST SWAP2 POP POP SWAP3 POP SWAP3 POP SWAP3 JUMP JUMPDEST PUSH0 PUSH1 0xFF DUP3 AND SWAP1 POP SWAP2 SWAP1 POP JUMP JUMPDEST PUSH2 0x2342 DUP2 PUSH2 0x232D JUMP JUMPDEST DUP3 MSTORE POP POP JUMP JUMPDEST PUSH0 PUSH1 0x20 DUP3 ADD SWAP1 POP PUSH2 0x235B PUSH0 DUP4 ADD DUP5 PUSH2 0x2339 JUMP JUMPDEST SWAP3 SWAP2 POP POP JUMP JUMPDEST PUSH0 PUSH8 0xFFFFFFFFFFFFFFFF DUP3 GT ISZERO PUSH2 0x237B JUMPI PUSH2 0x237A PUSH2 0x200B JUMP JUMPDEST JUMPDEST PUSH2 0x2384 DUP3 PUSH2 0x1F8A JUMP JUMPDEST SWAP1 POP PUSH1 0x20 DUP2 ADD SWAP1 POP SWAP2 SWAP1 POP JUMP JUMPDEST PUSH0 PUSH2 0x23A3 PUSH2 0x239E DUP5 PUSH2 0x2361 JUMP JUMPDEST PUSH2 0x2069 JUMP JUMPDEST SWAP1 POP DUP3 DUP2 MSTORE PUSH1 0x20 DUP2 ADD DUP5 DUP5 DUP5 ADD GT ISZERO PUSH2 0x23BF JUMPI PUSH2 0x23BE PUSH2 0x2007 JUMP JUMPDEST JUMPDEST PUSH2 0x23CA DUP5 DUP3 DUP6 PUSH2 0x20B3 JUMP JUMPDEST POP SWAP4 SWAP3 POP POP POP JUMP JUMPDEST PUSH0 DUP3 PUSH1 0x1F DUP4 ADD SLT PUSH2 0x23E6 JUMPI PUSH2 0x23E5 PUSH2 0x2003 JUMP JUMPDEST JUMPDEST DUP2 CALLDATALOAD PUSH2 0x23F6 DUP5 DUP3 PUSH1 0x20 DUP7 ADD PUSH2 0x2391 JUMP JUMPDEST SWAP2 POP POP SWAP3 SWAP2 POP POP JUMP JUMPDEST PUSH0 PUSH0 PUSH1 0x40 DUP4 DUP6 SUB SLT ISZERO PUSH2 0x2415 JUMPI PUSH2 0x2414 PUSH2 0x1FFB JUMP JUMPDEST JUMPDEST PUSH0 PUSH2 0x2422 DUP6 DUP3 DUP7 ADD PUSH2 0x2175 JUMP JUMPDEST SWAP3 POP POP PUSH1 0x20 DUP4 ADD CALLDATALOAD PUSH8 0xFFFFFFFFFFFFFFFF DUP2 GT ISZERO PUSH2 0x2443 JUMPI PUSH2 0x2442 PUSH2 0x1FFF JUMP JUMPDEST JUMPDEST PUSH2 0x244F DUP6 DUP3 DUP7 ADD PUSH2 0x23D2 JUMP JUMPDEST SWAP2 POP POP SWAP3 POP SWAP3 SWAP1 POP JUMP JUMPDEST PUSH0 DUP2 SWAP1 POP SWAP2 SWAP1 POP JUMP JUMPDEST PUSH2 0x246B DUP2 PUSH2 0x2459 JUMP JUMPDEST DUP3 MSTORE POP POP JUMP JUMPDEST PUSH0 PUSH1 0x20 DUP3 ADD SWAP1 POP PUSH2 0x2484 PUSH0 DUP4 ADD DUP5 PUSH2 0x2462 JUMP JUMPDEST SWAP3 SWAP2 POP POP JUMP JUMPDEST PUSH0 PUSH1 0x20 DUP3 DUP5 SUB SLT ISZERO PUSH2 0x249F JUMPI PUSH2 0x249E PUSH2 0x1FFB JUMP JUMPDEST JUMPDEST PUSH0 PUSH2 0x24AC DUP5 DUP3 DUP6 ADD PUSH2 0x2175 JUMP JUMPDEST SWAP2 POP POP SWAP3 SWAP2 POP POP JUMP JUMPDEST PUSH2 0x24BE DUP2 PUSH2 0x214E JUMP JUMPDEST DUP3 MSTORE POP POP JUMP JUMPDEST PUSH0 PUSH1 0x20 DUP3 ADD SWAP1 POP PUSH2 0x24D7 PUSH0 DUP4 ADD DUP5 PUSH2 0x24B5 JUMP JUMPDEST SWAP3 SWAP2 POP POP JUMP JUMPDEST PUSH2 0x24E6 DUP2 PUSH2 0x2282 JUMP JUMPDEST DUP2 EQ PUSH2 0x24F0 JUMPI PUSH0 PUSH0 REVERT JUMPDEST POP JUMP JUMPDEST PUSH0 DUP2 CALLDATALOAD SWAP1 POP PUSH2 0x2501 DUP2 PUSH2 0x24DD JUMP JUMPDEST SWAP3 SWAP2 POP POP JUMP JUMPDEST PUSH0 PUSH0 PUSH1 0x40 DUP4 DUP6 SUB SLT ISZERO PUSH2 0x251D JUMPI PUSH2 0x251C PUSH2 0x1FFB JUMP JUMPDEST JUMPDEST PUSH0 PUSH2 0x252A DUP6 DUP3 DUP7 ADD PUSH2 0x2175 JUMP JUMPDEST SWAP3 POP POP PUSH1 0x20 PUSH2 0x253B DUP6 DUP3 DUP7 ADD PUSH2 0x24F3 JUMP JUMPDEST SWAP2 POP POP SWAP3 POP SWAP3 SWAP1 POP JUMP JUMPDEST PUSH0 PUSH0 PUSH1 0x40 DUP4 DUP6 SUB SLT ISZERO PUSH2 0x255B JUMPI PUSH2 0x255A PUSH2 0x1FFB JUMP JUMPDEST JUMPDEST PUSH0 PUSH2 0x2568 DUP6 DUP3 DUP7 ADD PUSH2 0x2175 JUMP JUMPDEST SWAP3 POP POP PUSH1 0x20 PUSH2 0x2579 DUP6 DUP3 DUP7 ADD PUSH2 0x2175 JUMP JUMPDEST SWAP2 POP POP SWAP3 POP SWAP3 SWAP1 POP JUMP JUMPDEST PUSH32 0x4E487B7100000000000000000000000000000000000000000000000000000000 PUSH0 MSTORE PUSH1 0x22 PUSH1 0x4 MSTORE PUSH1 0x24 PUSH0 REVERT JUMPDEST PUSH0 PUSH1 0x2 DUP3 DIV SWAP1 POP PUSH1 0x1 DUP3 AND DUP1 PUSH2 0x25C7 JUMPI PUSH1 0x7F DUP3 AND SWAP2 POP JUMPDEST PUSH1 0x20 DUP3 LT DUP2 SUB PUSH2 0x25DA JUMPI PUSH2 0x25D9 PUSH2 0x2583 JUMP JUMPDEST JUMPDEST POP SWAP2 SWAP1 POP JUMP JUMPDEST PUSH0 DUP2 SWAP1 POP SWAP2 SWAP1 POP JUMP JUMPDEST PUSH0 PUSH8 0xFFFFFFFFFFFFFFFF DUP3 AND SWAP1 POP SWAP2 SWAP1 POP JUMP JUMPDEST PUSH0 DUP2 SWAP1 POP SWAP2 SWAP1 POP JUMP JUMPDEST PUSH0 PUSH2 0x261F PUSH2 0x261A PUSH2 0x2615 DUP5 PUSH2 0x25E0 JUMP JUMPDEST PUSH2 0x25FC JUMP JUMPDEST PUSH2 0x25E9 JUMP JUMPDEST SWAP1 POP SWAP2 SWAP1 POP JUMP JUMPDEST PUSH2 0x262F DUP2 PUSH2 0x2605 JUMP JUMPDEST DUP3 MSTORE POP POP JUMP JUMPDEST PUSH0 PUSH1 0x20 DUP3 ADD SWAP1 POP PUSH2 0x2648 PUSH0 DUP4 ADD DUP5 PUSH2 0x2626 JUMP JUMPDEST SWAP3 SWAP2 POP POP JUMP JUMPDEST PUSH32 0x43616C6C6572206973206E6F742061206D696E74657200000000000000000000 PUSH0 DUP3 ADD MSTORE POP JUMP JUMPDEST PUSH0 PUSH2 0x2682 PUSH1 0x16 DUP4 PUSH2 0x1F52 JUMP JUMPDEST SWAP2 POP PUSH2 0x268D DUP3 PUSH2 0x264E JUMP JUMPDEST PUSH1 0x20 DUP3 ADD SWAP1 POP SWAP2 SWAP1 POP JUMP JUMPDEST PUSH0 PUSH1 0x20 DUP3 ADD SWAP1 POP DUP2 DUP2 SUB PUSH0 DUP4 ADD MSTORE PUSH2 0x26AF DUP2 PUSH2 0x2676 JUMP JUMPDEST SWAP1 POP SWAP2 SWAP1 POP JUMP JUMPDEST PUSH0 PUSH1 0x60 DUP3 ADD SWAP1 POP PUSH2 0x26C9 PUSH0 DUP4 ADD DUP7 PUSH2 0x24B5 JUMP JUMPDEST PUSH2 0x26D6 PUSH1 0x20 DUP4 ADD DUP6 PUSH2 0x22B5 JUMP JUMPDEST PUSH2 0x26E3 PUSH1 0x40 DUP4 ADD DUP5 PUSH2 0x22B5 JUMP JUMPDEST SWAP5 SWAP4 POP POP POP POP JUMP JUMPDEST PUSH2 0x26F4 DUP2 PUSH2 0x2459 JUMP JUMPDEST DUP2 EQ PUSH2 0x26FE JUMPI PUSH0 PUSH0 REVERT JUMPDEST POP JUMP JUMPDEST PUSH0 DUP2 MLOAD SWAP1 POP PUSH2 0x270F DUP2 PUSH2 0x26EB JUMP JUMPDEST SWAP3 SWAP2 POP POP JUMP JUMPDEST PUSH0 PUSH1 0x20 DUP3 DUP5 SUB SLT ISZERO PUSH2 0x272A JUMPI PUSH2 0x2729 PUSH2 0x1FFB JUMP JUMPDEST JUMPDEST PUSH0 PUSH2 0x2737 DUP5 DUP3 DUP6 ADD PUSH2 0x2701 JUMP JUMPDEST SWAP2 POP POP SWAP3 SWAP2 POP POP JUMP JUMPDEST PUSH0 DUP2 SWAP1 POP DUP2 PUSH0 MSTORE PUSH1 0x20 PUSH0 KECCAK256 SWAP1 POP SWAP2 SWAP1 POP JUMP JUMPDEST PUSH0 PUSH1 0x20 PUSH1 0x1F DUP4 ADD DIV SWAP1 POP SWAP2 SWAP1 POP JUMP JUMPDEST PUSH0 DUP3 DUP3 SHL SWAP1 POP SWAP3 SWAP2 POP POP JUMP JUMPDEST PUSH0 PUSH1 0x8 DUP4 MUL PUSH2 0x279C PUSH32 0xFFFFFFFFFFFFFFFFFFFFFFFFFFFFFFFFFFFFFFFFFFFFFFFFFFFFFFFFFFFFFFFF DUP3 PUSH2 0x2761 JUMP JUMPDEST PUSH2 0x27A6 DUP7 DUP4 PUSH2 0x2761 JUMP JUMPDEST SWAP6 POP DUP1 NOT DUP5 AND SWAP4 POP DUP1 DUP7 AND DUP5 OR SWAP3 POP POP POP SWAP4 SWAP3 POP POP POP JUMP JUMPDEST PUSH0 PUSH2 0x27D8 PUSH2 0x27D3 PUSH2 0x27CE DUP5 PUSH2 0x2211 JUMP JUMPDEST PUSH2 0x25FC JUMP JUMPDEST PUSH2 0x2211 JUMP JUMPDEST SWAP1 POP SWAP2 SWAP1 POP JUMP JUMPDEST PUSH0 DUP2 SWAP1 POP SWAP2 SWAP1 POP JUMP JUMPDEST PUSH2 0x27F1 DUP4 PUSH2 0x27BE JUMP JUMPDEST PUSH2 0x2805 PUSH2 0x27FD DUP3 PUSH2 0x27DF JUMP JUMPDEST DUP5 DUP5 SLOAD PUSH2 0x276D JUMP JUMPDEST DUP3 SSTORE POP POP POP POP JUMP JUMPDEST PUSH0 PUSH0 SWAP1 POP SWAP1 JUMP JUMPDEST PUSH2 0x281C PUSH2 0x280D JUMP JUMPDEST PUSH2 0x2827 DUP2 DUP5 DUP5 PUSH2 0x27E8 JUMP JUMPDEST POP POP POP JUMP JUMPDEST PUSH0 JUMPDEST DUP3 DUP2 LT ISZERO PUSH2 0x284D JUMPI PUSH2 0x2842 PUSH0 DUP3 DUP5 ADD PUSH2 0x2814 JUMP JUMPDEST PUSH1 0x1 DUP2 ADD SWAP1 POP PUSH2 0x282E JUMP JUMPDEST POP POP POP JUMP JUMPDEST PUSH1 0x1F DUP3 GT ISZERO PUSH2 0x28A0 JUMPI DUP3 DUP3 GT ISZERO PUSH2 0x289F JUMPI PUSH2 0x286C DUP2 PUSH2 0x2740 JUMP JUMPDEST PUSH2 0x2875 DUP4 PUSH2 0x2752 JUMP JUMPDEST PUSH2 0x287E DUP6 PUSH2 0x2752 JUMP JUMPDEST PUSH1 0x20 DUP7 LT ISZERO PUSH2 0x288B JUMPI PUSH0 SWAP1 POP JUMPDEST DUP1 DUP4 ADD PUSH2 0x289A DUP3 DUP5 SUB DUP3 PUSH2 0x282C JUMP JUMPDEST POP POP POP POP JUMPDEST JUMPDEST POP POP POP JUMP JUMPDEST PUSH0 DUP3 DUP3 SHR SWAP1 POP SWAP3 SWAP2 POP POP JUMP JUMPDEST PUSH0 PUSH2 0x28C0 PUSH0 NOT DUP5 PUSH1 0x8 MUL PUSH2 0x28A5 JUMP JUMPDEST NOT DUP1 DUP4 AND SWAP2 POP POP SWAP3 SWAP2 POP POP JUMP JUMPDEST PUSH0 PUSH2 0x28D8 DUP4 DUP4 PUSH2 0x28B1 JUMP JUMPDEST SWAP2 POP DUP3 PUSH1 0x2 MUL DUP3 OR SWAP1 POP SWAP3 SWAP2 POP POP JUMP JUMPDEST PUSH2 0x28F1 DUP3 PUSH2 0x1F48 JUMP JUMPDEST PUSH8 0xFFFFFFFFFFFFFFFF DUP2 GT ISZERO PUSH2 0x290A JUMPI PUSH2 0x2909 PUSH2 0x200B JUMP JUMPDEST JUMPDEST PUSH2 0x2914 DUP3 SLOAD PUSH2 0x25B0 JUMP JUMPDEST PUSH2 0x291F DUP3 DUP3 DUP6 PUSH2 0x2852 JUMP JUMPDEST PUSH0 PUSH1 0x20 SWAP1 POP PUSH1 0x1F DUP4 GT PUSH1 0x1 DUP2 EQ PUSH2 0x2950 JUMPI PUSH0 DUP5 ISZERO PUSH2 0x293E JUMPI DUP3 DUP8 ADD MLOAD SWAP1 POP JUMPDEST PUSH2 0x2948 DUP6 DUP3 PUSH2 0x28CD JUMP JUMPDEST DUP7 SSTORE POP PUSH2 0x29AF JUMP JUMPDEST PUSH1 0x1F NOT DUP5 AND PUSH2 0x295E DUP7 PUSH2 0x2740 JUMP JUMPDEST PUSH0 JUMPDEST DUP3 DUP2 LT ISZERO PUSH2 0x2985 JUMPI DUP5 DUP10 ADD MLOAD DUP3 SSTORE PUSH1 0x1 DUP3 ADD SWAP2 POP PUSH1 0x20 DUP6 ADD SWAP5 POP PUSH1 0x20 DUP2 ADD SWAP1 POP PUSH2 0x2960 JUMP JUMPDEST DUP7 DUP4 LT ISZERO PUSH2 0x29A2 JUMPI DUP5 DUP10 ADD MLOAD PUSH2 0x299E PUSH1 0x1F DUP10 AND DUP3 PUSH2 0x28B1 JUMP JUMPDEST DUP4 SSTORE POP JUMPDEST PUSH1 0x1 PUSH1 0x2 DUP9 MUL ADD DUP9 SSTORE POP POP POP JUMPDEST POP POP POP POP POP POP JUMP JUMPDEST PUSH32 0x4E487B7100000000000000000000000000000000000000000000000000000000 PUSH0 MSTORE PUSH1 0x11 PUSH1 0x4 MSTORE PUSH1 0x24 PUSH0 REVERT JUMPDEST PUSH0 PUSH2 0x29EE DUP3 PUSH2 0x2211 JUMP JUMPDEST SWAP2 POP PUSH2 0x29F9 DUP4 PUSH2 0x2211 JUMP JUMPDEST SWAP3 POP DUP3 DUP3 ADD SWAP1 POP DUP1 DUP3 GT ISZERO PUSH2 0x2A11 JUMPI PUSH2 0x2A10 PUSH2 0x29B7 JUMP JUMPDEST JUMPDEST SWAP3 SWAP2 POP POP JUMP INVALID LOG2 PUSH5 0x6970667358 0x22 SLT KECCAK256 0xD2 0x2D 0x1F CHAINID CALLDATACOPY JUMPDEST 0xB8 0xED XOR PUSH27 0xEE18E18159EA43818C973AC1324C2028A1620DEFF67F64736F6C63 NUMBER STOP ADDMOD 0x22 STOP CALLER "
				},
				"gasEstimates": {
					"creation": {
						"codeDepositCost": "2165800",
						"executionCost": "infinite",
						"totalCost": "infinite"
					},
					"external": {
						"UPGRADE_INTERFACE_VERSION()": "infinite",
						"allowance(address,address)": "infinite",
						"approve(address,uint256)": "infinite",
						"balanceOf(address)": "3013",
						"burnFromSupply(address,uint256)": "infinite",
						"decimals()": "471",
						"initialize(string,string,address)": "infinite",
						"isMinter(address)": "2965",
						"mintToPool(address,uint256)": "infinite",
						"mintToWallet(address,uint256)": "infinite",
						"name()": "infinite",
						"owner()": "2633",
						"pause()": "infinite",
						"paused()": "2613",
						"proxiableUUID()": "infinite",
						"renounceOwnership()": "infinite",
						"setMinter(address,bool)": "infinite",
						"symbol()": "infinite",
						"totalSupply()": "2574",
						"transfer(address,uint256)": "infinite",
						"transferFrom(address,address,uint256)": "infinite",
						"transferOwnership(address)": "infinite",
						"unpause()": "infinite",
						"upgradeToAndCall(address,bytes)": "infinite"
					},
					"internal": {
						"_authorizeUpgrade(address)": "infinite",
						"_update(address,address,uint256)": "infinite"
					}
				},
				"methodIdentifiers": {
					"UPGRADE_INTERFACE_VERSION()": "ad3cb1cc",
					"allowance(address,address)": "dd62ed3e",
					"approve(address,uint256)": "095ea7b3",
					"balanceOf(address)": "70a08231",
					"burnFromSupply(address,uint256)": "6d625218",
					"decimals()": "313ce567",
					"initialize(string,string,address)": "077f224a",
					"isMinter(address)": "aa271e1a",
					"mintToPool(address,uint256)": "f9a1e8f9",
					"mintToWallet(address,uint256)": "fcb6c263",
					"name()": "06fdde03",
					"owner()": "8da5cb5b",
					"pause()": "8456cb59",
					"paused()": "5c975abb",
					"proxiableUUID()": "52d1902d",
					"renounceOwnership()": "715018a6",
					"setMinter(address,bool)": "cf456ae7",
					"symbol()": "95d89b41",
					"totalSupply()": "18160ddd",
					"transfer(address,uint256)": "a9059cbb",
					"transferFrom(address,address,uint256)": "23b872dd",
					"transferOwnership(address)": "f2fde38b",
					"unpause()": "3f4ba83a",
					"upgradeToAndCall(address,bytes)": "4f1ef286"
				}
			},
			"storageLayout": {
				"storage": [
					{
						"astId": 2801,
						"contract": "masterTemplate.sol:masterTemplate",
						"label": "isMinter",
						"offset": 0,
						"slot": "0",
						"type": "t_mapping(t_address,t_bool)"
					}
				],
				"types": {
					"t_address": {
						"encoding": "inplace",
						"label": "address",
						"numberOfBytes": "20"
					},
					"t_bool": {
						"encoding": "inplace",
						"label": "bool",
						"numberOfBytes": "1"
					},
					"t_mapping(t_address,t_bool)": {
						"encoding": "mapping",
						"key": "t_address",
						"label": "mapping(address => bool)",
						"numberOfBytes": "32",
						"value": "t_bool"
					}
				}
			},
			"userdoc": {
				"kind": "user",
				"methods": {},
				"version": 1
			}
		}
	}
}